{
  "abi": [
    {
      "inputs": [
        {
          "internalType": "address",
          "name": "tokenToStake",
          "type": "address"
        },
        {
          "internalType": "address",
          "name": "treasury",
          "type": "address"
        },
        {
          "internalType": "string",
          "name": "symbol",
          "type": "string"
        }
      ],
      "stateMutability": "nonpayable",
      "type": "constructor"
    },
    {
      "anonymous": false,
      "inputs": [
        {
          "indexed": false,
          "internalType": "uint256",
          "name": "rentAmount",
          "type": "uint256"
        },
        {
          "indexed": false,
          "internalType": "address",
          "name": "token",
          "type": "address"
        }
      ],
      "name": "MonthRentRewardArrived",
      "type": "event"
    },
    {
      "anonymous": false,
      "inputs": [
        {
          "indexed": true,
          "internalType": "address",
          "name": "previousOwner",
          "type": "address"
        },
        {
          "indexed": true,
          "internalType": "address",
          "name": "newOwner",
          "type": "address"
        }
      ],
      "name": "OwnershipTransferred",
      "type": "event"
    },
    {
      "anonymous": false,
      "inputs": [
        {
          "indexed": false,
          "internalType": "address",
          "name": "who",
          "type": "address"
        },
        {
          "indexed": false,
          "internalType": "address",
          "name": "token",
          "type": "address"
        },
        {
          "indexed": false,
          "internalType": "uint256",
          "name": "amount",
          "type": "uint256"
        },
        {
          "indexed": false,
          "internalType": "uint256",
          "name": "timeStamp",
          "type": "uint256"
        }
      ],
      "name": "Staked",
      "type": "event"
    },
    {
      "anonymous": false,
      "inputs": [
        {
          "indexed": false,
          "internalType": "address",
          "name": "who",
          "type": "address"
        },
        {
          "indexed": false,
          "internalType": "address",
          "name": "token",
          "type": "address"
        },
        {
          "indexed": false,
          "internalType": "uint256",
          "name": "amount",
          "type": "uint256"
        },
        {
          "indexed": false,
          "internalType": "uint256",
          "name": "timeStamp",
          "type": "uint256"
        }
      ],
      "name": "unStaked",
      "type": "event"
    },
    {
      "inputs": [
        {
          "internalType": "address",
          "name": "token",
          "type": "address"
        }
      ],
      "name": "beginTimestamp",
      "outputs": [],
      "stateMutability": "nonpayable",
      "type": "function"
    },
    {
      "inputs": [
        {
          "internalType": "address",
          "name": "tokenHolder",
          "type": "address"
        },
        {
          "internalType": "address",
          "name": "token",
          "type": "address"
        }
      ],
      "name": "getStakeInfos",
      "outputs": [
        {
          "components": [
            {
              "internalType": "bool",
              "name": "exist",
              "type": "bool"
            },
            {
              "internalType": "uint64",
              "name": "rank",
              "type": "uint64"
            },
            {
              "internalType": "uint64",
              "name": "lastTimeStamp",
              "type": "uint64"
            },
            {
              "internalType": "uint256",
              "name": "preShare",
              "type": "uint256"
            },
            {
              "internalType": "uint256",
              "name": "amount",
              "type": "uint256"
            },
            {
              "internalType": "uint256",
              "name": "claimableReward",
              "type": "uint256"
            }
          ],
          "internalType": "struct StakeInfos",
          "name": "",
          "type": "tuple"
        }
      ],
      "stateMutability": "view",
      "type": "function"
    },
    {
      "inputs": [
        {
          "internalType": "address",
          "name": "",
          "type": "address"
        }
      ],
      "name": "infoForToken",
      "outputs": [
        {
          "internalType": "bool",
          "name": "exist",
          "type": "bool"
        },
        {
          "internalType": "uint64",
          "name": "monthTimeStamp",
          "type": "uint64"
        },
        {
          "internalType": "string",
          "name": "symbol",
          "type": "string"
        },
        {
          "internalType": "address",
          "name": "treasury",
          "type": "address"
        },
        {
          "internalType": "uint256",
          "name": "max_supply",
          "type": "uint256"
        }
      ],
      "stateMutability": "view",
      "type": "function"
    },
    {
      "inputs": [],
      "name": "owner",
      "outputs": [
        {
          "internalType": "address",
          "name": "",
          "type": "address"
        }
      ],
      "stateMutability": "view",
      "type": "function"
    },
    {
      "inputs": [],
      "name": "renounceOwnership",
      "outputs": [],
      "stateMutability": "nonpayable",
      "type": "function"
    },
    {
      "inputs": [
        {
          "internalType": "address",
          "name": "token",
          "type": "address"
        },
        {
          "internalType": "address",
          "name": "staker",
          "type": "address"
        }
      ],
      "name": "resetClaimableReward",
      "outputs": [],
      "stateMutability": "nonpayable",
      "type": "function"
    },
    {
      "inputs": [
        {
          "internalType": "uint256",
          "name": "totalReward",
          "type": "uint256"
        },
        {
          "internalType": "address",
          "name": "token",
          "type": "address"
        }
      ],
      "name": "setTotalClaimableReward",
      "outputs": [
        {
          "internalType": "uint256",
          "name": "",
          "type": "uint256"
        }
      ],
      "stateMutability": "nonpayable",
      "type": "function"
    },
    {
      "inputs": [
        {
          "internalType": "address",
          "name": "token",
          "type": "address"
        },
        {
          "internalType": "uint256",
          "name": "_amount",
          "type": "uint256"
        },
        {
          "internalType": "uint256",
          "name": "deadline",
          "type": "uint256"
        },
        {
          "internalType": "uint8",
          "name": "v",
          "type": "uint8"
        },
        {
          "internalType": "bytes32",
          "name": "r",
          "type": "bytes32"
        },
        {
          "internalType": "bytes32",
          "name": "s",
          "type": "bytes32"
        }
      ],
      "name": "stake",
      "outputs": [],
      "stateMutability": "nonpayable",
      "type": "function"
    },
    {
      "inputs": [
        {
          "internalType": "address",
          "name": "",
          "type": "address"
        },
        {
          "internalType": "address",
          "name": "",
          "type": "address"
        }
      ],
      "name": "stakeOfTokenByOwner",
      "outputs": [
        {
          "internalType": "bool",
          "name": "exist",
          "type": "bool"
        },
        {
          "internalType": "uint64",
          "name": "rank",
          "type": "uint64"
        },
        {
          "internalType": "uint64",
          "name": "lastTimeStamp",
          "type": "uint64"
        },
        {
          "internalType": "uint256",
          "name": "preShare",
          "type": "uint256"
        },
        {
          "internalType": "uint256",
          "name": "amount",
          "type": "uint256"
        },
        {
          "internalType": "uint256",
          "name": "claimableReward",
          "type": "uint256"
        }
      ],
      "stateMutability": "view",
      "type": "function"
    },
    {
      "inputs": [
        {
          "internalType": "address",
          "name": "",
          "type": "address"
        },
        {
          "internalType": "uint256",
          "name": "",
          "type": "uint256"
        }
      ],
      "name": "stakersBytoken",
      "outputs": [
        {
          "internalType": "address",
          "name": "",
          "type": "address"
        }
      ],
      "stateMutability": "view",
      "type": "function"
    },
    {
      "inputs": [
        {
          "internalType": "address",
          "name": "newOwner",
          "type": "address"
        }
      ],
      "name": "transferOwnership",
      "outputs": [],
      "stateMutability": "nonpayable",
      "type": "function"
    },
    {
      "inputs": [
        {
          "internalType": "uint256",
          "name": "_amount",
          "type": "uint256"
        },
        {
          "internalType": "address",
          "name": "token",
          "type": "address"
        }
      ],
      "name": "unStake",
      "outputs": [],
      "stateMutability": "nonpayable",
      "type": "function"
    }
  ],
  "bytecode": {
    "object": "0x60806040523480156200001157600080fd5b5060405162001915380380620019158339810160408190526200003491620002b6565b6200003f336200018d565b600180819055506040518060a0016040528060011515815260200160006001600160401b03168152602001828152602001836001600160a01b03168152602001846001600160a01b03166332cb6b0c6040518163ffffffff1660e01b8152600401602060405180830381865afa158015620000be573d6000803e3d6000fd5b505050506040513d601f19601f82011682018060405250810190620000e49190620003ba565b90526001600160a01b03841660009081526003602090815260409182902083518154858401516001600160401b031661010002610100600160481b0319921515929092166001600160481b031990911617178155918301518051620001509260018501920190620001dd565b5060608201516002820180546001600160a01b0319166001600160a01b039092169190911790556080909101516003909101555062000410915050565b600080546001600160a01b038381166001600160a01b0319831681178455604051919092169283917f8be0079c531659141344cd1fd0a4f28419497f9722a3daafe3b4186f6b6457e09190a35050565b828054620001eb90620003d4565b90600052602060002090601f0160209004810192826200020f57600085556200025a565b82601f106200022a57805160ff19168380011785556200025a565b828001600101855582156200025a579182015b828111156200025a5782518255916020019190600101906200023d565b50620002689291506200026c565b5090565b5b808211156200026857600081556001016200026d565b80516001600160a01b03811681146200029b57600080fd5b919050565b634e487b7160e01b600052604160045260246000fd5b600080600060608486031215620002cc57600080fd5b620002d78462000283565b92506020620002e881860162000283565b60408601519093506001600160401b03808211156200030657600080fd5b818701915087601f8301126200031b57600080fd5b815181811115620003305762000330620002a0565b604051601f8201601f19908116603f011681019083821181831017156200035b576200035b620002a0565b816040528281528a868487010111156200037457600080fd5b600093505b8284101562000398578484018601518185018701529285019262000379565b82841115620003aa5760008684830101525b8096505050505050509250925092565b600060208284031215620003cd57600080fd5b5051919050565b600181811c90821680620003e957607f821691505b6020821081036200040a57634e487b7160e01b600052602260045260246000fd5b50919050565b6114f580620004206000396000f3fe608060405234801561001057600080fd5b50600436106100b45760003560e01c8063a3e5399e11610071578063a3e5399e146101a8578063b7f204e2146101bb578063b8847c1d146101ce578063cbb98ebf14610265578063dd8fdfd414610289578063f2fde38b1461029c57600080fd5b80632f669b0c146100b957806332573e7f146101325780636c217a0214610153578063715018a61461016857806385a63e2d146101705780638da5cb5b14610183575b600080fd5b6100cc6100c73660046110f8565b6102af565b6040516101299190600060c08201905082511515825260208301516001600160401b0380821660208501528060408601511660408501525050606083015160608301526080830151608083015260a083015160a083015292915050565b60405180910390f35b61014561014036600461112b565b61033d565b604051908152602001610129565b61016661016136600461112b565b6106fb565b005b61016661099e565b61016661017e36600461114e565b6109b2565b6000546001600160a01b03165b6040516001600160a01b039091168152602001610129565b6101666101b6366004611170565b6109f2565b6101666101c93660046110f8565b610d75565b61022a6101dc3660046110f8565b60026020818152600093845260408085209091529183529120805460018201549282015460039092015460ff8216936001600160401b036101008404811694600160481b9094041692909186565b6040805196151587526001600160401b03958616602088015293909416928501929092526060840152608083015260a082015260c001610129565b61027861027336600461114e565b610dd0565b6040516101299594939291906111d0565b61019061029736600461125d565b610e9f565b6101666102aa36600461114e565b610ed7565b6102b7611092565b506001600160a01b038082166000908152600260208181526040808420948716845293815291839020835160c081018552815460ff8116151582526001600160401b036101008204811695830195909552600160481b90049093169383019390935260018301546060830152820154608082015260039091015460a08201525b92915050565b600060026001540361036a5760405162461bcd60e51b815260040161036190611287565b60405180910390fd5b600260018190556001600160a01b03838116600090815260036020526040902090910154839116331461039c57600080fd5b836103a5611092565b6001600160a01b03851660009081526004602090815260408083208054825181850281018501909352808352919290919083018282801561040f57602002820191906000526020600020905b81546001600160a01b031681526001909101906020018083116103f1575b5050505050905060004290506000876001600160a01b03166332cb6b0c6040518163ffffffff1660e01b8152600401602060405180830381865afa15801561045b573d6000803e3d6000fd5b505050506040513d601f19601f8201168201806040525081019061047f91906112be565b6001600160a01b0389166000908152600360205260409020546104b09061010090046001600160401b0316846112ed565b6104ba9190611304565b905060005b8351811015610677576001600160a01b0389166000908152600260205260408120855161057e928692918890869081106104fb576104fb611323565b6020908102919091018101516001600160a01b03168252818101929092526040908101600020815160c081018352815460ff8116151582526001600160401b036101008204811695830195909552600160481b90049093169183019190915260018101546060830152600281015460808301526003015460a0820152848d610f50565b945084608001518661059091906112ed565b955084600260008b6001600160a01b03166001600160a01b0316815260200190815260200160002060008684815181106105cc576105cc611323565b6020908102919091018101516001600160a01b0316825281810192909252604090810160002083518154938501519285015168ffffffffffffffffff1990941690151568ffffffffffffffff001916176101006001600160401b03938416021767ffffffffffffffff60481b1916600160481b929093169190910291909117815560608201516001808301919091556080830151600283015560a090920151600390910155016104bf565b506001600160a01b038816600081815260036020908152604091829020805468ffffffffffffffff0019166101006001600160401b0388160217905581518c8152908101929092527f998832094459e1400ef841d671d7cd62408d006e38cafb8aaa262fce4ec8b476910160405180910390a1505060018055509095945050505050565b60026001540361071d5760405162461bcd60e51b815260040161036190611287565b600260018181556001600160a01b038316600090815260208381526040808320338452825291829020825160c081018452815460ff8116151582526001600160401b036101008204811694830194909452600160481b900490921692820192909252918101546060830152918201546080820181905260039092015460a0820152908311156107ee5760405162461bcd60e51b815260206004820152601760248201527f43616e277420756e7374616b652074686973206d7563680000000000000000006044820152606401610361565b60808101516040820151429161080d916001600160401b031683610fca565b60608301526001600160401b03811660408301526080820180518591906108359083906112ed565b90525060405163a9059cbb60e01b8152336004820152602481018590526001600160a01b0384169063a9059cbb906044016020604051808303816000875af1158015610885573d6000803e3d6000fd5b505050506040513d601f19601f820116820180604052508101906108a99190611339565b506001600160a01b0383166000818152600260208181526040808420338086529083529381902087518154898501518a85015168ffffffffffffffffff1990921692151568ffffffffffffffff001916929092176101006001600160401b03938416021767ffffffffffffffff60481b1916600160481b929091169190910217815560608089015160018301556080808a01519583019590955560a08901516003909201919091558151948552918401949094529282018790529181018390527f2c827a0aafe09c76f0994e1d274a16a6c0076e150f1afc792c4ed18bba8f52f8910160405180910390a15050600180555050565b6109a6610fe8565b6109b06000611042565b565b6109ba610fe8565b6001600160a01b03166000908152600360205260409020805468ffffffffffffffff001916610100426001600160401b031602179055565b600260015403610a145760405162461bcd60e51b815260040161036190611287565b6002600181905550856001600160a01b031663313ce5676040518163ffffffff1660e01b8152600401602060405180830381865afa158015610a5a573d6000803e3d6000fd5b505050506040513d601f19601f82011682018060405250810190610a7e91906112be565b610a8990600a61143f565b8511610ae35760405162461bcd60e51b815260206004820152602360248201527f596f75206861766520746f207374616b65206174206c6561737420312070546f60448201526235b2b760e91b6064820152608401610361565b60405162aa3a7160e11b8152336004820152306024820152604481018690526064810185905260ff8416608482015260a4810183905260c481018290526001600160a01b0387169063015474e29060e401600060405180830381600087803b158015610b4e57600080fd5b505af1158015610b62573d6000803e3d6000fd5b5050506001600160a01b03871660009081526002602081815260408084203385528252808420815160c081018352815460ff8116151582526001600160401b0361010082048116958301869052600160481b90910416928101929092526001810154606083015292830154608082015260039092015460a08301529092509003610c33576001600160a01b0387166000818152600460209081526040822080546001810182558184528284200180546001600160a01b031916331790559290915290546001600160401b0316908201525b608081015160408201514291610c52916001600160401b031683610fca565b60608301526001600160401b0381166040830152608082018051889190610c7a90839061144b565b9052506001600160a01b0388166000818152600260208181526040808420338086529083529381902087518154898501518a85015168ffffffffffffffffff1990921692151568ffffffffffffffff001916929092176101006001600160401b03938416021767ffffffffffffffff60481b1916600160481b929091169190910217815560608089015160018301556080808a01519583019590955560a08901516003909201919091558151948552918401949094529282018a90529181018390527f6c86f3fd5118b3aa8bb4f389a617046de0a3d3d477de1a1673d227f802f616dc910160405180910390a1505060018055505050505050565b6001600160a01b038281166000908152600360205260409020600201548391163314610da057600080fd5b506001600160a01b0391821660009081526002602090815260408083209390941682529190915290812060030155565b6003602052600090815260409020805460018201805460ff8316936101009093046001600160401b0316929190610e0690611463565b80601f0160208091040260200160405190810160405280929190818152602001828054610e3290611463565b8015610e7f5780601f10610e5457610100808354040283529160200191610e7f565b820191906000526020600020905b815481529060010190602001808311610e6257829003601f168201915b50505050600283015460039093015491926001600160a01b031691905085565b60046020528160005260406000208181548110610ebb57600080fd5b6000918252602090912001546001600160a01b03169150829050565b610edf610fe8565b6001600160a01b038116610f445760405162461bcd60e51b815260206004820152602660248201527f4f776e61626c653a206e6577206f776e657220697320746865207a65726f206160448201526564647265737360d01b6064820152608401610361565b610f4d81611042565b50565b610f58611092565b82610f75856080015186604001516001600160401b031688610fca565b8560600151610f84919061144b565b610f8e9084611304565b610f98919061149d565b8460a001818151610fa9919061144b565b9052505050506001600160401b039190911660408201526000606082015290565b6000610fd683836112ed565b610fe09085611304565b949350505050565b6000546001600160a01b031633146109b05760405162461bcd60e51b815260206004820181905260248201527f4f776e61626c653a2063616c6c6572206973206e6f7420746865206f776e65726044820152606401610361565b600080546001600160a01b038381166001600160a01b0319831681178455604051919092169283917f8be0079c531659141344cd1fd0a4f28419497f9722a3daafe3b4186f6b6457e09190a35050565b6040518060c0016040528060001515815260200160006001600160401b0316815260200160006001600160401b031681526020016000815260200160008152602001600081525090565b80356001600160a01b03811681146110f357600080fd5b919050565b6000806040838503121561110b57600080fd5b611114836110dc565b9150611122602084016110dc565b90509250929050565b6000806040838503121561113e57600080fd5b82359150611122602084016110dc565b60006020828403121561116057600080fd5b611169826110dc565b9392505050565b60008060008060008060c0878903121561118957600080fd5b611192876110dc565b95506020870135945060408701359350606087013560ff811681146111b657600080fd5b9598949750929560808101359460a0909101359350915050565b8515158152600060206001600160401b0387168184015260a0604084015285518060a085015260005b818110156112155787810183015185820160c0015282016111f9565b8181111561122757600060c083870101525b50601f01601f1916830160c001915061124d905060608301856001600160a01b03169052565b8260808301529695505050505050565b6000806040838503121561127057600080fd5b611279836110dc565b946020939093013593505050565b6020808252601f908201527f5265656e7472616e637947756172643a207265656e7472616e742063616c6c00604082015260600190565b6000602082840312156112d057600080fd5b5051919050565b634e487b7160e01b600052601160045260246000fd5b6000828210156112ff576112ff6112d7565b500390565b600081600019048311821515161561131e5761131e6112d7565b500290565b634e487b7160e01b600052603260045260246000fd5b60006020828403121561134b57600080fd5b8151801515811461116957600080fd5b600181815b8085111561139657816000190482111561137c5761137c6112d7565b8085161561138957918102915b93841c9390800290611360565b509250929050565b6000826113ad57506001610337565b816113ba57506000610337565b81600181146113d057600281146113da576113f6565b6001915050610337565b60ff8411156113eb576113eb6112d7565b50506001821b610337565b5060208310610133831016604e8410600b8410161715611419575081810a610337565b611423838361135b565b8060001904821115611437576114376112d7565b029392505050565b6000611169838361139e565b6000821982111561145e5761145e6112d7565b500190565b600181811c9082168061147757607f821691505b60208210810361149757634e487b7160e01b600052602260045260246000fd5b50919050565b6000826114ba57634e487b7160e01b600052601260045260246000fd5b50049056fea26469706673582212201c5e3d533a2d1b595d27aa0aabb311962a2ee104724fb44c219fdcb394cd59ad64736f6c634300080e0033",
    "linkReferences": {}
  },
  "methodIdentifiers": {
    "beginTimestamp(address)": "85a63e2d",
    "getStakeInfos(address,address)": "2f669b0c",
    "infoForToken(address)": "cbb98ebf",
    "owner()": "8da5cb5b",
    "renounceOwnership()": "715018a6",
    "resetClaimableReward(address,address)": "b7f204e2",
    "setTotalClaimableReward(uint256,address)": "32573e7f",
    "stake(address,uint256,uint256,uint8,bytes32,bytes32)": "a3e5399e",
    "stakeOfTokenByOwner(address,address)": "b8847c1d",
    "stakersBytoken(address,uint256)": "dd8fdfd4",
    "transferOwnership(address)": "f2fde38b",
    "unStake(uint256,address)": "6c217a02"
  },
  "id": 19
}