{
  "abi": [
    {
      "inputs": [
        {
          "internalType": "address",
          "name": "tokenToStake",
          "type": "address"
        },
        {
          "internalType": "address",
          "name": "treasury",
          "type": "address"
        },
        {
          "internalType": "string",
          "name": "symbol",
          "type": "string"
        },
        {
          "internalType": "address[]",
          "name": "mem",
          "type": "address[]"
        }
      ],
      "stateMutability": "nonpayable",
      "type": "constructor"
    },
    {
      "anonymous": false,
      "inputs": [
        {
          "indexed": false,
          "internalType": "uint256",
          "name": "rentAmount",
          "type": "uint256"
        },
        {
          "indexed": false,
          "internalType": "address",
          "name": "token",
          "type": "address"
        }
      ],
      "name": "MonthRentRewardArrived",
      "type": "event"
    },
    {
      "anonymous": false,
      "inputs": [
        {
          "indexed": true,
          "internalType": "address",
          "name": "previousOwner",
          "type": "address"
        },
        {
          "indexed": true,
          "internalType": "address",
          "name": "newOwner",
          "type": "address"
        }
      ],
      "name": "OwnershipTransferred",
      "type": "event"
    },
    {
      "anonymous": false,
      "inputs": [
        {
          "indexed": false,
          "internalType": "address",
          "name": "who",
          "type": "address"
        },
        {
          "indexed": false,
          "internalType": "address",
          "name": "token",
          "type": "address"
        },
        {
          "indexed": false,
          "internalType": "uint256",
          "name": "amount",
          "type": "uint256"
        },
        {
          "indexed": false,
          "internalType": "uint256",
          "name": "timeStamp",
          "type": "uint256"
        }
      ],
      "name": "Staked",
      "type": "event"
    },
    {
      "anonymous": false,
      "inputs": [
        {
          "indexed": false,
          "internalType": "address",
          "name": "who",
          "type": "address"
        },
        {
          "indexed": false,
          "internalType": "address",
          "name": "token",
          "type": "address"
        },
        {
          "indexed": false,
          "internalType": "uint256",
          "name": "amount",
          "type": "uint256"
        },
        {
          "indexed": false,
          "internalType": "uint256",
          "name": "timeStamp",
          "type": "uint256"
        }
      ],
      "name": "unStaked",
      "type": "event"
    },
    {
      "inputs": [],
      "name": "beginTimestamp",
      "outputs": [],
      "stateMutability": "nonpayable",
      "type": "function"
    },
    {
      "inputs": [
        {
          "internalType": "address",
          "name": "tokenHolder",
          "type": "address"
        },
        {
          "internalType": "address",
          "name": "token",
          "type": "address"
        }
      ],
      "name": "getStakeInfo",
      "outputs": [
        {
          "components": [
            {
              "internalType": "bool",
              "name": "exist",
              "type": "bool"
            },
            {
              "internalType": "uint64",
              "name": "rank",
              "type": "uint64"
            },
            {
              "internalType": "uint64",
              "name": "lastTimeStamp",
              "type": "uint64"
            },
            {
              "internalType": "uint256",
              "name": "preShare",
              "type": "uint256"
            },
            {
              "internalType": "uint256",
              "name": "amount",
              "type": "uint256"
            },
            {
              "internalType": "uint256",
              "name": "claimableReward",
              "type": "uint256"
            }
          ],
          "internalType": "struct StakeInfo",
          "name": "",
          "type": "tuple"
        }
      ],
      "stateMutability": "view",
      "type": "function"
    },
    {
      "inputs": [
        {
          "internalType": "address",
          "name": "",
          "type": "address"
        }
      ],
      "name": "infoForToken",
      "outputs": [
        {
          "internalType": "bool",
          "name": "exist",
          "type": "bool"
        },
        {
          "internalType": "string",
          "name": "symbol",
          "type": "string"
        },
        {
          "internalType": "address",
          "name": "treasury",
          "type": "address"
        },
        {
          "internalType": "uint256",
          "name": "max_supply",
          "type": "uint256"
        }
      ],
      "stateMutability": "view",
      "type": "function"
    },
    {
      "inputs": [],
      "name": "monthTimeStamp",
      "outputs": [
        {
          "internalType": "uint256",
          "name": "",
          "type": "uint256"
        }
      ],
      "stateMutability": "view",
      "type": "function"
    },
    {
      "inputs": [],
      "name": "owner",
      "outputs": [
        {
          "internalType": "address",
          "name": "",
          "type": "address"
        }
      ],
      "stateMutability": "view",
      "type": "function"
    },
    {
      "inputs": [],
      "name": "renounceOwnership",
      "outputs": [],
      "stateMutability": "nonpayable",
      "type": "function"
    },
    {
      "inputs": [
        {
          "internalType": "address",
          "name": "token",
          "type": "address"
        },
        {
          "internalType": "address",
          "name": "staker",
          "type": "address"
        }
      ],
      "name": "resetClaimableReward",
      "outputs": [],
      "stateMutability": "nonpayable",
      "type": "function"
    },
    {
      "inputs": [
        {
          "internalType": "uint256",
          "name": "totalReward",
          "type": "uint256"
        },
        {
          "internalType": "address",
          "name": "token",
          "type": "address"
        }
      ],
      "name": "setTotalClaimableReward",
      "outputs": [
        {
          "internalType": "uint256",
          "name": "",
          "type": "uint256"
        }
      ],
      "stateMutability": "nonpayable",
      "type": "function"
    },
    {
      "inputs": [
        {
          "internalType": "address",
          "name": "token",
          "type": "address"
        },
        {
          "internalType": "uint256",
          "name": "_amount",
          "type": "uint256"
        },
        {
          "internalType": "uint256",
          "name": "deadline",
          "type": "uint256"
        },
        {
          "internalType": "uint8",
          "name": "v",
          "type": "uint8"
        },
        {
          "internalType": "bytes32",
          "name": "r",
          "type": "bytes32"
        },
        {
          "internalType": "bytes32",
          "name": "s",
          "type": "bytes32"
        }
      ],
      "name": "stake",
      "outputs": [],
      "stateMutability": "nonpayable",
      "type": "function"
    },
    {
      "inputs": [
        {
          "internalType": "address",
          "name": "",
          "type": "address"
        },
        {
          "internalType": "address",
          "name": "",
          "type": "address"
        }
      ],
      "name": "stakeOfTokenByOwner",
      "outputs": [
        {
          "internalType": "bool",
          "name": "exist",
          "type": "bool"
        },
        {
          "internalType": "uint64",
          "name": "rank",
          "type": "uint64"
        },
        {
          "internalType": "uint64",
          "name": "lastTimeStamp",
          "type": "uint64"
        },
        {
          "internalType": "uint256",
          "name": "preShare",
          "type": "uint256"
        },
        {
          "internalType": "uint256",
          "name": "amount",
          "type": "uint256"
        },
        {
          "internalType": "uint256",
          "name": "claimableReward",
          "type": "uint256"
        }
      ],
      "stateMutability": "view",
      "type": "function"
    },
    {
      "inputs": [
        {
          "internalType": "address",
          "name": "newOwner",
          "type": "address"
        }
      ],
      "name": "transferOwnership",
      "outputs": [],
      "stateMutability": "nonpayable",
      "type": "function"
    },
    {
      "inputs": [
        {
          "internalType": "uint256",
          "name": "_amount",
          "type": "uint256"
        },
        {
          "internalType": "address",
          "name": "token",
          "type": "address"
        }
      ],
      "name": "unStake",
      "outputs": [],
      "stateMutability": "nonpayable",
      "type": "function"
    }
  ],
  "bytecode": {
    "object": "0x60806040523480156200001157600080fd5b5060405162001995380380620019958339810160408190526200003491620003c0565b6200003f336200017b565b600180819055506040518060a00160405280600115158152602001838152602001846001600160a01b03168152602001856001600160a01b03166332cb6b0c6040518163ffffffff1660e01b8152600401602060405180830381865afa158015620000ae573d6000803e3d6000fd5b505050506040513d601f19601f82011682018060405250810190620000d49190620004cc565b815260209081018390526001600160a01b038616600090815260038252604090208251815460ff191690151517815582820151805191926200011f92600185019290910190620001cb565b5060408201516002820180546001600160a01b0319166001600160a01b0390921691909117905560608201516003820155608082015180516200016d9160048401916020909101906200025a565b509050505050505062000522565b600080546001600160a01b038381166001600160a01b0319831681178455604051919092169283917f8be0079c531659141344cd1fd0a4f28419497f9722a3daafe3b4186f6b6457e09190a35050565b828054620001d990620004e6565b90600052602060002090601f016020900481019282620001fd576000855562000248565b82601f106200021857805160ff191683800117855562000248565b8280016001018555821562000248579182015b82811115620002485782518255916020019190600101906200022b565b5062000256929150620002b2565b5090565b82805482825590600052602060002090810192821562000248579160200282015b828111156200024857825182546001600160a01b0319166001600160a01b039091161782556020909201916001909101906200027b565b5b80821115620002565760008155600101620002b3565b80516001600160a01b0381168114620002e157600080fd5b919050565b634e487b7160e01b600052604160045260246000fd5b604051601f8201601f191681016001600160401b0381118282101715620003275762000327620002e6565b604052919050565b600082601f8301126200034157600080fd5b815160206001600160401b038211156200035f576200035f620002e6565b8160051b62000370828201620002fc565b92835284810182019282810190878511156200038b57600080fd5b83870192505b84831015620003b557620003a583620002c9565b8252918301919083019062000391565b979650505050505050565b60008060008060808587031215620003d757600080fd5b620003e285620002c9565b93506020620003f3818701620002c9565b60408701519094506001600160401b03808211156200041157600080fd5b818801915088601f8301126200042657600080fd5b8151818111156200043b576200043b620002e6565b6200044f601f8201601f19168501620002fc565b8181528a858386010111156200046457600080fd5b60005b828110156200048457848101860151828201870152850162000467565b82811115620004965760008684840101525b5060608a015190965093505080831115620004b057600080fd5b5050620004c0878288016200032f565b91505092959194509250565b600060208284031215620004df57600080fd5b5051919050565b600181811c90821680620004fb57607f821691505b6020821081036200051c57634e487b7160e01b600052602260045260246000fd5b50919050565b61146380620005326000396000f3fe608060405234801561001057600080fd5b50600436106100b45760003560e01c8063a3e5399e11610071578063a3e5399e14610128578063b7f204e21461013b578063b8847c1d1461014e578063cbb98ebf146101e5578063d77c8f1414610208578063f2fde38b1461027857600080fd5b806332573e7f146100b9578063672a0fb8146100df5780636c217a02146100e9578063715018a6146100fc5780638da5cb5b14610104578063a239882a1461011f575b600080fd5b6100cc6100c736600461105d565b61028b565b6040519081526020015b60405180910390f35b6100e76105fc565b005b6100e76100f736600461105d565b61060a565b6100e76108ad565b6000546040516001600160a01b0390911681526020016100d6565b6100cc60045481565b6100e7610136366004611089565b6108c1565b6100e76101493660046110e9565b610c94565b6101aa61015c3660046110e9565b60026020818152600093845260408085209091529183529120805460018201549282015460039092015460ff8216936001600160401b036101008404811694600160481b9094041692909186565b6040805196151587526001600160401b03958616602088015293909416928501929092526060840152608083015260a082015260c0016100d6565b6101f86101f3366004611113565b610cef565b6040516100d69493929190611135565b61021b6102163660046110e9565b610dae565b6040516100d69190600060c08201905082511515825260208301516001600160401b0380821660208501528060408601511660408501525050606083015160608301526080830151608083015260a083015160a083015292915050565b6100e7610286366004611113565b610e3c565b60006002600154036102b85760405162461bcd60e51b81526004016102af906111b2565b60405180910390fd5b600260018190556001600160a01b0383811660009081526003602052604090209091015483911633146102ea57600080fd5b836102f3610ff7565b6001600160a01b03851660009081526003602090815260408083206004018054825181850281018501909352808352919290919083018282801561036057602002820191906000526020600020905b81546001600160a01b03168152600190910190602001808311610342575b5050505050905060004290506000876001600160a01b03166332cb6b0c6040518163ffffffff1660e01b8152600401602060405180830381865afa1580156103ac573d6000803e3d6000fd5b505050506040513d601f19601f820116820180604052508101906103d091906111e9565b6004546103dd9084611218565b6103e7919061122f565b905060005b83518110156105a4576001600160a01b038916600090815260026020526040812085516104ab928692918890869081106104285761042861124e565b6020908102919091018101516001600160a01b03168252818101929092526040908101600020815160c081018352815460ff8116151582526001600160401b036101008204811695830195909552600160481b90049093169183019190915260018101546060830152600281015460808301526003015460a0820152848d610eb5565b94508460800151866104bd9190611218565b955084600260008b6001600160a01b03166001600160a01b0316815260200190815260200160002060008684815181106104f9576104f961124e565b6020908102919091018101516001600160a01b0316825281810192909252604090810160002083518154938501519285015168ffffffffffffffffff1990941690151568ffffffffffffffff001916176101006001600160401b03938416021767ffffffffffffffff60481b1916600160481b929093169190910291909117815560608201516001808301919091556080830151600283015560a090920151600390910155016103ec565b506004829055604080518a81526001600160a01b038a1660208201527f998832094459e1400ef841d671d7cd62408d006e38cafb8aaa262fce4ec8b476910160405180910390a1505060018055509095945050505050565b610604610f2f565b42600455565b60026001540361062c5760405162461bcd60e51b81526004016102af906111b2565b600260018181556001600160a01b038316600090815260208381526040808320338452825291829020825160c081018452815460ff8116151582526001600160401b036101008204811694830194909452600160481b900490921692820192909252918101546060830152918201546080820181905260039092015460a0820152908311156106fd5760405162461bcd60e51b815260206004820152601760248201527f43616e277420756e7374616b652074686973206d75636800000000000000000060448201526064016102af565b60808101516040820151429161071c916001600160401b031683610f89565b60608301526001600160401b0381166040830152608082018051859190610744908390611218565b90525060405163a9059cbb60e01b8152336004820152602481018590526001600160a01b0384169063a9059cbb906044016020604051808303816000875af1158015610794573d6000803e3d6000fd5b505050506040513d601f19601f820116820180604052508101906107b89190611264565b506001600160a01b0383166000818152600260208181526040808420338086529083529381902087518154898501518a85015168ffffffffffffffffff1990921692151568ffffffffffffffff001916929092176101006001600160401b03938416021767ffffffffffffffff60481b1916600160481b929091169190910217815560608089015160018301556080808a01519583019590955560a08901516003909201919091558151948552918401949094529282018790529181018390527f2c827a0aafe09c76f0994e1d274a16a6c0076e150f1afc792c4ed18bba8f52f8910160405180910390a15050600180555050565b6108b5610f2f565b6108bf6000610fa7565b565b6002600154036108e35760405162461bcd60e51b81526004016102af906111b2565b6002600181905550856001600160a01b031663313ce5676040518163ffffffff1660e01b81526004016020604051808303816000875af115801561092b573d6000803e3d6000fd5b505050506040513d601f19601f8201168201806040525081019061094f91906111e9565b61095a90600a61136a565b85116109785760405162461bcd60e51b81526004016102af90611376565b6040516370a0823160e01b81523360048201526001600160a01b038716906370a0823190602401602060405180830381865afa1580156109bc573d6000803e3d6000fd5b505050506040513d601f19601f820116820180604052508101906109e091906111e9565b8511156109ff5760405162461bcd60e51b81526004016102af90611376565b60405162aa3a7160e11b8152336004820152306024820152604481018690526064810185905260ff8416608482015260a4810183905260c481018290526001600160a01b0387169063015474e29060e401600060405180830381600087803b158015610a6a57600080fd5b505af1158015610a7e573d6000803e3d6000fd5b5050506001600160a01b03871660009081526002602081815260408084203385528252808420815160c081018352815460ff8116151582526001600160401b0361010082048116958301869052600160481b90910416928101929092526001810154606083015292830154608082015260039092015460a08301529092509003610b52576001600160a01b0387166000818152600360209081526040822060040180546001810182558184528284200180546001600160a01b031916331790559290915290546001600160401b0316908201525b608081015160408201514291610b71916001600160401b031683610f89565b60608301526001600160401b0381166040830152608082018051889190610b999083906113b9565b9052506001600160a01b0388166000818152600260208181526040808420338086529083529381902087518154898501518a85015168ffffffffffffffffff1990921692151568ffffffffffffffff001916929092176101006001600160401b03938416021767ffffffffffffffff60481b1916600160481b929091169190910217815560608089015160018301556080808a01519583019590955560a08901516003909201919091558151948552918401949094529282018a90529181018390527f6c86f3fd5118b3aa8bb4f389a617046de0a3d3d477de1a1673d227f802f616dc910160405180910390a1505060018055505050505050565b6001600160a01b038281166000908152600360205260409020600201548391163314610cbf57600080fd5b506001600160a01b0391821660009081526002602090815260408083209390941682529190915290812060030155565b6003602052600090815260409020805460018201805460ff9092169291610d15906113d1565b80601f0160208091040260200160405190810160405280929190818152602001828054610d41906113d1565b8015610d8e5780601f10610d6357610100808354040283529160200191610d8e565b820191906000526020600020905b815481529060010190602001808311610d7157829003601f168201915b50505050600283015460039093015491926001600160a01b031691905084565b610db6610ff7565b506001600160a01b038082166000908152600260208181526040808420948716845293815291839020835160c081018552815460ff8116151582526001600160401b036101008204811695830195909552600160481b90049093169383019390935260018301546060830152820154608082015260039091015460a08201525b92915050565b610e44610f2f565b6001600160a01b038116610ea95760405162461bcd60e51b815260206004820152602660248201527f4f776e61626c653a206e6577206f776e657220697320746865207a65726f206160448201526564647265737360d01b60648201526084016102af565b610eb281610fa7565b50565b610ebd610ff7565b82610eda856080015186604001516001600160401b031688610f89565b8560600151610ee991906113b9565b610ef3908461122f565b610efd919061140b565b8460a001818151610f0e91906113b9565b9052505050506001600160401b039190911660408201526000606082015290565b6000546001600160a01b031633146108bf5760405162461bcd60e51b815260206004820181905260248201527f4f776e61626c653a2063616c6c6572206973206e6f7420746865206f776e657260448201526064016102af565b6000610f958383611218565b610f9f908561122f565b949350505050565b600080546001600160a01b038381166001600160a01b0319831681178455604051919092169283917f8be0079c531659141344cd1fd0a4f28419497f9722a3daafe3b4186f6b6457e09190a35050565b6040518060c0016040528060001515815260200160006001600160401b0316815260200160006001600160401b031681526020016000815260200160008152602001600081525090565b80356001600160a01b038116811461105857600080fd5b919050565b6000806040838503121561107057600080fd5b8235915061108060208401611041565b90509250929050565b60008060008060008060c087890312156110a257600080fd5b6110ab87611041565b95506020870135945060408701359350606087013560ff811681146110cf57600080fd5b9598949750929560808101359460a0909101359350915050565b600080604083850312156110fc57600080fd5b61110583611041565b915061108060208401611041565b60006020828403121561112557600080fd5b61112e82611041565b9392505050565b841515815260006020608081840152855180608085015260005b8181101561116b5787810183015185820160a00152820161114f565b8181111561117d57600060a083870101525b50601f01601f1916830160a00191506111a3905060408301856001600160a01b03169052565b82606083015295945050505050565b6020808252601f908201527f5265656e7472616e637947756172643a207265656e7472616e742063616c6c00604082015260600190565b6000602082840312156111fb57600080fd5b5051919050565b634e487b7160e01b600052601160045260246000fd5b60008282101561122a5761122a611202565b500390565b600081600019048311821515161561124957611249611202565b500290565b634e487b7160e01b600052603260045260246000fd5b60006020828403121561127657600080fd5b8151801515811461112e57600080fd5b600181815b808511156112c15781600019048211156112a7576112a7611202565b808516156112b457918102915b93841c939080029061128b565b509250929050565b6000826112d857506001610e36565b816112e557506000610e36565b81600181146112fb576002811461130557611321565b6001915050610e36565b60ff84111561131657611316611202565b50506001821b610e36565b5060208310610133831016604e8410600b8410161715611344575081810a610e36565b61134e8383611286565b806000190482111561136257611362611202565b029392505050565b600061112e83836112c9565b60208082526023908201527f596f75206861766520746f207374616b65206174206c6561737420312070546f60408201526235b2b760e91b606082015260800190565b600082198211156113cc576113cc611202565b500190565b600181811c908216806113e557607f821691505b60208210810361140557634e487b7160e01b600052602260045260246000fd5b50919050565b60008261142857634e487b7160e01b600052601260045260246000fd5b50049056fea264697066735822122040c61000f92cf6af0975ca7a7db9b37ac3d5bb3b8cd37cd88a0ee9736524547664736f6c634300080e0033",
    "linkReferences": {}
  },
  "methodIdentifiers": {
    "beginTimestamp()": "672a0fb8",
    "getStakeInfo(address,address)": "d77c8f14",
    "infoForToken(address)": "cbb98ebf",
    "monthTimeStamp()": "a239882a",
    "owner()": "8da5cb5b",
    "renounceOwnership()": "715018a6",
    "resetClaimableReward(address,address)": "b7f204e2",
    "setTotalClaimableReward(uint256,address)": "32573e7f",
    "stake(address,uint256,uint256,uint8,bytes32,bytes32)": "a3e5399e",
    "stakeOfTokenByOwner(address,address)": "b8847c1d",
    "transferOwnership(address)": "f2fde38b",
    "unStake(uint256,address)": "6c217a02"
  },
  "id": 22
}