{
  "abi": [
    {
      "inputs": [
        {
          "internalType": "contract IERC20",
          "name": "_currencyUsed",
          "type": "address"
        },
        {
          "internalType": "address",
          "name": "_pToken",
          "type": "address"
        },
        {
          "internalType": "address",
          "name": "_stakingContract",
          "type": "address"
        }
      ],
      "stateMutability": "nonpayable",
      "type": "constructor"
    },
    {
      "anonymous": false,
      "inputs": [
        {
          "indexed": true,
          "internalType": "address",
          "name": "previousOwner",
          "type": "address"
        },
        {
          "indexed": true,
          "internalType": "address",
          "name": "newOwner",
          "type": "address"
        }
      ],
      "name": "OwnershipTransferred",
      "type": "event"
    },
    {
      "anonymous": false,
      "inputs": [
        {
          "indexed": false,
          "internalType": "uint256",
          "name": "amount",
          "type": "uint256"
        }
      ],
      "name": "RentDeposit",
      "type": "event"
    },
    {
      "inputs": [],
      "name": "MAX_TOKEN_SUPPLY",
      "outputs": [
        {
          "internalType": "uint256",
          "name": "",
          "type": "uint256"
        }
      ],
      "stateMutability": "view",
      "type": "function"
    },
    {
      "inputs": [],
      "name": "claimReward",
      "outputs": [],
      "stateMutability": "nonpayable",
      "type": "function"
    },
    {
      "inputs": [],
      "name": "currencyUsed",
      "outputs": [
        {
          "internalType": "contract IERC20",
          "name": "",
          "type": "address"
        }
      ],
      "stateMutability": "view",
      "type": "function"
    },
    {
      "inputs": [
        {
          "internalType": "uint256",
          "name": "amount",
          "type": "uint256"
        }
      ],
      "name": "deposit",
      "outputs": [],
      "stateMutability": "nonpayable",
      "type": "function"
    },
    {
      "inputs": [],
      "name": "konkreteTreasury",
      "outputs": [
        {
          "internalType": "address",
          "name": "",
          "type": "address"
        }
      ],
      "stateMutability": "view",
      "type": "function"
    },
    {
      "inputs": [],
      "name": "owner",
      "outputs": [
        {
          "internalType": "address",
          "name": "",
          "type": "address"
        }
      ],
      "stateMutability": "view",
      "type": "function"
    },
    {
      "inputs": [],
      "name": "pToken",
      "outputs": [
        {
          "internalType": "address",
          "name": "",
          "type": "address"
        }
      ],
      "stateMutability": "view",
      "type": "function"
    },
    {
      "inputs": [],
      "name": "renounceOwnership",
      "outputs": [],
      "stateMutability": "nonpayable",
      "type": "function"
    },
    {
      "inputs": [],
      "name": "stakingContract",
      "outputs": [
        {
          "internalType": "contract IStaking",
          "name": "",
          "type": "address"
        }
      ],
      "stateMutability": "view",
      "type": "function"
    },
    {
      "inputs": [
        {
          "internalType": "address",
          "name": "newOwner",
          "type": "address"
        }
      ],
      "name": "transferOwnership",
      "outputs": [],
      "stateMutability": "nonpayable",
      "type": "function"
    }
  ],
  "bytecode": {
    "object": "0x61010060405234801561001157600080fd5b5060405161090638038061090683398101604081905261003091610128565b610039336100c0565b6001600160a01b0380841660805282811660a081905290821660c05260408051630cb2dac360e21b815290516332cb6b0c916004808201926020929091908290030181865afa158015610090573d6000803e3d6000fd5b505050506040513d601f19601f820116820180604052508101906100b49190610175565b60e0525061018e915050565b600080546001600160a01b038381166001600160a01b0319831681178455604051919092169283917f8be0079c531659141344cd1fd0a4f28419497f9722a3daafe3b4186f6b6457e09190a35050565b6001600160a01b038116811461012557600080fd5b50565b60008060006060848603121561013d57600080fd5b835161014881610110565b602085015190935061015981610110565b604085015190925061016a81610110565b809150509250925092565b60006020828403121561018757600080fd5b5051919050565b60805160a05160c05160e0516107256101e1600039600061015c015260008181610191015281816101fb015261036101526000818160d801526103f001526000818160ff015261029f01526107256000f3fe608060405234801561001057600080fd5b506004361061009e5760003560e01c8063b6b55f2511610066578063b6b55f251461013c578063b88a802f1461014f578063e489d51014610157578063ee99205c1461018c578063f2fde38b146101b357600080fd5b80630b7bcb0c146100a357806358a06f07146100d35780635a27d492146100fa578063715018a6146101215780638da5cb5b1461012b575b600080fd5b6001546100b6906001600160a01b031681565b6040516001600160a01b0390911681526020015b60405180910390f35b6100b67f000000000000000000000000000000000000000000000000000000000000000081565b6100b67f000000000000000000000000000000000000000000000000000000000000000081565b6101296101c6565b005b6000546001600160a01b03166100b6565b61012961014a366004610585565b6101da565b61012961034c565b61017e7f000000000000000000000000000000000000000000000000000000000000000081565b6040519081526020016100ca565b6100b67f000000000000000000000000000000000000000000000000000000000000000081565b6101296101c136600461059e565b61045d565b6101ce6104db565b6101d86000610535565b565b6101e26104db565b604051636136306f60e11b8152600481018290526000907f00000000000000000000000000000000000000000000000000000000000000006001600160a01b03169063c26c60de906024016020604051808303816000875af115801561024c573d6000803e3d6000fd5b505050506040513d601f19601f8201168201806040525081019061027091906105ce565b61027a90836105e7565b6040516323b872dd60e01b8152336004820152306024820152604481018290529091507f00000000000000000000000000000000000000000000000000000000000000006001600160a01b0316906323b872dd906064016020604051808303816000875af11580156102f0573d6000803e3d6000fd5b505050506040513d601f19601f820116820180604052508101906103149190610621565b506040518281527f43fd4afc08b06749c4d36c42d4a8b46fdcc365da7e2c3fda2a263944b2f882289060200160405180910390a15050565b604051633d1da5cb60e01b81523360048201527f0000000000000000000000000000000000000000000000000000000000000000906001600160a01b03821690633d1da5cb9060240160c0604051808303816000875af11580156103b4573d6000803e3d6000fd5b505050506040513d601f19601f820116820180604052508101906103d89190610654565b50604051635bf9027160e11b81526001600160a01b037f00000000000000000000000000000000000000000000000000000000000000008116600483015233602483015282169063b7f204e290604401600060405180830381600087803b15801561044257600080fd5b505af1158015610456573d6000803e3d6000fd5b5050505050565b6104656104db565b6001600160a01b0381166104cf5760405162461bcd60e51b815260206004820152602660248201527f4f776e61626c653a206e6577206f776e657220697320746865207a65726f206160448201526564647265737360d01b60648201526084015b60405180910390fd5b6104d881610535565b50565b6000546001600160a01b031633146101d85760405162461bcd60e51b815260206004820181905260248201527f4f776e61626c653a2063616c6c6572206973206e6f7420746865206f776e657260448201526064016104c6565b600080546001600160a01b038381166001600160a01b0319831681178455604051919092169283917f8be0079c531659141344cd1fd0a4f28419497f9722a3daafe3b4186f6b6457e09190a35050565b60006020828403121561059757600080fd5b5035919050565b6000602082840312156105b057600080fd5b81356001600160a01b03811681146105c757600080fd5b9392505050565b6000602082840312156105e057600080fd5b5051919050565b60008282101561060757634e487b7160e01b600052601160045260246000fd5b500390565b8051801515811461061c57600080fd5b919050565b60006020828403121561063357600080fd5b6105c78261060c565b805167ffffffffffffffff8116811461061c57600080fd5b600060c0828403121561066657600080fd5b60405160c0810181811067ffffffffffffffff8211171561069757634e487b7160e01b600052604160045260246000fd5b6040526106a38361060c565b81526106b16020840161063c565b60208201526106c26040840161063c565b6040820152606083015160608201526080830151608082015260a083015160a0820152809150509291505056fea26469706673582212209bff40747a8725d6bbaf92da16c0a3b8f3e21f9b6fdf041616f2deee13ee869b64736f6c634300080e0033",
    "linkReferences": {}
  },
  "methodIdentifiers": {
    "MAX_TOKEN_SUPPLY()": "e489d510",
    "claimReward()": "b88a802f",
    "currencyUsed()": "5a27d492",
    "deposit(uint256)": "b6b55f25",
    "konkreteTreasury()": "0b7bcb0c",
    "owner()": "8da5cb5b",
    "pToken()": "58a06f07",
    "renounceOwnership()": "715018a6",
    "stakingContract()": "ee99205c",
    "transferOwnership(address)": "f2fde38b"
  },
  "id": 27
}