{
  "abi": [
    {
      "inputs": [
        {
          "internalType": "contract IERC20",
          "name": "_currencyUsed",
          "type": "address"
        }
      ],
      "stateMutability": "nonpayable",
      "type": "constructor"
    },
    {
      "anonymous": false,
      "inputs": [
        {
          "indexed": true,
          "internalType": "address",
          "name": "previousOwner",
          "type": "address"
        },
        {
          "indexed": true,
          "internalType": "address",
          "name": "newOwner",
          "type": "address"
        }
      ],
      "name": "OwnershipTransferred",
      "type": "event"
    },
    {
      "anonymous": false,
      "inputs": [
        {
          "indexed": false,
          "internalType": "address",
          "name": "Property",
          "type": "address"
        },
        {
          "indexed": false,
          "internalType": "uint256",
          "name": "amount",
          "type": "uint256"
        }
      ],
      "name": "RentDeposit",
      "type": "event"
    },
    {
      "inputs": [
        {
          "internalType": "address",
          "name": "_stakingContract",
          "type": "address"
        }
      ],
      "name": "addStakingContract",
      "outputs": [],
      "stateMutability": "nonpayable",
      "type": "function"
    },
    {
      "inputs": [],
      "name": "currencyUsed",
      "outputs": [
        {
          "internalType": "contract IERC20",
          "name": "",
          "type": "address"
        }
      ],
      "stateMutability": "view",
      "type": "function"
    },
    {
      "inputs": [
        {
          "internalType": "address",
          "name": "propertyToken",
          "type": "address"
        },
        {
          "internalType": "uint256",
          "name": "amount",
          "type": "uint256"
        }
      ],
      "name": "deposit",
      "outputs": [],
      "stateMutability": "nonpayable",
      "type": "function"
    },
    {
      "inputs": [],
      "name": "owner",
      "outputs": [
        {
          "internalType": "address",
          "name": "",
          "type": "address"
        }
      ],
      "stateMutability": "view",
      "type": "function"
    },
    {
      "inputs": [],
      "name": "renounceOwnership",
      "outputs": [],
      "stateMutability": "nonpayable",
      "type": "function"
    },
    {
      "inputs": [
        {
          "internalType": "address",
          "name": "",
          "type": "address"
        }
      ],
      "name": "stakingContractByProperty",
      "outputs": [
        {
          "internalType": "address",
          "name": "stakingContract",
          "type": "address"
        },
        {
          "internalType": "uint256",
          "name": "maxSupply",
          "type": "uint256"
        }
      ],
      "stateMutability": "view",
      "type": "function"
    },
    {
      "inputs": [
        {
          "internalType": "address",
          "name": "newOwner",
          "type": "address"
        }
      ],
      "name": "transferOwnership",
      "outputs": [],
      "stateMutability": "nonpayable",
      "type": "function"
    }
  ],
  "bytecode": {
    "object": "0x60a060405234801561001057600080fd5b5060405161085a38038061085a83398101604081905261002f91610099565b61003833610049565b6001600160a01b03166080526100c9565b600080546001600160a01b038381166001600160a01b0319831681178455604051919092169283917f8be0079c531659141344cd1fd0a4f28419497f9722a3daafe3b4186f6b6457e09190a35050565b6000602082840312156100ab57600080fd5b81516001600160a01b03811681146100c257600080fd5b9392505050565b6080516107696100f160003960008181609c01528181610292015261032201526107696000f3fe608060405234801561001057600080fd5b506004361061007d5760003560e01c80638da5cb5b1161005b5780638da5cb5b146100e3578063a8b49fd1146100f4578063f0dc2c2014610146578063f2fde38b1461015957600080fd5b806347e7ef24146100825780635a27d49214610097578063715018a6146100db575b600080fd5b610095610090366004610666565b61016c565b005b6100be7f000000000000000000000000000000000000000000000000000000000000000081565b6040516001600160a01b0390911681526020015b60405180910390f35b61009561039e565b6000546001600160a01b03166100be565b610127610102366004610692565b600160208190526000918252604090912080549101546001600160a01b039091169082565b604080516001600160a01b0390931683526020830191909152016100d2565b610095610154366004610692565b6103b2565b610095610167366004610692565b61052e565b6101746105a7565b6001600160a01b038083166000908152600160208181526040808420815180830190925280549095168152939091015490830181905290036101ee5760405162461bcd60e51b815260206004820152600e60248201526d15dc9bdb99c810dbdb9d1c9858dd60921b60448201526064015b60405180910390fd5b8051604051636136306f60e11b8152600481018490526000916001600160a01b03169063c26c60de906024016020604051808303816000875af1158015610239573d6000803e3d6000fd5b505050506040513d601f19601f8201168201806040525081019061025d91906106b6565b61026790846106cf565b825160405163095ea7b360e01b81526001600160a01b039182166004820152602481018390529192507f0000000000000000000000000000000000000000000000000000000000000000169063095ea7b3906044016020604051808303816000875af11580156102db573d6000803e3d6000fd5b505050506040513d601f19601f820116820180604052508101906102ff91906106f4565b506040516323b872dd60e01b8152336004820152306024820152604481018290527f00000000000000000000000000000000000000000000000000000000000000006001600160a01b0316906323b872dd906064016020604051808303816000875af1158015610373573d6000803e3d6000fd5b505050506040513d601f19601f8201168201806040525081019061039791906106f4565b5050505050565b6103a66105a7565b6103b06000610601565b565b6103ba6105a7565b6001600160a01b0381166000036104035760405162461bcd60e51b815260206004820152600d60248201526c57726f6e67204164647265737360981b60448201526064016101e5565b60008190506040518060400160405280836001600160a01b03168152602001826001600160a01b0316635c92af726040518163ffffffff1660e01b8152600401602060405180830381865afa158015610460573d6000803e3d6000fd5b505050506040513d601f19601f8201168201806040525081019061048491906106b6565b81525060016000836001600160a01b031663c117c0566040518163ffffffff1660e01b8152600401602060405180830381865afa1580156104c9573d6000803e3d6000fd5b505050506040513d601f19601f820116820180604052508101906104ed9190610716565b6001600160a01b0390811682526020808301939093526040909101600020835181546001600160a01b03191692169190911781559101516001909101555050565b6105366105a7565b6001600160a01b03811661059b5760405162461bcd60e51b815260206004820152602660248201527f4f776e61626c653a206e6577206f776e657220697320746865207a65726f206160448201526564647265737360d01b60648201526084016101e5565b6105a481610601565b50565b6000546001600160a01b031633146103b05760405162461bcd60e51b815260206004820181905260248201527f4f776e61626c653a2063616c6c6572206973206e6f7420746865206f776e657260448201526064016101e5565b600080546001600160a01b038381166001600160a01b0319831681178455604051919092169283917f8be0079c531659141344cd1fd0a4f28419497f9722a3daafe3b4186f6b6457e09190a35050565b6001600160a01b03811681146105a457600080fd5b6000806040838503121561067957600080fd5b823561068481610651565b946020939093013593505050565b6000602082840312156106a457600080fd5b81356106af81610651565b9392505050565b6000602082840312156106c857600080fd5b5051919050565b6000828210156106ef57634e487b7160e01b600052601160045260246000fd5b500390565b60006020828403121561070657600080fd5b815180151581146106af57600080fd5b60006020828403121561072857600080fd5b81516106af8161065156fea2646970667358221220f73b3eec539d899d2d3094d6fc6e4aad76ca7819bc9fa7c7b6299eecb8c2f07d64736f6c634300080e0033",
    "linkReferences": {}
  },
  "methodIdentifiers": {
    "addStakingContract(address)": "f0dc2c20",
    "currencyUsed()": "5a27d492",
    "deposit(address,uint256)": "47e7ef24",
    "owner()": "8da5cb5b",
    "renounceOwnership()": "715018a6",
    "stakingContractByProperty(address)": "a8b49fd1",
    "transferOwnership(address)": "f2fde38b"
  },
  "id": 22
}