{
  "abi": [
    {
      "inputs": [
        {
          "internalType": "contract IERC20",
          "name": "_moneyToken",
          "type": "address"
        }
      ],
      "stateMutability": "nonpayable",
      "type": "constructor"
    },
    {
      "anonymous": false,
      "inputs": [
        {
          "indexed": true,
          "internalType": "address",
          "name": "previousOwner",
          "type": "address"
        },
        {
          "indexed": true,
          "internalType": "address",
          "name": "newOwner",
          "type": "address"
        }
      ],
      "name": "OwnershipTransferred",
      "type": "event"
    },
    {
      "anonymous": false,
      "inputs": [
        {
          "indexed": false,
          "internalType": "address",
          "name": "Property",
          "type": "address"
        },
        {
          "indexed": false,
          "internalType": "uint256",
          "name": "amount",
          "type": "uint256"
        }
      ],
      "name": "RentDeposit",
      "type": "event"
    },
    {
      "inputs": [
        {
          "internalType": "address",
          "name": "_stakingContract",
          "type": "address"
        }
      ],
      "name": "addStakingContract",
      "outputs": [],
      "stateMutability": "nonpayable",
      "type": "function"
    },
    {
      "inputs": [
        {
          "internalType": "address",
          "name": "propertyToken",
          "type": "address"
        },
        {
          "internalType": "uint256",
          "name": "amount",
          "type": "uint256"
        }
      ],
      "name": "deposit",
      "outputs": [],
      "stateMutability": "nonpayable",
      "type": "function"
    },
    {
      "inputs": [],
      "name": "moneyToken",
      "outputs": [
        {
          "internalType": "contract IERC20",
          "name": "",
          "type": "address"
        }
      ],
      "stateMutability": "view",
      "type": "function"
    },
    {
      "inputs": [],
      "name": "owner",
      "outputs": [
        {
          "internalType": "address",
          "name": "",
          "type": "address"
        }
      ],
      "stateMutability": "view",
      "type": "function"
    },
    {
      "inputs": [],
      "name": "renounceOwnership",
      "outputs": [],
      "stateMutability": "nonpayable",
      "type": "function"
    },
    {
      "inputs": [
        {
          "internalType": "address",
          "name": "",
          "type": "address"
        }
      ],
      "name": "stakingContractByProperty",
      "outputs": [
        {
          "internalType": "address",
          "name": "stakingContract",
          "type": "address"
        },
        {
          "internalType": "uint256",
          "name": "maxSupply",
          "type": "uint256"
        }
      ],
      "stateMutability": "view",
      "type": "function"
    },
    {
      "inputs": [
        {
          "internalType": "address",
          "name": "newOwner",
          "type": "address"
        }
      ],
      "name": "transferOwnership",
      "outputs": [],
      "stateMutability": "nonpayable",
      "type": "function"
    }
  ],
  "bytecode": {
    "object": "0x60a060405234801561001057600080fd5b5060405161081438038061081483398101604081905261002f91610099565b61003833610049565b6001600160a01b03166080526100c9565b600080546001600160a01b038381166001600160a01b0319831681178455604051919092169283917f8be0079c531659141344cd1fd0a4f28419497f9722a3daafe3b4186f6b6457e09190a35050565b6000602082840312156100ab57600080fd5b81516001600160a01b03811681146100c257600080fd5b9392505050565b6080516107226100f2600039600081816101460152818161026d015261030101526107226000f3fe608060405234801561001057600080fd5b506004361061007d5760003560e01c8063a8b49fd11161005b578063a8b49fd1146100c9578063f0dc2c201461011b578063f2fde38b1461012e578063f5ce90561461014157600080fd5b806347e7ef2414610082578063715018a6146100975780638da5cb5b1461009f575b600080fd5b610095610090366004610644565b610168565b005b61009561037c565b6000546001600160a01b03165b6040516001600160a01b0390911681526020015b60405180910390f35b6100fc6100d7366004610670565b600160208190526000918252604090912080549101546001600160a01b039091169082565b604080516001600160a01b0390931683526020830191909152016100c0565b610095610129366004610670565b610390565b61009561013c366004610670565b61050c565b6100ac7f000000000000000000000000000000000000000000000000000000000000000081565b610170610585565b6001600160a01b038083166000908152600160208181526040808420815180830190925280549095168152939091015490830181905290036101ea5760405162461bcd60e51b815260206004820152600e60248201526d15dc9bdb99c810dbdb9d1c9858dd60921b60448201526064015b60405180910390fd5b8051604051636136306f60e11b8152600481018490526001600160a01b039091169063c26c60de90602401600060405180830381600087803b15801561022f57600080fd5b505af1158015610243573d6000803e3d6000fd5b5050825160405163095ea7b360e01b81526001600160a01b039182166004820152602481018690527f0000000000000000000000000000000000000000000000000000000000000000909116925063095ea7b391506044016020604051808303816000875af11580156102ba573d6000803e3d6000fd5b505050506040513d601f19601f820116820180604052508101906102de9190610694565b506040516323b872dd60e01b8152336004820152306024820152604481018390527f00000000000000000000000000000000000000000000000000000000000000006001600160a01b0316906323b872dd906064016020604051808303816000875af1158015610352573d6000803e3d6000fd5b505050506040513d601f19601f820116820180604052508101906103769190610694565b50505050565b610384610585565b61038e60006105df565b565b610398610585565b6001600160a01b0381166000036103e15760405162461bcd60e51b815260206004820152600d60248201526c57726f6e67204164647265737360981b60448201526064016101e1565b60008190506040518060400160405280836001600160a01b03168152602001826001600160a01b0316635c92af726040518163ffffffff1660e01b8152600401602060405180830381865afa15801561043e573d6000803e3d6000fd5b505050506040513d601f19601f8201168201806040525081019061046291906106b6565b81525060016000836001600160a01b031663c117c0566040518163ffffffff1660e01b8152600401602060405180830381865afa1580156104a7573d6000803e3d6000fd5b505050506040513d601f19601f820116820180604052508101906104cb91906106cf565b6001600160a01b0390811682526020808301939093526040909101600020835181546001600160a01b03191692169190911781559101516001909101555050565b610514610585565b6001600160a01b0381166105795760405162461bcd60e51b815260206004820152602660248201527f4f776e61626c653a206e6577206f776e657220697320746865207a65726f206160448201526564647265737360d01b60648201526084016101e1565b610582816105df565b50565b6000546001600160a01b0316331461038e5760405162461bcd60e51b815260206004820181905260248201527f4f776e61626c653a2063616c6c6572206973206e6f7420746865206f776e657260448201526064016101e1565b600080546001600160a01b038381166001600160a01b0319831681178455604051919092169283917f8be0079c531659141344cd1fd0a4f28419497f9722a3daafe3b4186f6b6457e09190a35050565b6001600160a01b038116811461058257600080fd5b6000806040838503121561065757600080fd5b82356106628161062f565b946020939093013593505050565b60006020828403121561068257600080fd5b813561068d8161062f565b9392505050565b6000602082840312156106a657600080fd5b8151801515811461068d57600080fd5b6000602082840312156106c857600080fd5b5051919050565b6000602082840312156106e157600080fd5b815161068d8161062f56fea2646970667358221220cf81df647cbf7ffe05f791f7a7339a816ef6a0494e9be067063215e648ca1d6064736f6c634300080e0033",
    "linkReferences": {}
  },
  "methodIdentifiers": {
    "addStakingContract(address)": "f0dc2c20",
    "deposit(address,uint256)": "47e7ef24",
    "moneyToken()": "f5ce9056",
    "owner()": "8da5cb5b",
    "renounceOwnership()": "715018a6",
    "stakingContractByProperty(address)": "a8b49fd1",
    "transferOwnership(address)": "f2fde38b"
  },
  "id": 9
}