{
  "_format": "hh-sol-artifact-1",
  "contractName": "Treasury",
  "sourceName": "contracts/Treasury.sol",
  "abi": [
    {
      "inputs": [
        {
          "internalType": "contract IERC20",
          "name": "_moneyToken",
          "type": "address"
        }
      ],
      "stateMutability": "nonpayable",
      "type": "constructor"
    },
    {
      "anonymous": false,
      "inputs": [
        {
          "indexed": true,
          "internalType": "address",
          "name": "previousOwner",
          "type": "address"
        },
        {
          "indexed": true,
          "internalType": "address",
          "name": "newOwner",
          "type": "address"
        }
      ],
      "name": "OwnershipTransferred",
      "type": "event"
    },
    {
      "anonymous": false,
      "inputs": [
        {
          "indexed": false,
          "internalType": "address",
          "name": "Property",
          "type": "address"
        },
        {
          "indexed": false,
          "internalType": "uint256",
          "name": "amount",
          "type": "uint256"
        }
      ],
      "name": "RentDeposit",
      "type": "event"
    },
    {
      "inputs": [
        {
          "internalType": "address",
          "name": "_stakingContract",
          "type": "address"
        }
      ],
      "name": "addStakingContract",
      "outputs": [],
      "stateMutability": "nonpayable",
      "type": "function"
    },
    {
      "inputs": [
        {
          "internalType": "address",
          "name": "propertyToken",
          "type": "address"
        },
        {
          "internalType": "uint256",
          "name": "amount",
          "type": "uint256"
        }
      ],
      "name": "deposit",
      "outputs": [],
      "stateMutability": "nonpayable",
      "type": "function"
    },
    {
      "inputs": [],
      "name": "moneyToken",
      "outputs": [
        {
          "internalType": "contract IERC20",
          "name": "",
          "type": "address"
        }
      ],
      "stateMutability": "view",
      "type": "function"
    },
    {
      "inputs": [],
      "name": "owner",
      "outputs": [
        {
          "internalType": "address",
          "name": "",
          "type": "address"
        }
      ],
      "stateMutability": "view",
      "type": "function"
    },
    {
      "inputs": [],
      "name": "renounceOwnership",
      "outputs": [],
      "stateMutability": "nonpayable",
      "type": "function"
    },
    {
      "inputs": [
        {
          "internalType": "address",
          "name": "",
          "type": "address"
        }
      ],
      "name": "stakingContractByProperty",
      "outputs": [
        {
          "internalType": "address",
          "name": "stakingContract",
          "type": "address"
        },
        {
          "internalType": "uint256",
          "name": "maxSupply",
          "type": "uint256"
        }
      ],
      "stateMutability": "view",
      "type": "function"
    },
    {
      "inputs": [
        {
          "internalType": "address",
          "name": "newOwner",
          "type": "address"
        }
      ],
      "name": "transferOwnership",
      "outputs": [],
      "stateMutability": "nonpayable",
      "type": "function"
    }
  ],
  "bytecode": "0x60a06040523480156200001157600080fd5b5060405162001152380380620011528339818101604052810190620000379190620001dc565b620000576200004b6200009260201b60201c565b6200009a60201b60201c565b8073ffffffffffffffffffffffffffffffffffffffff1660808173ffffffffffffffffffffffffffffffffffffffff1681525050506200020e565b600033905090565b60008060009054906101000a900473ffffffffffffffffffffffffffffffffffffffff169050816000806101000a81548173ffffffffffffffffffffffffffffffffffffffff021916908373ffffffffffffffffffffffffffffffffffffffff1602179055508173ffffffffffffffffffffffffffffffffffffffff168173ffffffffffffffffffffffffffffffffffffffff167f8be0079c531659141344cd1fd0a4f28419497f9722a3daafe3b4186f6b6457e060405160405180910390a35050565b600080fd5b600073ffffffffffffffffffffffffffffffffffffffff82169050919050565b6000620001908262000163565b9050919050565b6000620001a48262000183565b9050919050565b620001b68162000197565b8114620001c257600080fd5b50565b600081519050620001d681620001ab565b92915050565b600060208284031215620001f557620001f46200015e565b5b60006200020584828501620001c5565b91505092915050565b608051610f1a620002386000396000818161032f015281816103d201526108f20152610f1a6000f3fe608060405234801561001057600080fd5b506004361061007d5760003560e01c8063a8b49fd11161005b578063a8b49fd1146100c6578063f0dc2c20146100f7578063f2fde38b14610113578063f5ce90561461012f5761007d565b806347e7ef2414610082578063715018a61461009e5780638da5cb5b146100a8575b600080fd5b61009c60048036038101906100979190610a79565b61014d565b005b6100a6610476565b005b6100b06104fe565b6040516100bd9190610ac8565b60405180910390f35b6100e060048036038101906100db9190610ae3565b610527565b6040516100ee929190610b1f565b60405180910390f35b610111600480360381019061010c9190610ae3565b61056b565b005b61012d60048036038101906101289190610ae3565b6107f9565b005b6101376108f0565b6040516101449190610ba7565b60405180910390f35b610155610914565b73ffffffffffffffffffffffffffffffffffffffff166101736104fe565b73ffffffffffffffffffffffffffffffffffffffff16146101c9576040517f08c379a00000000000000000000000000000000000000000000000000000000081526004016101c090610c1f565b60405180910390fd5b6000600160008473ffffffffffffffffffffffffffffffffffffffff1673ffffffffffffffffffffffffffffffffffffffff1681526020019081526020016000206040518060400160405290816000820160009054906101000a900473ffffffffffffffffffffffffffffffffffffffff1673ffffffffffffffffffffffffffffffffffffffff1673ffffffffffffffffffffffffffffffffffffffff168152602001600182015481525050905060008160200151036102be576040517f08c379a00000000000000000000000000000000000000000000000000000000081526004016102b590610c8b565b60405180910390fd5b806000015173ffffffffffffffffffffffffffffffffffffffff1663c26c60de836040518263ffffffff1660e01b81526004016102fb9190610cab565b600060405180830381600087803b15801561031557600080fd5b505af1158015610329573d6000803e3d6000fd5b505050507f000000000000000000000000000000000000000000000000000000000000000073ffffffffffffffffffffffffffffffffffffffff1663095ea7b38260000151846040518363ffffffff1660e01b815260040161038c929190610b1f565b6020604051808303816000875af11580156103ab573d6000803e3d6000fd5b505050506040513d601f19601f820116820180604052508101906103cf9190610cfe565b507f000000000000000000000000000000000000000000000000000000000000000073ffffffffffffffffffffffffffffffffffffffff166323b872dd3330856040518463ffffffff1660e01b815260040161042d93929190610d2b565b6020604051808303816000875af115801561044c573d6000803e3d6000fd5b505050506040513d601f19601f820116820180604052508101906104709190610cfe565b50505050565b61047e610914565b73ffffffffffffffffffffffffffffffffffffffff1661049c6104fe565b73ffffffffffffffffffffffffffffffffffffffff16146104f2576040517f08c379a00000000000000000000000000000000000000000000000000000000081526004016104e990610c1f565b60405180910390fd5b6104fc600061091c565b565b60008060009054906101000a900473ffffffffffffffffffffffffffffffffffffffff16905090565b60016020528060005260406000206000915090508060000160009054906101000a900473ffffffffffffffffffffffffffffffffffffffff16908060010154905082565b610573610914565b73ffffffffffffffffffffffffffffffffffffffff166105916104fe565b73ffffffffffffffffffffffffffffffffffffffff16146105e7576040517f08c379a00000000000000000000000000000000000000000000000000000000081526004016105de90610c1f565b60405180910390fd5b6000819050600073ffffffffffffffffffffffffffffffffffffffff168273ffffffffffffffffffffffffffffffffffffffff160361065b576040517f08c379a000000000000000000000000000000000000000000000000000000000815260040161065290610dae565b60405180910390fd5b60405180604001604052808373ffffffffffffffffffffffffffffffffffffffff1681526020018273ffffffffffffffffffffffffffffffffffffffff16635c92af726040518163ffffffff1660e01b8152600401602060405180830381865afa1580156106cd573d6000803e3d6000fd5b505050506040513d601f19601f820116820180604052508101906106f19190610de3565b815250600160008373ffffffffffffffffffffffffffffffffffffffff1663c117c0566040518163ffffffff1660e01b8152600401602060405180830381865afa158015610743573d6000803e3d6000fd5b505050506040513d601f19601f820116820180604052508101906107679190610e25565b73ffffffffffffffffffffffffffffffffffffffff1673ffffffffffffffffffffffffffffffffffffffff16815260200190815260200160002060008201518160000160006101000a81548173ffffffffffffffffffffffffffffffffffffffff021916908373ffffffffffffffffffffffffffffffffffffffff160217905550602082015181600101559050505050565b610801610914565b73ffffffffffffffffffffffffffffffffffffffff1661081f6104fe565b73ffffffffffffffffffffffffffffffffffffffff1614610875576040517f08c379a000000000000000000000000000000000000000000000000000000000815260040161086c90610c1f565b60405180910390fd5b600073ffffffffffffffffffffffffffffffffffffffff168173ffffffffffffffffffffffffffffffffffffffff16036108e4576040517f08c379a00000000000000000000000000000000000000000000000000000000081526004016108db90610ec4565b60405180910390fd5b6108ed8161091c565b50565b7f000000000000000000000000000000000000000000000000000000000000000081565b600033905090565b60008060009054906101000a900473ffffffffffffffffffffffffffffffffffffffff169050816000806101000a81548173ffffffffffffffffffffffffffffffffffffffff021916908373ffffffffffffffffffffffffffffffffffffffff1602179055508173ffffffffffffffffffffffffffffffffffffffff168173ffffffffffffffffffffffffffffffffffffffff167f8be0079c531659141344cd1fd0a4f28419497f9722a3daafe3b4186f6b6457e060405160405180910390a35050565b600080fd5b600073ffffffffffffffffffffffffffffffffffffffff82169050919050565b6000610a10826109e5565b9050919050565b610a2081610a05565b8114610a2b57600080fd5b50565b600081359050610a3d81610a17565b92915050565b6000819050919050565b610a5681610a43565b8114610a6157600080fd5b50565b600081359050610a7381610a4d565b92915050565b60008060408385031215610a9057610a8f6109e0565b5b6000610a9e85828601610a2e565b9250506020610aaf85828601610a64565b9150509250929050565b610ac281610a05565b82525050565b6000602082019050610add6000830184610ab9565b92915050565b600060208284031215610af957610af86109e0565b5b6000610b0784828501610a2e565b91505092915050565b610b1981610a43565b82525050565b6000604082019050610b346000830185610ab9565b610b416020830184610b10565b9392505050565b6000819050919050565b6000610b6d610b68610b63846109e5565b610b48565b6109e5565b9050919050565b6000610b7f82610b52565b9050919050565b6000610b9182610b74565b9050919050565b610ba181610b86565b82525050565b6000602082019050610bbc6000830184610b98565b92915050565b600082825260208201905092915050565b7f4f776e61626c653a2063616c6c6572206973206e6f7420746865206f776e6572600082015250565b6000610c09602083610bc2565b9150610c1482610bd3565b602082019050919050565b60006020820190508181036000830152610c3881610bfc565b9050919050565b7f57726f6e6720436f6e7472616374000000000000000000000000000000000000600082015250565b6000610c75600e83610bc2565b9150610c8082610c3f565b602082019050919050565b60006020820190508181036000830152610ca481610c68565b9050919050565b6000602082019050610cc06000830184610b10565b92915050565b60008115159050919050565b610cdb81610cc6565b8114610ce657600080fd5b50565b600081519050610cf881610cd2565b92915050565b600060208284031215610d1457610d136109e0565b5b6000610d2284828501610ce9565b91505092915050565b6000606082019050610d406000830186610ab9565b610d4d6020830185610ab9565b610d5a6040830184610b10565b949350505050565b7f57726f6e67204164647265737300000000000000000000000000000000000000600082015250565b6000610d98600d83610bc2565b9150610da382610d62565b602082019050919050565b60006020820190508181036000830152610dc781610d8b565b9050919050565b600081519050610ddd81610a4d565b92915050565b600060208284031215610df957610df86109e0565b5b6000610e0784828501610dce565b91505092915050565b600081519050610e1f81610a17565b92915050565b600060208284031215610e3b57610e3a6109e0565b5b6000610e4984828501610e10565b91505092915050565b7f4f776e61626c653a206e6577206f776e657220697320746865207a65726f206160008201527f6464726573730000000000000000000000000000000000000000000000000000602082015250565b6000610eae602683610bc2565b9150610eb982610e52565b604082019050919050565b60006020820190508181036000830152610edd81610ea1565b905091905056fea2646970667358221220b72eae8bde08c3c785bac0d61efcd2131fca81b6c717942a7ec9578a241d214364736f6c634300080d0033",
  "linkReferences": {},
  "deployedLinkReferences": {}
}