{
  "_format": "hh-sol-artifact-1",
  "contractName": "PropertyToken",
  "sourceName": "contracts/PropertyToken.sol",
  "abi": [
    {
      "inputs": [
        {
          "internalType": "contract IERC20",
          "name": "_currencyUsed",
          "type": "address"
        },
        {
          "internalType": "uint256",
          "name": "_MAX_SUPPLY",
          "type": "uint256"
        },
        {
          "internalType": "address",
          "name": "_multiSig",
          "type": "address"
        },
        {
          "internalType": "string",
          "name": "_name",
          "type": "string"
        },
        {
          "internalType": "string",
          "name": "_symbol",
          "type": "string"
        }
      ],
      "stateMutability": "nonpayable",
      "type": "constructor"
    },
    {
      "anonymous": false,
      "inputs": [
        {
          "indexed": true,
          "internalType": "address",
          "name": "owner",
          "type": "address"
        },
        {
          "indexed": true,
          "internalType": "address",
          "name": "spender",
          "type": "address"
        },
        {
          "indexed": false,
          "internalType": "uint256",
          "name": "value",
          "type": "uint256"
        }
      ],
      "name": "Approval",
      "type": "event"
    },
    {
      "anonymous": false,
      "inputs": [
        {
          "indexed": false,
          "internalType": "address",
          "name": "buyer",
          "type": "address"
        },
        {
          "indexed": false,
          "internalType": "uint256",
          "name": "price",
          "type": "uint256"
        },
        {
          "indexed": false,
          "internalType": "uint256",
          "name": "amount",
          "type": "uint256"
        }
      ],
      "name": "Buying",
      "type": "event"
    },
    {
      "anonymous": false,
      "inputs": [
        {
          "indexed": true,
          "internalType": "address",
          "name": "previousOwner",
          "type": "address"
        },
        {
          "indexed": true,
          "internalType": "address",
          "name": "newOwner",
          "type": "address"
        }
      ],
      "name": "OwnershipTransferred",
      "type": "event"
    },
    {
      "anonymous": false,
      "inputs": [
        {
          "indexed": true,
          "internalType": "address",
          "name": "from",
          "type": "address"
        },
        {
          "indexed": true,
          "internalType": "address",
          "name": "to",
          "type": "address"
        },
        {
          "indexed": false,
          "internalType": "uint256",
          "name": "value",
          "type": "uint256"
        }
      ],
      "name": "Transfer",
      "type": "event"
    },
    {
      "inputs": [],
      "name": "DOMAIN_SEPARATOR",
      "outputs": [
        {
          "internalType": "bytes32",
          "name": "",
          "type": "bytes32"
        }
      ],
      "stateMutability": "view",
      "type": "function"
    },
    {
      "inputs": [],
      "name": "MAX_SUPPLY",
      "outputs": [
        {
          "internalType": "uint256",
          "name": "",
          "type": "uint256"
        }
      ],
      "stateMutability": "view",
      "type": "function"
    },
    {
      "inputs": [],
      "name": "TOKENPRICE",
      "outputs": [
        {
          "internalType": "uint256",
          "name": "",
          "type": "uint256"
        }
      ],
      "stateMutability": "view",
      "type": "function"
    },
    {
      "inputs": [
        {
          "internalType": "address",
          "name": "owner",
          "type": "address"
        },
        {
          "internalType": "address",
          "name": "spender",
          "type": "address"
        }
      ],
      "name": "allowance",
      "outputs": [
        {
          "internalType": "uint256",
          "name": "",
          "type": "uint256"
        }
      ],
      "stateMutability": "view",
      "type": "function"
    },
    {
      "inputs": [
        {
          "internalType": "address",
          "name": "spender",
          "type": "address"
        },
        {
          "internalType": "uint256",
          "name": "amount",
          "type": "uint256"
        }
      ],
      "name": "approve",
      "outputs": [
        {
          "internalType": "bool",
          "name": "",
          "type": "bool"
        }
      ],
      "stateMutability": "nonpayable",
      "type": "function"
    },
    {
      "inputs": [
        {
          "internalType": "address",
          "name": "account",
          "type": "address"
        }
      ],
      "name": "balanceOf",
      "outputs": [
        {
          "internalType": "uint256",
          "name": "",
          "type": "uint256"
        }
      ],
      "stateMutability": "view",
      "type": "function"
    },
    {
      "inputs": [
        {
          "internalType": "address",
          "name": "_to",
          "type": "address"
        },
        {
          "internalType": "uint256",
          "name": "price",
          "type": "uint256"
        },
        {
          "internalType": "bytes32[]",
          "name": "proof",
          "type": "bytes32[]"
        }
      ],
      "name": "buy",
      "outputs": [],
      "stateMutability": "nonpayable",
      "type": "function"
    },
    {
      "inputs": [],
      "name": "decimals",
      "outputs": [
        {
          "internalType": "uint8",
          "name": "",
          "type": "uint8"
        }
      ],
      "stateMutability": "view",
      "type": "function"
    },
    {
      "inputs": [
        {
          "internalType": "address",
          "name": "spender",
          "type": "address"
        },
        {
          "internalType": "uint256",
          "name": "subtractedValue",
          "type": "uint256"
        }
      ],
      "name": "decreaseAllowance",
      "outputs": [
        {
          "internalType": "bool",
          "name": "",
          "type": "bool"
        }
      ],
      "stateMutability": "nonpayable",
      "type": "function"
    },
    {
      "inputs": [
        {
          "internalType": "address",
          "name": "spender",
          "type": "address"
        },
        {
          "internalType": "uint256",
          "name": "addedValue",
          "type": "uint256"
        }
      ],
      "name": "increaseAllowance",
      "outputs": [
        {
          "internalType": "bool",
          "name": "",
          "type": "bool"
        }
      ],
      "stateMutability": "nonpayable",
      "type": "function"
    },
    {
      "inputs": [],
      "name": "multisig",
      "outputs": [
        {
          "internalType": "address",
          "name": "",
          "type": "address"
        }
      ],
      "stateMutability": "view",
      "type": "function"
    },
    {
      "inputs": [],
      "name": "name",
      "outputs": [
        {
          "internalType": "string",
          "name": "",
          "type": "string"
        }
      ],
      "stateMutability": "view",
      "type": "function"
    },
    {
      "inputs": [
        {
          "internalType": "address",
          "name": "owner",
          "type": "address"
        }
      ],
      "name": "nonces",
      "outputs": [
        {
          "internalType": "uint256",
          "name": "",
          "type": "uint256"
        }
      ],
      "stateMutability": "view",
      "type": "function"
    },
    {
      "inputs": [],
      "name": "owner",
      "outputs": [
        {
          "internalType": "address",
          "name": "",
          "type": "address"
        }
      ],
      "stateMutability": "view",
      "type": "function"
    },
    {
      "inputs": [
        {
          "internalType": "address",
          "name": "owner",
          "type": "address"
        },
        {
          "internalType": "address",
          "name": "spender",
          "type": "address"
        },
        {
          "internalType": "uint256",
          "name": "value",
          "type": "uint256"
        },
        {
          "internalType": "uint256",
          "name": "deadline",
          "type": "uint256"
        },
        {
          "internalType": "uint8",
          "name": "v",
          "type": "uint8"
        },
        {
          "internalType": "bytes32",
          "name": "r",
          "type": "bytes32"
        },
        {
          "internalType": "bytes32",
          "name": "s",
          "type": "bytes32"
        }
      ],
      "name": "permit",
      "outputs": [],
      "stateMutability": "nonpayable",
      "type": "function"
    },
    {
      "inputs": [],
      "name": "renounceOwnership",
      "outputs": [],
      "stateMutability": "nonpayable",
      "type": "function"
    },
    {
      "inputs": [
        {
          "internalType": "bytes32",
          "name": "merkleRoot",
          "type": "bytes32"
        }
      ],
      "name": "setAllowListMerkleRoot",
      "outputs": [],
      "stateMutability": "nonpayable",
      "type": "function"
    },
    {
      "inputs": [
        {
          "internalType": "uint32",
          "name": "_cexRatioX10000",
          "type": "uint32"
        }
      ],
      "name": "setCexRatio",
      "outputs": [],
      "stateMutability": "nonpayable",
      "type": "function"
    },
    {
      "inputs": [
        {
          "internalType": "contract IERC20",
          "name": "currencyToUse",
          "type": "address"
        }
      ],
      "name": "setCurrency",
      "outputs": [],
      "stateMutability": "nonpayable",
      "type": "function"
    },
    {
      "inputs": [
        {
          "internalType": "uint128",
          "name": "_MaxToBuy",
          "type": "uint128"
        }
      ],
      "name": "setMaxToBuy",
      "outputs": [],
      "stateMutability": "nonpayable",
      "type": "function"
    },
    {
      "inputs": [
        {
          "internalType": "uint256",
          "name": "step",
          "type": "uint256"
        }
      ],
      "name": "setStep",
      "outputs": [],
      "stateMutability": "nonpayable",
      "type": "function"
    },
    {
      "inputs": [],
      "name": "symbol",
      "outputs": [
        {
          "internalType": "string",
          "name": "",
          "type": "string"
        }
      ],
      "stateMutability": "view",
      "type": "function"
    },
    {
      "inputs": [
        {
          "internalType": "address",
          "name": "",
          "type": "address"
        }
      ],
      "name": "tokensBought",
      "outputs": [
        {
          "internalType": "uint256",
          "name": "",
          "type": "uint256"
        }
      ],
      "stateMutability": "view",
      "type": "function"
    },
    {
      "inputs": [],
      "name": "totalSupply",
      "outputs": [
        {
          "internalType": "uint256",
          "name": "",
          "type": "uint256"
        }
      ],
      "stateMutability": "view",
      "type": "function"
    },
    {
      "inputs": [
        {
          "internalType": "address",
          "name": "to",
          "type": "address"
        },
        {
          "internalType": "uint256",
          "name": "amount",
          "type": "uint256"
        }
      ],
      "name": "transfer",
      "outputs": [
        {
          "internalType": "bool",
          "name": "",
          "type": "bool"
        }
      ],
      "stateMutability": "nonpayable",
      "type": "function"
    },
    {
      "inputs": [
        {
          "internalType": "address",
          "name": "from",
          "type": "address"
        },
        {
          "internalType": "address",
          "name": "to",
          "type": "address"
        },
        {
          "internalType": "uint256",
          "name": "amount",
          "type": "uint256"
        }
      ],
      "name": "transferFrom",
      "outputs": [
        {
          "internalType": "bool",
          "name": "",
          "type": "bool"
        }
      ],
      "stateMutability": "nonpayable",
      "type": "function"
    },
    {
      "inputs": [
        {
          "internalType": "address",
          "name": "from",
          "type": "address"
        },
        {
          "internalType": "address",
          "name": "receiver",
          "type": "address"
        },
        {
          "internalType": "uint256",
          "name": "amount",
          "type": "uint256"
        },
        {
          "internalType": "uint256",
          "name": "deadline",
          "type": "uint256"
        },
        {
          "internalType": "uint8",
          "name": "v",
          "type": "uint8"
        },
        {
          "internalType": "bytes32",
          "name": "r",
          "type": "bytes32"
        },
        {
          "internalType": "bytes32",
          "name": "s",
          "type": "bytes32"
        }
      ],
      "name": "transferFromWithPermission",
      "outputs": [],
      "stateMutability": "nonpayable",
      "type": "function"
    },
    {
      "inputs": [
        {
          "internalType": "address",
          "name": "newOwner",
          "type": "address"
        }
      ],
      "name": "transferOwnership",
      "outputs": [],
      "stateMutability": "nonpayable",
      "type": "function"
    },
    {
      "inputs": [],
      "name": "variables",
      "outputs": [
        {
          "internalType": "enum PropertyToken.Step",
          "name": "step",
          "type": "uint8"
        },
        {
          "internalType": "uint32",
          "name": "cexRatioX10000",
          "type": "uint32"
        },
        {
          "internalType": "bytes32",
          "name": "merkleRoot",
          "type": "bytes32"
        },
        {
          "internalType": "uint128",
          "name": "MaxToBuy",
          "type": "uint128"
        },
        {
          "internalType": "contract IERC20",
          "name": "currencyUsed",
          "type": "address"
        }
      ],
      "stateMutability": "view",
      "type": "function"
    },
    {
      "inputs": [],
      "name": "withdraw",
      "outputs": [],
      "stateMutability": "nonpayable",
      "type": "function"
    }
  ],
  "bytecode": "0x6101806040523480156200001257600080fd5b506040516200492f3803806200492f83398181016040528101906200003891906200078d565b81806040518060400160405280600181526020017f3100000000000000000000000000000000000000000000000000000000000000815250848481600390805190602001906200008a9291906200045b565b508060049080519060200190620000a39291906200045b565b50505060008280519060200120905060008280519060200120905060007f8b73c3c69bb8fe3d512ecc4cf759cc79239f7b179b0ffacaa9a75d522b39400f90508260e081815250508161010081815250504660a081815250506200010f8184846200035160201b60201c565b608081815250503073ffffffffffffffffffffffffffffffffffffffff1660c08173ffffffffffffffffffffffffffffffffffffffff1681525050806101208181525050505050505050620001796200016d6200038d60201b60201c565b6200039560201b60201c565b6040518060a00160405280600060028111156200019b576200019a62000853565b5b6002811115620001b057620001af62000853565b5b8152602001600063ffffffff1681526020016000801b81526020016064601e87620001dc9190620008b1565b620001e8919062000941565b6fffffffffffffffffffffffffffffffff1681526020018673ffffffffffffffffffffffffffffffffffffffff16815250600960008201518160000160006101000a81548160ff0219169083600281111562000249576200024862000853565b5b021790555060208201518160000160016101000a81548163ffffffff021916908363ffffffff1602179055506040820151816001015560608201518160020160006101000a8154816fffffffffffffffffffffffffffffffff02191690836fffffffffffffffffffffffffffffffff16021790555060808201518160030160006101000a81548173ffffffffffffffffffffffffffffffffffffffff021916908373ffffffffffffffffffffffffffffffffffffffff1602179055509050508273ffffffffffffffffffffffffffffffffffffffff166101608173ffffffffffffffffffffffffffffffffffffffff1681525050836101408181525050505050505062000a77565b600083838346306040516020016200036e959493929190620009b6565b6040516020818303038152906040528051906020012090509392505050565b600033905090565b6000600760009054906101000a900473ffffffffffffffffffffffffffffffffffffffff16905081600760006101000a81548173ffffffffffffffffffffffffffffffffffffffff021916908373ffffffffffffffffffffffffffffffffffffffff1602179055508173ffffffffffffffffffffffffffffffffffffffff168173ffffffffffffffffffffffffffffffffffffffff167f8be0079c531659141344cd1fd0a4f28419497f9722a3daafe3b4186f6b6457e060405160405180910390a35050565b828054620004699062000a42565b90600052602060002090601f0160209004810192826200048d5760008555620004d9565b82601f10620004a857805160ff1916838001178555620004d9565b82800160010185558215620004d9579182015b82811115620004d8578251825591602001919060010190620004bb565b5b509050620004e89190620004ec565b5090565b5b8082111562000507576000816000905550600101620004ed565b5090565b6000604051905090565b600080fd5b600080fd5b600073ffffffffffffffffffffffffffffffffffffffff82169050919050565b60006200054c826200051f565b9050919050565b600062000560826200053f565b9050919050565b620005728162000553565b81146200057e57600080fd5b50565b600081519050620005928162000567565b92915050565b6000819050919050565b620005ad8162000598565b8114620005b957600080fd5b50565b600081519050620005cd81620005a2565b92915050565b620005de816200053f565b8114620005ea57600080fd5b50565b600081519050620005fe81620005d3565b92915050565b600080fd5b600080fd5b6000601f19601f8301169050919050565b7f4e487b7100000000000000000000000000000000000000000000000000000000600052604160045260246000fd5b62000659826200060e565b810181811067ffffffffffffffff821117156200067b576200067a6200061f565b5b80604052505050565b6000620006906200050b565b90506200069e82826200064e565b919050565b600067ffffffffffffffff821115620006c157620006c06200061f565b5b620006cc826200060e565b9050602081019050919050565b60005b83811015620006f9578082015181840152602081019050620006dc565b8381111562000709576000848401525b50505050565b6000620007266200072084620006a3565b62000684565b90508281526020810184848401111562000745576200074462000609565b5b62000752848285620006d9565b509392505050565b600082601f83011262000772576200077162000604565b5b8151620007848482602086016200070f565b91505092915050565b600080600080600060a08688031215620007ac57620007ab62000515565b5b6000620007bc8882890162000581565b9550506020620007cf88828901620005bc565b9450506040620007e288828901620005ed565b935050606086015167ffffffffffffffff8111156200080657620008056200051a565b5b62000814888289016200075a565b925050608086015167ffffffffffffffff8111156200083857620008376200051a565b5b62000846888289016200075a565b9150509295509295909350565b7f4e487b7100000000000000000000000000000000000000000000000000000000600052602160045260246000fd5b7f4e487b7100000000000000000000000000000000000000000000000000000000600052601160045260246000fd5b6000620008be8262000598565b9150620008cb8362000598565b9250817fffffffffffffffffffffffffffffffffffffffffffffffffffffffffffffffff048311821515161562000907576200090662000882565b5b828202905092915050565b7f4e487b7100000000000000000000000000000000000000000000000000000000600052601260045260246000fd5b60006200094e8262000598565b91506200095b8362000598565b9250826200096e576200096d62000912565b5b828204905092915050565b6000819050919050565b6200098e8162000979565b82525050565b6200099f8162000598565b82525050565b620009b0816200053f565b82525050565b600060a082019050620009cd600083018862000983565b620009dc602083018762000983565b620009eb604083018662000983565b620009fa606083018562000994565b62000a096080830184620009a5565b9695505050505050565b7f4e487b7100000000000000000000000000000000000000000000000000000000600052602260045260246000fd5b6000600282049050600182168062000a5b57607f821691505b60208210810362000a715762000a7062000a13565b5b50919050565b60805160a05160c05160e05161010051610120516101405161016051613e4462000aeb6000396000818161088d01526109130152600081816107370152610be601526000611b8f01526000611bd101526000611bb001526000611ae501526000611b3b01526000611b640152613e446000f3fe608060405234801561001057600080fd5b50600436106101da5760003560e01c80637ecebe0011610104578063cfac414b116100a2578063f2fde38b11610071578063f2fde38b1461055d578063f75d6f8014610579578063f8dcbddb14610595578063fa6f5958146105b1576101da565b8063cfac414b146104d9578063d505accf146104f5578063dd62ed3e14610511578063ea7a42e414610541576101da565b806395d89b41116100de57806395d89b4114610439578063a457c2d714610457578063a9059cbb14610487578063be45a26f146104b7576101da565b80637ecebe00146103cf578063849b4d17146103ff5780638da5cb5b1461041b576101da565b806332cb6b0c1161017c5780634783c35b1161014b5780634783c35b1461035b5780634c13a6391461037957806370a0823114610395578063715018a6146103c5576101da565b806332cb6b0c146102e55780633644e5151461030357806339509351146103215780633ccfd60b14610351576101da565b806323b872dd116101b857806323b872dd1461024b578063264d77971461027b5780632f84c391146102ab578063313ce567146102c7576101da565b806306fdde03146101df578063095ea7b3146101fd57806318160ddd1461022d575b600080fd5b6101e76105cf565b6040516101f491906123c3565b60405180910390f35b61021760048036038101906102129190612483565b610661565b60405161022491906124de565b60405180910390f35b610235610684565b6040516102429190612508565b60405180910390f35b61026560048036038101906102609190612523565b61068e565b60405161027291906124de565b60405180910390f35b61029560048036038101906102909190612576565b6106bd565b6040516102a29190612508565b60405180910390f35b6102c560048036038101906102c091906125e1565b6106d5565b005b6102cf61072c565b6040516102dc919061262a565b60405180910390f35b6102ed610735565b6040516102fa9190612508565b60405180910390f35b61030b610759565b604051610318919061265e565b60405180910390f35b61033b60048036038101906103369190612483565b610768565b60405161034891906124de565b60405180910390f35b61035961079f565b005b610363610911565b6040516103709190612688565b60405180910390f35b610393600480360381019061038e9190612708565b610935565b005b6103af60048036038101906103aa9190612576565b610e64565b6040516103bc9190612508565b60405180910390f35b6103cd610eac565b005b6103e960048036038101906103e49190612576565b610ec0565b6040516103f69190612508565b60405180910390f35b610419600480360381019061041491906127c4565b610f10565b005b610423610fd2565b6040516104309190612688565b60405180910390f35b610441610ffc565b60405161044e91906123c3565b60405180910390f35b610471600480360381019061046c9190612483565b61108e565b60405161047e91906124de565b60405180910390f35b6104a1600480360381019061049c9190612483565b611105565b6040516104ae91906124de565b60405180910390f35b6104bf611128565b6040516104d09594939291906128f5565b60405180910390f35b6104f360048036038101906104ee91906129a0565b6111a5565b005b61050f600480360381019061050a91906129a0565b6111c9565b005b61052b60048036038101906105269190612a42565b61130b565b6040516105389190612508565b60405180910390f35b61055b60048036038101906105569190612a82565b611392565b005b61057760048036038101906105729190612576565b6113a7565b005b610593600480360381019061058e9190612adb565b61142a565b005b6105af60048036038101906105aa9190612b08565b6114f5565b005b6105b9611582565b6040516105c69190612508565b60405180910390f35b6060600380546105de90612b64565b80601f016020809104026020016040519081016040528092919081815260200182805461060a90612b64565b80156106575780601f1061062c57610100808354040283529160200191610657565b820191906000526020600020905b81548152906001019060200180831161063a57829003601f168201915b5050505050905090565b60008061066c611587565b905061067981858561158f565b600191505092915050565b6000600254905090565b600080610699611587565b90506106a6858285611758565b6106b18585856117e4565b60019150509392505050565b60086020528060005260406000206000915090505481565b6106dd611a63565b80600960030160006101000a81548173ffffffffffffffffffffffffffffffffffffffff021916908373ffffffffffffffffffffffffffffffffffffffff16021790555061072961079f565b50565b60006012905090565b7f000000000000000000000000000000000000000000000000000000000000000081565b6000610763611ae1565b905090565b600080610773611587565b9050610794818585610785858961130b565b61078f9190612bc4565b61158f565b600191505092915050565b6107a7611a63565b6000600960030160009054906101000a900473ffffffffffffffffffffffffffffffffffffffff1673ffffffffffffffffffffffffffffffffffffffff166370a08231306040518263ffffffff1660e01b81526004016108079190612688565b602060405180830381865afa158015610824573d6000803e3d6000fd5b505050506040513d601f19601f820116820180604052508101906108489190612c2f565b9050600960030160009054906101000a900473ffffffffffffffffffffffffffffffffffffffff1673ffffffffffffffffffffffffffffffffffffffff1663a9059cbb7f0000000000000000000000000000000000000000000000000000000000000000836040518363ffffffff1660e01b81526004016108ca929190612c5c565b6020604051808303816000875af11580156108e9573d6000803e3d6000fd5b505050506040513d601f19601f8201168201806040525081019061090d9190612cb1565b5050565b7f000000000000000000000000000000000000000000000000000000000000000081565b81816000600281111561094b5761094a6127f1565b5b600281111561095d5761095c6127f1565b5b600960000160009054906101000a900460ff166002811115610982576109816127f1565b5b036109c2576040517f08c379a00000000000000000000000000000000000000000000000000000000081526004016109b990612d2a565b60405180910390fd5b6002808111156109d5576109d46127f1565b5b60028111156109e7576109e66127f1565b5b600960000160009054906101000a900460ff166002811115610a0c57610a0b6127f1565b5b03610a4c576040517f08c379a0000000000000000000000000000000000000000000000000000000008152600401610a4390612d96565b60405180910390fd5b610a568282611bfb565b610a95576040517f08c379a0000000000000000000000000000000000000000000000000000000008152600401610a8c90612e02565b60405180910390fd5b600060096040518060a00160405290816000820160009054906101000a900460ff166002811115610ac957610ac86127f1565b5b6002811115610adb57610ada6127f1565b5b81526020016000820160019054906101000a900463ffffffff1663ffffffff1663ffffffff168152602001600182015481526020016002820160009054906101000a90046fffffffffffffffffffffffffffffffff166fffffffffffffffffffffffffffffffff166fffffffffffffffffffffffffffffffff1681526020016003820160009054906101000a900473ffffffffffffffffffffffffffffffffffffffff1673ffffffffffffffffffffffffffffffffffffffff1673ffffffffffffffffffffffffffffffffffffffff168152505090506000600a612710610bc29190612e22565b826020015163ffffffff1688610bd89190612e22565b610be29190612eab565b90507f0000000000000000000000000000000000000000000000000000000000000000610c0d610684565b82610c189190612bc4565b1115610c59576040517f08c379a0000000000000000000000000000000000000000000000000000000008152600401610c5090612f28565b60405180910390fd5b600960020160009054906101000a90046fffffffffffffffffffffffffffffffff166fffffffffffffffffffffffffffffffff1681600860003373ffffffffffffffffffffffffffffffffffffffff1673ffffffffffffffffffffffffffffffffffffffff16815260200190815260200160002054610cd89190612bc4565b1115610d19576040517f08c379a0000000000000000000000000000000000000000000000000000000008152600401610d1090612fba565b60405180910390fd5b600960030160009054906101000a900473ffffffffffffffffffffffffffffffffffffffff1673ffffffffffffffffffffffffffffffffffffffff166323b872dd33308a6040518463ffffffff1660e01b8152600401610d7b93929190612fda565b6020604051808303816000875af1158015610d9a573d6000803e3d6000fd5b505050506040513d601f19601f82011682018060405250810190610dbe9190612cb1565b50610dc98882611c3c565b80600860003373ffffffffffffffffffffffffffffffffffffffff1673ffffffffffffffffffffffffffffffffffffffff1681526020019081526020016000206000828254610e189190612bc4565b925050819055507f9e4ea95a373e6be65b8e8588f0c5491e3c70ace6d2cf2b53f95cf22a0fc9a699888883604051610e5293929190613011565b60405180910390a15050505050505050565b60008060008373ffffffffffffffffffffffffffffffffffffffff1673ffffffffffffffffffffffffffffffffffffffff168152602001908152602001600020549050919050565b610eb4611a63565b610ebe6000611d9b565b565b6000610f09600560008473ffffffffffffffffffffffffffffffffffffffff1673ffffffffffffffffffffffffffffffffffffffff168152602001908152602001600020611e61565b9050919050565b610f18611a63565b610f2061072c565b600a610f2c919061317b565b6064610f389190612e22565b816fffffffffffffffffffffffffffffffff1611610f8b576040517f08c379a0000000000000000000000000000000000000000000000000000000008152600401610f8290613212565b60405180910390fd5b80600960020160006101000a8154816fffffffffffffffffffffffffffffffff02191690836fffffffffffffffffffffffffffffffff160217905550610fcf61079f565b50565b6000600760009054906101000a900473ffffffffffffffffffffffffffffffffffffffff16905090565b60606004805461100b90612b64565b80601f016020809104026020016040519081016040528092919081815260200182805461103790612b64565b80156110845780601f1061105957610100808354040283529160200191611084565b820191906000526020600020905b81548152906001019060200180831161106757829003601f168201915b5050505050905090565b600080611099611587565b905060006110a7828661130b565b9050838110156110ec576040517f08c379a00000000000000000000000000000000000000000000000000000000081526004016110e3906132a4565b60405180910390fd5b6110f9828686840361158f565b60019250505092915050565b600080611110611587565b905061111d8185856117e4565b600191505092915050565b60098060000160009054906101000a900460ff16908060000160019054906101000a900463ffffffff16908060010154908060020160009054906101000a90046fffffffffffffffffffffffffffffffff16908060030160009054906101000a900473ffffffffffffffffffffffffffffffffffffffff16905085565b6111b4873387878787876111c9565b6111bf87878761068e565b5050505050505050565b8342111561120c576040517f08c379a000000000000000000000000000000000000000000000000000000000815260040161120390613310565b60405180910390fd5b60007f6e71edae12b1b97f4d1f60370fef10105fa2faae0126114a169c64845d6126c988888861123b8c611e6f565b8960405160200161125196959493929190613330565b604051602081830303815290604052805190602001209050600061127482611ecd565b9050600061128482878787611ee7565b90508973ffffffffffffffffffffffffffffffffffffffff168173ffffffffffffffffffffffffffffffffffffffff16146112f4576040517f08c379a00000000000000000000000000000000000000000000000000000000081526004016112eb906133dd565b60405180910390fd5b6112ff8a8a8a61158f565b50505050505050505050565b6000600160008473ffffffffffffffffffffffffffffffffffffffff1673ffffffffffffffffffffffffffffffffffffffff16815260200190815260200160002060008373ffffffffffffffffffffffffffffffffffffffff1673ffffffffffffffffffffffffffffffffffffffff16815260200190815260200160002054905092915050565b61139a611a63565b8060096001018190555050565b6113af611a63565b600073ffffffffffffffffffffffffffffffffffffffff168173ffffffffffffffffffffffffffffffffffffffff160361141e576040517f08c379a00000000000000000000000000000000000000000000000000000000081526004016114159061346f565b60405180910390fd5b61142781611d9b565b50565b611432611a63565b613e808163ffffffff161061147c576040517f08c379a0000000000000000000000000000000000000000000000000000000008152600401611473906134db565b60405180910390fd5b6117708163ffffffff16116114c6576040517f08c379a00000000000000000000000000000000000000000000000000000000081526004016114bd90613547565b60405180910390fd5b80600960000160016101000a81548163ffffffff021916908363ffffffff1602179055506114f261079f565b50565b6114fd611a63565b60038110611540576040517f08c379a0000000000000000000000000000000000000000000000000000000008152600401611537906135b3565b60405180910390fd5b806002811115611553576115526127f1565b5b600960000160006101000a81548160ff0219169083600281111561157a576115796127f1565b5b021790555050565b600a81565b600033905090565b600073ffffffffffffffffffffffffffffffffffffffff168373ffffffffffffffffffffffffffffffffffffffff16036115fe576040517f08c379a00000000000000000000000000000000000000000000000000000000081526004016115f590613645565b60405180910390fd5b600073ffffffffffffffffffffffffffffffffffffffff168273ffffffffffffffffffffffffffffffffffffffff160361166d576040517f08c379a0000000000000000000000000000000000000000000000000000000008152600401611664906136d7565b60405180910390fd5b80600160008573ffffffffffffffffffffffffffffffffffffffff1673ffffffffffffffffffffffffffffffffffffffff16815260200190815260200160002060008473ffffffffffffffffffffffffffffffffffffffff1673ffffffffffffffffffffffffffffffffffffffff168152602001908152602001600020819055508173ffffffffffffffffffffffffffffffffffffffff168373ffffffffffffffffffffffffffffffffffffffff167f8c5be1e5ebec7d5bd14f71427d1e84f3dd0314c0f7b2291e5b200ac8c7c3b9258360405161174b9190612508565b60405180910390a3505050565b6000611764848461130b565b90507fffffffffffffffffffffffffffffffffffffffffffffffffffffffffffffffff81146117de57818110156117d0576040517f08c379a00000000000000000000000000000000000000000000000000000000081526004016117c790613743565b60405180910390fd5b6117dd848484840361158f565b5b50505050565b600073ffffffffffffffffffffffffffffffffffffffff168373ffffffffffffffffffffffffffffffffffffffff1603611853576040517f08c379a000000000000000000000000000000000000000000000000000000000815260040161184a906137d5565b60405180910390fd5b600073ffffffffffffffffffffffffffffffffffffffff168273ffffffffffffffffffffffffffffffffffffffff16036118c2576040517f08c379a00000000000000000000000000000000000000000000000000000000081526004016118b990613867565b60405180910390fd5b6118cd838383611f12565b60008060008573ffffffffffffffffffffffffffffffffffffffff1673ffffffffffffffffffffffffffffffffffffffff16815260200190815260200160002054905081811015611953576040517f08c379a000000000000000000000000000000000000000000000000000000000815260040161194a906138f9565b60405180910390fd5b8181036000808673ffffffffffffffffffffffffffffffffffffffff1673ffffffffffffffffffffffffffffffffffffffff16815260200190815260200160002081905550816000808573ffffffffffffffffffffffffffffffffffffffff1673ffffffffffffffffffffffffffffffffffffffff16815260200190815260200160002060008282546119e69190612bc4565b925050819055508273ffffffffffffffffffffffffffffffffffffffff168473ffffffffffffffffffffffffffffffffffffffff167fddf252ad1be2c89b69c2b068fc378daa952ba7f163c4a11628f55a4df523b3ef84604051611a4a9190612508565b60405180910390a3611a5d848484611f17565b50505050565b611a6b611587565b73ffffffffffffffffffffffffffffffffffffffff16611a89610fd2565b73ffffffffffffffffffffffffffffffffffffffff1614611adf576040517f08c379a0000000000000000000000000000000000000000000000000000000008152600401611ad690613965565b60405180910390fd5b565b60007f000000000000000000000000000000000000000000000000000000000000000073ffffffffffffffffffffffffffffffffffffffff163073ffffffffffffffffffffffffffffffffffffffff16148015611b5d57507f000000000000000000000000000000000000000000000000000000000000000046145b15611b8a577f00000000000000000000000000000000000000000000000000000000000000009050611bf8565b611bf57f00000000000000000000000000000000000000000000000000000000000000007f00000000000000000000000000000000000000000000000000000000000000007f0000000000000000000000000000000000000000000000000000000000000000611f1c565b90505b90565b6000611c34838360096001015433604051602001611c1991906139cd565b60405160208183030381529060405280519060200120611f56565b905092915050565b600073ffffffffffffffffffffffffffffffffffffffff168273ffffffffffffffffffffffffffffffffffffffff1603611cab576040517f08c379a0000000000000000000000000000000000000000000000000000000008152600401611ca290613a34565b60405180910390fd5b611cb760008383611f12565b8060026000828254611cc99190612bc4565b92505081905550806000808473ffffffffffffffffffffffffffffffffffffffff1673ffffffffffffffffffffffffffffffffffffffff1681526020019081526020016000206000828254611d1e9190612bc4565b925050819055508173ffffffffffffffffffffffffffffffffffffffff16600073ffffffffffffffffffffffffffffffffffffffff167fddf252ad1be2c89b69c2b068fc378daa952ba7f163c4a11628f55a4df523b3ef83604051611d839190612508565b60405180910390a3611d9760008383611f17565b5050565b6000600760009054906101000a900473ffffffffffffffffffffffffffffffffffffffff16905081600760006101000a81548173ffffffffffffffffffffffffffffffffffffffff021916908373ffffffffffffffffffffffffffffffffffffffff1602179055508173ffffffffffffffffffffffffffffffffffffffff168173ffffffffffffffffffffffffffffffffffffffff167f8be0079c531659141344cd1fd0a4f28419497f9722a3daafe3b4186f6b6457e060405160405180910390a35050565b600081600001549050919050565b600080600560008473ffffffffffffffffffffffffffffffffffffffff1673ffffffffffffffffffffffffffffffffffffffff1681526020019081526020016000209050611ebc81611e61565b9150611ec781611f6f565b50919050565b6000611ee0611eda611ae1565b83611f85565b9050919050565b6000806000611ef887878787611fb8565b91509150611f05816120c4565b8192505050949350505050565b505050565b505050565b60008383834630604051602001611f37959493929190613a54565b6040516020818303038152906040528051906020012090509392505050565b600082611f64868685612290565b149050949350505050565b6001816000016000828254019250508190555050565b60008282604051602001611f9a929190613b1f565b60405160208183030381529060405280519060200120905092915050565b6000807f7fffffffffffffffffffffffffffffff5d576e7357a4501ddfe92f46681b20a08360001c1115611ff35760006003915091506120bb565b601b8560ff161415801561200b5750601c8560ff1614155b1561201d5760006004915091506120bb565b6000600187878787604051600081526020016040526040516120429493929190613b56565b6020604051602081039080840390855afa158015612064573d6000803e3d6000fd5b505050602060405103519050600073ffffffffffffffffffffffffffffffffffffffff168173ffffffffffffffffffffffffffffffffffffffff16036120b2576000600192509250506120bb565b80600092509250505b94509492505050565b600060048111156120d8576120d76127f1565b5b8160048111156120eb576120ea6127f1565b5b031561228d5760016004811115612105576121046127f1565b5b816004811115612118576121176127f1565b5b03612158576040517f08c379a000000000000000000000000000000000000000000000000000000000815260040161214f90613be7565b60405180910390fd5b6002600481111561216c5761216b6127f1565b5b81600481111561217f5761217e6127f1565b5b036121bf576040517f08c379a00000000000000000000000000000000000000000000000000000000081526004016121b690613c53565b60405180910390fd5b600360048111156121d3576121d26127f1565b5b8160048111156121e6576121e56127f1565b5b03612226576040517f08c379a000000000000000000000000000000000000000000000000000000000815260040161221d90613ce5565b60405180910390fd5b600480811115612239576122386127f1565b5b81600481111561224c5761224b6127f1565b5b0361228c576040517f08c379a000000000000000000000000000000000000000000000000000000000815260040161228390613d77565b60405180910390fd5b5b50565b60008082905060005b858590508110156122dc576122c7828787848181106122bb576122ba613d97565b5b905060200201356122e8565b915080806122d490613dc6565b915050612299565b50809150509392505050565b6000818310612300576122fb8284612313565b61230b565b61230a8383612313565b5b905092915050565b600082600052816020526040600020905092915050565b600081519050919050565b600082825260208201905092915050565b60005b83811015612364578082015181840152602081019050612349565b83811115612373576000848401525b50505050565b6000601f19601f8301169050919050565b60006123958261232a565b61239f8185612335565b93506123af818560208601612346565b6123b881612379565b840191505092915050565b600060208201905081810360008301526123dd818461238a565b905092915050565b600080fd5b600080fd5b600073ffffffffffffffffffffffffffffffffffffffff82169050919050565b600061241a826123ef565b9050919050565b61242a8161240f565b811461243557600080fd5b50565b60008135905061244781612421565b92915050565b6000819050919050565b6124608161244d565b811461246b57600080fd5b50565b60008135905061247d81612457565b92915050565b6000806040838503121561249a576124996123e5565b5b60006124a885828601612438565b92505060206124b98582860161246e565b9150509250929050565b60008115159050919050565b6124d8816124c3565b82525050565b60006020820190506124f360008301846124cf565b92915050565b6125028161244d565b82525050565b600060208201905061251d60008301846124f9565b92915050565b60008060006060848603121561253c5761253b6123e5565b5b600061254a86828701612438565b935050602061255b86828701612438565b925050604061256c8682870161246e565b9150509250925092565b60006020828403121561258c5761258b6123e5565b5b600061259a84828501612438565b91505092915050565b60006125ae8261240f565b9050919050565b6125be816125a3565b81146125c957600080fd5b50565b6000813590506125db816125b5565b92915050565b6000602082840312156125f7576125f66123e5565b5b6000612605848285016125cc565b91505092915050565b600060ff82169050919050565b6126248161260e565b82525050565b600060208201905061263f600083018461261b565b92915050565b6000819050919050565b61265881612645565b82525050565b6000602082019050612673600083018461264f565b92915050565b6126828161240f565b82525050565b600060208201905061269d6000830184612679565b92915050565b600080fd5b600080fd5b600080fd5b60008083601f8401126126c8576126c76126a3565b5b8235905067ffffffffffffffff8111156126e5576126e46126a8565b5b602083019150836020820283011115612701576127006126ad565b5b9250929050565b60008060008060608587031215612722576127216123e5565b5b600061273087828801612438565b94505060206127418782880161246e565b935050604085013567ffffffffffffffff811115612762576127616123ea565b5b61276e878288016126b2565b925092505092959194509250565b60006fffffffffffffffffffffffffffffffff82169050919050565b6127a18161277c565b81146127ac57600080fd5b50565b6000813590506127be81612798565b92915050565b6000602082840312156127da576127d96123e5565b5b60006127e8848285016127af565b91505092915050565b7f4e487b7100000000000000000000000000000000000000000000000000000000600052602160045260246000fd5b60038110612831576128306127f1565b5b50565b600081905061284282612820565b919050565b600061285282612834565b9050919050565b61286281612847565b82525050565b600063ffffffff82169050919050565b61288181612868565b82525050565b6128908161277c565b82525050565b6000819050919050565b60006128bb6128b66128b1846123ef565b612896565b6123ef565b9050919050565b60006128cd826128a0565b9050919050565b60006128df826128c2565b9050919050565b6128ef816128d4565b82525050565b600060a08201905061290a6000830188612859565b6129176020830187612878565b612924604083018661264f565b6129316060830185612887565b61293e60808301846128e6565b9695505050505050565b6129518161260e565b811461295c57600080fd5b50565b60008135905061296e81612948565b92915050565b61297d81612645565b811461298857600080fd5b50565b60008135905061299a81612974565b92915050565b600080600080600080600060e0888a0312156129bf576129be6123e5565b5b60006129cd8a828b01612438565b97505060206129de8a828b01612438565b96505060406129ef8a828b0161246e565b9550506060612a008a828b0161246e565b9450506080612a118a828b0161295f565b93505060a0612a228a828b0161298b565b92505060c0612a338a828b0161298b565b91505092959891949750929550565b60008060408385031215612a5957612a586123e5565b5b6000612a6785828601612438565b9250506020612a7885828601612438565b9150509250929050565b600060208284031215612a9857612a976123e5565b5b6000612aa68482850161298b565b91505092915050565b612ab881612868565b8114612ac357600080fd5b50565b600081359050612ad581612aaf565b92915050565b600060208284031215612af157612af06123e5565b5b6000612aff84828501612ac6565b91505092915050565b600060208284031215612b1e57612b1d6123e5565b5b6000612b2c8482850161246e565b91505092915050565b7f4e487b7100000000000000000000000000000000000000000000000000000000600052602260045260246000fd5b60006002820490506001821680612b7c57607f821691505b602082108103612b8f57612b8e612b35565b5b50919050565b7f4e487b7100000000000000000000000000000000000000000000000000000000600052601160045260246000fd5b6000612bcf8261244d565b9150612bda8361244d565b9250827fffffffffffffffffffffffffffffffffffffffffffffffffffffffffffffffff03821115612c0f57612c0e612b95565b5b828201905092915050565b600081519050612c2981612457565b92915050565b600060208284031215612c4557612c446123e5565b5b6000612c5384828501612c1a565b91505092915050565b6000604082019050612c716000830185612679565b612c7e60208301846124f9565b9392505050565b612c8e816124c3565b8114612c9957600080fd5b50565b600081519050612cab81612c85565b92915050565b600060208284031215612cc757612cc66123e5565b5b6000612cd584828501612c9c565b91505092915050565b7f4e6f742079657400000000000000000000000000000000000000000000000000600082015250565b6000612d14600783612335565b9150612d1f82612cde565b602082019050919050565b60006020820190508181036000830152612d4381612d07565b9050919050565b7f536f6c64204f7574000000000000000000000000000000000000000000000000600082015250565b6000612d80600883612335565b9150612d8b82612d4a565b602082019050919050565b60006020820190508181036000830152612daf81612d73565b9050919050565b7f4e6f742057686974656c69737465640000000000000000000000000000000000600082015250565b6000612dec600f83612335565b9150612df782612db6565b602082019050919050565b60006020820190508181036000830152612e1b81612ddf565b9050919050565b6000612e2d8261244d565b9150612e388361244d565b9250817fffffffffffffffffffffffffffffffffffffffffffffffffffffffffffffffff0483118215151615612e7157612e70612b95565b5b828202905092915050565b7f4e487b7100000000000000000000000000000000000000000000000000000000600052601260045260246000fd5b6000612eb68261244d565b9150612ec18361244d565b925082612ed157612ed0612e7c565b5b828204905092915050565b7f4d6178696d756d20737570706c79206578636565646564000000000000000000600082015250565b6000612f12601783612335565b9150612f1d82612edc565b602082019050919050565b60006020820190508181036000830152612f4181612f05565b9050919050565b7f54686973204164647265737320626f7567687420746f6f206d75636820746f6b60008201527f656e730000000000000000000000000000000000000000000000000000000000602082015250565b6000612fa4602383612335565b9150612faf82612f48565b604082019050919050565b60006020820190508181036000830152612fd381612f97565b9050919050565b6000606082019050612fef6000830186612679565b612ffc6020830185612679565b61300960408301846124f9565b949350505050565b60006060820190506130266000830186612679565b61303360208301856124f9565b61304060408301846124f9565b949350505050565b60008160011c9050919050565b6000808291508390505b600185111561309f5780860481111561307b5761307a612b95565b5b600185161561308a5780820291505b808102905061309885613048565b945061305f565b94509492505050565b6000826130b85760019050613174565b816130c65760009050613174565b81600181146130dc57600281146130e657613115565b6001915050613174565b60ff8411156130f8576130f7612b95565b5b8360020a91508482111561310f5761310e612b95565b5b50613174565b5060208310610133831016604e8410600b841016171561314a5782820a90508381111561314557613144612b95565b5b613174565b6131578484846001613055565b9250905081840481111561316e5761316d612b95565b5b81810290505b9392505050565b60006131868261244d565b91506131918361260e565b92506131be7fffffffffffffffffffffffffffffffffffffffffffffffffffffffffffffffff84846130a8565b905092915050565b7f546f6f206c6f77202c20636865636b20646563696d616c732100000000000000600082015250565b60006131fc601983612335565b9150613207826131c6565b602082019050919050565b6000602082019050818103600083015261322b816131ef565b9050919050565b7f45524332303a2064656372656173656420616c6c6f77616e63652062656c6f7760008201527f207a65726f000000000000000000000000000000000000000000000000000000602082015250565b600061328e602583612335565b915061329982613232565b604082019050919050565b600060208201905081810360008301526132bd81613281565b9050919050565b7f45524332305065726d69743a206578706972656420646561646c696e65000000600082015250565b60006132fa601d83612335565b9150613305826132c4565b602082019050919050565b60006020820190508181036000830152613329816132ed565b9050919050565b600060c082019050613345600083018961264f565b6133526020830188612679565b61335f6040830187612679565b61336c60608301866124f9565b61337960808301856124f9565b61338660a08301846124f9565b979650505050505050565b7f45524332305065726d69743a20696e76616c6964207369676e61747572650000600082015250565b60006133c7601e83612335565b91506133d282613391565b602082019050919050565b600060208201905081810360008301526133f6816133ba565b9050919050565b7f4f776e61626c653a206e6577206f776e657220697320746865207a65726f206160008201527f6464726573730000000000000000000000000000000000000000000000000000602082015250565b6000613459602683612335565b9150613464826133fd565b604082019050919050565b600060208201905081810360008301526134888161344c565b9050919050565b7f312e36206575726f20666f72206f6e6520646f6c6c6172203f3f200000000000600082015250565b60006134c5601b83612335565b91506134d08261348f565b602082019050919050565b600060208201905081810360008301526134f4816134b8565b9050919050565b7f302e36206575726f20666f72206f6e6520646f6c6c6172203f3f200000000000600082015250565b6000613531601b83612335565b915061353c826134fb565b602082019050919050565b6000602082019050818103600083015261356081613524565b9050919050565b7f57726f6e67206e756d6265720000000000000000000000000000000000000000600082015250565b600061359d600c83612335565b91506135a882613567565b602082019050919050565b600060208201905081810360008301526135cc81613590565b9050919050565b7f45524332303a20617070726f76652066726f6d20746865207a65726f2061646460008201527f7265737300000000000000000000000000000000000000000000000000000000602082015250565b600061362f602483612335565b915061363a826135d3565b604082019050919050565b6000602082019050818103600083015261365e81613622565b9050919050565b7f45524332303a20617070726f766520746f20746865207a65726f20616464726560008201527f7373000000000000000000000000000000000000000000000000000000000000602082015250565b60006136c1602283612335565b91506136cc82613665565b604082019050919050565b600060208201905081810360008301526136f0816136b4565b9050919050565b7f45524332303a20696e73756666696369656e7420616c6c6f77616e6365000000600082015250565b600061372d601d83612335565b9150613738826136f7565b602082019050919050565b6000602082019050818103600083015261375c81613720565b9050919050565b7f45524332303a207472616e736665722066726f6d20746865207a65726f20616460008201527f6472657373000000000000000000000000000000000000000000000000000000602082015250565b60006137bf602583612335565b91506137ca82613763565b604082019050919050565b600060208201905081810360008301526137ee816137b2565b9050919050565b7f45524332303a207472616e7366657220746f20746865207a65726f206164647260008201527f6573730000000000000000000000000000000000000000000000000000000000602082015250565b6000613851602383612335565b915061385c826137f5565b604082019050919050565b6000602082019050818103600083015261388081613844565b9050919050565b7f45524332303a207472616e7366657220616d6f756e742065786365656473206260008201527f616c616e63650000000000000000000000000000000000000000000000000000602082015250565b60006138e3602683612335565b91506138ee82613887565b604082019050919050565b60006020820190508181036000830152613912816138d6565b9050919050565b7f4f776e61626c653a2063616c6c6572206973206e6f7420746865206f776e6572600082015250565b600061394f602083612335565b915061395a82613919565b602082019050919050565b6000602082019050818103600083015261397e81613942565b9050919050565b60008160601b9050919050565b600061399d82613985565b9050919050565b60006139af82613992565b9050919050565b6139c76139c28261240f565b6139a4565b82525050565b60006139d982846139b6565b60148201915081905092915050565b7f45524332303a206d696e7420746f20746865207a65726f206164647265737300600082015250565b6000613a1e601f83612335565b9150613a29826139e8565b602082019050919050565b60006020820190508181036000830152613a4d81613a11565b9050919050565b600060a082019050613a69600083018861264f565b613a76602083018761264f565b613a83604083018661264f565b613a9060608301856124f9565b613a9d6080830184612679565b9695505050505050565b600081905092915050565b7f1901000000000000000000000000000000000000000000000000000000000000600082015250565b6000613ae8600283613aa7565b9150613af382613ab2565b600282019050919050565b6000819050919050565b613b19613b1482612645565b613afe565b82525050565b6000613b2a82613adb565b9150613b368285613b08565b602082019150613b468284613b08565b6020820191508190509392505050565b6000608082019050613b6b600083018761264f565b613b78602083018661261b565b613b85604083018561264f565b613b92606083018461264f565b95945050505050565b7f45434453413a20696e76616c6964207369676e61747572650000000000000000600082015250565b6000613bd1601883612335565b9150613bdc82613b9b565b602082019050919050565b60006020820190508181036000830152613c0081613bc4565b9050919050565b7f45434453413a20696e76616c6964207369676e6174757265206c656e67746800600082015250565b6000613c3d601f83612335565b9150613c4882613c07565b602082019050919050565b60006020820190508181036000830152613c6c81613c30565b9050919050565b7f45434453413a20696e76616c6964207369676e6174757265202773272076616c60008201527f7565000000000000000000000000000000000000000000000000000000000000602082015250565b6000613ccf602283612335565b9150613cda82613c73565b604082019050919050565b60006020820190508181036000830152613cfe81613cc2565b9050919050565b7f45434453413a20696e76616c6964207369676e6174757265202776272076616c60008201527f7565000000000000000000000000000000000000000000000000000000000000602082015250565b6000613d61602283612335565b9150613d6c82613d05565b604082019050919050565b60006020820190508181036000830152613d9081613d54565b9050919050565b7f4e487b7100000000000000000000000000000000000000000000000000000000600052603260045260246000fd5b6000613dd18261244d565b91507fffffffffffffffffffffffffffffffffffffffffffffffffffffffffffffffff8203613e0357613e02612b95565b5b60018201905091905056fea264697066735822122060ca438d832a18993a75d6efac20d1375af67b5f6bcbbc641082c026265cee0264736f6c634300080e0033",
  "linkReferences": {},
  "deployedLinkReferences": {}
}