{
  "_format": "hh-sol-artifact-1",
  "contractName": "PropertyToken",
  "sourceName": "contracts/PropertyToken.sol",
  "abi": [
    {
      "inputs": [
        {
          "internalType": "contract IERC20",
          "name": "_currencyUsed",
          "type": "address"
        },
        {
          "internalType": "uint256",
          "name": "_max_supply",
          "type": "uint256"
        },
        {
          "internalType": "address",
          "name": "_multiSig",
          "type": "address"
        },
        {
          "internalType": "string",
          "name": "_name",
          "type": "string"
        },
        {
          "internalType": "string",
          "name": "_symbol",
          "type": "string"
        }
      ],
      "stateMutability": "nonpayable",
      "type": "constructor"
    },
    {
      "anonymous": false,
      "inputs": [
        {
          "indexed": true,
          "internalType": "address",
          "name": "owner",
          "type": "address"
        },
        {
          "indexed": true,
          "internalType": "address",
          "name": "spender",
          "type": "address"
        },
        {
          "indexed": false,
          "internalType": "uint256",
          "name": "value",
          "type": "uint256"
        }
      ],
      "name": "Approval",
      "type": "event"
    },
    {
      "anonymous": false,
      "inputs": [
        {
          "indexed": false,
          "internalType": "address",
          "name": "buyer",
          "type": "address"
        },
        {
          "indexed": false,
          "internalType": "uint256",
          "name": "amount",
          "type": "uint256"
        }
      ],
      "name": "Buying",
      "type": "event"
    },
    {
      "anonymous": false,
      "inputs": [
        {
          "indexed": true,
          "internalType": "address",
          "name": "previousOwner",
          "type": "address"
        },
        {
          "indexed": true,
          "internalType": "address",
          "name": "newOwner",
          "type": "address"
        }
      ],
      "name": "OwnershipTransferred",
      "type": "event"
    },
    {
      "anonymous": false,
      "inputs": [
        {
          "indexed": true,
          "internalType": "address",
          "name": "from",
          "type": "address"
        },
        {
          "indexed": true,
          "internalType": "address",
          "name": "to",
          "type": "address"
        },
        {
          "indexed": false,
          "internalType": "uint256",
          "name": "value",
          "type": "uint256"
        }
      ],
      "name": "Transfer",
      "type": "event"
    },
    {
      "inputs": [],
      "name": "DOMAIN_SEPARATOR",
      "outputs": [
        {
          "internalType": "bytes32",
          "name": "",
          "type": "bytes32"
        }
      ],
      "stateMutability": "view",
      "type": "function"
    },
    {
      "inputs": [],
      "name": "MAX_SUPPLY",
      "outputs": [
        {
          "internalType": "uint256",
          "name": "",
          "type": "uint256"
        }
      ],
      "stateMutability": "view",
      "type": "function"
    },
    {
      "inputs": [],
      "name": "MAX_TO_BUY",
      "outputs": [
        {
          "internalType": "uint256",
          "name": "",
          "type": "uint256"
        }
      ],
      "stateMutability": "view",
      "type": "function"
    },
    {
      "inputs": [
        {
          "internalType": "address",
          "name": "owner",
          "type": "address"
        },
        {
          "internalType": "address",
          "name": "spender",
          "type": "address"
        }
      ],
      "name": "allowance",
      "outputs": [
        {
          "internalType": "uint256",
          "name": "",
          "type": "uint256"
        }
      ],
      "stateMutability": "view",
      "type": "function"
    },
    {
      "inputs": [
        {
          "internalType": "address",
          "name": "spender",
          "type": "address"
        },
        {
          "internalType": "uint256",
          "name": "amount",
          "type": "uint256"
        }
      ],
      "name": "approve",
      "outputs": [
        {
          "internalType": "bool",
          "name": "",
          "type": "bool"
        }
      ],
      "stateMutability": "nonpayable",
      "type": "function"
    },
    {
      "inputs": [
        {
          "internalType": "address",
          "name": "account",
          "type": "address"
        }
      ],
      "name": "balanceOf",
      "outputs": [
        {
          "internalType": "uint256",
          "name": "",
          "type": "uint256"
        }
      ],
      "stateMutability": "view",
      "type": "function"
    },
    {
      "inputs": [
        {
          "internalType": "address",
          "name": "_to",
          "type": "address"
        },
        {
          "internalType": "uint256",
          "name": "price",
          "type": "uint256"
        },
        {
          "internalType": "bytes32[]",
          "name": "proof",
          "type": "bytes32[]"
        }
      ],
      "name": "buy",
      "outputs": [],
      "stateMutability": "nonpayable",
      "type": "function"
    },
    {
      "inputs": [],
      "name": "currencyUsed",
      "outputs": [
        {
          "internalType": "contract IERC20",
          "name": "",
          "type": "address"
        }
      ],
      "stateMutability": "view",
      "type": "function"
    },
    {
      "inputs": [],
      "name": "decimals",
      "outputs": [
        {
          "internalType": "uint8",
          "name": "",
          "type": "uint8"
        }
      ],
      "stateMutability": "view",
      "type": "function"
    },
    {
      "inputs": [
        {
          "internalType": "address",
          "name": "spender",
          "type": "address"
        },
        {
          "internalType": "uint256",
          "name": "subtractedValue",
          "type": "uint256"
        }
      ],
      "name": "decreaseAllowance",
      "outputs": [
        {
          "internalType": "bool",
          "name": "",
          "type": "bool"
        }
      ],
      "stateMutability": "nonpayable",
      "type": "function"
    },
    {
      "inputs": [
        {
          "internalType": "address",
          "name": "spender",
          "type": "address"
        },
        {
          "internalType": "uint256",
          "name": "addedValue",
          "type": "uint256"
        }
      ],
      "name": "increaseAllowance",
      "outputs": [
        {
          "internalType": "bool",
          "name": "",
          "type": "bool"
        }
      ],
      "stateMutability": "nonpayable",
      "type": "function"
    },
    {
      "inputs": [],
      "name": "multisig",
      "outputs": [
        {
          "internalType": "address",
          "name": "",
          "type": "address"
        }
      ],
      "stateMutability": "view",
      "type": "function"
    },
    {
      "inputs": [],
      "name": "name",
      "outputs": [
        {
          "internalType": "string",
          "name": "",
          "type": "string"
        }
      ],
      "stateMutability": "view",
      "type": "function"
    },
    {
      "inputs": [
        {
          "internalType": "address",
          "name": "owner",
          "type": "address"
        }
      ],
      "name": "nonces",
      "outputs": [
        {
          "internalType": "uint256",
          "name": "",
          "type": "uint256"
        }
      ],
      "stateMutability": "view",
      "type": "function"
    },
    {
      "inputs": [],
      "name": "owner",
      "outputs": [
        {
          "internalType": "address",
          "name": "",
          "type": "address"
        }
      ],
      "stateMutability": "view",
      "type": "function"
    },
    {
      "inputs": [
        {
          "internalType": "address",
          "name": "owner",
          "type": "address"
        },
        {
          "internalType": "address",
          "name": "spender",
          "type": "address"
        },
        {
          "internalType": "uint256",
          "name": "value",
          "type": "uint256"
        },
        {
          "internalType": "uint256",
          "name": "deadline",
          "type": "uint256"
        },
        {
          "internalType": "uint8",
          "name": "v",
          "type": "uint8"
        },
        {
          "internalType": "bytes32",
          "name": "r",
          "type": "bytes32"
        },
        {
          "internalType": "bytes32",
          "name": "s",
          "type": "bytes32"
        }
      ],
      "name": "permit",
      "outputs": [],
      "stateMutability": "nonpayable",
      "type": "function"
    },
    {
      "inputs": [],
      "name": "renounceOwnership",
      "outputs": [],
      "stateMutability": "nonpayable",
      "type": "function"
    },
    {
      "inputs": [
        {
          "internalType": "bytes32",
          "name": "merkleRoot",
          "type": "bytes32"
        }
      ],
      "name": "setAllowListMerkleRoot",
      "outputs": [],
      "stateMutability": "nonpayable",
      "type": "function"
    },
    {
      "inputs": [
        {
          "internalType": "uint32",
          "name": "_cexRatioX10000",
          "type": "uint32"
        }
      ],
      "name": "setCexRatio",
      "outputs": [],
      "stateMutability": "nonpayable",
      "type": "function"
    },
    {
      "inputs": [
        {
          "internalType": "uint256",
          "name": "step",
          "type": "uint256"
        }
      ],
      "name": "setStep",
      "outputs": [],
      "stateMutability": "nonpayable",
      "type": "function"
    },
    {
      "inputs": [],
      "name": "symbol",
      "outputs": [
        {
          "internalType": "string",
          "name": "",
          "type": "string"
        }
      ],
      "stateMutability": "view",
      "type": "function"
    },
    {
      "inputs": [
        {
          "internalType": "address",
          "name": "",
          "type": "address"
        }
      ],
      "name": "tokensBought",
      "outputs": [
        {
          "internalType": "uint256",
          "name": "",
          "type": "uint256"
        }
      ],
      "stateMutability": "view",
      "type": "function"
    },
    {
      "inputs": [],
      "name": "totalSupply",
      "outputs": [
        {
          "internalType": "uint256",
          "name": "",
          "type": "uint256"
        }
      ],
      "stateMutability": "view",
      "type": "function"
    },
    {
      "inputs": [
        {
          "internalType": "address",
          "name": "to",
          "type": "address"
        },
        {
          "internalType": "uint256",
          "name": "amount",
          "type": "uint256"
        }
      ],
      "name": "transfer",
      "outputs": [
        {
          "internalType": "bool",
          "name": "",
          "type": "bool"
        }
      ],
      "stateMutability": "nonpayable",
      "type": "function"
    },
    {
      "inputs": [
        {
          "internalType": "address",
          "name": "from",
          "type": "address"
        },
        {
          "internalType": "address",
          "name": "to",
          "type": "address"
        },
        {
          "internalType": "uint256",
          "name": "amount",
          "type": "uint256"
        }
      ],
      "name": "transferFrom",
      "outputs": [
        {
          "internalType": "bool",
          "name": "",
          "type": "bool"
        }
      ],
      "stateMutability": "nonpayable",
      "type": "function"
    },
    {
      "inputs": [
        {
          "internalType": "address",
          "name": "newOwner",
          "type": "address"
        }
      ],
      "name": "transferOwnership",
      "outputs": [],
      "stateMutability": "nonpayable",
      "type": "function"
    },
    {
      "inputs": [
        {
          "internalType": "address",
          "name": "from",
          "type": "address"
        },
        {
          "internalType": "address",
          "name": "receiver",
          "type": "address"
        },
        {
          "internalType": "uint256",
          "name": "amount",
          "type": "uint256"
        },
        {
          "internalType": "uint256",
          "name": "deadline",
          "type": "uint256"
        },
        {
          "internalType": "uint8",
          "name": "v",
          "type": "uint8"
        },
        {
          "internalType": "bytes32",
          "name": "r",
          "type": "bytes32"
        },
        {
          "internalType": "bytes32",
          "name": "s",
          "type": "bytes32"
        }
      ],
      "name": "transferToWithPermission",
      "outputs": [],
      "stateMutability": "nonpayable",
      "type": "function"
    },
    {
      "inputs": [],
      "name": "variables",
      "outputs": [
        {
          "internalType": "enum PropertyToken.Step",
          "name": "step",
          "type": "uint8"
        },
        {
          "internalType": "uint32",
          "name": "cexRatioX10000",
          "type": "uint32"
        },
        {
          "internalType": "bytes32",
          "name": "merkleRoot",
          "type": "bytes32"
        }
      ],
      "stateMutability": "view",
      "type": "function"
    },
    {
      "inputs": [],
      "name": "withdraw",
      "outputs": [],
      "stateMutability": "nonpayable",
      "type": "function"
    }
  ],
  "bytecode": "0x6101c06040523480156200001257600080fd5b50604051620042e9380380620042e9833981810160405281019062000038919062000658565b81806040518060400160405280600181526020017f3100000000000000000000000000000000000000000000000000000000000000815250848481600390805190602001906200008a92919062000326565b508060049080519060200190620000a392919062000326565b50505060008280519060200120905060008280519060200120905060007f8b73c3c69bb8fe3d512ecc4cf759cc79239f7b179b0ffacaa9a75d522b39400f90508260e081815250508161010081815250504660a081815250506200010f8184846200021c60201b60201c565b608081815250503073ffffffffffffffffffffffffffffffffffffffff1660c08173ffffffffffffffffffffffffffffffffffffffff1681525050806101208181525050505050505050620001796200016d6200025860201b60201c565b6200026060201b60201c565b8473ffffffffffffffffffffffffffffffffffffffff166101a08173ffffffffffffffffffffffffffffffffffffffff16815250508273ffffffffffffffffffffffffffffffffffffffff166101808173ffffffffffffffffffffffffffffffffffffffff16815250508361014081815250506064601e85620001fd91906200074d565b620002099190620007dd565b6101608181525050505050505062000913565b600083838346306040516020016200023995949392919062000852565b6040516020818303038152906040528051906020012090509392505050565b600033905090565b6000600760009054906101000a900473ffffffffffffffffffffffffffffffffffffffff16905081600760006101000a81548173ffffffffffffffffffffffffffffffffffffffff021916908373ffffffffffffffffffffffffffffffffffffffff1602179055508173ffffffffffffffffffffffffffffffffffffffff168173ffffffffffffffffffffffffffffffffffffffff167f8be0079c531659141344cd1fd0a4f28419497f9722a3daafe3b4186f6b6457e060405160405180910390a35050565b8280546200033490620008de565b90600052602060002090601f016020900481019282620003585760008555620003a4565b82601f106200037357805160ff1916838001178555620003a4565b82800160010185558215620003a4579182015b82811115620003a357825182559160200191906001019062000386565b5b509050620003b39190620003b7565b5090565b5b80821115620003d2576000816000905550600101620003b8565b5090565b6000604051905090565b600080fd5b600080fd5b600073ffffffffffffffffffffffffffffffffffffffff82169050919050565b60006200041782620003ea565b9050919050565b60006200042b826200040a565b9050919050565b6200043d816200041e565b81146200044957600080fd5b50565b6000815190506200045d8162000432565b92915050565b6000819050919050565b620004788162000463565b81146200048457600080fd5b50565b60008151905062000498816200046d565b92915050565b620004a9816200040a565b8114620004b557600080fd5b50565b600081519050620004c9816200049e565b92915050565b600080fd5b600080fd5b6000601f19601f8301169050919050565b7f4e487b7100000000000000000000000000000000000000000000000000000000600052604160045260246000fd5b6200052482620004d9565b810181811067ffffffffffffffff82111715620005465762000545620004ea565b5b80604052505050565b60006200055b620003d6565b905062000569828262000519565b919050565b600067ffffffffffffffff8211156200058c576200058b620004ea565b5b6200059782620004d9565b9050602081019050919050565b60005b83811015620005c4578082015181840152602081019050620005a7565b83811115620005d4576000848401525b50505050565b6000620005f1620005eb846200056e565b6200054f565b90508281526020810184848401111562000610576200060f620004d4565b5b6200061d848285620005a4565b509392505050565b600082601f8301126200063d576200063c620004cf565b5b81516200064f848260208601620005da565b91505092915050565b600080600080600060a08688031215620006775762000676620003e0565b5b600062000687888289016200044c565b95505060206200069a8882890162000487565b9450506040620006ad88828901620004b8565b935050606086015167ffffffffffffffff811115620006d157620006d0620003e5565b5b620006df8882890162000625565b925050608086015167ffffffffffffffff811115620007035762000702620003e5565b5b620007118882890162000625565b9150509295509295909350565b7f4e487b7100000000000000000000000000000000000000000000000000000000600052601160045260246000fd5b60006200075a8262000463565b9150620007678362000463565b9250817fffffffffffffffffffffffffffffffffffffffffffffffffffffffffffffffff0483118215151615620007a357620007a26200071e565b5b828202905092915050565b7f4e487b7100000000000000000000000000000000000000000000000000000000600052601260045260246000fd5b6000620007ea8262000463565b9150620007f78362000463565b9250826200080a5762000809620007ae565b5b828204905092915050565b6000819050919050565b6200082a8162000815565b82525050565b6200083b8162000463565b82525050565b6200084c816200040a565b82525050565b600060a0820190506200086960008301886200081f565b6200087860208301876200081f565b6200088760408301866200081f565b62000896606083018562000830565b620008a5608083018462000841565b9695505050505050565b7f4e487b7100000000000000000000000000000000000000000000000000000000600052602260045260246000fd5b60006002820490506001821680620008f757607f821691505b6020821081036200090d576200090c620008af565b5b50919050565b60805160a05160c05160e05161010051610120516101405161016051610180516101a051613930620009b9600039600081816107750152818161081101528181610ad50152610d7201526000818161084d01526108d30152600081816105ce0152610ba00152600081816107010152610b2b0152600061190e015260006119500152600061192f01526000611864015260006118ba015260006118e301526139306000f3fe608060405234801561001057600080fd5b50600436106101cf5760003560e01c80635a27d49211610104578063a9059cbb116100a2578063ea7a42e411610071578063ea7a42e414610538578063f2fde38b14610554578063f75d6f8014610570578063f8dcbddb1461058c576101cf565b8063a9059cbb1461049c578063be45a26f146104cc578063d505accf146104ec578063dd62ed3e14610508576101cf565b80637ecebe00116100de5780637ecebe00146104005780638da5cb5b1461043057806395d89b411461044e578063a457c2d71461046c576101cf565b80635a27d492146103a857806370a08231146103c6578063715018a6146103f6576101cf565b8063313ce56711610171578063395093511161014b57806339509351146103345780633ccfd60b146103645780634783c35b1461036e5780634c13a6391461038c576101cf565b8063313ce567146102da57806332cb6b0c146102f85780633644e51514610316576101cf565b8063095ea7b3116101ad578063095ea7b31461022c57806318160ddd1461025c57806323b872dd1461027a578063264d7797146102aa576101cf565b8063015474e2146101d457806302754284146101f057806306fdde031461020e575b600080fd5b6101ee60048036038101906101e99190612234565b6105a8565b005b6101f86105cc565b60405161020591906122e5565b60405180910390f35b6102166105f0565b6040516102239190612399565b60405180910390f35b610246600480360381019061024191906123bb565b610682565b6040516102539190612416565b60405180910390f35b6102646106a5565b60405161027191906122e5565b60405180910390f35b610294600480360381019061028f9190612431565b6106af565b6040516102a19190612416565b60405180910390f35b6102c460048036038101906102bf9190612484565b6106de565b6040516102d191906122e5565b60405180910390f35b6102e26106f6565b6040516102ef91906124c0565b60405180910390f35b6103006106ff565b60405161030d91906122e5565b60405180910390f35b61031e610723565b60405161032b91906124ea565b60405180910390f35b61034e600480360381019061034991906123bb565b610732565b60405161035b9190612416565b60405180910390f35b61036c610769565b005b6103766108d1565b6040516103839190612514565b60405180910390f35b6103a660048036038101906103a19190612594565b6108f5565b005b6103b0610d70565b6040516103bd9190612667565b60405180910390f35b6103e060048036038101906103db9190612484565b610d94565b6040516103ed91906122e5565b60405180910390f35b6103fe610ddc565b005b61041a60048036038101906104159190612484565b610df0565b60405161042791906122e5565b60405180910390f35b610438610e40565b6040516104459190612514565b60405180910390f35b610456610e6a565b6040516104639190612399565b60405180910390f35b610486600480360381019061048191906123bb565b610efc565b6040516104939190612416565b60405180910390f35b6104b660048036038101906104b191906123bb565b610f73565b6040516104c39190612416565b60405180910390f35b6104d4610f96565b6040516104e393929190612718565b60405180910390f35b61050660048036038101906105019190612234565b610fcb565b005b610522600480360381019061051d919061274f565b61110d565b60405161052f91906122e5565b60405180910390f35b610552600480360381019061054d919061278f565b611194565b005b61056e60048036038101906105699190612484565b6111a9565b005b61058a600480360381019061058591906127e8565b61122c565b005b6105a660048036038101906105a19190612815565b6112f7565b005b6105b787338787878787610fcb565b6105c28787876106af565b5050505050505050565b7f000000000000000000000000000000000000000000000000000000000000000081565b6060600380546105ff90612871565b80601f016020809104026020016040519081016040528092919081815260200182805461062b90612871565b80156106785780601f1061064d57610100808354040283529160200191610678565b820191906000526020600020905b81548152906001019060200180831161065b57829003601f168201915b5050505050905090565b60008061068d611384565b905061069a81858561138c565b600191505092915050565b6000600254905090565b6000806106ba611384565b90506106c7858285611555565b6106d28585856115e1565b60019150509392505050565b60086020528060005260406000206000915090505481565b60006012905090565b7f000000000000000000000000000000000000000000000000000000000000000081565b600061072d611860565b905090565b60008061073d611384565b905061075e81858561074f858961110d565b61075991906128d1565b61138c565b600191505092915050565b61077161197a565b60007f000000000000000000000000000000000000000000000000000000000000000073ffffffffffffffffffffffffffffffffffffffff166370a08231306040518263ffffffff1660e01b81526004016107cc9190612514565b602060405180830381865afa1580156107e9573d6000803e3d6000fd5b505050506040513d601f19601f8201168201806040525081019061080d919061293c565b90507f000000000000000000000000000000000000000000000000000000000000000073ffffffffffffffffffffffffffffffffffffffff1663a9059cbb7f0000000000000000000000000000000000000000000000000000000000000000836040518363ffffffff1660e01b815260040161088a929190612969565b6020604051808303816000875af11580156108a9573d6000803e3d6000fd5b505050506040513d601f19601f820116820180604052508101906108cd91906129be565b5050565b7f000000000000000000000000000000000000000000000000000000000000000081565b81816000600281111561090b5761090a612682565b5b600281111561091d5761091c612682565b5b600960000160009054906101000a900460ff16600281111561094257610941612682565b5b03610982576040517f08c379a000000000000000000000000000000000000000000000000000000000815260040161097990612a37565b60405180910390fd5b60028081111561099557610994612682565b5b60028111156109a7576109a6612682565b5b600960000160009054906101000a900460ff1660028111156109cc576109cb612682565b5b03610a0c576040517f08c379a0000000000000000000000000000000000000000000000000000000008152600401610a0390612aa3565b60405180910390fd5b610a1682826119f8565b610a55576040517f08c379a0000000000000000000000000000000000000000000000000000000008152600401610a4c90612b0f565b60405180910390fd5b600060096040518060600160405290816000820160009054906101000a900460ff166002811115610a8957610a88612682565b5b6002811115610a9b57610a9a612682565b5b81526020016000820160019054906101000a900463ffffffff1663ffffffff1663ffffffff168152602001600182015481525050905060007f000000000000000000000000000000000000000000000000000000000000000090506000600a612710610b079190612b2f565b836020015163ffffffff1689610b1d9190612b2f565b610b279190612bb8565b90507f0000000000000000000000000000000000000000000000000000000000000000610b526106a5565b82610b5d91906128d1565b1115610b9e576040517f08c379a0000000000000000000000000000000000000000000000000000000008152600401610b9590612c35565b60405180910390fd5b7f000000000000000000000000000000000000000000000000000000000000000081600860003373ffffffffffffffffffffffffffffffffffffffff1673ffffffffffffffffffffffffffffffffffffffff16815260200190815260200160002054610c0a91906128d1565b1115610c4b576040517f08c379a0000000000000000000000000000000000000000000000000000000008152600401610c4290612cc7565b60405180910390fd5b8173ffffffffffffffffffffffffffffffffffffffff166323b872dd33308b6040518463ffffffff1660e01b8152600401610c8893929190612ce7565b6020604051808303816000875af1158015610ca7573d6000803e3d6000fd5b505050506040513d601f19601f82011682018060405250810190610ccb91906129be565b50610cd68982611a39565b80600860003373ffffffffffffffffffffffffffffffffffffffff1673ffffffffffffffffffffffffffffffffffffffff1681526020019081526020016000206000828254610d2591906128d1565b925050819055507f840df612bc9052dfa7ac2e14fc52368ca7749154d9132b7601f59d329f787fd68982604051610d5d929190612969565b60405180910390a1505050505050505050565b7f000000000000000000000000000000000000000000000000000000000000000081565b60008060008373ffffffffffffffffffffffffffffffffffffffff1673ffffffffffffffffffffffffffffffffffffffff168152602001908152602001600020549050919050565b610de461197a565b610dee6000611b98565b565b6000610e39600560008473ffffffffffffffffffffffffffffffffffffffff1673ffffffffffffffffffffffffffffffffffffffff168152602001908152602001600020611c5e565b9050919050565b6000600760009054906101000a900473ffffffffffffffffffffffffffffffffffffffff16905090565b606060048054610e7990612871565b80601f0160208091040260200160405190810160405280929190818152602001828054610ea590612871565b8015610ef25780601f10610ec757610100808354040283529160200191610ef2565b820191906000526020600020905b815481529060010190602001808311610ed557829003601f168201915b5050505050905090565b600080610f07611384565b90506000610f15828661110d565b905083811015610f5a576040517f08c379a0000000000000000000000000000000000000000000000000000000008152600401610f5190612d90565b60405180910390fd5b610f67828686840361138c565b60019250505092915050565b600080610f7e611384565b9050610f8b8185856115e1565b600191505092915050565b60098060000160009054906101000a900460ff16908060000160019054906101000a900463ffffffff16908060010154905083565b8342111561100e576040517f08c379a000000000000000000000000000000000000000000000000000000000815260040161100590612dfc565b60405180910390fd5b60007f6e71edae12b1b97f4d1f60370fef10105fa2faae0126114a169c64845d6126c988888861103d8c611c6c565b8960405160200161105396959493929190612e1c565b604051602081830303815290604052805190602001209050600061107682611cca565b9050600061108682878787611ce4565b90508973ffffffffffffffffffffffffffffffffffffffff168173ffffffffffffffffffffffffffffffffffffffff16146110f6576040517f08c379a00000000000000000000000000000000000000000000000000000000081526004016110ed90612ec9565b60405180910390fd5b6111018a8a8a61138c565b50505050505050505050565b6000600160008473ffffffffffffffffffffffffffffffffffffffff1673ffffffffffffffffffffffffffffffffffffffff16815260200190815260200160002060008373ffffffffffffffffffffffffffffffffffffffff1673ffffffffffffffffffffffffffffffffffffffff16815260200190815260200160002054905092915050565b61119c61197a565b8060096001018190555050565b6111b161197a565b600073ffffffffffffffffffffffffffffffffffffffff168173ffffffffffffffffffffffffffffffffffffffff1603611220576040517f08c379a000000000000000000000000000000000000000000000000000000000815260040161121790612f5b565b60405180910390fd5b61122981611b98565b50565b61123461197a565b613e808163ffffffff161061127e576040517f08c379a000000000000000000000000000000000000000000000000000000000815260040161127590612fc7565b60405180910390fd5b6117708163ffffffff16116112c8576040517f08c379a00000000000000000000000000000000000000000000000000000000081526004016112bf90613033565b60405180910390fd5b80600960000160016101000a81548163ffffffff021916908363ffffffff1602179055506112f4610769565b50565b6112ff61197a565b60038110611342576040517f08c379a00000000000000000000000000000000000000000000000000000000081526004016113399061309f565b60405180910390fd5b80600281111561135557611354612682565b5b600960000160006101000a81548160ff0219169083600281111561137c5761137b612682565b5b021790555050565b600033905090565b600073ffffffffffffffffffffffffffffffffffffffff168373ffffffffffffffffffffffffffffffffffffffff16036113fb576040517f08c379a00000000000000000000000000000000000000000000000000000000081526004016113f290613131565b60405180910390fd5b600073ffffffffffffffffffffffffffffffffffffffff168273ffffffffffffffffffffffffffffffffffffffff160361146a576040517f08c379a0000000000000000000000000000000000000000000000000000000008152600401611461906131c3565b60405180910390fd5b80600160008573ffffffffffffffffffffffffffffffffffffffff1673ffffffffffffffffffffffffffffffffffffffff16815260200190815260200160002060008473ffffffffffffffffffffffffffffffffffffffff1673ffffffffffffffffffffffffffffffffffffffff168152602001908152602001600020819055508173ffffffffffffffffffffffffffffffffffffffff168373ffffffffffffffffffffffffffffffffffffffff167f8c5be1e5ebec7d5bd14f71427d1e84f3dd0314c0f7b2291e5b200ac8c7c3b9258360405161154891906122e5565b60405180910390a3505050565b6000611561848461110d565b90507fffffffffffffffffffffffffffffffffffffffffffffffffffffffffffffffff81146115db57818110156115cd576040517f08c379a00000000000000000000000000000000000000000000000000000000081526004016115c49061322f565b60405180910390fd5b6115da848484840361138c565b5b50505050565b600073ffffffffffffffffffffffffffffffffffffffff168373ffffffffffffffffffffffffffffffffffffffff1603611650576040517f08c379a0000000000000000000000000000000000000000000000000000000008152600401611647906132c1565b60405180910390fd5b600073ffffffffffffffffffffffffffffffffffffffff168273ffffffffffffffffffffffffffffffffffffffff16036116bf576040517f08c379a00000000000000000000000000000000000000000000000000000000081526004016116b690613353565b60405180910390fd5b6116ca838383611d0f565b60008060008573ffffffffffffffffffffffffffffffffffffffff1673ffffffffffffffffffffffffffffffffffffffff16815260200190815260200160002054905081811015611750576040517f08c379a0000000000000000000000000000000000000000000000000000000008152600401611747906133e5565b60405180910390fd5b8181036000808673ffffffffffffffffffffffffffffffffffffffff1673ffffffffffffffffffffffffffffffffffffffff16815260200190815260200160002081905550816000808573ffffffffffffffffffffffffffffffffffffffff1673ffffffffffffffffffffffffffffffffffffffff16815260200190815260200160002060008282546117e391906128d1565b925050819055508273ffffffffffffffffffffffffffffffffffffffff168473ffffffffffffffffffffffffffffffffffffffff167fddf252ad1be2c89b69c2b068fc378daa952ba7f163c4a11628f55a4df523b3ef8460405161184791906122e5565b60405180910390a361185a848484611d14565b50505050565b60007f000000000000000000000000000000000000000000000000000000000000000073ffffffffffffffffffffffffffffffffffffffff163073ffffffffffffffffffffffffffffffffffffffff161480156118dc57507f000000000000000000000000000000000000000000000000000000000000000046145b15611909577f00000000000000000000000000000000000000000000000000000000000000009050611977565b6119747f00000000000000000000000000000000000000000000000000000000000000007f00000000000000000000000000000000000000000000000000000000000000007f0000000000000000000000000000000000000000000000000000000000000000611d19565b90505b90565b611982611384565b73ffffffffffffffffffffffffffffffffffffffff166119a0610e40565b73ffffffffffffffffffffffffffffffffffffffff16146119f6576040517f08c379a00000000000000000000000000000000000000000000000000000000081526004016119ed90613451565b60405180910390fd5b565b6000611a31838360096001015433604051602001611a1691906134b9565b60405160208183030381529060405280519060200120611d53565b905092915050565b600073ffffffffffffffffffffffffffffffffffffffff168273ffffffffffffffffffffffffffffffffffffffff1603611aa8576040517f08c379a0000000000000000000000000000000000000000000000000000000008152600401611a9f90613520565b60405180910390fd5b611ab460008383611d0f565b8060026000828254611ac691906128d1565b92505081905550806000808473ffffffffffffffffffffffffffffffffffffffff1673ffffffffffffffffffffffffffffffffffffffff1681526020019081526020016000206000828254611b1b91906128d1565b925050819055508173ffffffffffffffffffffffffffffffffffffffff16600073ffffffffffffffffffffffffffffffffffffffff167fddf252ad1be2c89b69c2b068fc378daa952ba7f163c4a11628f55a4df523b3ef83604051611b8091906122e5565b60405180910390a3611b9460008383611d14565b5050565b6000600760009054906101000a900473ffffffffffffffffffffffffffffffffffffffff16905081600760006101000a81548173ffffffffffffffffffffffffffffffffffffffff021916908373ffffffffffffffffffffffffffffffffffffffff1602179055508173ffffffffffffffffffffffffffffffffffffffff168173ffffffffffffffffffffffffffffffffffffffff167f8be0079c531659141344cd1fd0a4f28419497f9722a3daafe3b4186f6b6457e060405160405180910390a35050565b600081600001549050919050565b600080600560008473ffffffffffffffffffffffffffffffffffffffff1673ffffffffffffffffffffffffffffffffffffffff1681526020019081526020016000209050611cb981611c5e565b9150611cc481611d6c565b50919050565b6000611cdd611cd7611860565b83611d82565b9050919050565b6000806000611cf587878787611db5565b91509150611d0281611ec1565b8192505050949350505050565b505050565b505050565b60008383834630604051602001611d34959493929190613540565b6040516020818303038152906040528051906020012090509392505050565b600082611d6186868561208d565b149050949350505050565b6001816000016000828254019250508190555050565b60008282604051602001611d9792919061360b565b60405160208183030381529060405280519060200120905092915050565b6000807f7fffffffffffffffffffffffffffffff5d576e7357a4501ddfe92f46681b20a08360001c1115611df0576000600391509150611eb8565b601b8560ff1614158015611e085750601c8560ff1614155b15611e1a576000600491509150611eb8565b600060018787878760405160008152602001604052604051611e3f9493929190613642565b6020604051602081039080840390855afa158015611e61573d6000803e3d6000fd5b505050602060405103519050600073ffffffffffffffffffffffffffffffffffffffff168173ffffffffffffffffffffffffffffffffffffffff1603611eaf57600060019250925050611eb8565b80600092509250505b94509492505050565b60006004811115611ed557611ed4612682565b5b816004811115611ee857611ee7612682565b5b031561208a5760016004811115611f0257611f01612682565b5b816004811115611f1557611f14612682565b5b03611f55576040517f08c379a0000000000000000000000000000000000000000000000000000000008152600401611f4c906136d3565b60405180910390fd5b60026004811115611f6957611f68612682565b5b816004811115611f7c57611f7b612682565b5b03611fbc576040517f08c379a0000000000000000000000000000000000000000000000000000000008152600401611fb39061373f565b60405180910390fd5b60036004811115611fd057611fcf612682565b5b816004811115611fe357611fe2612682565b5b03612023576040517f08c379a000000000000000000000000000000000000000000000000000000000815260040161201a906137d1565b60405180910390fd5b60048081111561203657612035612682565b5b81600481111561204957612048612682565b5b03612089576040517f08c379a000000000000000000000000000000000000000000000000000000000815260040161208090613863565b60405180910390fd5b5b50565b60008082905060005b858590508110156120d9576120c4828787848181106120b8576120b7613883565b5b905060200201356120e5565b915080806120d1906138b2565b915050612096565b50809150509392505050565b60008183106120fd576120f88284612110565b612108565b6121078383612110565b5b905092915050565b600082600052816020526040600020905092915050565b600080fd5b600080fd5b600073ffffffffffffffffffffffffffffffffffffffff82169050919050565b600061215c82612131565b9050919050565b61216c81612151565b811461217757600080fd5b50565b60008135905061218981612163565b92915050565b6000819050919050565b6121a28161218f565b81146121ad57600080fd5b50565b6000813590506121bf81612199565b92915050565b600060ff82169050919050565b6121db816121c5565b81146121e657600080fd5b50565b6000813590506121f8816121d2565b92915050565b6000819050919050565b612211816121fe565b811461221c57600080fd5b50565b60008135905061222e81612208565b92915050565b600080600080600080600060e0888a03121561225357612252612127565b5b60006122618a828b0161217a565b97505060206122728a828b0161217a565b96505060406122838a828b016121b0565b95505060606122948a828b016121b0565b94505060806122a58a828b016121e9565b93505060a06122b68a828b0161221f565b92505060c06122c78a828b0161221f565b91505092959891949750929550565b6122df8161218f565b82525050565b60006020820190506122fa60008301846122d6565b92915050565b600081519050919050565b600082825260208201905092915050565b60005b8381101561233a57808201518184015260208101905061231f565b83811115612349576000848401525b50505050565b6000601f19601f8301169050919050565b600061236b82612300565b612375818561230b565b935061238581856020860161231c565b61238e8161234f565b840191505092915050565b600060208201905081810360008301526123b38184612360565b905092915050565b600080604083850312156123d2576123d1612127565b5b60006123e08582860161217a565b92505060206123f1858286016121b0565b9150509250929050565b60008115159050919050565b612410816123fb565b82525050565b600060208201905061242b6000830184612407565b92915050565b60008060006060848603121561244a57612449612127565b5b60006124588682870161217a565b93505060206124698682870161217a565b925050604061247a868287016121b0565b9150509250925092565b60006020828403121561249a57612499612127565b5b60006124a88482850161217a565b91505092915050565b6124ba816121c5565b82525050565b60006020820190506124d560008301846124b1565b92915050565b6124e4816121fe565b82525050565b60006020820190506124ff60008301846124db565b92915050565b61250e81612151565b82525050565b60006020820190506125296000830184612505565b92915050565b600080fd5b600080fd5b600080fd5b60008083601f8401126125545761255361252f565b5b8235905067ffffffffffffffff81111561257157612570612534565b5b60208301915083602082028301111561258d5761258c612539565b5b9250929050565b600080600080606085870312156125ae576125ad612127565b5b60006125bc8782880161217a565b94505060206125cd878288016121b0565b935050604085013567ffffffffffffffff8111156125ee576125ed61212c565b5b6125fa8782880161253e565b925092505092959194509250565b6000819050919050565b600061262d61262861262384612131565b612608565b612131565b9050919050565b600061263f82612612565b9050919050565b600061265182612634565b9050919050565b61266181612646565b82525050565b600060208201905061267c6000830184612658565b92915050565b7f4e487b7100000000000000000000000000000000000000000000000000000000600052602160045260246000fd5b600381106126c2576126c1612682565b5b50565b60008190506126d3826126b1565b919050565b60006126e3826126c5565b9050919050565b6126f3816126d8565b82525050565b600063ffffffff82169050919050565b612712816126f9565b82525050565b600060608201905061272d60008301866126ea565b61273a6020830185612709565b61274760408301846124db565b949350505050565b6000806040838503121561276657612765612127565b5b60006127748582860161217a565b92505060206127858582860161217a565b9150509250929050565b6000602082840312156127a5576127a4612127565b5b60006127b38482850161221f565b91505092915050565b6127c5816126f9565b81146127d057600080fd5b50565b6000813590506127e2816127bc565b92915050565b6000602082840312156127fe576127fd612127565b5b600061280c848285016127d3565b91505092915050565b60006020828403121561282b5761282a612127565b5b6000612839848285016121b0565b91505092915050565b7f4e487b7100000000000000000000000000000000000000000000000000000000600052602260045260246000fd5b6000600282049050600182168061288957607f821691505b60208210810361289c5761289b612842565b5b50919050565b7f4e487b7100000000000000000000000000000000000000000000000000000000600052601160045260246000fd5b60006128dc8261218f565b91506128e78361218f565b9250827fffffffffffffffffffffffffffffffffffffffffffffffffffffffffffffffff0382111561291c5761291b6128a2565b5b828201905092915050565b60008151905061293681612199565b92915050565b60006020828403121561295257612951612127565b5b600061296084828501612927565b91505092915050565b600060408201905061297e6000830185612505565b61298b60208301846122d6565b9392505050565b61299b816123fb565b81146129a657600080fd5b50565b6000815190506129b881612992565b92915050565b6000602082840312156129d4576129d3612127565b5b60006129e2848285016129a9565b91505092915050565b7f4e6f742079657400000000000000000000000000000000000000000000000000600082015250565b6000612a2160078361230b565b9150612a2c826129eb565b602082019050919050565b60006020820190508181036000830152612a5081612a14565b9050919050565b7f536f6c64204f7574000000000000000000000000000000000000000000000000600082015250565b6000612a8d60088361230b565b9150612a9882612a57565b602082019050919050565b60006020820190508181036000830152612abc81612a80565b9050919050565b7f4e6f742057686974656c69737465640000000000000000000000000000000000600082015250565b6000612af9600f8361230b565b9150612b0482612ac3565b602082019050919050565b60006020820190508181036000830152612b2881612aec565b9050919050565b6000612b3a8261218f565b9150612b458361218f565b9250817fffffffffffffffffffffffffffffffffffffffffffffffffffffffffffffffff0483118215151615612b7e57612b7d6128a2565b5b828202905092915050565b7f4e487b7100000000000000000000000000000000000000000000000000000000600052601260045260246000fd5b6000612bc38261218f565b9150612bce8361218f565b925082612bde57612bdd612b89565b5b828204905092915050565b7f4d6178696d756d20737570706c79206578636565646564000000000000000000600082015250565b6000612c1f60178361230b565b9150612c2a82612be9565b602082019050919050565b60006020820190508181036000830152612c4e81612c12565b9050919050565b7f54686973204164647265737320626f7567687420746f6f206d75636820746f6b60008201527f656e730000000000000000000000000000000000000000000000000000000000602082015250565b6000612cb160238361230b565b9150612cbc82612c55565b604082019050919050565b60006020820190508181036000830152612ce081612ca4565b9050919050565b6000606082019050612cfc6000830186612505565b612d096020830185612505565b612d1660408301846122d6565b949350505050565b7f45524332303a2064656372656173656420616c6c6f77616e63652062656c6f7760008201527f207a65726f000000000000000000000000000000000000000000000000000000602082015250565b6000612d7a60258361230b565b9150612d8582612d1e565b604082019050919050565b60006020820190508181036000830152612da981612d6d565b9050919050565b7f45524332305065726d69743a206578706972656420646561646c696e65000000600082015250565b6000612de6601d8361230b565b9150612df182612db0565b602082019050919050565b60006020820190508181036000830152612e1581612dd9565b9050919050565b600060c082019050612e3160008301896124db565b612e3e6020830188612505565b612e4b6040830187612505565b612e5860608301866122d6565b612e6560808301856122d6565b612e7260a08301846122d6565b979650505050505050565b7f45524332305065726d69743a20696e76616c6964207369676e61747572650000600082015250565b6000612eb3601e8361230b565b9150612ebe82612e7d565b602082019050919050565b60006020820190508181036000830152612ee281612ea6565b9050919050565b7f4f776e61626c653a206e6577206f776e657220697320746865207a65726f206160008201527f6464726573730000000000000000000000000000000000000000000000000000602082015250565b6000612f4560268361230b565b9150612f5082612ee9565b604082019050919050565b60006020820190508181036000830152612f7481612f38565b9050919050565b7f312e36206575726f20666f72206f6e6520646f6c6c6172203f3f200000000000600082015250565b6000612fb1601b8361230b565b9150612fbc82612f7b565b602082019050919050565b60006020820190508181036000830152612fe081612fa4565b9050919050565b7f302e36206575726f20666f72206f6e6520646f6c6c6172203f3f200000000000600082015250565b600061301d601b8361230b565b915061302882612fe7565b602082019050919050565b6000602082019050818103600083015261304c81613010565b9050919050565b7f57726f6e67206e756d6265720000000000000000000000000000000000000000600082015250565b6000613089600c8361230b565b915061309482613053565b602082019050919050565b600060208201905081810360008301526130b88161307c565b9050919050565b7f45524332303a20617070726f76652066726f6d20746865207a65726f2061646460008201527f7265737300000000000000000000000000000000000000000000000000000000602082015250565b600061311b60248361230b565b9150613126826130bf565b604082019050919050565b6000602082019050818103600083015261314a8161310e565b9050919050565b7f45524332303a20617070726f766520746f20746865207a65726f20616464726560008201527f7373000000000000000000000000000000000000000000000000000000000000602082015250565b60006131ad60228361230b565b91506131b882613151565b604082019050919050565b600060208201905081810360008301526131dc816131a0565b9050919050565b7f45524332303a20696e73756666696369656e7420616c6c6f77616e6365000000600082015250565b6000613219601d8361230b565b9150613224826131e3565b602082019050919050565b600060208201905081810360008301526132488161320c565b9050919050565b7f45524332303a207472616e736665722066726f6d20746865207a65726f20616460008201527f6472657373000000000000000000000000000000000000000000000000000000602082015250565b60006132ab60258361230b565b91506132b68261324f565b604082019050919050565b600060208201905081810360008301526132da8161329e565b9050919050565b7f45524332303a207472616e7366657220746f20746865207a65726f206164647260008201527f6573730000000000000000000000000000000000000000000000000000000000602082015250565b600061333d60238361230b565b9150613348826132e1565b604082019050919050565b6000602082019050818103600083015261336c81613330565b9050919050565b7f45524332303a207472616e7366657220616d6f756e742065786365656473206260008201527f616c616e63650000000000000000000000000000000000000000000000000000602082015250565b60006133cf60268361230b565b91506133da82613373565b604082019050919050565b600060208201905081810360008301526133fe816133c2565b9050919050565b7f4f776e61626c653a2063616c6c6572206973206e6f7420746865206f776e6572600082015250565b600061343b60208361230b565b915061344682613405565b602082019050919050565b6000602082019050818103600083015261346a8161342e565b9050919050565b60008160601b9050919050565b600061348982613471565b9050919050565b600061349b8261347e565b9050919050565b6134b36134ae82612151565b613490565b82525050565b60006134c582846134a2565b60148201915081905092915050565b7f45524332303a206d696e7420746f20746865207a65726f206164647265737300600082015250565b600061350a601f8361230b565b9150613515826134d4565b602082019050919050565b60006020820190508181036000830152613539816134fd565b9050919050565b600060a08201905061355560008301886124db565b61356260208301876124db565b61356f60408301866124db565b61357c60608301856122d6565b6135896080830184612505565b9695505050505050565b600081905092915050565b7f1901000000000000000000000000000000000000000000000000000000000000600082015250565b60006135d4600283613593565b91506135df8261359e565b600282019050919050565b6000819050919050565b613605613600826121fe565b6135ea565b82525050565b6000613616826135c7565b915061362282856135f4565b60208201915061363282846135f4565b6020820191508190509392505050565b600060808201905061365760008301876124db565b61366460208301866124b1565b61367160408301856124db565b61367e60608301846124db565b95945050505050565b7f45434453413a20696e76616c6964207369676e61747572650000000000000000600082015250565b60006136bd60188361230b565b91506136c882613687565b602082019050919050565b600060208201905081810360008301526136ec816136b0565b9050919050565b7f45434453413a20696e76616c6964207369676e6174757265206c656e67746800600082015250565b6000613729601f8361230b565b9150613734826136f3565b602082019050919050565b600060208201905081810360008301526137588161371c565b9050919050565b7f45434453413a20696e76616c6964207369676e6174757265202773272076616c60008201527f7565000000000000000000000000000000000000000000000000000000000000602082015250565b60006137bb60228361230b565b91506137c68261375f565b604082019050919050565b600060208201905081810360008301526137ea816137ae565b9050919050565b7f45434453413a20696e76616c6964207369676e6174757265202776272076616c60008201527f7565000000000000000000000000000000000000000000000000000000000000602082015250565b600061384d60228361230b565b9150613858826137f1565b604082019050919050565b6000602082019050818103600083015261387c81613840565b9050919050565b7f4e487b7100000000000000000000000000000000000000000000000000000000600052603260045260246000fd5b60006138bd8261218f565b91507fffffffffffffffffffffffffffffffffffffffffffffffffffffffffffffffff82036138ef576138ee6128a2565b5b60018201905091905056fea26469706673582212200894855b87cf04eb68786f4941eacdc36e8b7653a5f125ddb6409cb77f6998f864736f6c634300080d0033",
  "linkReferences": {},
  "deployedLinkReferences": {}
}