{
  "_format": "hh-sol-artifact-1",
  "contractName": "PropertyToken",
  "sourceName": "contracts/PropertyToken.sol",
  "abi": [
    {
      "inputs": [
        {
          "internalType": "contract IERC20",
          "name": "_currencyUsed",
          "type": "address"
        },
        {
          "internalType": "uint256",
          "name": "_MAX_SUPPLY",
          "type": "uint256"
        },
        {
          "internalType": "address",
          "name": "_multiSig",
          "type": "address"
        },
        {
          "internalType": "string",
          "name": "_name",
          "type": "string"
        },
        {
          "internalType": "string",
          "name": "_symbol",
          "type": "string"
        }
      ],
      "stateMutability": "nonpayable",
      "type": "constructor"
    },
    {
      "anonymous": false,
      "inputs": [
        {
          "indexed": true,
          "internalType": "address",
          "name": "owner",
          "type": "address"
        },
        {
          "indexed": true,
          "internalType": "address",
          "name": "spender",
          "type": "address"
        },
        {
          "indexed": false,
          "internalType": "uint256",
          "name": "value",
          "type": "uint256"
        }
      ],
      "name": "Approval",
      "type": "event"
    },
    {
      "anonymous": false,
      "inputs": [
        {
          "indexed": false,
          "internalType": "address",
          "name": "buyer",
          "type": "address"
        },
        {
          "indexed": false,
          "internalType": "uint256",
          "name": "price",
          "type": "uint256"
        },
        {
          "indexed": false,
          "internalType": "uint256",
          "name": "amount",
          "type": "uint256"
        }
      ],
      "name": "Buying",
      "type": "event"
    },
    {
      "anonymous": false,
      "inputs": [
        {
          "indexed": true,
          "internalType": "address",
          "name": "previousOwner",
          "type": "address"
        },
        {
          "indexed": true,
          "internalType": "address",
          "name": "newOwner",
          "type": "address"
        }
      ],
      "name": "OwnershipTransferred",
      "type": "event"
    },
    {
      "anonymous": false,
      "inputs": [
        {
          "indexed": true,
          "internalType": "address",
          "name": "from",
          "type": "address"
        },
        {
          "indexed": true,
          "internalType": "address",
          "name": "to",
          "type": "address"
        },
        {
          "indexed": false,
          "internalType": "uint256",
          "name": "value",
          "type": "uint256"
        }
      ],
      "name": "Transfer",
      "type": "event"
    },
    {
      "inputs": [],
      "name": "DOMAIN_SEPARATOR",
      "outputs": [
        {
          "internalType": "bytes32",
          "name": "",
          "type": "bytes32"
        }
      ],
      "stateMutability": "view",
      "type": "function"
    },
    {
      "inputs": [],
      "name": "MAX_SUPPLY",
      "outputs": [
        {
          "internalType": "uint256",
          "name": "",
          "type": "uint256"
        }
      ],
      "stateMutability": "view",
      "type": "function"
    },
    {
      "inputs": [],
      "name": "TOKENPRICE",
      "outputs": [
        {
          "internalType": "uint256",
          "name": "",
          "type": "uint256"
        }
      ],
      "stateMutability": "view",
      "type": "function"
    },
    {
      "inputs": [
        {
          "internalType": "address",
          "name": "owner",
          "type": "address"
        },
        {
          "internalType": "address",
          "name": "spender",
          "type": "address"
        }
      ],
      "name": "allowance",
      "outputs": [
        {
          "internalType": "uint256",
          "name": "",
          "type": "uint256"
        }
      ],
      "stateMutability": "view",
      "type": "function"
    },
    {
      "inputs": [
        {
          "internalType": "address",
          "name": "spender",
          "type": "address"
        },
        {
          "internalType": "uint256",
          "name": "amount",
          "type": "uint256"
        }
      ],
      "name": "approve",
      "outputs": [
        {
          "internalType": "bool",
          "name": "",
          "type": "bool"
        }
      ],
      "stateMutability": "nonpayable",
      "type": "function"
    },
    {
      "inputs": [
        {
          "internalType": "address",
          "name": "account",
          "type": "address"
        }
      ],
      "name": "balanceOf",
      "outputs": [
        {
          "internalType": "uint256",
          "name": "",
          "type": "uint256"
        }
      ],
      "stateMutability": "view",
      "type": "function"
    },
    {
      "inputs": [
        {
          "internalType": "address",
          "name": "_to",
          "type": "address"
        },
        {
          "internalType": "uint256",
          "name": "price",
          "type": "uint256"
        },
        {
          "internalType": "bytes32[]",
          "name": "proof",
          "type": "bytes32[]"
        }
      ],
      "name": "buy",
      "outputs": [],
      "stateMutability": "nonpayable",
      "type": "function"
    },
    {
      "inputs": [],
      "name": "decimals",
      "outputs": [
        {
          "internalType": "uint8",
          "name": "",
          "type": "uint8"
        }
      ],
      "stateMutability": "view",
      "type": "function"
    },
    {
      "inputs": [
        {
          "internalType": "address",
          "name": "spender",
          "type": "address"
        },
        {
          "internalType": "uint256",
          "name": "subtractedValue",
          "type": "uint256"
        }
      ],
      "name": "decreaseAllowance",
      "outputs": [
        {
          "internalType": "bool",
          "name": "",
          "type": "bool"
        }
      ],
      "stateMutability": "nonpayable",
      "type": "function"
    },
    {
      "inputs": [
        {
          "internalType": "address",
          "name": "spender",
          "type": "address"
        },
        {
          "internalType": "uint256",
          "name": "addedValue",
          "type": "uint256"
        }
      ],
      "name": "increaseAllowance",
      "outputs": [
        {
          "internalType": "bool",
          "name": "",
          "type": "bool"
        }
      ],
      "stateMutability": "nonpayable",
      "type": "function"
    },
    {
      "inputs": [],
      "name": "multisig",
      "outputs": [
        {
          "internalType": "address",
          "name": "",
          "type": "address"
        }
      ],
      "stateMutability": "view",
      "type": "function"
    },
    {
      "inputs": [],
      "name": "name",
      "outputs": [
        {
          "internalType": "string",
          "name": "",
          "type": "string"
        }
      ],
      "stateMutability": "view",
      "type": "function"
    },
    {
      "inputs": [
        {
          "internalType": "address",
          "name": "owner",
          "type": "address"
        }
      ],
      "name": "nonces",
      "outputs": [
        {
          "internalType": "uint256",
          "name": "",
          "type": "uint256"
        }
      ],
      "stateMutability": "view",
      "type": "function"
    },
    {
      "inputs": [],
      "name": "owner",
      "outputs": [
        {
          "internalType": "address",
          "name": "",
          "type": "address"
        }
      ],
      "stateMutability": "view",
      "type": "function"
    },
    {
      "inputs": [
        {
          "internalType": "address",
          "name": "owner",
          "type": "address"
        },
        {
          "internalType": "address",
          "name": "spender",
          "type": "address"
        },
        {
          "internalType": "uint256",
          "name": "value",
          "type": "uint256"
        },
        {
          "internalType": "uint256",
          "name": "deadline",
          "type": "uint256"
        },
        {
          "internalType": "uint8",
          "name": "v",
          "type": "uint8"
        },
        {
          "internalType": "bytes32",
          "name": "r",
          "type": "bytes32"
        },
        {
          "internalType": "bytes32",
          "name": "s",
          "type": "bytes32"
        }
      ],
      "name": "permit",
      "outputs": [],
      "stateMutability": "nonpayable",
      "type": "function"
    },
    {
      "inputs": [],
      "name": "renounceOwnership",
      "outputs": [],
      "stateMutability": "nonpayable",
      "type": "function"
    },
    {
      "inputs": [
        {
          "internalType": "bytes32",
          "name": "merkleRoot",
          "type": "bytes32"
        }
      ],
      "name": "setAllowListMerkleRoot",
      "outputs": [],
      "stateMutability": "nonpayable",
      "type": "function"
    },
    {
      "inputs": [
        {
          "internalType": "uint32",
          "name": "_cexRatioX10000",
          "type": "uint32"
        }
      ],
      "name": "setCexRatio",
      "outputs": [],
      "stateMutability": "nonpayable",
      "type": "function"
    },
    {
      "inputs": [
        {
          "internalType": "contract IERC20",
          "name": "currencyToUse",
          "type": "address"
        }
      ],
      "name": "setCurrency",
      "outputs": [],
      "stateMutability": "nonpayable",
      "type": "function"
    },
    {
      "inputs": [
        {
          "internalType": "uint128",
          "name": "_MaxToBuy",
          "type": "uint128"
        }
      ],
      "name": "setMaxToBuy",
      "outputs": [],
      "stateMutability": "nonpayable",
      "type": "function"
    },
    {
      "inputs": [
        {
          "internalType": "uint256",
          "name": "step",
          "type": "uint256"
        }
      ],
      "name": "setStep",
      "outputs": [],
      "stateMutability": "nonpayable",
      "type": "function"
    },
    {
      "inputs": [],
      "name": "symbol",
      "outputs": [
        {
          "internalType": "string",
          "name": "",
          "type": "string"
        }
      ],
      "stateMutability": "view",
      "type": "function"
    },
    {
      "inputs": [
        {
          "internalType": "address",
          "name": "",
          "type": "address"
        }
      ],
      "name": "tokensBought",
      "outputs": [
        {
          "internalType": "uint256",
          "name": "",
          "type": "uint256"
        }
      ],
      "stateMutability": "view",
      "type": "function"
    },
    {
      "inputs": [],
      "name": "totalSupply",
      "outputs": [
        {
          "internalType": "uint256",
          "name": "",
          "type": "uint256"
        }
      ],
      "stateMutability": "view",
      "type": "function"
    },
    {
      "inputs": [
        {
          "internalType": "address",
          "name": "to",
          "type": "address"
        },
        {
          "internalType": "uint256",
          "name": "amount",
          "type": "uint256"
        }
      ],
      "name": "transfer",
      "outputs": [
        {
          "internalType": "bool",
          "name": "",
          "type": "bool"
        }
      ],
      "stateMutability": "nonpayable",
      "type": "function"
    },
    {
      "inputs": [
        {
          "internalType": "address",
          "name": "from",
          "type": "address"
        },
        {
          "internalType": "address",
          "name": "to",
          "type": "address"
        },
        {
          "internalType": "uint256",
          "name": "amount",
          "type": "uint256"
        }
      ],
      "name": "transferFrom",
      "outputs": [
        {
          "internalType": "bool",
          "name": "",
          "type": "bool"
        }
      ],
      "stateMutability": "nonpayable",
      "type": "function"
    },
    {
      "inputs": [
        {
          "internalType": "address",
          "name": "newOwner",
          "type": "address"
        }
      ],
      "name": "transferOwnership",
      "outputs": [],
      "stateMutability": "nonpayable",
      "type": "function"
    },
    {
      "inputs": [
        {
          "internalType": "address",
          "name": "from",
          "type": "address"
        },
        {
          "internalType": "address",
          "name": "receiver",
          "type": "address"
        },
        {
          "internalType": "uint256",
          "name": "amount",
          "type": "uint256"
        },
        {
          "internalType": "uint256",
          "name": "deadline",
          "type": "uint256"
        },
        {
          "internalType": "uint8",
          "name": "v",
          "type": "uint8"
        },
        {
          "internalType": "bytes32",
          "name": "r",
          "type": "bytes32"
        },
        {
          "internalType": "bytes32",
          "name": "s",
          "type": "bytes32"
        }
      ],
      "name": "transferToWithPermission",
      "outputs": [],
      "stateMutability": "nonpayable",
      "type": "function"
    },
    {
      "inputs": [],
      "name": "variables",
      "outputs": [
        {
          "internalType": "enum PropertyToken.Step",
          "name": "step",
          "type": "uint8"
        },
        {
          "internalType": "uint32",
          "name": "cexRatioX10000",
          "type": "uint32"
        },
        {
          "internalType": "bytes32",
          "name": "merkleRoot",
          "type": "bytes32"
        },
        {
          "internalType": "uint128",
          "name": "MaxToBuy",
          "type": "uint128"
        },
        {
          "internalType": "contract IERC20",
          "name": "currencyUsed",
          "type": "address"
        }
      ],
      "stateMutability": "view",
      "type": "function"
    },
    {
      "inputs": [],
      "name": "withdraw",
      "outputs": [],
      "stateMutability": "nonpayable",
      "type": "function"
    }
  ],
  "bytecode": "0x6101806040523480156200001257600080fd5b506040516200492f3803806200492f83398181016040528101906200003891906200078d565b81806040518060400160405280600181526020017f3100000000000000000000000000000000000000000000000000000000000000815250848481600390805190602001906200008a9291906200045b565b508060049080519060200190620000a39291906200045b565b50505060008280519060200120905060008280519060200120905060007f8b73c3c69bb8fe3d512ecc4cf759cc79239f7b179b0ffacaa9a75d522b39400f90508260e081815250508161010081815250504660a081815250506200010f8184846200035160201b60201c565b608081815250503073ffffffffffffffffffffffffffffffffffffffff1660c08173ffffffffffffffffffffffffffffffffffffffff1681525050806101208181525050505050505050620001796200016d6200038d60201b60201c565b6200039560201b60201c565b6040518060a00160405280600060028111156200019b576200019a62000853565b5b6002811115620001b057620001af62000853565b5b8152602001600063ffffffff1681526020016000801b81526020016064601e87620001dc9190620008b1565b620001e8919062000941565b6fffffffffffffffffffffffffffffffff1681526020018673ffffffffffffffffffffffffffffffffffffffff16815250600960008201518160000160006101000a81548160ff0219169083600281111562000249576200024862000853565b5b021790555060208201518160000160016101000a81548163ffffffff021916908363ffffffff1602179055506040820151816001015560608201518160020160006101000a8154816fffffffffffffffffffffffffffffffff02191690836fffffffffffffffffffffffffffffffff16021790555060808201518160030160006101000a81548173ffffffffffffffffffffffffffffffffffffffff021916908373ffffffffffffffffffffffffffffffffffffffff1602179055509050508273ffffffffffffffffffffffffffffffffffffffff166101608173ffffffffffffffffffffffffffffffffffffffff1681525050836101408181525050505050505062000a77565b600083838346306040516020016200036e959493929190620009b6565b6040516020818303038152906040528051906020012090509392505050565b600033905090565b6000600760009054906101000a900473ffffffffffffffffffffffffffffffffffffffff16905081600760006101000a81548173ffffffffffffffffffffffffffffffffffffffff021916908373ffffffffffffffffffffffffffffffffffffffff1602179055508173ffffffffffffffffffffffffffffffffffffffff168173ffffffffffffffffffffffffffffffffffffffff167f8be0079c531659141344cd1fd0a4f28419497f9722a3daafe3b4186f6b6457e060405160405180910390a35050565b828054620004699062000a42565b90600052602060002090601f0160209004810192826200048d5760008555620004d9565b82601f10620004a857805160ff1916838001178555620004d9565b82800160010185558215620004d9579182015b82811115620004d8578251825591602001919060010190620004bb565b5b509050620004e89190620004ec565b5090565b5b8082111562000507576000816000905550600101620004ed565b5090565b6000604051905090565b600080fd5b600080fd5b600073ffffffffffffffffffffffffffffffffffffffff82169050919050565b60006200054c826200051f565b9050919050565b600062000560826200053f565b9050919050565b620005728162000553565b81146200057e57600080fd5b50565b600081519050620005928162000567565b92915050565b6000819050919050565b620005ad8162000598565b8114620005b957600080fd5b50565b600081519050620005cd81620005a2565b92915050565b620005de816200053f565b8114620005ea57600080fd5b50565b600081519050620005fe81620005d3565b92915050565b600080fd5b600080fd5b6000601f19601f8301169050919050565b7f4e487b7100000000000000000000000000000000000000000000000000000000600052604160045260246000fd5b62000659826200060e565b810181811067ffffffffffffffff821117156200067b576200067a6200061f565b5b80604052505050565b6000620006906200050b565b90506200069e82826200064e565b919050565b600067ffffffffffffffff821115620006c157620006c06200061f565b5b620006cc826200060e565b9050602081019050919050565b60005b83811015620006f9578082015181840152602081019050620006dc565b8381111562000709576000848401525b50505050565b6000620007266200072084620006a3565b62000684565b90508281526020810184848401111562000745576200074462000609565b5b62000752848285620006d9565b509392505050565b600082601f83011262000772576200077162000604565b5b8151620007848482602086016200070f565b91505092915050565b600080600080600060a08688031215620007ac57620007ab62000515565b5b6000620007bc8882890162000581565b9550506020620007cf88828901620005bc565b9450506040620007e288828901620005ed565b935050606086015167ffffffffffffffff8111156200080657620008056200051a565b5b62000814888289016200075a565b925050608086015167ffffffffffffffff8111156200083857620008376200051a565b5b62000846888289016200075a565b9150509295509295909350565b7f4e487b7100000000000000000000000000000000000000000000000000000000600052602160045260246000fd5b7f4e487b7100000000000000000000000000000000000000000000000000000000600052601160045260246000fd5b6000620008be8262000598565b9150620008cb8362000598565b9250817fffffffffffffffffffffffffffffffffffffffffffffffffffffffffffffffff048311821515161562000907576200090662000882565b5b828202905092915050565b7f4e487b7100000000000000000000000000000000000000000000000000000000600052601260045260246000fd5b60006200094e8262000598565b91506200095b8362000598565b9250826200096e576200096d62000912565b5b828204905092915050565b6000819050919050565b6200098e8162000979565b82525050565b6200099f8162000598565b82525050565b620009b0816200053f565b82525050565b600060a082019050620009cd600083018862000983565b620009dc602083018762000983565b620009eb604083018662000983565b620009fa606083018562000994565b62000a096080830184620009a5565b9695505050505050565b7f4e487b7100000000000000000000000000000000000000000000000000000000600052602260045260246000fd5b6000600282049050600182168062000a5b57607f821691505b60208210810362000a715762000a7062000a13565b5b50919050565b60805160a05160c05160e05161010051610120516101405161016051613e4462000aeb600039600081816108b1015261093701526000818161075b0152610c0a01526000611b8f01526000611bd101526000611bb001526000611ae501526000611b3b01526000611b640152613e446000f3fe608060405234801561001057600080fd5b50600436106101da5760003560e01c8063715018a611610104578063be45a26f116100a2578063f2fde38b11610071578063f2fde38b1461055d578063f75d6f8014610579578063f8dcbddb14610595578063fa6f5958146105b1576101da565b8063be45a26f146104d3578063d505accf146104f5578063dd62ed3e14610511578063ea7a42e414610541576101da565b80638da5cb5b116100de5780638da5cb5b1461043757806395d89b4114610455578063a457c2d714610473578063a9059cbb146104a3576101da565b8063715018a6146103e15780637ecebe00146103eb578063849b4d171461041b576101da565b8063313ce5671161017c5780633ccfd60b1161014b5780633ccfd60b1461036d5780634783c35b146103775780634c13a6391461039557806370a08231146103b1576101da565b8063313ce567146102e357806332cb6b0c146103015780633644e5151461031f578063395093511461033d576101da565b806318160ddd116101b857806318160ddd1461024957806323b872dd14610267578063264d7797146102975780632f84c391146102c7576101da565b8063015474e2146101df57806306fdde03146101fb578063095ea7b314610219575b600080fd5b6101f960048036038101906101f49190612437565b6105cf565b005b6102036105f3565b6040516102109190612572565b60405180910390f35b610233600480360381019061022e9190612594565b610685565b60405161024091906125ef565b60405180910390f35b6102516106a8565b60405161025e9190612619565b60405180910390f35b610281600480360381019061027c9190612634565b6106b2565b60405161028e91906125ef565b60405180910390f35b6102b160048036038101906102ac9190612687565b6106e1565b6040516102be9190612619565b60405180910390f35b6102e160048036038101906102dc91906126f2565b6106f9565b005b6102eb610750565b6040516102f8919061272e565b60405180910390f35b610309610759565b6040516103169190612619565b60405180910390f35b61032761077d565b6040516103349190612758565b60405180910390f35b61035760048036038101906103529190612594565b61078c565b60405161036491906125ef565b60405180910390f35b6103756107c3565b005b61037f610935565b60405161038c9190612782565b60405180910390f35b6103af60048036038101906103aa9190612802565b610959565b005b6103cb60048036038101906103c69190612687565b610e88565b6040516103d89190612619565b60405180910390f35b6103e9610ed0565b005b61040560048036038101906104009190612687565b610ee4565b6040516104129190612619565b60405180910390f35b610435600480360381019061043091906128be565b610f34565b005b61043f610ff6565b60405161044c9190612782565b60405180910390f35b61045d611020565b60405161046a9190612572565b60405180910390f35b61048d60048036038101906104889190612594565b6110b2565b60405161049a91906125ef565b60405180910390f35b6104bd60048036038101906104b89190612594565b611129565b6040516104ca91906125ef565b60405180910390f35b6104db61114c565b6040516104ec9594939291906129ef565b60405180910390f35b61050f600480360381019061050a9190612437565b6111c9565b005b61052b60048036038101906105269190612a42565b61130b565b6040516105389190612619565b60405180910390f35b61055b60048036038101906105569190612a82565b611392565b005b61057760048036038101906105729190612687565b6113a7565b005b610593600480360381019061058e9190612adb565b61142a565b005b6105af60048036038101906105aa9190612b08565b6114f5565b005b6105b9611582565b6040516105c69190612619565b60405180910390f35b6105de873387878787876111c9565b6105e98787876106b2565b5050505050505050565b60606003805461060290612b64565b80601f016020809104026020016040519081016040528092919081815260200182805461062e90612b64565b801561067b5780601f106106505761010080835404028352916020019161067b565b820191906000526020600020905b81548152906001019060200180831161065e57829003601f168201915b5050505050905090565b600080610690611587565b905061069d81858561158f565b600191505092915050565b6000600254905090565b6000806106bd611587565b90506106ca858285611758565b6106d58585856117e4565b60019150509392505050565b60086020528060005260406000206000915090505481565b610701611a63565b80600960030160006101000a81548173ffffffffffffffffffffffffffffffffffffffff021916908373ffffffffffffffffffffffffffffffffffffffff16021790555061074d6107c3565b50565b60006012905090565b7f000000000000000000000000000000000000000000000000000000000000000081565b6000610787611ae1565b905090565b600080610797611587565b90506107b88185856107a9858961130b565b6107b39190612bc4565b61158f565b600191505092915050565b6107cb611a63565b6000600960030160009054906101000a900473ffffffffffffffffffffffffffffffffffffffff1673ffffffffffffffffffffffffffffffffffffffff166370a08231306040518263ffffffff1660e01b815260040161082b9190612782565b602060405180830381865afa158015610848573d6000803e3d6000fd5b505050506040513d601f19601f8201168201806040525081019061086c9190612c2f565b9050600960030160009054906101000a900473ffffffffffffffffffffffffffffffffffffffff1673ffffffffffffffffffffffffffffffffffffffff1663a9059cbb7f0000000000000000000000000000000000000000000000000000000000000000836040518363ffffffff1660e01b81526004016108ee929190612c5c565b6020604051808303816000875af115801561090d573d6000803e3d6000fd5b505050506040513d601f19601f820116820180604052508101906109319190612cb1565b5050565b7f000000000000000000000000000000000000000000000000000000000000000081565b81816000600281111561096f5761096e6128eb565b5b6002811115610981576109806128eb565b5b600960000160009054906101000a900460ff1660028111156109a6576109a56128eb565b5b036109e6576040517f08c379a00000000000000000000000000000000000000000000000000000000081526004016109dd90612d2a565b60405180910390fd5b6002808111156109f9576109f86128eb565b5b6002811115610a0b57610a0a6128eb565b5b600960000160009054906101000a900460ff166002811115610a3057610a2f6128eb565b5b03610a70576040517f08c379a0000000000000000000000000000000000000000000000000000000008152600401610a6790612d96565b60405180910390fd5b610a7a8282611bfb565b610ab9576040517f08c379a0000000000000000000000000000000000000000000000000000000008152600401610ab090612e02565b60405180910390fd5b600060096040518060a00160405290816000820160009054906101000a900460ff166002811115610aed57610aec6128eb565b5b6002811115610aff57610afe6128eb565b5b81526020016000820160019054906101000a900463ffffffff1663ffffffff1663ffffffff168152602001600182015481526020016002820160009054906101000a90046fffffffffffffffffffffffffffffffff166fffffffffffffffffffffffffffffffff166fffffffffffffffffffffffffffffffff1681526020016003820160009054906101000a900473ffffffffffffffffffffffffffffffffffffffff1673ffffffffffffffffffffffffffffffffffffffff1673ffffffffffffffffffffffffffffffffffffffff168152505090506000600a612710610be69190612e22565b826020015163ffffffff1688610bfc9190612e22565b610c069190612eab565b90507f0000000000000000000000000000000000000000000000000000000000000000610c316106a8565b82610c3c9190612bc4565b1115610c7d576040517f08c379a0000000000000000000000000000000000000000000000000000000008152600401610c7490612f28565b60405180910390fd5b600960020160009054906101000a90046fffffffffffffffffffffffffffffffff166fffffffffffffffffffffffffffffffff1681600860003373ffffffffffffffffffffffffffffffffffffffff1673ffffffffffffffffffffffffffffffffffffffff16815260200190815260200160002054610cfc9190612bc4565b1115610d3d576040517f08c379a0000000000000000000000000000000000000000000000000000000008152600401610d3490612fba565b60405180910390fd5b600960030160009054906101000a900473ffffffffffffffffffffffffffffffffffffffff1673ffffffffffffffffffffffffffffffffffffffff166323b872dd33308a6040518463ffffffff1660e01b8152600401610d9f93929190612fda565b6020604051808303816000875af1158015610dbe573d6000803e3d6000fd5b505050506040513d601f19601f82011682018060405250810190610de29190612cb1565b50610ded8882611c3c565b80600860003373ffffffffffffffffffffffffffffffffffffffff1673ffffffffffffffffffffffffffffffffffffffff1681526020019081526020016000206000828254610e3c9190612bc4565b925050819055507f9e4ea95a373e6be65b8e8588f0c5491e3c70ace6d2cf2b53f95cf22a0fc9a699888883604051610e7693929190613011565b60405180910390a15050505050505050565b60008060008373ffffffffffffffffffffffffffffffffffffffff1673ffffffffffffffffffffffffffffffffffffffff168152602001908152602001600020549050919050565b610ed8611a63565b610ee26000611d9b565b565b6000610f2d600560008473ffffffffffffffffffffffffffffffffffffffff1673ffffffffffffffffffffffffffffffffffffffff168152602001908152602001600020611e61565b9050919050565b610f3c611a63565b610f44610750565b600a610f50919061317b565b6064610f5c9190612e22565b816fffffffffffffffffffffffffffffffff1611610faf576040517f08c379a0000000000000000000000000000000000000000000000000000000008152600401610fa690613212565b60405180910390fd5b80600960020160006101000a8154816fffffffffffffffffffffffffffffffff02191690836fffffffffffffffffffffffffffffffff160217905550610ff36107c3565b50565b6000600760009054906101000a900473ffffffffffffffffffffffffffffffffffffffff16905090565b60606004805461102f90612b64565b80601f016020809104026020016040519081016040528092919081815260200182805461105b90612b64565b80156110a85780601f1061107d576101008083540402835291602001916110a8565b820191906000526020600020905b81548152906001019060200180831161108b57829003601f168201915b5050505050905090565b6000806110bd611587565b905060006110cb828661130b565b905083811015611110576040517f08c379a0000000000000000000000000000000000000000000000000000000008152600401611107906132a4565b60405180910390fd5b61111d828686840361158f565b60019250505092915050565b600080611134611587565b90506111418185856117e4565b600191505092915050565b60098060000160009054906101000a900460ff16908060000160019054906101000a900463ffffffff16908060010154908060020160009054906101000a90046fffffffffffffffffffffffffffffffff16908060030160009054906101000a900473ffffffffffffffffffffffffffffffffffffffff16905085565b8342111561120c576040517f08c379a000000000000000000000000000000000000000000000000000000000815260040161120390613310565b60405180910390fd5b60007f6e71edae12b1b97f4d1f60370fef10105fa2faae0126114a169c64845d6126c988888861123b8c611e6f565b8960405160200161125196959493929190613330565b604051602081830303815290604052805190602001209050600061127482611ecd565b9050600061128482878787611ee7565b90508973ffffffffffffffffffffffffffffffffffffffff168173ffffffffffffffffffffffffffffffffffffffff16146112f4576040517f08c379a00000000000000000000000000000000000000000000000000000000081526004016112eb906133dd565b60405180910390fd5b6112ff8a8a8a61158f565b50505050505050505050565b6000600160008473ffffffffffffffffffffffffffffffffffffffff1673ffffffffffffffffffffffffffffffffffffffff16815260200190815260200160002060008373ffffffffffffffffffffffffffffffffffffffff1673ffffffffffffffffffffffffffffffffffffffff16815260200190815260200160002054905092915050565b61139a611a63565b8060096001018190555050565b6113af611a63565b600073ffffffffffffffffffffffffffffffffffffffff168173ffffffffffffffffffffffffffffffffffffffff160361141e576040517f08c379a00000000000000000000000000000000000000000000000000000000081526004016114159061346f565b60405180910390fd5b61142781611d9b565b50565b611432611a63565b613e808163ffffffff161061147c576040517f08c379a0000000000000000000000000000000000000000000000000000000008152600401611473906134db565b60405180910390fd5b6117708163ffffffff16116114c6576040517f08c379a00000000000000000000000000000000000000000000000000000000081526004016114bd90613547565b60405180910390fd5b80600960000160016101000a81548163ffffffff021916908363ffffffff1602179055506114f26107c3565b50565b6114fd611a63565b60038110611540576040517f08c379a0000000000000000000000000000000000000000000000000000000008152600401611537906135b3565b60405180910390fd5b806002811115611553576115526128eb565b5b600960000160006101000a81548160ff0219169083600281111561157a576115796128eb565b5b021790555050565b600a81565b600033905090565b600073ffffffffffffffffffffffffffffffffffffffff168373ffffffffffffffffffffffffffffffffffffffff16036115fe576040517f08c379a00000000000000000000000000000000000000000000000000000000081526004016115f590613645565b60405180910390fd5b600073ffffffffffffffffffffffffffffffffffffffff168273ffffffffffffffffffffffffffffffffffffffff160361166d576040517f08c379a0000000000000000000000000000000000000000000000000000000008152600401611664906136d7565b60405180910390fd5b80600160008573ffffffffffffffffffffffffffffffffffffffff1673ffffffffffffffffffffffffffffffffffffffff16815260200190815260200160002060008473ffffffffffffffffffffffffffffffffffffffff1673ffffffffffffffffffffffffffffffffffffffff168152602001908152602001600020819055508173ffffffffffffffffffffffffffffffffffffffff168373ffffffffffffffffffffffffffffffffffffffff167f8c5be1e5ebec7d5bd14f71427d1e84f3dd0314c0f7b2291e5b200ac8c7c3b9258360405161174b9190612619565b60405180910390a3505050565b6000611764848461130b565b90507fffffffffffffffffffffffffffffffffffffffffffffffffffffffffffffffff81146117de57818110156117d0576040517f08c379a00000000000000000000000000000000000000000000000000000000081526004016117c790613743565b60405180910390fd5b6117dd848484840361158f565b5b50505050565b600073ffffffffffffffffffffffffffffffffffffffff168373ffffffffffffffffffffffffffffffffffffffff1603611853576040517f08c379a000000000000000000000000000000000000000000000000000000000815260040161184a906137d5565b60405180910390fd5b600073ffffffffffffffffffffffffffffffffffffffff168273ffffffffffffffffffffffffffffffffffffffff16036118c2576040517f08c379a00000000000000000000000000000000000000000000000000000000081526004016118b990613867565b60405180910390fd5b6118cd838383611f12565b60008060008573ffffffffffffffffffffffffffffffffffffffff1673ffffffffffffffffffffffffffffffffffffffff16815260200190815260200160002054905081811015611953576040517f08c379a000000000000000000000000000000000000000000000000000000000815260040161194a906138f9565b60405180910390fd5b8181036000808673ffffffffffffffffffffffffffffffffffffffff1673ffffffffffffffffffffffffffffffffffffffff16815260200190815260200160002081905550816000808573ffffffffffffffffffffffffffffffffffffffff1673ffffffffffffffffffffffffffffffffffffffff16815260200190815260200160002060008282546119e69190612bc4565b925050819055508273ffffffffffffffffffffffffffffffffffffffff168473ffffffffffffffffffffffffffffffffffffffff167fddf252ad1be2c89b69c2b068fc378daa952ba7f163c4a11628f55a4df523b3ef84604051611a4a9190612619565b60405180910390a3611a5d848484611f17565b50505050565b611a6b611587565b73ffffffffffffffffffffffffffffffffffffffff16611a89610ff6565b73ffffffffffffffffffffffffffffffffffffffff1614611adf576040517f08c379a0000000000000000000000000000000000000000000000000000000008152600401611ad690613965565b60405180910390fd5b565b60007f000000000000000000000000000000000000000000000000000000000000000073ffffffffffffffffffffffffffffffffffffffff163073ffffffffffffffffffffffffffffffffffffffff16148015611b5d57507f000000000000000000000000000000000000000000000000000000000000000046145b15611b8a577f00000000000000000000000000000000000000000000000000000000000000009050611bf8565b611bf57f00000000000000000000000000000000000000000000000000000000000000007f00000000000000000000000000000000000000000000000000000000000000007f0000000000000000000000000000000000000000000000000000000000000000611f1c565b90505b90565b6000611c34838360096001015433604051602001611c1991906139cd565b60405160208183030381529060405280519060200120611f56565b905092915050565b600073ffffffffffffffffffffffffffffffffffffffff168273ffffffffffffffffffffffffffffffffffffffff1603611cab576040517f08c379a0000000000000000000000000000000000000000000000000000000008152600401611ca290613a34565b60405180910390fd5b611cb760008383611f12565b8060026000828254611cc99190612bc4565b92505081905550806000808473ffffffffffffffffffffffffffffffffffffffff1673ffffffffffffffffffffffffffffffffffffffff1681526020019081526020016000206000828254611d1e9190612bc4565b925050819055508173ffffffffffffffffffffffffffffffffffffffff16600073ffffffffffffffffffffffffffffffffffffffff167fddf252ad1be2c89b69c2b068fc378daa952ba7f163c4a11628f55a4df523b3ef83604051611d839190612619565b60405180910390a3611d9760008383611f17565b5050565b6000600760009054906101000a900473ffffffffffffffffffffffffffffffffffffffff16905081600760006101000a81548173ffffffffffffffffffffffffffffffffffffffff021916908373ffffffffffffffffffffffffffffffffffffffff1602179055508173ffffffffffffffffffffffffffffffffffffffff168173ffffffffffffffffffffffffffffffffffffffff167f8be0079c531659141344cd1fd0a4f28419497f9722a3daafe3b4186f6b6457e060405160405180910390a35050565b600081600001549050919050565b600080600560008473ffffffffffffffffffffffffffffffffffffffff1673ffffffffffffffffffffffffffffffffffffffff1681526020019081526020016000209050611ebc81611e61565b9150611ec781611f6f565b50919050565b6000611ee0611eda611ae1565b83611f85565b9050919050565b6000806000611ef887878787611fb8565b91509150611f05816120c4565b8192505050949350505050565b505050565b505050565b60008383834630604051602001611f37959493929190613a54565b6040516020818303038152906040528051906020012090509392505050565b600082611f64868685612290565b149050949350505050565b6001816000016000828254019250508190555050565b60008282604051602001611f9a929190613b1f565b60405160208183030381529060405280519060200120905092915050565b6000807f7fffffffffffffffffffffffffffffff5d576e7357a4501ddfe92f46681b20a08360001c1115611ff35760006003915091506120bb565b601b8560ff161415801561200b5750601c8560ff1614155b1561201d5760006004915091506120bb565b6000600187878787604051600081526020016040526040516120429493929190613b56565b6020604051602081039080840390855afa158015612064573d6000803e3d6000fd5b505050602060405103519050600073ffffffffffffffffffffffffffffffffffffffff168173ffffffffffffffffffffffffffffffffffffffff16036120b2576000600192509250506120bb565b80600092509250505b94509492505050565b600060048111156120d8576120d76128eb565b5b8160048111156120eb576120ea6128eb565b5b031561228d5760016004811115612105576121046128eb565b5b816004811115612118576121176128eb565b5b03612158576040517f08c379a000000000000000000000000000000000000000000000000000000000815260040161214f90613be7565b60405180910390fd5b6002600481111561216c5761216b6128eb565b5b81600481111561217f5761217e6128eb565b5b036121bf576040517f08c379a00000000000000000000000000000000000000000000000000000000081526004016121b690613c53565b60405180910390fd5b600360048111156121d3576121d26128eb565b5b8160048111156121e6576121e56128eb565b5b03612226576040517f08c379a000000000000000000000000000000000000000000000000000000000815260040161221d90613ce5565b60405180910390fd5b600480811115612239576122386128eb565b5b81600481111561224c5761224b6128eb565b5b0361228c576040517f08c379a000000000000000000000000000000000000000000000000000000000815260040161228390613d77565b60405180910390fd5b5b50565b60008082905060005b858590508110156122dc576122c7828787848181106122bb576122ba613d97565b5b905060200201356122e8565b915080806122d490613dc6565b915050612299565b50809150509392505050565b6000818310612300576122fb8284612313565b61230b565b61230a8383612313565b5b905092915050565b600082600052816020526040600020905092915050565b600080fd5b600080fd5b600073ffffffffffffffffffffffffffffffffffffffff82169050919050565b600061235f82612334565b9050919050565b61236f81612354565b811461237a57600080fd5b50565b60008135905061238c81612366565b92915050565b6000819050919050565b6123a581612392565b81146123b057600080fd5b50565b6000813590506123c28161239c565b92915050565b600060ff82169050919050565b6123de816123c8565b81146123e957600080fd5b50565b6000813590506123fb816123d5565b92915050565b6000819050919050565b61241481612401565b811461241f57600080fd5b50565b6000813590506124318161240b565b92915050565b600080600080600080600060e0888a0312156124565761245561232a565b5b60006124648a828b0161237d565b97505060206124758a828b0161237d565b96505060406124868a828b016123b3565b95505060606124978a828b016123b3565b94505060806124a88a828b016123ec565b93505060a06124b98a828b01612422565b92505060c06124ca8a828b01612422565b91505092959891949750929550565b600081519050919050565b600082825260208201905092915050565b60005b838110156125135780820151818401526020810190506124f8565b83811115612522576000848401525b50505050565b6000601f19601f8301169050919050565b6000612544826124d9565b61254e81856124e4565b935061255e8185602086016124f5565b61256781612528565b840191505092915050565b6000602082019050818103600083015261258c8184612539565b905092915050565b600080604083850312156125ab576125aa61232a565b5b60006125b98582860161237d565b92505060206125ca858286016123b3565b9150509250929050565b60008115159050919050565b6125e9816125d4565b82525050565b600060208201905061260460008301846125e0565b92915050565b61261381612392565b82525050565b600060208201905061262e600083018461260a565b92915050565b60008060006060848603121561264d5761264c61232a565b5b600061265b8682870161237d565b935050602061266c8682870161237d565b925050604061267d868287016123b3565b9150509250925092565b60006020828403121561269d5761269c61232a565b5b60006126ab8482850161237d565b91505092915050565b60006126bf82612354565b9050919050565b6126cf816126b4565b81146126da57600080fd5b50565b6000813590506126ec816126c6565b92915050565b6000602082840312156127085761270761232a565b5b6000612716848285016126dd565b91505092915050565b612728816123c8565b82525050565b6000602082019050612743600083018461271f565b92915050565b61275281612401565b82525050565b600060208201905061276d6000830184612749565b92915050565b61277c81612354565b82525050565b60006020820190506127976000830184612773565b92915050565b600080fd5b600080fd5b600080fd5b60008083601f8401126127c2576127c161279d565b5b8235905067ffffffffffffffff8111156127df576127de6127a2565b5b6020830191508360208202830111156127fb576127fa6127a7565b5b9250929050565b6000806000806060858703121561281c5761281b61232a565b5b600061282a8782880161237d565b945050602061283b878288016123b3565b935050604085013567ffffffffffffffff81111561285c5761285b61232f565b5b612868878288016127ac565b925092505092959194509250565b60006fffffffffffffffffffffffffffffffff82169050919050565b61289b81612876565b81146128a657600080fd5b50565b6000813590506128b881612892565b92915050565b6000602082840312156128d4576128d361232a565b5b60006128e2848285016128a9565b91505092915050565b7f4e487b7100000000000000000000000000000000000000000000000000000000600052602160045260246000fd5b6003811061292b5761292a6128eb565b5b50565b600081905061293c8261291a565b919050565b600061294c8261292e565b9050919050565b61295c81612941565b82525050565b600063ffffffff82169050919050565b61297b81612962565b82525050565b61298a81612876565b82525050565b6000819050919050565b60006129b56129b06129ab84612334565b612990565b612334565b9050919050565b60006129c78261299a565b9050919050565b60006129d9826129bc565b9050919050565b6129e9816129ce565b82525050565b600060a082019050612a046000830188612953565b612a116020830187612972565b612a1e6040830186612749565b612a2b6060830185612981565b612a3860808301846129e0565b9695505050505050565b60008060408385031215612a5957612a5861232a565b5b6000612a678582860161237d565b9250506020612a788582860161237d565b9150509250929050565b600060208284031215612a9857612a9761232a565b5b6000612aa684828501612422565b91505092915050565b612ab881612962565b8114612ac357600080fd5b50565b600081359050612ad581612aaf565b92915050565b600060208284031215612af157612af061232a565b5b6000612aff84828501612ac6565b91505092915050565b600060208284031215612b1e57612b1d61232a565b5b6000612b2c848285016123b3565b91505092915050565b7f4e487b7100000000000000000000000000000000000000000000000000000000600052602260045260246000fd5b60006002820490506001821680612b7c57607f821691505b602082108103612b8f57612b8e612b35565b5b50919050565b7f4e487b7100000000000000000000000000000000000000000000000000000000600052601160045260246000fd5b6000612bcf82612392565b9150612bda83612392565b9250827fffffffffffffffffffffffffffffffffffffffffffffffffffffffffffffffff03821115612c0f57612c0e612b95565b5b828201905092915050565b600081519050612c298161239c565b92915050565b600060208284031215612c4557612c4461232a565b5b6000612c5384828501612c1a565b91505092915050565b6000604082019050612c716000830185612773565b612c7e602083018461260a565b9392505050565b612c8e816125d4565b8114612c9957600080fd5b50565b600081519050612cab81612c85565b92915050565b600060208284031215612cc757612cc661232a565b5b6000612cd584828501612c9c565b91505092915050565b7f4e6f742079657400000000000000000000000000000000000000000000000000600082015250565b6000612d146007836124e4565b9150612d1f82612cde565b602082019050919050565b60006020820190508181036000830152612d4381612d07565b9050919050565b7f536f6c64204f7574000000000000000000000000000000000000000000000000600082015250565b6000612d806008836124e4565b9150612d8b82612d4a565b602082019050919050565b60006020820190508181036000830152612daf81612d73565b9050919050565b7f4e6f742057686974656c69737465640000000000000000000000000000000000600082015250565b6000612dec600f836124e4565b9150612df782612db6565b602082019050919050565b60006020820190508181036000830152612e1b81612ddf565b9050919050565b6000612e2d82612392565b9150612e3883612392565b9250817fffffffffffffffffffffffffffffffffffffffffffffffffffffffffffffffff0483118215151615612e7157612e70612b95565b5b828202905092915050565b7f4e487b7100000000000000000000000000000000000000000000000000000000600052601260045260246000fd5b6000612eb682612392565b9150612ec183612392565b925082612ed157612ed0612e7c565b5b828204905092915050565b7f4d6178696d756d20737570706c79206578636565646564000000000000000000600082015250565b6000612f126017836124e4565b9150612f1d82612edc565b602082019050919050565b60006020820190508181036000830152612f4181612f05565b9050919050565b7f54686973204164647265737320626f7567687420746f6f206d75636820746f6b60008201527f656e730000000000000000000000000000000000000000000000000000000000602082015250565b6000612fa46023836124e4565b9150612faf82612f48565b604082019050919050565b60006020820190508181036000830152612fd381612f97565b9050919050565b6000606082019050612fef6000830186612773565b612ffc6020830185612773565b613009604083018461260a565b949350505050565b60006060820190506130266000830186612773565b613033602083018561260a565b613040604083018461260a565b949350505050565b60008160011c9050919050565b6000808291508390505b600185111561309f5780860481111561307b5761307a612b95565b5b600185161561308a5780820291505b808102905061309885613048565b945061305f565b94509492505050565b6000826130b85760019050613174565b816130c65760009050613174565b81600181146130dc57600281146130e657613115565b6001915050613174565b60ff8411156130f8576130f7612b95565b5b8360020a91508482111561310f5761310e612b95565b5b50613174565b5060208310610133831016604e8410600b841016171561314a5782820a90508381111561314557613144612b95565b5b613174565b6131578484846001613055565b9250905081840481111561316e5761316d612b95565b5b81810290505b9392505050565b600061318682612392565b9150613191836123c8565b92506131be7fffffffffffffffffffffffffffffffffffffffffffffffffffffffffffffffff84846130a8565b905092915050565b7f546f6f206c6f77202c20636865636b20646563696d616c732100000000000000600082015250565b60006131fc6019836124e4565b9150613207826131c6565b602082019050919050565b6000602082019050818103600083015261322b816131ef565b9050919050565b7f45524332303a2064656372656173656420616c6c6f77616e63652062656c6f7760008201527f207a65726f000000000000000000000000000000000000000000000000000000602082015250565b600061328e6025836124e4565b915061329982613232565b604082019050919050565b600060208201905081810360008301526132bd81613281565b9050919050565b7f45524332305065726d69743a206578706972656420646561646c696e65000000600082015250565b60006132fa601d836124e4565b9150613305826132c4565b602082019050919050565b60006020820190508181036000830152613329816132ed565b9050919050565b600060c0820190506133456000830189612749565b6133526020830188612773565b61335f6040830187612773565b61336c606083018661260a565b613379608083018561260a565b61338660a083018461260a565b979650505050505050565b7f45524332305065726d69743a20696e76616c6964207369676e61747572650000600082015250565b60006133c7601e836124e4565b91506133d282613391565b602082019050919050565b600060208201905081810360008301526133f6816133ba565b9050919050565b7f4f776e61626c653a206e6577206f776e657220697320746865207a65726f206160008201527f6464726573730000000000000000000000000000000000000000000000000000602082015250565b60006134596026836124e4565b9150613464826133fd565b604082019050919050565b600060208201905081810360008301526134888161344c565b9050919050565b7f312e36206575726f20666f72206f6e6520646f6c6c6172203f3f200000000000600082015250565b60006134c5601b836124e4565b91506134d08261348f565b602082019050919050565b600060208201905081810360008301526134f4816134b8565b9050919050565b7f302e36206575726f20666f72206f6e6520646f6c6c6172203f3f200000000000600082015250565b6000613531601b836124e4565b915061353c826134fb565b602082019050919050565b6000602082019050818103600083015261356081613524565b9050919050565b7f57726f6e67206e756d6265720000000000000000000000000000000000000000600082015250565b600061359d600c836124e4565b91506135a882613567565b602082019050919050565b600060208201905081810360008301526135cc81613590565b9050919050565b7f45524332303a20617070726f76652066726f6d20746865207a65726f2061646460008201527f7265737300000000000000000000000000000000000000000000000000000000602082015250565b600061362f6024836124e4565b915061363a826135d3565b604082019050919050565b6000602082019050818103600083015261365e81613622565b9050919050565b7f45524332303a20617070726f766520746f20746865207a65726f20616464726560008201527f7373000000000000000000000000000000000000000000000000000000000000602082015250565b60006136c16022836124e4565b91506136cc82613665565b604082019050919050565b600060208201905081810360008301526136f0816136b4565b9050919050565b7f45524332303a20696e73756666696369656e7420616c6c6f77616e6365000000600082015250565b600061372d601d836124e4565b9150613738826136f7565b602082019050919050565b6000602082019050818103600083015261375c81613720565b9050919050565b7f45524332303a207472616e736665722066726f6d20746865207a65726f20616460008201527f6472657373000000000000000000000000000000000000000000000000000000602082015250565b60006137bf6025836124e4565b91506137ca82613763565b604082019050919050565b600060208201905081810360008301526137ee816137b2565b9050919050565b7f45524332303a207472616e7366657220746f20746865207a65726f206164647260008201527f6573730000000000000000000000000000000000000000000000000000000000602082015250565b60006138516023836124e4565b915061385c826137f5565b604082019050919050565b6000602082019050818103600083015261388081613844565b9050919050565b7f45524332303a207472616e7366657220616d6f756e742065786365656473206260008201527f616c616e63650000000000000000000000000000000000000000000000000000602082015250565b60006138e36026836124e4565b91506138ee82613887565b604082019050919050565b60006020820190508181036000830152613912816138d6565b9050919050565b7f4f776e61626c653a2063616c6c6572206973206e6f7420746865206f776e6572600082015250565b600061394f6020836124e4565b915061395a82613919565b602082019050919050565b6000602082019050818103600083015261397e81613942565b9050919050565b60008160601b9050919050565b600061399d82613985565b9050919050565b60006139af82613992565b9050919050565b6139c76139c282612354565b6139a4565b82525050565b60006139d982846139b6565b60148201915081905092915050565b7f45524332303a206d696e7420746f20746865207a65726f206164647265737300600082015250565b6000613a1e601f836124e4565b9150613a29826139e8565b602082019050919050565b60006020820190508181036000830152613a4d81613a11565b9050919050565b600060a082019050613a696000830188612749565b613a766020830187612749565b613a836040830186612749565b613a90606083018561260a565b613a9d6080830184612773565b9695505050505050565b600081905092915050565b7f1901000000000000000000000000000000000000000000000000000000000000600082015250565b6000613ae8600283613aa7565b9150613af382613ab2565b600282019050919050565b6000819050919050565b613b19613b1482612401565b613afe565b82525050565b6000613b2a82613adb565b9150613b368285613b08565b602082019150613b468284613b08565b6020820191508190509392505050565b6000608082019050613b6b6000830187612749565b613b78602083018661271f565b613b856040830185612749565b613b926060830184612749565b95945050505050565b7f45434453413a20696e76616c6964207369676e61747572650000000000000000600082015250565b6000613bd16018836124e4565b9150613bdc82613b9b565b602082019050919050565b60006020820190508181036000830152613c0081613bc4565b9050919050565b7f45434453413a20696e76616c6964207369676e6174757265206c656e67746800600082015250565b6000613c3d601f836124e4565b9150613c4882613c07565b602082019050919050565b60006020820190508181036000830152613c6c81613c30565b9050919050565b7f45434453413a20696e76616c6964207369676e6174757265202773272076616c60008201527f7565000000000000000000000000000000000000000000000000000000000000602082015250565b6000613ccf6022836124e4565b9150613cda82613c73565b604082019050919050565b60006020820190508181036000830152613cfe81613cc2565b9050919050565b7f45434453413a20696e76616c6964207369676e6174757265202776272076616c60008201527f7565000000000000000000000000000000000000000000000000000000000000602082015250565b6000613d616022836124e4565b9150613d6c82613d05565b604082019050919050565b60006020820190508181036000830152613d9081613d54565b9050919050565b7f4e487b7100000000000000000000000000000000000000000000000000000000600052603260045260246000fd5b6000613dd182612392565b91507fffffffffffffffffffffffffffffffffffffffffffffffffffffffffffffffff8203613e0357613e02612b95565b5b60018201905091905056fea26469706673582212202e793ee1c2b919bde75a31a57730fd3f2364be0ded4e1bf863c0efb163a4097c64736f6c634300080d0033",
  "linkReferences": {},
  "deployedLinkReferences": {}
}