{
  "_format": "hh-sol-artifact-1",
  "contractName": "PropertyToken",
  "sourceName": "contracts/PropertyToken.sol",
  "abi": [
    {
      "inputs": [
        {
          "internalType": "contract IERC20",
          "name": "_kUSD",
          "type": "address"
        },
        {
          "internalType": "uint256",
          "name": "_max_supply",
          "type": "uint256"
        }
      ],
      "stateMutability": "nonpayable",
      "type": "constructor"
    },
    {
      "anonymous": false,
      "inputs": [
        {
          "indexed": true,
          "internalType": "address",
          "name": "owner",
          "type": "address"
        },
        {
          "indexed": true,
          "internalType": "address",
          "name": "spender",
          "type": "address"
        },
        {
          "indexed": false,
          "internalType": "uint256",
          "name": "value",
          "type": "uint256"
        }
      ],
      "name": "Approval",
      "type": "event"
    },
    {
      "anonymous": false,
      "inputs": [
        {
          "indexed": false,
          "internalType": "address",
          "name": "buyer",
          "type": "address"
        },
        {
          "indexed": false,
          "internalType": "uint256",
          "name": "amount",
          "type": "uint256"
        }
      ],
      "name": "Buying",
      "type": "event"
    },
    {
      "anonymous": false,
      "inputs": [
        {
          "indexed": true,
          "internalType": "address",
          "name": "previousOwner",
          "type": "address"
        },
        {
          "indexed": true,
          "internalType": "address",
          "name": "newOwner",
          "type": "address"
        }
      ],
      "name": "OwnershipTransferred",
      "type": "event"
    },
    {
      "anonymous": false,
      "inputs": [
        {
          "indexed": true,
          "internalType": "address",
          "name": "from",
          "type": "address"
        },
        {
          "indexed": true,
          "internalType": "address",
          "name": "to",
          "type": "address"
        },
        {
          "indexed": false,
          "internalType": "uint256",
          "name": "value",
          "type": "uint256"
        }
      ],
      "name": "Transfer",
      "type": "event"
    },
    {
      "inputs": [],
      "name": "MAX_SUPPLY",
      "outputs": [
        {
          "internalType": "uint256",
          "name": "",
          "type": "uint256"
        }
      ],
      "stateMutability": "view",
      "type": "function"
    },
    {
      "inputs": [
        {
          "internalType": "address",
          "name": "owner",
          "type": "address"
        },
        {
          "internalType": "address",
          "name": "spender",
          "type": "address"
        }
      ],
      "name": "allowance",
      "outputs": [
        {
          "internalType": "uint256",
          "name": "",
          "type": "uint256"
        }
      ],
      "stateMutability": "view",
      "type": "function"
    },
    {
      "inputs": [
        {
          "internalType": "address",
          "name": "spender",
          "type": "address"
        },
        {
          "internalType": "uint256",
          "name": "amount",
          "type": "uint256"
        }
      ],
      "name": "approve",
      "outputs": [
        {
          "internalType": "bool",
          "name": "",
          "type": "bool"
        }
      ],
      "stateMutability": "nonpayable",
      "type": "function"
    },
    {
      "inputs": [
        {
          "internalType": "address",
          "name": "account",
          "type": "address"
        }
      ],
      "name": "balanceOf",
      "outputs": [
        {
          "internalType": "uint256",
          "name": "",
          "type": "uint256"
        }
      ],
      "stateMutability": "view",
      "type": "function"
    },
    {
      "inputs": [
        {
          "internalType": "address",
          "name": "_to",
          "type": "address"
        },
        {
          "internalType": "uint256",
          "name": "amount",
          "type": "uint256"
        }
      ],
      "name": "buy",
      "outputs": [],
      "stateMutability": "nonpayable",
      "type": "function"
    },
    {
      "inputs": [],
      "name": "decimals",
      "outputs": [
        {
          "internalType": "uint8",
          "name": "",
          "type": "uint8"
        }
      ],
      "stateMutability": "view",
      "type": "function"
    },
    {
      "inputs": [
        {
          "internalType": "address",
          "name": "spender",
          "type": "address"
        },
        {
          "internalType": "uint256",
          "name": "subtractedValue",
          "type": "uint256"
        }
      ],
      "name": "decreaseAllowance",
      "outputs": [
        {
          "internalType": "bool",
          "name": "",
          "type": "bool"
        }
      ],
      "stateMutability": "nonpayable",
      "type": "function"
    },
    {
      "inputs": [
        {
          "internalType": "address",
          "name": "spender",
          "type": "address"
        },
        {
          "internalType": "uint256",
          "name": "addedValue",
          "type": "uint256"
        }
      ],
      "name": "increaseAllowance",
      "outputs": [
        {
          "internalType": "bool",
          "name": "",
          "type": "bool"
        }
      ],
      "stateMutability": "nonpayable",
      "type": "function"
    },
    {
      "inputs": [],
      "name": "name",
      "outputs": [
        {
          "internalType": "string",
          "name": "",
          "type": "string"
        }
      ],
      "stateMutability": "view",
      "type": "function"
    },
    {
      "inputs": [],
      "name": "owner",
      "outputs": [
        {
          "internalType": "address",
          "name": "",
          "type": "address"
        }
      ],
      "stateMutability": "view",
      "type": "function"
    },
    {
      "inputs": [],
      "name": "renounceOwnership",
      "outputs": [],
      "stateMutability": "nonpayable",
      "type": "function"
    },
    {
      "inputs": [],
      "name": "symbol",
      "outputs": [
        {
          "internalType": "string",
          "name": "",
          "type": "string"
        }
      ],
      "stateMutability": "view",
      "type": "function"
    },
    {
      "inputs": [],
      "name": "totalSupply",
      "outputs": [
        {
          "internalType": "uint256",
          "name": "",
          "type": "uint256"
        }
      ],
      "stateMutability": "view",
      "type": "function"
    },
    {
      "inputs": [
        {
          "internalType": "address",
          "name": "to",
          "type": "address"
        },
        {
          "internalType": "uint256",
          "name": "amount",
          "type": "uint256"
        }
      ],
      "name": "transfer",
      "outputs": [
        {
          "internalType": "bool",
          "name": "",
          "type": "bool"
        }
      ],
      "stateMutability": "nonpayable",
      "type": "function"
    },
    {
      "inputs": [
        {
          "internalType": "address",
          "name": "from",
          "type": "address"
        },
        {
          "internalType": "address",
          "name": "to",
          "type": "address"
        },
        {
          "internalType": "uint256",
          "name": "amount",
          "type": "uint256"
        }
      ],
      "name": "transferFrom",
      "outputs": [
        {
          "internalType": "bool",
          "name": "",
          "type": "bool"
        }
      ],
      "stateMutability": "nonpayable",
      "type": "function"
    },
    {
      "inputs": [
        {
          "internalType": "address",
          "name": "newOwner",
          "type": "address"
        }
      ],
      "name": "transferOwnership",
      "outputs": [],
      "stateMutability": "nonpayable",
      "type": "function"
    }
  ],
  "bytecode": "0x60c06040523480156200001157600080fd5b506040516200252d3803806200252d8339818101604052810190620000379190620003d1565b6040518060600160405280602d815260200162002500602d91396040518060400160405280600a81526020017f3341646c453738566c420000000000000000000000000000000000000000000081525081600390805190602001906200009f92919062000268565b508060049080519060200190620000b892919062000268565b505050620000db620000cf6200019160201b60201c565b6200019960201b60201c565b8173ffffffffffffffffffffffffffffffffffffffff1660a08173ffffffffffffffffffffffffffffffffffffffff16815250506200011f6200025f60201b60201c565b600a6200012d9190620005a8565b629896816200013d9190620005f9565b811062000181576040517f08c379a00000000000000000000000000000000000000000000000000000000081526004016200017890620006bb565b60405180910390fd5b8060808181525050505062000741565b600033905090565b6000600560009054906101000a900473ffffffffffffffffffffffffffffffffffffffff16905081600560006101000a81548173ffffffffffffffffffffffffffffffffffffffff021916908373ffffffffffffffffffffffffffffffffffffffff1602179055508173ffffffffffffffffffffffffffffffffffffffff168173ffffffffffffffffffffffffffffffffffffffff167f8be0079c531659141344cd1fd0a4f28419497f9722a3daafe3b4186f6b6457e060405160405180910390a35050565b60006012905090565b82805462000276906200070c565b90600052602060002090601f0160209004810192826200029a5760008555620002e6565b82601f10620002b557805160ff1916838001178555620002e6565b82800160010185558215620002e6579182015b82811115620002e5578251825591602001919060010190620002c8565b5b509050620002f59190620002f9565b5090565b5b8082111562000314576000816000905550600101620002fa565b5090565b600080fd5b600073ffffffffffffffffffffffffffffffffffffffff82169050919050565b60006200034a826200031d565b9050919050565b60006200035e826200033d565b9050919050565b620003708162000351565b81146200037c57600080fd5b50565b600081519050620003908162000365565b92915050565b6000819050919050565b620003ab8162000396565b8114620003b757600080fd5b50565b600081519050620003cb81620003a0565b92915050565b60008060408385031215620003eb57620003ea62000318565b5b6000620003fb858286016200037f565b92505060206200040e85828601620003ba565b9150509250929050565b7f4e487b7100000000000000000000000000000000000000000000000000000000600052601160045260246000fd5b60008160011c9050919050565b6000808291508390505b6001851115620004a6578086048111156200047e576200047d62000418565b5b60018516156200048e5780820291505b80810290506200049e8562000447565b94506200045e565b94509492505050565b600082620004c1576001905062000594565b81620004d1576000905062000594565b8160018114620004ea5760028114620004f5576200052b565b600191505062000594565b60ff8411156200050a576200050962000418565b5b8360020a91508482111562000524576200052362000418565b5b5062000594565b5060208310610133831016604e8410600b8410161715620005655782820a9050838111156200055f576200055e62000418565b5b62000594565b62000574848484600162000454565b925090508184048111156200058e576200058d62000418565b5b81810290505b9392505050565b600060ff82169050919050565b6000620005b58262000396565b9150620005c2836200059b565b9250620005f17fffffffffffffffffffffffffffffffffffffffffffffffffffffffffffffffff8484620004af565b905092915050565b6000620006068262000396565b9150620006138362000396565b9250817fffffffffffffffffffffffffffffffffffffffffffffffffffffffffffffffff04831182151516156200064f576200064e62000418565b5b828202905092915050565b600082825260208201905092915050565b7f41626f7665206d617820617070617274656d656e742070726963650000000000600082015250565b6000620006a3601b836200065a565b9150620006b0826200066b565b602082019050919050565b60006020820190508181036000830152620006d68162000694565b9050919050565b7f4e487b7100000000000000000000000000000000000000000000000000000000600052602260045260246000fd5b600060028204905060018216806200072557607f821691505b6020821081036200073b576200073a620006dd565b5b50919050565b60805160a051611d926200076e60003960006106c701526000818161044401526106ea0152611d926000f3fe608060405234801561001057600080fd5b50600436106101005760003560e01c8063715018a611610097578063a9059cbb11610066578063a9059cbb146102b3578063cce7ec13146102e3578063dd62ed3e146102ff578063f2fde38b1461032f57610100565b8063715018a61461023d5780638da5cb5b1461024757806395d89b4114610265578063a457c2d71461028357610100565b8063313ce567116100d3578063313ce567146101a157806332cb6b0c146101bf57806339509351146101dd57806370a082311461020d57610100565b806306fdde0314610105578063095ea7b31461012357806318160ddd1461015357806323b872dd14610171575b600080fd5b61010d61034b565b60405161011a9190611251565b60405180910390f35b61013d6004803603810190610138919061130c565b6103dd565b60405161014a9190611367565b60405180910390f35b61015b610400565b6040516101689190611391565b60405180910390f35b61018b600480360381019061018691906113ac565b61040a565b6040516101989190611367565b60405180910390f35b6101a9610439565b6040516101b6919061141b565b60405180910390f35b6101c7610442565b6040516101d49190611391565b60405180910390f35b6101f760048036038101906101f2919061130c565b610466565b6040516102049190611367565b60405180910390f35b61022760048036038101906102229190611436565b61049d565b6040516102349190611391565b60405180910390f35b6102456104e5565b005b61024f61056d565b60405161025c9190611472565b60405180910390f35b61026d610597565b60405161027a9190611251565b60405180910390f35b61029d6004803603810190610298919061130c565b610629565b6040516102aa9190611367565b60405180910390f35b6102cd60048036038101906102c8919061130c565b6106a0565b6040516102da9190611367565b60405180910390f35b6102fd60048036038101906102f8919061130c565b6106c3565b005b6103196004803603810190610314919061148d565b61092f565b6040516103269190611391565b60405180910390f35b61034960048036038101906103449190611436565b6109b6565b005b60606003805461035a906114fc565b80601f0160208091040260200160405190810160405280929190818152602001828054610386906114fc565b80156103d35780601f106103a8576101008083540402835291602001916103d3565b820191906000526020600020905b8154815290600101906020018083116103b657829003601f168201915b5050505050905090565b6000806103e8610aad565b90506103f5818585610ab5565b600191505092915050565b6000600254905090565b600080610415610aad565b9050610422858285610c7e565b61042d858585610d0a565b60019150509392505050565b60006012905090565b7f000000000000000000000000000000000000000000000000000000000000000081565b600080610471610aad565b9050610492818585610483858961092f565b61048d919061155c565b610ab5565b600191505092915050565b60008060008373ffffffffffffffffffffffffffffffffffffffff1673ffffffffffffffffffffffffffffffffffffffff168152602001908152602001600020549050919050565b6104ed610aad565b73ffffffffffffffffffffffffffffffffffffffff1661050b61056d565b73ffffffffffffffffffffffffffffffffffffffff1614610561576040517f08c379a0000000000000000000000000000000000000000000000000000000008152600401610558906115fe565b60405180910390fd5b61056b6000610f89565b565b6000600560009054906101000a900473ffffffffffffffffffffffffffffffffffffffff16905090565b6060600480546105a6906114fc565b80601f01602080910402602001604051908101604052809291908181526020018280546105d2906114fc565b801561061f5780601f106105f45761010080835404028352916020019161061f565b820191906000526020600020905b81548152906001019060200180831161060257829003601f168201915b5050505050905090565b600080610634610aad565b90506000610642828661092f565b905083811015610687576040517f08c379a000000000000000000000000000000000000000000000000000000000815260040161067e90611690565b60405180910390fd5b6106948286868403610ab5565b60019250505092915050565b6000806106ab610aad565b90506106b8818585610d0a565b600191505092915050565b60007f000000000000000000000000000000000000000000000000000000000000000090507f0000000000000000000000000000000000000000000000000000000000000000610711610400565b8361071c919061155c565b111561075d576040517f08c379a0000000000000000000000000000000000000000000000000000000008152600401610754906116fc565b60405180910390fd5b818173ffffffffffffffffffffffffffffffffffffffff1663dd62ed3e33306040518363ffffffff1660e01b815260040161079992919061171c565b602060405180830381865afa1580156107b6573d6000803e3d6000fd5b505050506040513d601f19601f820116820180604052508101906107da919061175a565b101561081b576040517f08c379a0000000000000000000000000000000000000000000000000000000008152600401610812906117d3565b60405180910390fd5b60008173ffffffffffffffffffffffffffffffffffffffff166323b872dd3361084261056d565b866040518463ffffffff1660e01b8152600401610861939291906117f3565b6020604051808303816000875af1158015610880573d6000803e3d6000fd5b505050506040513d601f19601f820116820180604052508101906108a49190611856565b9050806108e6576040517f08c379a00000000000000000000000000000000000000000000000000000000081526004016108dd906118cf565b60405180910390fd5b6108f0848461104f565b7f840df612bc9052dfa7ac2e14fc52368ca7749154d9132b7601f59d329f787fd684846040516109219291906118ef565b60405180910390a150505050565b6000600160008473ffffffffffffffffffffffffffffffffffffffff1673ffffffffffffffffffffffffffffffffffffffff16815260200190815260200160002060008373ffffffffffffffffffffffffffffffffffffffff1673ffffffffffffffffffffffffffffffffffffffff16815260200190815260200160002054905092915050565b6109be610aad565b73ffffffffffffffffffffffffffffffffffffffff166109dc61056d565b73ffffffffffffffffffffffffffffffffffffffff1614610a32576040517f08c379a0000000000000000000000000000000000000000000000000000000008152600401610a29906115fe565b60405180910390fd5b600073ffffffffffffffffffffffffffffffffffffffff168173ffffffffffffffffffffffffffffffffffffffff1603610aa1576040517f08c379a0000000000000000000000000000000000000000000000000000000008152600401610a989061198a565b60405180910390fd5b610aaa81610f89565b50565b600033905090565b600073ffffffffffffffffffffffffffffffffffffffff168373ffffffffffffffffffffffffffffffffffffffff1603610b24576040517f08c379a0000000000000000000000000000000000000000000000000000000008152600401610b1b90611a1c565b60405180910390fd5b600073ffffffffffffffffffffffffffffffffffffffff168273ffffffffffffffffffffffffffffffffffffffff1603610b93576040517f08c379a0000000000000000000000000000000000000000000000000000000008152600401610b8a90611aae565b60405180910390fd5b80600160008573ffffffffffffffffffffffffffffffffffffffff1673ffffffffffffffffffffffffffffffffffffffff16815260200190815260200160002060008473ffffffffffffffffffffffffffffffffffffffff1673ffffffffffffffffffffffffffffffffffffffff168152602001908152602001600020819055508173ffffffffffffffffffffffffffffffffffffffff168373ffffffffffffffffffffffffffffffffffffffff167f8c5be1e5ebec7d5bd14f71427d1e84f3dd0314c0f7b2291e5b200ac8c7c3b92583604051610c719190611391565b60405180910390a3505050565b6000610c8a848461092f565b90507fffffffffffffffffffffffffffffffffffffffffffffffffffffffffffffffff8114610d045781811015610cf6576040517f08c379a0000000000000000000000000000000000000000000000000000000008152600401610ced90611b1a565b60405180910390fd5b610d038484848403610ab5565b5b50505050565b600073ffffffffffffffffffffffffffffffffffffffff168373ffffffffffffffffffffffffffffffffffffffff1603610d79576040517f08c379a0000000000000000000000000000000000000000000000000000000008152600401610d7090611bac565b60405180910390fd5b600073ffffffffffffffffffffffffffffffffffffffff168273ffffffffffffffffffffffffffffffffffffffff1603610de8576040517f08c379a0000000000000000000000000000000000000000000000000000000008152600401610ddf90611c3e565b60405180910390fd5b610df38383836111ae565b60008060008573ffffffffffffffffffffffffffffffffffffffff1673ffffffffffffffffffffffffffffffffffffffff16815260200190815260200160002054905081811015610e79576040517f08c379a0000000000000000000000000000000000000000000000000000000008152600401610e7090611cd0565b60405180910390fd5b8181036000808673ffffffffffffffffffffffffffffffffffffffff1673ffffffffffffffffffffffffffffffffffffffff16815260200190815260200160002081905550816000808573ffffffffffffffffffffffffffffffffffffffff1673ffffffffffffffffffffffffffffffffffffffff1681526020019081526020016000206000828254610f0c919061155c565b925050819055508273ffffffffffffffffffffffffffffffffffffffff168473ffffffffffffffffffffffffffffffffffffffff167fddf252ad1be2c89b69c2b068fc378daa952ba7f163c4a11628f55a4df523b3ef84604051610f709190611391565b60405180910390a3610f838484846111b3565b50505050565b6000600560009054906101000a900473ffffffffffffffffffffffffffffffffffffffff16905081600560006101000a81548173ffffffffffffffffffffffffffffffffffffffff021916908373ffffffffffffffffffffffffffffffffffffffff1602179055508173ffffffffffffffffffffffffffffffffffffffff168173ffffffffffffffffffffffffffffffffffffffff167f8be0079c531659141344cd1fd0a4f28419497f9722a3daafe3b4186f6b6457e060405160405180910390a35050565b600073ffffffffffffffffffffffffffffffffffffffff168273ffffffffffffffffffffffffffffffffffffffff16036110be576040517f08c379a00000000000000000000000000000000000000000000000000000000081526004016110b590611d3c565b60405180910390fd5b6110ca600083836111ae565b80600260008282546110dc919061155c565b92505081905550806000808473ffffffffffffffffffffffffffffffffffffffff1673ffffffffffffffffffffffffffffffffffffffff1681526020019081526020016000206000828254611131919061155c565b925050819055508173ffffffffffffffffffffffffffffffffffffffff16600073ffffffffffffffffffffffffffffffffffffffff167fddf252ad1be2c89b69c2b068fc378daa952ba7f163c4a11628f55a4df523b3ef836040516111969190611391565b60405180910390a36111aa600083836111b3565b5050565b505050565b505050565b600081519050919050565b600082825260208201905092915050565b60005b838110156111f25780820151818401526020810190506111d7565b83811115611201576000848401525b50505050565b6000601f19601f8301169050919050565b6000611223826111b8565b61122d81856111c3565b935061123d8185602086016111d4565b61124681611207565b840191505092915050565b6000602082019050818103600083015261126b8184611218565b905092915050565b600080fd5b600073ffffffffffffffffffffffffffffffffffffffff82169050919050565b60006112a382611278565b9050919050565b6112b381611298565b81146112be57600080fd5b50565b6000813590506112d0816112aa565b92915050565b6000819050919050565b6112e9816112d6565b81146112f457600080fd5b50565b600081359050611306816112e0565b92915050565b6000806040838503121561132357611322611273565b5b6000611331858286016112c1565b9250506020611342858286016112f7565b9150509250929050565b60008115159050919050565b6113618161134c565b82525050565b600060208201905061137c6000830184611358565b92915050565b61138b816112d6565b82525050565b60006020820190506113a66000830184611382565b92915050565b6000806000606084860312156113c5576113c4611273565b5b60006113d3868287016112c1565b93505060206113e4868287016112c1565b92505060406113f5868287016112f7565b9150509250925092565b600060ff82169050919050565b611415816113ff565b82525050565b6000602082019050611430600083018461140c565b92915050565b60006020828403121561144c5761144b611273565b5b600061145a848285016112c1565b91505092915050565b61146c81611298565b82525050565b60006020820190506114876000830184611463565b92915050565b600080604083850312156114a4576114a3611273565b5b60006114b2858286016112c1565b92505060206114c3858286016112c1565b9150509250929050565b7f4e487b7100000000000000000000000000000000000000000000000000000000600052602260045260246000fd5b6000600282049050600182168061151457607f821691505b602082108103611527576115266114cd565b5b50919050565b7f4e487b7100000000000000000000000000000000000000000000000000000000600052601160045260246000fd5b6000611567826112d6565b9150611572836112d6565b9250827fffffffffffffffffffffffffffffffffffffffffffffffffffffffffffffffff038211156115a7576115a661152d565b5b828201905092915050565b7f4f776e61626c653a2063616c6c6572206973206e6f7420746865206f776e6572600082015250565b60006115e86020836111c3565b91506115f3826115b2565b602082019050919050565b60006020820190508181036000830152611617816115db565b9050919050565b7f45524332303a2064656372656173656420616c6c6f77616e63652062656c6f7760008201527f207a65726f000000000000000000000000000000000000000000000000000000602082015250565b600061167a6025836111c3565b91506116858261161e565b604082019050919050565b600060208201905081810360008301526116a98161166d565b9050919050565b7f546f6f206d756368000000000000000000000000000000000000000000000000600082015250565b60006116e66008836111c3565b91506116f1826116b0565b602082019050919050565b60006020820190508181036000830152611715816116d9565b9050919050565b60006040820190506117316000830185611463565b61173e6020830184611463565b9392505050565b600081519050611754816112e0565b92915050565b6000602082840312156117705761176f611273565b5b600061177e84828501611745565b91505092915050565b7f4e65656420746f20616c6c6f7720666972737400000000000000000000000000600082015250565b60006117bd6013836111c3565b91506117c882611787565b602082019050919050565b600060208201905081810360008301526117ec816117b0565b9050919050565b60006060820190506118086000830186611463565b6118156020830185611463565b6118226040830184611382565b949350505050565b6118338161134c565b811461183e57600080fd5b50565b6000815190506118508161182a565b92915050565b60006020828403121561186c5761186b611273565b5b600061187a84828501611841565b91505092915050565b7f436f756c646e27742072656365697665206b5553440000000000000000000000600082015250565b60006118b96015836111c3565b91506118c482611883565b602082019050919050565b600060208201905081810360008301526118e8816118ac565b9050919050565b60006040820190506119046000830185611463565b6119116020830184611382565b9392505050565b7f4f776e61626c653a206e6577206f776e657220697320746865207a65726f206160008201527f6464726573730000000000000000000000000000000000000000000000000000602082015250565b60006119746026836111c3565b915061197f82611918565b604082019050919050565b600060208201905081810360008301526119a381611967565b9050919050565b7f45524332303a20617070726f76652066726f6d20746865207a65726f2061646460008201527f7265737300000000000000000000000000000000000000000000000000000000602082015250565b6000611a066024836111c3565b9150611a11826119aa565b604082019050919050565b60006020820190508181036000830152611a35816119f9565b9050919050565b7f45524332303a20617070726f766520746f20746865207a65726f20616464726560008201527f7373000000000000000000000000000000000000000000000000000000000000602082015250565b6000611a986022836111c3565b9150611aa382611a3c565b604082019050919050565b60006020820190508181036000830152611ac781611a8b565b9050919050565b7f45524332303a20696e73756666696369656e7420616c6c6f77616e6365000000600082015250565b6000611b04601d836111c3565b9150611b0f82611ace565b602082019050919050565b60006020820190508181036000830152611b3381611af7565b9050919050565b7f45524332303a207472616e736665722066726f6d20746865207a65726f20616460008201527f6472657373000000000000000000000000000000000000000000000000000000602082015250565b6000611b966025836111c3565b9150611ba182611b3a565b604082019050919050565b60006020820190508181036000830152611bc581611b89565b9050919050565b7f45524332303a207472616e7366657220746f20746865207a65726f206164647260008201527f6573730000000000000000000000000000000000000000000000000000000000602082015250565b6000611c286023836111c3565b9150611c3382611bcc565b604082019050919050565b60006020820190508181036000830152611c5781611c1b565b9050919050565b7f45524332303a207472616e7366657220616d6f756e742065786365656473206260008201527f616c616e63650000000000000000000000000000000000000000000000000000602082015250565b6000611cba6026836111c3565b9150611cc582611c5e565b604082019050919050565b60006020820190508181036000830152611ce981611cad565b9050919050565b7f45524332303a206d696e7420746f20746865207a65726f206164647265737300600082015250565b6000611d26601f836111c3565b9150611d3182611cf0565b602082019050919050565b60006020820190508181036000830152611d5581611d19565b905091905056fea264697066735822122026e0b98c2823b6dca09892936e94252593c4361f73636e671a40f8a9bdbb8a6e64736f6c634300080d00333320616c6c6565206465206c27657065652c20373836383820566f6973696e206c6520427265746f6e6e657578",
  "linkReferences": {},
  "deployedLinkReferences": {}
}