{
  "abi": [
    {
      "inputs": [
        {
          "internalType": "contract IERC20",
          "name": "_currencyUsed",
          "type": "address"
        },
        {
          "internalType": "address",
          "name": "_feeAddress",
          "type": "address"
        },
        {
          "internalType": "uint16",
          "name": "feex10",
          "type": "uint16"
        }
      ],
      "stateMutability": "nonpayable",
      "type": "constructor"
    },
    {
      "anonymous": false,
      "inputs": [
        {
          "components": [
            {
              "internalType": "bool",
              "name": "open",
              "type": "bool"
            },
            {
              "internalType": "bool",
              "name": "propositionAccepted",
              "type": "bool"
            },
            {
              "internalType": "uint8",
              "name": "index",
              "type": "uint8"
            },
            {
              "internalType": "uint64",
              "name": "date",
              "type": "uint64"
            },
            {
              "internalType": "uint128",
              "name": "fee",
              "type": "uint128"
            },
            {
              "internalType": "address",
              "name": "seller",
              "type": "address"
            },
            {
              "internalType": "address",
              "name": "buyer",
              "type": "address"
            },
            {
              "internalType": "uint256",
              "name": "price",
              "type": "uint256"
            },
            {
              "internalType": "uint256",
              "name": "amount",
              "type": "uint256"
            }
          ],
          "indexed": false,
          "internalType": "struct orderInfo",
          "name": "",
          "type": "tuple"
        }
      ],
      "name": "BuyOrderInitiated",
      "type": "event"
    },
    {
      "anonymous": false,
      "inputs": [
        {
          "indexed": true,
          "internalType": "address",
          "name": "previousOwner",
          "type": "address"
        },
        {
          "indexed": true,
          "internalType": "address",
          "name": "newOwner",
          "type": "address"
        }
      ],
      "name": "OwnershipTransferred",
      "type": "event"
    },
    {
      "anonymous": false,
      "inputs": [
        {
          "components": [
            {
              "internalType": "bool",
              "name": "open",
              "type": "bool"
            },
            {
              "internalType": "bool",
              "name": "propositionAccepted",
              "type": "bool"
            },
            {
              "internalType": "uint8",
              "name": "index",
              "type": "uint8"
            },
            {
              "internalType": "uint64",
              "name": "date",
              "type": "uint64"
            },
            {
              "internalType": "uint128",
              "name": "fee",
              "type": "uint128"
            },
            {
              "internalType": "address",
              "name": "seller",
              "type": "address"
            },
            {
              "internalType": "address",
              "name": "buyer",
              "type": "address"
            },
            {
              "internalType": "uint256",
              "name": "price",
              "type": "uint256"
            },
            {
              "internalType": "uint256",
              "name": "amount",
              "type": "uint256"
            }
          ],
          "indexed": false,
          "internalType": "struct orderInfo",
          "name": "",
          "type": "tuple"
        }
      ],
      "name": "SellOrderInitiated",
      "type": "event"
    },
    {
      "inputs": [
        {
          "internalType": "contract IERC20",
          "name": "token",
          "type": "address"
        }
      ],
      "name": "addToken",
      "outputs": [],
      "stateMutability": "nonpayable",
      "type": "function"
    },
    {
      "inputs": [
        {
          "internalType": "contract IERC20",
          "name": "token",
          "type": "address"
        },
        {
          "internalType": "uint8",
          "name": "index",
          "type": "uint8"
        }
      ],
      "name": "buy",
      "outputs": [],
      "stateMutability": "nonpayable",
      "type": "function"
    },
    {
      "inputs": [
        {
          "internalType": "contract IERC20",
          "name": "token",
          "type": "address"
        },
        {
          "internalType": "uint256",
          "name": "amount",
          "type": "uint256"
        },
        {
          "internalType": "uint256",
          "name": "sellPrice",
          "type": "uint256"
        }
      ],
      "name": "buyOrder",
      "outputs": [],
      "stateMutability": "nonpayable",
      "type": "function"
    },
    {
      "inputs": [
        {
          "internalType": "contract IERC20",
          "name": "",
          "type": "address"
        },
        {
          "internalType": "uint256",
          "name": "",
          "type": "uint256"
        }
      ],
      "name": "buyOrderByToken",
      "outputs": [
        {
          "internalType": "bool",
          "name": "open",
          "type": "bool"
        },
        {
          "internalType": "bool",
          "name": "propositionAccepted",
          "type": "bool"
        },
        {
          "internalType": "uint8",
          "name": "index",
          "type": "uint8"
        },
        {
          "internalType": "uint64",
          "name": "date",
          "type": "uint64"
        },
        {
          "internalType": "uint128",
          "name": "fee",
          "type": "uint128"
        },
        {
          "internalType": "address",
          "name": "seller",
          "type": "address"
        },
        {
          "internalType": "address",
          "name": "buyer",
          "type": "address"
        },
        {
          "internalType": "uint256",
          "name": "price",
          "type": "uint256"
        },
        {
          "internalType": "uint256",
          "name": "amount",
          "type": "uint256"
        }
      ],
      "stateMutability": "view",
      "type": "function"
    },
    {
      "inputs": [],
      "name": "c",
      "outputs": [
        {
          "internalType": "uint16",
          "name": "feeX10",
          "type": "uint16"
        },
        {
          "internalType": "bool",
          "name": "paused",
          "type": "bool"
        },
        {
          "internalType": "uint256",
          "name": "feePot",
          "type": "uint256"
        },
        {
          "internalType": "address",
          "name": "feeAddress",
          "type": "address"
        }
      ],
      "stateMutability": "view",
      "type": "function"
    },
    {
      "inputs": [
        {
          "internalType": "contract IERC20",
          "name": "token",
          "type": "address"
        },
        {
          "internalType": "bool",
          "name": "TrueForSellFalseForBuy",
          "type": "bool"
        },
        {
          "internalType": "uint8",
          "name": "index",
          "type": "uint8"
        }
      ],
      "name": "cancelOrder",
      "outputs": [],
      "stateMutability": "nonpayable",
      "type": "function"
    },
    {
      "inputs": [],
      "name": "currencyUsed",
      "outputs": [
        {
          "internalType": "contract IERC20",
          "name": "",
          "type": "address"
        }
      ],
      "stateMutability": "view",
      "type": "function"
    },
    {
      "inputs": [
        {
          "internalType": "contract IERC20",
          "name": "token",
          "type": "address"
        }
      ],
      "name": "isToken",
      "outputs": [
        {
          "internalType": "bool",
          "name": "",
          "type": "bool"
        }
      ],
      "stateMutability": "view",
      "type": "function"
    },
    {
      "inputs": [],
      "name": "owner",
      "outputs": [
        {
          "internalType": "address",
          "name": "",
          "type": "address"
        }
      ],
      "stateMutability": "view",
      "type": "function"
    },
    {
      "inputs": [],
      "name": "renounceOwnership",
      "outputs": [],
      "stateMutability": "nonpayable",
      "type": "function"
    },
    {
      "inputs": [
        {
          "internalType": "contract IERC20",
          "name": "token",
          "type": "address"
        },
        {
          "internalType": "uint8",
          "name": "index",
          "type": "uint8"
        }
      ],
      "name": "sell",
      "outputs": [],
      "stateMutability": "nonpayable",
      "type": "function"
    },
    {
      "inputs": [
        {
          "internalType": "contract IERC20",
          "name": "token",
          "type": "address"
        },
        {
          "internalType": "uint256",
          "name": "amount",
          "type": "uint256"
        },
        {
          "internalType": "uint256",
          "name": "sellPrice",
          "type": "uint256"
        }
      ],
      "name": "sellOrder",
      "outputs": [],
      "stateMutability": "nonpayable",
      "type": "function"
    },
    {
      "inputs": [
        {
          "internalType": "contract IERC20",
          "name": "",
          "type": "address"
        },
        {
          "internalType": "uint256",
          "name": "",
          "type": "uint256"
        }
      ],
      "name": "sellOrderByToken",
      "outputs": [
        {
          "internalType": "bool",
          "name": "open",
          "type": "bool"
        },
        {
          "internalType": "bool",
          "name": "propositionAccepted",
          "type": "bool"
        },
        {
          "internalType": "uint8",
          "name": "index",
          "type": "uint8"
        },
        {
          "internalType": "uint64",
          "name": "date",
          "type": "uint64"
        },
        {
          "internalType": "uint128",
          "name": "fee",
          "type": "uint128"
        },
        {
          "internalType": "address",
          "name": "seller",
          "type": "address"
        },
        {
          "internalType": "address",
          "name": "buyer",
          "type": "address"
        },
        {
          "internalType": "uint256",
          "name": "price",
          "type": "uint256"
        },
        {
          "internalType": "uint256",
          "name": "amount",
          "type": "uint256"
        }
      ],
      "stateMutability": "view",
      "type": "function"
    },
    {
      "inputs": [
        {
          "internalType": "uint16",
          "name": "feePercentx10",
          "type": "uint16"
        }
      ],
      "name": "setFee",
      "outputs": [],
      "stateMutability": "nonpayable",
      "type": "function"
    },
    {
      "inputs": [
        {
          "internalType": "address",
          "name": "newFeeAddress",
          "type": "address"
        }
      ],
      "name": "setFeeAddress",
      "outputs": [],
      "stateMutability": "nonpayable",
      "type": "function"
    },
    {
      "inputs": [
        {
          "internalType": "uint256",
          "name": "",
          "type": "uint256"
        }
      ],
      "name": "tokenList",
      "outputs": [
        {
          "internalType": "contract IERC20",
          "name": "",
          "type": "address"
        }
      ],
      "stateMutability": "view",
      "type": "function"
    },
    {
      "inputs": [
        {
          "internalType": "address",
          "name": "newOwner",
          "type": "address"
        }
      ],
      "name": "transferOwnership",
      "outputs": [],
      "stateMutability": "nonpayable",
      "type": "function"
    },
    {
      "inputs": [],
      "name": "withdrawFee",
      "outputs": [],
      "stateMutability": "nonpayable",
      "type": "function"
    }
  ],
  "bytecode": {
    "object": "0x60a06040523480156200001157600080fd5b50604051620022b9380380620022b98339810160408190526200003491620000ee565b6200003f3362000085565b600180556001600160a01b03928316608052600780546001600160a01b03191692909316919091179091556005805461ffff191661ffff90921691909117905562000148565b600080546001600160a01b038381166001600160a01b0319831681178455604051919092169283917f8be0079c531659141344cd1fd0a4f28419497f9722a3daafe3b4186f6b6457e09190a35050565b6001600160a01b0381168114620000eb57600080fd5b50565b6000806000606084860312156200010457600080fd5b83516200011181620000d5565b60208501519093506200012481620000d5565b604085015190925061ffff811681146200013d57600080fd5b809150509250925092565b60805161212b6200018e6000396000818161020001528181610b0501528181610b8201528181610ed9015281816111b4015281816118600152611bf4015261212b6000f3fe608060405234801561001057600080fd5b50600436106101165760003560e01c80638705fcd4116100a2578063c3da42b811610071578063c3da42b8146102b2578063d48bfca71461030a578063d59a83bb1461031d578063e941fa7814610330578063f2fde38b1461033857600080fd5b80638705fcd4146102685780638da5cb5b1461027b5780638e0055531461028c5780639ead72221461029f57600080fd5b80634e61fe21116100e95780634e61fe21146101e85780635a27d492146101fb578063715018a61461023a57806379583e22146102425780637a7bc2291461025557600080fd5b806319f373611461011b57806324ce9d27146101435780634303d9d9146101585780634d8ccd91146101d5575b600080fd5b61012e610129366004611d9f565b61034b565b60405190151581526020015b60405180910390f35b610156610151366004611dc3565b61040a565b005b61016b610166366004611df8565b6107c5565b604080519915158a5297151560208a015260ff909616968801969096526001600160401b0390931660608701526001600160801b0390911660808601526001600160a01b0390811660a08601521660c084015260e08301919091526101008201526101200161013a565b6101566101e3366004611e3a565b610853565b6101566101f6366004611e3a565b610cea565b6102227f000000000000000000000000000000000000000000000000000000000000000081565b6040516001600160a01b03909116815260200161013a565b6101566110f1565b610156610250366004611dc3565b611105565b610156610263366004611e7d565b6114e2565b610156610276366004611d9f565b611a54565b6000546001600160a01b0316610222565b61015661029a366004611ec4565b611a7e565b6102226102ad366004611ee8565b611a9e565b6005546006546007546102dc9261ffff8116926201000090910460ff16916001600160a01b031684565b6040805161ffff90951685529215156020850152918301526001600160a01b0316606082015260800161013a565b610156610318366004611d9f565b611ac8565b61016b61032b366004611df8565b611b6e565b610156611b8a565b610156610346366004611d9f565b611c67565b60008060048054806020026020016040519081016040528092919081815260200182805480156103a457602002820191906000526020600020905b81546001600160a01b03168152600190910190602001808311610386575b505083519394506000925050505b818110156103ff57846001600160a01b03168382815181106103d6576103d6611f01565b60200260200101516001600160a01b0316036103f757506001949350505050565b6001016103b2565b506000949350505050565b6002600154036104355760405162461bcd60e51b815260040161042c90611f17565b60405180910390fd5b60026001556104438361034b565b6104865760405162461bcd60e51b8152602060048201526014602482015273151bdad95b88139bdd08149959da5cdd195c995960621b604482015260640161042c565b6001600160a01b038316600081815260026020526040908190205490516323b872dd60e01b81529091906323b872dd906104c890339030908890600401611f4e565b6020604051808303816000875af11580156104e7573d6000803e3d6000fd5b505050506040513d601f19601f8201168201806040525081019061050b9190611f72565b5060055460009061ffff166105226103e885611fa5565b61052c9190611fc7565b905060026000866001600160a01b03166001600160a01b031681526020019081526020016000206040518061012001604052806001151581526020016000151581526020018460ff168152602001426001600160401b03168152602001836001600160801b03168152602001336001600160a01b0316815260200160006001600160a01b0316815260200185815260200186815250908060018154018082558091505060019003906000526020600020906005020160009091909190915060008201518160000160006101000a81548160ff02191690831515021790555060208201518160000160016101000a81548160ff02191690831515021790555060408201518160000160026101000a81548160ff021916908360ff16021790555060608201518160000160036101000a8154816001600160401b0302191690836001600160401b03160217905550608082015181600001600b6101000a8154816001600160801b0302191690836001600160801b0316021790555060a08201518160010160006101000a8154816001600160a01b0302191690836001600160a01b0316021790555060c08201518160020160006101000a8154816001600160a01b0302191690836001600160a01b0316021790555060e08201518160030155610100820151816004015550507f1478ec5af8578d7f5497b76344509a211ce48425269d1e4b39e93f19621f13dd6040518061012001604052806001151581526020016000151581526020018460ff168152602001426001600160401b03168152602001836001600160801b03168152602001336001600160a01b0316815260200160006001600160a01b03168152602001858152602001868152506040516107b29190611fe6565b60405180910390a1505060018055505050565b600260205281600052604060002081815481106107e157600080fd5b60009182526020909120600590910201805460018201546002830154600384015460049094015460ff80851697506101008504811696506201000085041694630100000085046001600160401b031694600160581b90046001600160801b0316936001600160a01b0390811693169189565b6002600154036108755760405162461bcd60e51b815260040161042c90611f17565b60026001556108838261034b565b61089f5760405162461bcd60e51b815260040161042c9061209e565b6001600160a01b0382166000908152600260205260408120805460ff84169081106108cc576108cc611f01565b600091825260209182902060408051610120810182526005909302909101805460ff80821615158086526101008084048316151597870197909752620100008304909116938501939093526001600160401b03630100000082041660608501526001600160801b03600160581b90910416608084015260018101546001600160a01b0390811660a085015260028201541660c0840152600381015460e0840152600401549282019290925291506109b35760405162461bcd60e51b815260206004820152600b60248201526a13dc99195c90db1bdcd95960aa1b604482015260640161042c565b3360c082015260016020808301919091526001600160a01b0384166000908152600290915260409020805482919060ff85169081106109f4576109f4611f01565b60009182526020918290208351600592909202018054928401516040808601516060870151608088015161ffff1990971695151561ff001916959095176101009315158402176affffffffffffffffff000019166201000060ff909216919091026affffffffffffffff00000019161763010000006001600160401b039095169490940293909317600160581b600160d81b031916600160581b6001600160801b039095169490940293909317815560a08401516001820180546001600160a01b03199081166001600160a01b039384161790915560c086015160028401805490921690831617905560e080860151600384015593909401516004918201559184015190516323b872dd60e01b81527f0000000000000000000000000000000000000000000000000000000000000000909316926323b872dd92610b3c923392309201611f4e565b6020604051808303816000875af1158015610b5b573d6000803e3d6000fd5b505050506040513d601f19601f82011682018060405250810190610b7f9190611f72565b507f00000000000000000000000000000000000000000000000000000000000000006001600160a01b031663a9059cbb8260a0015183608001516001600160801b03168460e00151610bd191906120c6565b6040516001600160e01b031960e085901b1681526001600160a01b03909216600483015260248201526044016020604051808303816000875af1158015610c1c573d6000803e3d6000fd5b505050506040513d601f19601f82011682018060405250810190610c409190611f72565b5080608001516001600160801b031660056001016000828254610c6391906120dd565b909155505061010081015160405163a9059cbb60e01b815233600482015260248101919091526001600160a01b0384169063a9059cbb906044016020604051808303816000875af1158015610cbc573d6000803e3d6000fd5b505050506040513d601f19601f82011682018060405250810190610ce09190611f72565b5050600180555050565b600260015403610d0c5760405162461bcd60e51b815260040161042c90611f17565b6002600155610d1a8261034b565b610d365760405162461bcd60e51b815260040161042c9061209e565b6001600160a01b0382166000908152600360205260408120805460ff8416908110610d6357610d63611f01565b600091825260209182902060408051610120810182526005909302909101805460ff80821615158086526101008084048316151597870197909752620100008304909116938501939093526001600160401b03630100000082041660608501526001600160801b03600160581b90910416608084015260018101546001600160a01b0390811660a085015260028201541660c0840152600381015460e084015260040154928201929092529150610e4a5760405162461bcd60e51b815260206004820152600b60248201526a13dc99195c90db1bdcd95960aa1b604482015260640161042c565b3360a082018190526001602083015260c08201516101008301516040516323b872dd60e01b81526001600160a01b038716936323b872dd93610e93939192909190600401611f4e565b6020604051808303816000875af1158015610eb2573d6000803e3d6000fd5b505050506040513d601f19601f82011682018060405250810190610ed69190611f72565b507f00000000000000000000000000000000000000000000000000000000000000006001600160a01b031663a9059cbb3383608001516001600160801b03168460e00151610f2491906120c6565b6040516001600160e01b031960e085901b1681526001600160a01b03909216600483015260248201526044016020604051808303816000875af1158015610f6f573d6000803e3d6000fd5b505050506040513d601f19601f82011682018060405250810190610f939190611f72565b5080608001516001600160801b031660056001016000828254610fb691906120dd565b90915550506001600160a01b0383166000908152600360205260409020805482919060ff8516908110610feb57610feb611f01565b600091825260209182902083516005929092020180549284015160408501516060860151608087015161ffff1990961694151561ff001916949094176101009215158302176affffffffffffffffff000019166201000060ff909216919091026affffffffffffffff00000019161763010000006001600160401b039094169390930292909217600160581b600160d81b031916600160581b6001600160801b039094169390930292909217825560a0830151600180840180546001600160a01b03199081166001600160a01b039485161790915560c086015160028601805490921693169290921790915560e084015160038401559201516004909101558055505050565b6110f9611ce0565b6111036000611d3a565b565b6002600154036111275760405162461bcd60e51b815260040161042c90611f17565b60026001556111358361034b565b6111785760405162461bcd60e51b8152602060048201526014602482015273151bdad95b88139bdd08149959da5cdd195c995960621b604482015260640161042c565b6005546000906103e8906111909061ffff1684611fc7565b61119a9190611fa5565b6040516323b872dd60e01b81529091506001600160a01b037f000000000000000000000000000000000000000000000000000000000000000016906323b872dd906111ed90339030908790600401611f4e565b6020604051808303816000875af115801561120c573d6000803e3d6000fd5b505050506040513d601f19601f820116820180604052508101906112309190611f72565b50600060036000866001600160a01b03166001600160a01b0316815260200190815260200160002080549050905060036000866001600160a01b03166001600160a01b031681526020019081526020016000206040518061012001604052806001151581526020016000151581526020018360ff168152602001426001600160401b03168152602001846001600160801b0316815260200160006001600160a01b03168152602001336001600160a01b0316815260200185815260200186815250908060018154018082558091505060019003906000526020600020906005020160009091909190915060008201518160000160006101000a81548160ff02191690831515021790555060208201518160000160016101000a81548160ff02191690831515021790555060408201518160000160026101000a81548160ff021916908360ff16021790555060608201518160000160036101000a8154816001600160401b0302191690836001600160401b03160217905550608082015181600001600b6101000a8154816001600160801b0302191690836001600160801b0316021790555060a08201518160010160006101000a8154816001600160a01b0302191690836001600160a01b0316021790555060c08201518160020160006101000a8154816001600160a01b0302191690836001600160a01b0316021790555060e08201518160030155610100820151816004015550507f439b04eaa260ba7d269fbe87f679264ddaac93d271afeaf7fb08d9043bd6e28a6040518061012001604052806001151581526020016000151581526020018360ff168152602001426001600160401b03168152602001846001600160801b0316815260200160006001600160a01b03168152602001336001600160a01b03168152602001858152602001868152506040516107b29190611fe6565b6002600154036115045760405162461bcd60e51b815260040161042c90611f17565b60026001556115128361034b565b61152e5760405162461bcd60e51b815260040161042c9061209e565b600082611575576001600160a01b0384166000908152600360205260409020805460ff841690811061156257611562611f01565b90600052602060002090600502016115b1565b6001600160a01b0384166000908152600260205260409020805460ff84169081106115a2576115a2611f01565b90600052602060002090600502015b6040805161012081018252825460ff8082161515835261010080830482161515602085015262010000830490911693830193909352630100000081046001600160401b03166060830152600160581b90046001600160801b0316608082015260018301546001600160a01b0390811660a08301819052600285015490911660c0830152600384015460e0830152600490930154918101919091529150331480611666575060c08101516001600160a01b031633145b6116a85760405162461bcd60e51b815260206004820152601360248201527210d85b98d95b081d5b985d5d1a1bdc9a5e9959606a1b604482015260640161042c565b60008152821561185e5761010081015160405163a9059cbb60e01b815233600482015260248101919091526001600160a01b0385169063a9059cbb906044016020604051808303816000875af1158015611706573d6000803e3d6000fd5b505050506040513d601f19601f8201168201806040525081019061172a9190611f72565b506001600160a01b0384166000908152600260205260409020805482919060ff851690811061175b5761175b611f01565b600091825260209182902083516005929092020180549284015160408501516060860151608087015161ffff1990961694151561ff001916949094176101009215158302176affffffffffffffffff000019166201000060ff909216919091026affffffffffffffff00000019161763010000006001600160401b039094169390930292909217600160581b600160d81b031916600160581b6001600160801b039094169390930292909217825560a08301516001830180546001600160a01b03199081166001600160a01b039384161790915560c0850151600285018054909216921691909117905560e0830151600383015590910151600490910155610ce0565b7f00000000000000000000000000000000000000000000000000000000000000006001600160a01b031663a9059cbb3383608001516001600160801b03168461010001516118ac91906120dd565b6040516001600160e01b031960e085901b1681526001600160a01b03909216600483015260248201526044016020604051808303816000875af11580156118f7573d6000803e3d6000fd5b505050506040513d601f19601f8201168201806040525081019061191b9190611f72565b506001600160a01b0384166000908152600360205260409020805482919060ff851690811061194c5761194c611f01565b600091825260209182902083516005929092020180549284015160408501516060860151608087015161ffff1990961694151561ff001916949094176101009215158302176affffffffffffffffff000019166201000060ff909216919091026affffffffffffffff00000019161763010000006001600160401b039094169390930292909217600160581b600160d81b031916600160581b6001600160801b039094169390930292909217825560a08301516001830180546001600160a01b03199081166001600160a01b039384161790915560c0850151600285018054909216921691909117905560e08301516003830155909101516004909101555050600180555050565b611a5c611ce0565b600780546001600160a01b0319166001600160a01b0392909216919091179055565b611a86611ce0565b6005805461ffff191661ffff92909216919091179055565b60048181548110611aae57600080fd5b6000918252602090912001546001600160a01b0316905081565b611ad0611ce0565b611ad98161034b565b15611b1c5760405162461bcd60e51b8152602060048201526013602482015272151bdad95b88185b1c9958591e481859191959606a1b604482015260640161042c565b600480546001810182556000919091527f8a35acfbc15ff81a39ae7d344fd709f28e8600b4aa8c65c6b64bfe7fe36bd19b0180546001600160a01b0319166001600160a01b0392909216919091179055565b600360205281600052604060002081815481106107e157600080fd5b611b92611ce0565b6040805160808101825260055461ffff8116825262010000900460ff16151560208201526006548183018190526007546001600160a01b0390811660608401819052935163a9059cbb60e01b81526004810194909452602484019190915290917f00000000000000000000000000000000000000000000000000000000000000009091169063a9059cbb906044016020604051808303816000875af1158015611c3f573d6000803e3d6000fd5b505050506040513d601f19601f82011682018060405250810190611c639190611f72565b5050565b611c6f611ce0565b6001600160a01b038116611cd45760405162461bcd60e51b815260206004820152602660248201527f4f776e61626c653a206e6577206f776e657220697320746865207a65726f206160448201526564647265737360d01b606482015260840161042c565b611cdd81611d3a565b50565b6000546001600160a01b031633146111035760405162461bcd60e51b815260206004820181905260248201527f4f776e61626c653a2063616c6c6572206973206e6f7420746865206f776e6572604482015260640161042c565b600080546001600160a01b038381166001600160a01b0319831681178455604051919092169283917f8be0079c531659141344cd1fd0a4f28419497f9722a3daafe3b4186f6b6457e09190a35050565b6001600160a01b0381168114611cdd57600080fd5b600060208284031215611db157600080fd5b8135611dbc81611d8a565b9392505050565b600080600060608486031215611dd857600080fd5b8335611de381611d8a565b95602085013595506040909401359392505050565b60008060408385031215611e0b57600080fd5b8235611e1681611d8a565b946020939093013593505050565b803560ff81168114611e3557600080fd5b919050565b60008060408385031215611e4d57600080fd5b8235611e5881611d8a565b9150611e6660208401611e24565b90509250929050565b8015158114611cdd57600080fd5b600080600060608486031215611e9257600080fd5b8335611e9d81611d8a565b92506020840135611ead81611e6f565b9150611ebb60408501611e24565b90509250925092565b600060208284031215611ed657600080fd5b813561ffff81168114611dbc57600080fd5b600060208284031215611efa57600080fd5b5035919050565b634e487b7160e01b600052603260045260246000fd5b6020808252601f908201527f5265656e7472616e637947756172643a207265656e7472616e742063616c6c00604082015260600190565b6001600160a01b039384168152919092166020820152604081019190915260600190565b600060208284031215611f8457600080fd5b8151611dbc81611e6f565b634e487b7160e01b600052601160045260246000fd5b600082611fc257634e487b7160e01b600052601260045260246000fd5b500490565b6000816000190483118215151615611fe157611fe1611f8f565b500290565b6000610120820190508251151582526020830151151560208301526040830151612015604084018260ff169052565b50606083015161203060608401826001600160401b03169052565b50608083015161204b60808401826001600160801b03169052565b5060a083015161206660a08401826001600160a01b03169052565b5060c083015161208160c08401826001600160a01b03169052565b5060e083015160e083015261010080840151818401525092915050565b6020808252600e908201526d151bdad95b88155b9b1a5cdd195960921b604082015260600190565b6000828210156120d8576120d8611f8f565b500390565b600082198211156120f0576120f0611f8f565b50019056fea26469706673582212205afac805d9706483a864c70b5fbbf8d65f0a9617a453e0d5ae139803ec89d19a64736f6c634300080e0033",
    "linkReferences": {}
  },
  "methodIdentifiers": {
    "addToken(address)": "d48bfca7",
    "buy(address,uint8)": "4d8ccd91",
    "buyOrder(address,uint256,uint256)": "79583e22",
    "buyOrderByToken(address,uint256)": "d59a83bb",
    "c()": "c3da42b8",
    "cancelOrder(address,bool,uint8)": "7a7bc229",
    "currencyUsed()": "5a27d492",
    "isToken(address)": "19f37361",
    "owner()": "8da5cb5b",
    "renounceOwnership()": "715018a6",
    "sell(address,uint8)": "4e61fe21",
    "sellOrder(address,uint256,uint256)": "24ce9d27",
    "sellOrderByToken(address,uint256)": "4303d9d9",
    "setFee(uint16)": "8e005553",
    "setFeeAddress(address)": "8705fcd4",
    "tokenList(uint256)": "9ead7222",
    "transferOwnership(address)": "f2fde38b",
    "withdrawFee()": "e941fa78"
  },
  "id": 20
}