{
  "abi": [
    {
      "inputs": [
        {
          "internalType": "contract IERC20",
          "name": "_currencyUsed",
          "type": "address"
        },
        {
          "internalType": "address",
          "name": "_feeAddress",
          "type": "address"
        },
        {
          "internalType": "uint16",
          "name": "feex10",
          "type": "uint16"
        }
      ],
      "stateMutability": "nonpayable",
      "type": "constructor"
    },
    {
      "anonymous": false,
      "inputs": [
        {
          "components": [
            {
              "internalType": "bool",
              "name": "open",
              "type": "bool"
            },
            {
              "internalType": "bool",
              "name": "propositionAccepted",
              "type": "bool"
            },
            {
              "internalType": "uint64",
              "name": "index",
              "type": "uint64"
            },
            {
              "internalType": "uint64",
              "name": "date",
              "type": "uint64"
            },
            {
              "internalType": "uint128",
              "name": "fee",
              "type": "uint128"
            },
            {
              "internalType": "address",
              "name": "seller",
              "type": "address"
            },
            {
              "internalType": "address",
              "name": "buyer",
              "type": "address"
            },
            {
              "internalType": "uint256",
              "name": "price",
              "type": "uint256"
            },
            {
              "internalType": "uint256",
              "name": "amount",
              "type": "uint256"
            }
          ],
          "indexed": false,
          "internalType": "struct orderInfo",
          "name": "",
          "type": "tuple"
        }
      ],
      "name": "BuyOrderInitiated",
      "type": "event"
    },
    {
      "anonymous": false,
      "inputs": [
        {
          "indexed": true,
          "internalType": "address",
          "name": "previousOwner",
          "type": "address"
        },
        {
          "indexed": true,
          "internalType": "address",
          "name": "newOwner",
          "type": "address"
        }
      ],
      "name": "OwnershipTransferred",
      "type": "event"
    },
    {
      "anonymous": false,
      "inputs": [
        {
          "components": [
            {
              "internalType": "bool",
              "name": "open",
              "type": "bool"
            },
            {
              "internalType": "bool",
              "name": "propositionAccepted",
              "type": "bool"
            },
            {
              "internalType": "uint64",
              "name": "index",
              "type": "uint64"
            },
            {
              "internalType": "uint64",
              "name": "date",
              "type": "uint64"
            },
            {
              "internalType": "uint128",
              "name": "fee",
              "type": "uint128"
            },
            {
              "internalType": "address",
              "name": "seller",
              "type": "address"
            },
            {
              "internalType": "address",
              "name": "buyer",
              "type": "address"
            },
            {
              "internalType": "uint256",
              "name": "price",
              "type": "uint256"
            },
            {
              "internalType": "uint256",
              "name": "amount",
              "type": "uint256"
            }
          ],
          "indexed": false,
          "internalType": "struct orderInfo",
          "name": "",
          "type": "tuple"
        }
      ],
      "name": "SellOrderInitiated",
      "type": "event"
    },
    {
      "inputs": [
        {
          "internalType": "contract IERC20",
          "name": "token",
          "type": "address"
        }
      ],
      "name": "addToken",
      "outputs": [],
      "stateMutability": "nonpayable",
      "type": "function"
    },
    {
      "inputs": [
        {
          "internalType": "contract IERC20",
          "name": "token",
          "type": "address"
        },
        {
          "internalType": "uint64",
          "name": "index",
          "type": "uint64"
        }
      ],
      "name": "buy",
      "outputs": [],
      "stateMutability": "nonpayable",
      "type": "function"
    },
    {
      "inputs": [
        {
          "internalType": "contract IERC20",
          "name": "token",
          "type": "address"
        },
        {
          "internalType": "uint256",
          "name": "amount",
          "type": "uint256"
        },
        {
          "internalType": "uint256",
          "name": "sellPrice",
          "type": "uint256"
        }
      ],
      "name": "buyOrder",
      "outputs": [],
      "stateMutability": "nonpayable",
      "type": "function"
    },
    {
      "inputs": [
        {
          "internalType": "contract IERC20",
          "name": "",
          "type": "address"
        },
        {
          "internalType": "uint256",
          "name": "",
          "type": "uint256"
        }
      ],
      "name": "buyOrderByToken",
      "outputs": [
        {
          "internalType": "bool",
          "name": "open",
          "type": "bool"
        },
        {
          "internalType": "bool",
          "name": "propositionAccepted",
          "type": "bool"
        },
        {
          "internalType": "uint64",
          "name": "index",
          "type": "uint64"
        },
        {
          "internalType": "uint64",
          "name": "date",
          "type": "uint64"
        },
        {
          "internalType": "uint128",
          "name": "fee",
          "type": "uint128"
        },
        {
          "internalType": "address",
          "name": "seller",
          "type": "address"
        },
        {
          "internalType": "address",
          "name": "buyer",
          "type": "address"
        },
        {
          "internalType": "uint256",
          "name": "price",
          "type": "uint256"
        },
        {
          "internalType": "uint256",
          "name": "amount",
          "type": "uint256"
        }
      ],
      "stateMutability": "view",
      "type": "function"
    },
    {
      "inputs": [],
      "name": "c",
      "outputs": [
        {
          "internalType": "uint16",
          "name": "feeX10",
          "type": "uint16"
        },
        {
          "internalType": "bool",
          "name": "paused",
          "type": "bool"
        },
        {
          "internalType": "uint256",
          "name": "feePot",
          "type": "uint256"
        },
        {
          "internalType": "address",
          "name": "feeAddress",
          "type": "address"
        }
      ],
      "stateMutability": "view",
      "type": "function"
    },
    {
      "inputs": [
        {
          "internalType": "contract IERC20",
          "name": "token",
          "type": "address"
        },
        {
          "internalType": "bool",
          "name": "TrueForSellFalseForBuy",
          "type": "bool"
        },
        {
          "internalType": "uint64",
          "name": "index",
          "type": "uint64"
        }
      ],
      "name": "cancelOrder",
      "outputs": [],
      "stateMutability": "nonpayable",
      "type": "function"
    },
    {
      "inputs": [],
      "name": "currencyUsed",
      "outputs": [
        {
          "internalType": "contract IERC20",
          "name": "",
          "type": "address"
        }
      ],
      "stateMutability": "view",
      "type": "function"
    },
    {
      "inputs": [
        {
          "internalType": "contract IERC20",
          "name": "token",
          "type": "address"
        }
      ],
      "name": "isToken",
      "outputs": [
        {
          "internalType": "bool",
          "name": "",
          "type": "bool"
        }
      ],
      "stateMutability": "view",
      "type": "function"
    },
    {
      "inputs": [],
      "name": "owner",
      "outputs": [
        {
          "internalType": "address",
          "name": "",
          "type": "address"
        }
      ],
      "stateMutability": "view",
      "type": "function"
    },
    {
      "inputs": [],
      "name": "renounceOwnership",
      "outputs": [],
      "stateMutability": "nonpayable",
      "type": "function"
    },
    {
      "inputs": [
        {
          "internalType": "contract IERC20",
          "name": "token",
          "type": "address"
        },
        {
          "internalType": "uint64",
          "name": "index",
          "type": "uint64"
        }
      ],
      "name": "sell",
      "outputs": [],
      "stateMutability": "nonpayable",
      "type": "function"
    },
    {
      "inputs": [
        {
          "internalType": "contract IERC20",
          "name": "token",
          "type": "address"
        },
        {
          "internalType": "uint256",
          "name": "amount",
          "type": "uint256"
        },
        {
          "internalType": "uint256",
          "name": "sellPrice",
          "type": "uint256"
        }
      ],
      "name": "sellOrder",
      "outputs": [],
      "stateMutability": "nonpayable",
      "type": "function"
    },
    {
      "inputs": [
        {
          "internalType": "contract IERC20",
          "name": "",
          "type": "address"
        },
        {
          "internalType": "uint256",
          "name": "",
          "type": "uint256"
        }
      ],
      "name": "sellOrderByToken",
      "outputs": [
        {
          "internalType": "bool",
          "name": "open",
          "type": "bool"
        },
        {
          "internalType": "bool",
          "name": "propositionAccepted",
          "type": "bool"
        },
        {
          "internalType": "uint64",
          "name": "index",
          "type": "uint64"
        },
        {
          "internalType": "uint64",
          "name": "date",
          "type": "uint64"
        },
        {
          "internalType": "uint128",
          "name": "fee",
          "type": "uint128"
        },
        {
          "internalType": "address",
          "name": "seller",
          "type": "address"
        },
        {
          "internalType": "address",
          "name": "buyer",
          "type": "address"
        },
        {
          "internalType": "uint256",
          "name": "price",
          "type": "uint256"
        },
        {
          "internalType": "uint256",
          "name": "amount",
          "type": "uint256"
        }
      ],
      "stateMutability": "view",
      "type": "function"
    },
    {
      "inputs": [
        {
          "internalType": "uint16",
          "name": "feePercentx10",
          "type": "uint16"
        }
      ],
      "name": "setFee",
      "outputs": [],
      "stateMutability": "nonpayable",
      "type": "function"
    },
    {
      "inputs": [
        {
          "internalType": "address",
          "name": "newFeeAddress",
          "type": "address"
        }
      ],
      "name": "setFeeAddress",
      "outputs": [],
      "stateMutability": "nonpayable",
      "type": "function"
    },
    {
      "inputs": [
        {
          "internalType": "uint256",
          "name": "",
          "type": "uint256"
        }
      ],
      "name": "tokenList",
      "outputs": [
        {
          "internalType": "contract IERC20",
          "name": "",
          "type": "address"
        }
      ],
      "stateMutability": "view",
      "type": "function"
    },
    {
      "inputs": [
        {
          "internalType": "address",
          "name": "newOwner",
          "type": "address"
        }
      ],
      "name": "transferOwnership",
      "outputs": [],
      "stateMutability": "nonpayable",
      "type": "function"
    },
    {
      "inputs": [],
      "name": "withdrawFee",
      "outputs": [],
      "stateMutability": "nonpayable",
      "type": "function"
    }
  ],
  "bytecode": {
    "object": "0x60a06040523480156200001157600080fd5b50604051620022f7380380620022f78339810160408190526200003491620000ee565b6200003f3362000085565b600180556001600160a01b03928316608052600780546001600160a01b03191692909316919091179091556005805461ffff191661ffff90921691909117905562000148565b600080546001600160a01b038381166001600160a01b0319831681178455604051919092169283917f8be0079c531659141344cd1fd0a4f28419497f9722a3daafe3b4186f6b6457e09190a35050565b6001600160a01b0381168114620000eb57600080fd5b50565b6000806000606084860312156200010457600080fd5b83516200011181620000d5565b60208501519093506200012481620000d5565b604085015190925061ffff811681146200013d57600080fd5b809150509250925092565b6080516121696200018e600039600081816101fc015281816106d701528181610f43015281816112ad015281816118f5015281816119720152611c2601526121696000f3fe608060405234801561001057600080fd5b50600436106101165760003560e01c80638da5cb5b116100a2578063c3da42b811610071578063c3da42b8146102ae578063d48bfca714610306578063d59a83bb14610319578063e941fa781461032c578063f2fde38b1461033457600080fd5b80638da5cb5b146102645780638e005553146102755780639a83aa8b146102885780639ead72221461029b57600080fd5b80634303d9d9116100e95780634303d9d91461017e5780635a27d492146101f7578063715018a61461023657806379583e221461023e5780638705fcd41461025157600080fd5b806308b4e2a61461011b57806319f373611461013057806324ce9d271461015857806341a440a51461016b575b600080fd5b61012e610129366004611dfb565b610347565b005b61014361013e366004611e42565b6108c8565b60405190151581526020015b60405180910390f35b61012e610166366004611e66565b610987565b61012e610179366004611e9b565b610d51565b61019161018c366004611ed0565b611157565b604080519915158a5297151560208a01526001600160401b03968716978901979097529490931660608701526001600160801b0390911660808601526001600160a01b0390811660a08601521660c084015260e08301526101008201526101200161014f565b61021e7f000000000000000000000000000000000000000000000000000000000000000081565b6040516001600160a01b03909116815260200161014f565b61012e6111ea565b61012e61024c366004611e66565b6111fe565b61012e61025f366004611e42565b6115f3565b6000546001600160a01b031661021e565b61012e610283366004611efc565b61161d565b61012e610296366004611e9b565b61163d565b61021e6102a9366004611f20565b611ad0565b6005546006546007546102d89261ffff8116926201000090910460ff16916001600160a01b031684565b6040805161ffff90951685529215156020850152918301526001600160a01b0316606082015260800161014f565b61012e610314366004611e42565b611afa565b610191610327366004611ed0565b611ba0565b61012e611bbc565b61012e610342366004611e42565b611c99565b6002600154036103725760405162461bcd60e51b815260040161036990611f39565b60405180910390fd5b6002600155610380836108c8565b61039c5760405162461bcd60e51b815260040161036990611f70565b6000826103e9576001600160a01b038416600090815260036020526040902080546001600160401b0384169081106103d6576103d6611f98565b906000526020600020906006020161042b565b6001600160a01b038416600090815260026020526040902080546001600160401b03841690811061041c5761041c611f98565b90600052602060002090600602015b6040805161012081018252825460ff80821615158352610100808304909116151560208401526001600160401b03620100008304811694840194909452600160501b909104909216606082015260018301546001600160801b0316608082015260028301546001600160a01b0390811660a08301819052600385015490911660c0830152600484015460e08301526005909301549181019190915291503314806104e1575060c08101516001600160a01b031633145b6105235760405162461bcd60e51b815260206004820152601360248201527210d85b98d95b081d5b985d5d1a1bdc9a5e9959606a1b6044820152606401610369565b6000815282156106d55761010081015160405163a9059cbb60e01b815233600482015260248101919091526001600160a01b0385169063a9059cbb906044016020604051808303816000875af1158015610581573d6000803e3d6000fd5b505050506040513d601f19601f820116820180604052508101906105a59190611fae565b506001600160a01b038416600090815260026020526040902080548291906001600160401b0385169081106105dc576105dc611f98565b60009182526020918290208351600692909202018054928401516040850151606086015161ffff1990951693151561ff0019169390931761010091151582021762010000600160901b031916620100006001600160401b039485160267ffffffffffffffff60501b191617600160501b939094169290920292909217825560808301516001830180546001600160801b0319166001600160801b0390921691909117905560a08301516002830180546001600160a01b03199081166001600160a01b039384161790915560c0850151600385018054909216921691909117905560e08301516004830155909101516005909101556108be565b7f00000000000000000000000000000000000000000000000000000000000000006001600160a01b031663a9059cbb3383608001516001600160801b03168461010001516107239190611fe1565b6040516001600160e01b031960e085901b1681526001600160a01b03909216600483015260248201526044016020604051808303816000875af115801561076e573d6000803e3d6000fd5b505050506040513d601f19601f820116820180604052508101906107929190611fae565b506001600160a01b038416600090815260036020526040902080548291906001600160401b0385169081106107c9576107c9611f98565b60009182526020918290208351600692909202018054928401516040850151606086015161ffff1990951693151561ff0019169390931761010091151582021762010000600160901b031916620100006001600160401b039485160267ffffffffffffffff60501b191617600160501b939094169290920292909217825560808301516001830180546001600160801b0319166001600160801b0390921691909117905560a08301516002830180546001600160a01b03199081166001600160a01b039384161790915560c0850151600385018054909216921691909117905560e08301516004830155909101516005909101555b5050600180555050565b600080600480548060200260200160405190810160405280929190818152602001828054801561092157602002820191906000526020600020905b81546001600160a01b03168152600190910190602001808311610903575b505083519394506000925050505b8181101561097c57846001600160a01b031683828151811061095357610953611f98565b60200260200101516001600160a01b03160361097457506001949350505050565b60010161092f565b506000949350505050565b6002600154036109a95760405162461bcd60e51b815260040161036990611f39565b60026001556109b7836108c8565b6109fa5760405162461bcd60e51b8152602060048201526014602482015273151bdad95b88139bdd08149959da5cdd195c995960621b6044820152606401610369565b6001600160a01b038316600081815260026020526040908190205490516323b872dd60e01b81529091906323b872dd90610a3c90339030908890600401611ff9565b6020604051808303816000875af1158015610a5b573d6000803e3d6000fd5b505050506040513d601f19601f82011682018060405250810190610a7f9190611fae565b5060055460009061ffff16610a966103e88561201d565b610aa0919061203f565b905060026000866001600160a01b03166001600160a01b03168152602001908152602001600020604051806101200160405280600115158152602001600015158152602001846001600160401b03168152602001426001600160401b03168152602001836001600160801b03168152602001336001600160a01b0316815260200160006001600160a01b0316815260200185815260200186815250908060018154018082558091505060019003906000526020600020906006020160009091909190915060008201518160000160006101000a81548160ff02191690831515021790555060208201518160000160016101000a81548160ff02191690831515021790555060408201518160000160026101000a8154816001600160401b0302191690836001600160401b03160217905550606082015181600001600a6101000a8154816001600160401b0302191690836001600160401b0316021790555060808201518160010160006101000a8154816001600160801b0302191690836001600160801b0316021790555060a08201518160020160006101000a8154816001600160a01b0302191690836001600160a01b0316021790555060c08201518160030160006101000a8154816001600160a01b0302191690836001600160a01b0316021790555060e08201518160040155610100820151816005015550507fa3a8ce4c1c2868a306e8359daf9446eabb82173c266d38b4667093023395cedd604051806101200160405280600115158152602001600015158152602001846001600160401b03168152602001426001600160401b03168152602001836001600160801b03168152602001336001600160a01b0316815260200160006001600160a01b0316815260200185815260200186815250604051610d3e919061205e565b60405180910390a1505060018055505050565b600260015403610d735760405162461bcd60e51b815260040161036990611f39565b6002600155610d81826108c8565b610d9d5760405162461bcd60e51b815260040161036990611f70565b6001600160a01b038216600090815260036020526040812080546001600160401b038416908110610dd057610dd0611f98565b600091825260209182902060408051610120810182526006909302909101805460ff80821615158086526101008084049092161515968601969096526001600160401b03620100008304811694860194909452600160501b909104909216606084015260018101546001600160801b0316608084015260028101546001600160a01b0390811660a085015260038201541660c0840152600481015460e084015260050154908201529150610eb45760405162461bcd60e51b815260206004820152600b60248201526a13dc99195c90db1bdcd95960aa1b6044820152606401610369565b3360a082018190526001602083015260c08201516101008301516040516323b872dd60e01b81526001600160a01b038716936323b872dd93610efd939192909190600401611ff9565b6020604051808303816000875af1158015610f1c573d6000803e3d6000fd5b505050506040513d601f19601f82011682018060405250810190610f409190611fae565b507f00000000000000000000000000000000000000000000000000000000000000006001600160a01b031663a9059cbb3383608001516001600160801b03168460e00151610f8e919061211c565b6040516001600160e01b031960e085901b1681526001600160a01b03909216600483015260248201526044016020604051808303816000875af1158015610fd9573d6000803e3d6000fd5b505050506040513d601f19601f82011682018060405250810190610ffd9190611fae565b5080608001516001600160801b0316600560010160008282546110209190611fe1565b90915550506001600160a01b038316600090815260036020526040902080548291906001600160401b03851690811061105b5761105b611f98565b60009182526020918290208351600692909202018054928401516040850151606086015161ffff1990951693151561ff0019169390931761010091151582021762010000600160901b031916620100006001600160401b039485160267ffffffffffffffff60501b191617600160501b93909416929092029290921782556080830151600180840180546001600160801b0319166001600160801b039093169290921790915560a08401516002840180546001600160a01b03199081166001600160a01b039384161790915560c0860151600386018054909216921691909117905560e084015160048401559201516005909101558055505050565b6002602052816000526040600020818154811061117357600080fd5b600091825260209091206006909102018054600182015460028301546003840154600485015460059095015460ff808616985061010086041696506001600160401b03620100008604811696600160501b90960416946001600160801b03909416936001600160a01b039384169392909216919089565b6111f2611d12565b6111fc6000611d6c565b565b6002600154036112205760405162461bcd60e51b815260040161036990611f39565b600260015561122e836108c8565b6112715760405162461bcd60e51b8152602060048201526014602482015273151bdad95b88139bdd08149959da5cdd195c995960621b6044820152606401610369565b6005546000906103e8906112899061ffff168461203f565b611293919061201d565b6040516323b872dd60e01b81529091506001600160a01b037f000000000000000000000000000000000000000000000000000000000000000016906323b872dd906112e690339030908790600401611ff9565b6020604051808303816000875af1158015611305573d6000803e3d6000fd5b505050506040513d601f19601f820116820180604052508101906113299190611fae565b50600060036000866001600160a01b03166001600160a01b0316815260200190815260200160002080549050905060036000866001600160a01b03166001600160a01b03168152602001908152602001600020604051806101200160405280600115158152602001600015158152602001836001600160401b03168152602001426001600160401b03168152602001846001600160801b0316815260200160006001600160a01b03168152602001336001600160a01b0316815260200185815260200186815250908060018154018082558091505060019003906000526020600020906006020160009091909190915060008201518160000160006101000a81548160ff02191690831515021790555060208201518160000160016101000a81548160ff02191690831515021790555060408201518160000160026101000a8154816001600160401b0302191690836001600160401b03160217905550606082015181600001600a6101000a8154816001600160401b0302191690836001600160401b0316021790555060808201518160010160006101000a8154816001600160801b0302191690836001600160801b0316021790555060a08201518160020160006101000a8154816001600160a01b0302191690836001600160a01b0316021790555060c08201518160030160006101000a8154816001600160a01b0302191690836001600160a01b0316021790555060e08201518160040155610100820151816005015550507f4852bb00b19d5f6d3f3630fda5bb714be6293bc80e5df59505a97f917f8f15fe604051806101200160405280600115158152602001600015158152602001836001600160401b03168152602001426001600160401b03168152602001846001600160801b0316815260200160006001600160a01b03168152602001336001600160a01b0316815260200185815260200186815250604051610d3e919061205e565b6115fb611d12565b600780546001600160a01b0319166001600160a01b0392909216919091179055565b611625611d12565b6005805461ffff191661ffff92909216919091179055565b60026001540361165f5760405162461bcd60e51b815260040161036990611f39565b600260015561166d826108c8565b6116895760405162461bcd60e51b815260040161036990611f70565b6001600160a01b038216600090815260026020526040812080546001600160401b0384169081106116bc576116bc611f98565b600091825260209182902060408051610120810182526006909302909101805460ff80821615158086526101008084049092161515968601969096526001600160401b03620100008304811694860194909452600160501b909104909216606084015260018101546001600160801b0316608084015260028101546001600160a01b0390811660a085015260038201541660c0840152600481015460e0840152600501549082015291506117a05760405162461bcd60e51b815260206004820152600b60248201526a13dc99195c90db1bdcd95960aa1b6044820152606401610369565b3360c082015260016020808301919091526001600160a01b038416600090815260029091526040902080548291906001600160401b0385169081106117e7576117e7611f98565b6000918252602091829020835160069290920201805492840151604080860151606087015161ffff1990961694151561ff0019169490941761010092151583021762010000600160901b031916620100006001600160401b039586160267ffffffffffffffff60501b191617600160501b949095169390930293909317815560808401516001820180546001600160801b0319166001600160801b0390921691909117905560a08401516002820180546001600160a01b03199081166001600160a01b039384161790915560c086015160038401805490921690831617905560e08086015160048085019190915594909501516005909201919091559284015190516323b872dd60e01b81527f0000000000000000000000000000000000000000000000000000000000000000909316926323b872dd9261192c923392309201611ff9565b6020604051808303816000875af115801561194b573d6000803e3d6000fd5b505050506040513d601f19601f8201168201806040525081019061196f9190611fae565b507f00000000000000000000000000000000000000000000000000000000000000006001600160a01b031663a9059cbb8260a0015183608001516001600160801b03168460e001516119c1919061211c565b6040516001600160e01b031960e085901b1681526001600160a01b03909216600483015260248201526044016020604051808303816000875af1158015611a0c573d6000803e3d6000fd5b505050506040513d601f19601f82011682018060405250810190611a309190611fae565b5080608001516001600160801b031660056001016000828254611a539190611fe1565b909155505061010081015160405163a9059cbb60e01b815233600482015260248101919091526001600160a01b0384169063a9059cbb906044016020604051808303816000875af1158015611aac573d6000803e3d6000fd5b505050506040513d601f19601f820116820180604052508101906108be9190611fae565b60048181548110611ae057600080fd5b6000918252602090912001546001600160a01b0316905081565b611b02611d12565b611b0b816108c8565b15611b4e5760405162461bcd60e51b8152602060048201526013602482015272151bdad95b88185b1c9958591e481859191959606a1b6044820152606401610369565b600480546001810182556000919091527f8a35acfbc15ff81a39ae7d344fd709f28e8600b4aa8c65c6b64bfe7fe36bd19b0180546001600160a01b0319166001600160a01b0392909216919091179055565b6003602052816000526040600020818154811061117357600080fd5b611bc4611d12565b6040805160808101825260055461ffff8116825262010000900460ff16151560208201526006548183018190526007546001600160a01b0390811660608401819052935163a9059cbb60e01b81526004810194909452602484019190915290917f00000000000000000000000000000000000000000000000000000000000000009091169063a9059cbb906044016020604051808303816000875af1158015611c71573d6000803e3d6000fd5b505050506040513d601f19601f82011682018060405250810190611c959190611fae565b5050565b611ca1611d12565b6001600160a01b038116611d065760405162461bcd60e51b815260206004820152602660248201527f4f776e61626c653a206e6577206f776e657220697320746865207a65726f206160448201526564647265737360d01b6064820152608401610369565b611d0f81611d6c565b50565b6000546001600160a01b031633146111fc5760405162461bcd60e51b815260206004820181905260248201527f4f776e61626c653a2063616c6c6572206973206e6f7420746865206f776e65726044820152606401610369565b600080546001600160a01b038381166001600160a01b0319831681178455604051919092169283917f8be0079c531659141344cd1fd0a4f28419497f9722a3daafe3b4186f6b6457e09190a35050565b6001600160a01b0381168114611d0f57600080fd5b8015158114611d0f57600080fd5b80356001600160401b0381168114611df657600080fd5b919050565b600080600060608486031215611e1057600080fd5b8335611e1b81611dbc565b92506020840135611e2b81611dd1565b9150611e3960408501611ddf565b90509250925092565b600060208284031215611e5457600080fd5b8135611e5f81611dbc565b9392505050565b600080600060608486031215611e7b57600080fd5b8335611e8681611dbc565b95602085013595506040909401359392505050565b60008060408385031215611eae57600080fd5b8235611eb981611dbc565b9150611ec760208401611ddf565b90509250929050565b60008060408385031215611ee357600080fd5b8235611eee81611dbc565b946020939093013593505050565b600060208284031215611f0e57600080fd5b813561ffff81168114611e5f57600080fd5b600060208284031215611f3257600080fd5b5035919050565b6020808252601f908201527f5265656e7472616e637947756172643a207265656e7472616e742063616c6c00604082015260600190565b6020808252600e908201526d151bdad95b88155b9b1a5cdd195960921b604082015260600190565b634e487b7160e01b600052603260045260246000fd5b600060208284031215611fc057600080fd5b8151611e5f81611dd1565b634e487b7160e01b600052601160045260246000fd5b60008219821115611ff457611ff4611fcb565b500190565b6001600160a01b039384168152919092166020820152604081019190915260600190565b60008261203a57634e487b7160e01b600052601260045260246000fd5b500490565b600081600019048311821515161561205957612059611fcb565b500290565b600061012082019050825115158252602083015115156020830152604083015161209360408401826001600160401b03169052565b5060608301516120ae60608401826001600160401b03169052565b5060808301516120c960808401826001600160801b03169052565b5060a08301516120e460a08401826001600160a01b03169052565b5060c08301516120ff60c08401826001600160a01b03169052565b5060e083015160e083015261010080840151818401525092915050565b60008282101561212e5761212e611fcb565b50039056fea264697066735822122065e609be8ece05fec7f1ce487d0da1bfcc32bc409c7366aabd89383ff2a3cdbc64736f6c634300080e0033",
    "linkReferences": {}
  },
  "methodIdentifiers": {
    "addToken(address)": "d48bfca7",
    "buy(address,uint64)": "9a83aa8b",
    "buyOrder(address,uint256,uint256)": "79583e22",
    "buyOrderByToken(address,uint256)": "d59a83bb",
    "c()": "c3da42b8",
    "cancelOrder(address,bool,uint64)": "08b4e2a6",
    "currencyUsed()": "5a27d492",
    "isToken(address)": "19f37361",
    "owner()": "8da5cb5b",
    "renounceOwnership()": "715018a6",
    "sell(address,uint64)": "41a440a5",
    "sellOrder(address,uint256,uint256)": "24ce9d27",
    "sellOrderByToken(address,uint256)": "4303d9d9",
    "setFee(uint16)": "8e005553",
    "setFeeAddress(address)": "8705fcd4",
    "tokenList(uint256)": "9ead7222",
    "transferOwnership(address)": "f2fde38b",
    "withdrawFee()": "e941fa78"
  },
  "id": 20
}