{
  "abi": [
    {
      "inputs": [
        {
          "internalType": "contract IERC20",
          "name": "_currencyUsed",
          "type": "address"
        },
        {
          "internalType": "address",
          "name": "_feeAddress",
          "type": "address"
        },
        {
          "internalType": "uint16",
          "name": "feex10",
          "type": "uint16"
        }
      ],
      "stateMutability": "nonpayable",
      "type": "constructor"
    },
    {
      "anonymous": false,
      "inputs": [
        {
          "components": [
            {
              "internalType": "bool",
              "name": "open",
              "type": "bool"
            },
            {
              "internalType": "bool",
              "name": "propositionAccepted",
              "type": "bool"
            },
            {
              "internalType": "uint64",
              "name": "index",
              "type": "uint64"
            },
            {
              "internalType": "uint64",
              "name": "date",
              "type": "uint64"
            },
            {
              "internalType": "uint128",
              "name": "fee",
              "type": "uint128"
            },
            {
              "internalType": "address",
              "name": "seller",
              "type": "address"
            },
            {
              "internalType": "address",
              "name": "buyer",
              "type": "address"
            },
            {
              "internalType": "uint256",
              "name": "price",
              "type": "uint256"
            },
            {
              "internalType": "uint256",
              "name": "amount",
              "type": "uint256"
            },
            {
              "internalType": "contract IERC20",
              "name": "currency",
              "type": "address"
            }
          ],
          "indexed": false,
          "internalType": "struct orderInfo",
          "name": "",
          "type": "tuple"
        }
      ],
      "name": "BuyOrderInitiated",
      "type": "event"
    },
    {
      "anonymous": false,
      "inputs": [
        {
          "indexed": true,
          "internalType": "address",
          "name": "previousOwner",
          "type": "address"
        },
        {
          "indexed": true,
          "internalType": "address",
          "name": "newOwner",
          "type": "address"
        }
      ],
      "name": "OwnershipTransferred",
      "type": "event"
    },
    {
      "anonymous": false,
      "inputs": [
        {
          "components": [
            {
              "internalType": "bool",
              "name": "open",
              "type": "bool"
            },
            {
              "internalType": "bool",
              "name": "propositionAccepted",
              "type": "bool"
            },
            {
              "internalType": "uint64",
              "name": "index",
              "type": "uint64"
            },
            {
              "internalType": "uint64",
              "name": "date",
              "type": "uint64"
            },
            {
              "internalType": "uint128",
              "name": "fee",
              "type": "uint128"
            },
            {
              "internalType": "address",
              "name": "seller",
              "type": "address"
            },
            {
              "internalType": "address",
              "name": "buyer",
              "type": "address"
            },
            {
              "internalType": "uint256",
              "name": "price",
              "type": "uint256"
            },
            {
              "internalType": "uint256",
              "name": "amount",
              "type": "uint256"
            },
            {
              "internalType": "contract IERC20",
              "name": "currency",
              "type": "address"
            }
          ],
          "indexed": false,
          "internalType": "struct orderInfo",
          "name": "",
          "type": "tuple"
        }
      ],
      "name": "SellOrderInitiated",
      "type": "event"
    },
    {
      "inputs": [
        {
          "internalType": "contract IERC20",
          "name": "token",
          "type": "address"
        }
      ],
      "name": "addToken",
      "outputs": [],
      "stateMutability": "nonpayable",
      "type": "function"
    },
    {
      "inputs": [
        {
          "internalType": "contract IERC20",
          "name": "token",
          "type": "address"
        },
        {
          "internalType": "uint64",
          "name": "index",
          "type": "uint64"
        }
      ],
      "name": "buy",
      "outputs": [],
      "stateMutability": "nonpayable",
      "type": "function"
    },
    {
      "inputs": [
        {
          "internalType": "contract IERC20",
          "name": "token",
          "type": "address"
        },
        {
          "internalType": "contract IERC20",
          "name": "currencyWanted",
          "type": "address"
        },
        {
          "internalType": "uint256",
          "name": "amount",
          "type": "uint256"
        },
        {
          "internalType": "uint256",
          "name": "sellPrice",
          "type": "uint256"
        }
      ],
      "name": "buyOrder",
      "outputs": [],
      "stateMutability": "nonpayable",
      "type": "function"
    },
    {
      "inputs": [
        {
          "internalType": "contract IERC20",
          "name": "",
          "type": "address"
        },
        {
          "internalType": "uint256",
          "name": "",
          "type": "uint256"
        }
      ],
      "name": "buyOrderByToken",
      "outputs": [
        {
          "internalType": "bool",
          "name": "open",
          "type": "bool"
        },
        {
          "internalType": "bool",
          "name": "propositionAccepted",
          "type": "bool"
        },
        {
          "internalType": "uint64",
          "name": "index",
          "type": "uint64"
        },
        {
          "internalType": "uint64",
          "name": "date",
          "type": "uint64"
        },
        {
          "internalType": "uint128",
          "name": "fee",
          "type": "uint128"
        },
        {
          "internalType": "address",
          "name": "seller",
          "type": "address"
        },
        {
          "internalType": "address",
          "name": "buyer",
          "type": "address"
        },
        {
          "internalType": "uint256",
          "name": "price",
          "type": "uint256"
        },
        {
          "internalType": "uint256",
          "name": "amount",
          "type": "uint256"
        },
        {
          "internalType": "contract IERC20",
          "name": "currency",
          "type": "address"
        }
      ],
      "stateMutability": "view",
      "type": "function"
    },
    {
      "inputs": [
        {
          "internalType": "contract IERC20",
          "name": "token",
          "type": "address"
        },
        {
          "internalType": "bool",
          "name": "TrueForSellFalseForBuy",
          "type": "bool"
        },
        {
          "internalType": "uint64",
          "name": "index",
          "type": "uint64"
        }
      ],
      "name": "cancelOrder",
      "outputs": [],
      "stateMutability": "nonpayable",
      "type": "function"
    },
    {
      "inputs": [
        {
          "internalType": "uint256",
          "name": "",
          "type": "uint256"
        }
      ],
      "name": "currenciesUsed",
      "outputs": [
        {
          "internalType": "contract IERC20",
          "name": "",
          "type": "address"
        }
      ],
      "stateMutability": "view",
      "type": "function"
    },
    {
      "inputs": [
        {
          "internalType": "contract IERC20",
          "name": "",
          "type": "address"
        }
      ],
      "name": "currencyByLink",
      "outputs": [
        {
          "internalType": "bool",
          "name": "exist",
          "type": "bool"
        },
        {
          "internalType": "uint16",
          "name": "feeX10",
          "type": "uint16"
        },
        {
          "internalType": "uint256",
          "name": "feePot",
          "type": "uint256"
        }
      ],
      "stateMutability": "view",
      "type": "function"
    },
    {
      "inputs": [
        {
          "internalType": "contract IERC20",
          "name": "token",
          "type": "address"
        }
      ],
      "name": "isToken",
      "outputs": [
        {
          "internalType": "bool",
          "name": "",
          "type": "bool"
        }
      ],
      "stateMutability": "view",
      "type": "function"
    },
    {
      "inputs": [],
      "name": "owner",
      "outputs": [
        {
          "internalType": "address",
          "name": "",
          "type": "address"
        }
      ],
      "stateMutability": "view",
      "type": "function"
    },
    {
      "inputs": [],
      "name": "renounceOwnership",
      "outputs": [],
      "stateMutability": "nonpayable",
      "type": "function"
    },
    {
      "inputs": [
        {
          "internalType": "contract IERC20",
          "name": "token",
          "type": "address"
        },
        {
          "internalType": "uint64",
          "name": "index",
          "type": "uint64"
        }
      ],
      "name": "sell",
      "outputs": [],
      "stateMutability": "nonpayable",
      "type": "function"
    },
    {
      "inputs": [
        {
          "internalType": "contract IERC20",
          "name": "token",
          "type": "address"
        },
        {
          "internalType": "contract IERC20",
          "name": "currencyWanted",
          "type": "address"
        },
        {
          "internalType": "uint256",
          "name": "amount",
          "type": "uint256"
        },
        {
          "internalType": "uint256",
          "name": "sellPrice",
          "type": "uint256"
        }
      ],
      "name": "sellOrder",
      "outputs": [],
      "stateMutability": "nonpayable",
      "type": "function"
    },
    {
      "inputs": [
        {
          "internalType": "contract IERC20",
          "name": "",
          "type": "address"
        },
        {
          "internalType": "uint256",
          "name": "",
          "type": "uint256"
        }
      ],
      "name": "sellOrderByToken",
      "outputs": [
        {
          "internalType": "bool",
          "name": "open",
          "type": "bool"
        },
        {
          "internalType": "bool",
          "name": "propositionAccepted",
          "type": "bool"
        },
        {
          "internalType": "uint64",
          "name": "index",
          "type": "uint64"
        },
        {
          "internalType": "uint64",
          "name": "date",
          "type": "uint64"
        },
        {
          "internalType": "uint128",
          "name": "fee",
          "type": "uint128"
        },
        {
          "internalType": "address",
          "name": "seller",
          "type": "address"
        },
        {
          "internalType": "address",
          "name": "buyer",
          "type": "address"
        },
        {
          "internalType": "uint256",
          "name": "price",
          "type": "uint256"
        },
        {
          "internalType": "uint256",
          "name": "amount",
          "type": "uint256"
        },
        {
          "internalType": "contract IERC20",
          "name": "currency",
          "type": "address"
        }
      ],
      "stateMutability": "view",
      "type": "function"
    },
    {
      "inputs": [
        {
          "internalType": "contract IERC20",
          "name": "newCurrency",
          "type": "address"
        },
        {
          "internalType": "uint16",
          "name": "feeX10",
          "type": "uint16"
        },
        {
          "internalType": "uint256",
          "name": "feePot",
          "type": "uint256"
        }
      ],
      "name": "setCurrency",
      "outputs": [],
      "stateMutability": "nonpayable",
      "type": "function"
    },
    {
      "inputs": [
        {
          "internalType": "uint16",
          "name": "feePercentx10",
          "type": "uint16"
        },
        {
          "internalType": "contract IERC20",
          "name": "currency",
          "type": "address"
        }
      ],
      "name": "setFee",
      "outputs": [],
      "stateMutability": "nonpayable",
      "type": "function"
    },
    {
      "inputs": [
        {
          "internalType": "address",
          "name": "newFeeAddress",
          "type": "address"
        }
      ],
      "name": "setFeeAddress",
      "outputs": [],
      "stateMutability": "nonpayable",
      "type": "function"
    },
    {
      "inputs": [
        {
          "internalType": "uint256",
          "name": "",
          "type": "uint256"
        }
      ],
      "name": "tokenList",
      "outputs": [
        {
          "internalType": "contract IERC20",
          "name": "",
          "type": "address"
        }
      ],
      "stateMutability": "view",
      "type": "function"
    },
    {
      "inputs": [
        {
          "internalType": "address",
          "name": "newOwner",
          "type": "address"
        }
      ],
      "name": "transferOwnership",
      "outputs": [],
      "stateMutability": "nonpayable",
      "type": "function"
    },
    {
      "inputs": [
        {
          "internalType": "contract IERC20",
          "name": "currency",
          "type": "address"
        }
      ],
      "name": "withdrawFee",
      "outputs": [],
      "stateMutability": "nonpayable",
      "type": "function"
    }
  ],
  "bytecode": {
    "object": "0x60806040523480156200001157600080fd5b50604051620027683803806200276883398101604081905262000034916200016d565b6200003f3362000104565b6001808055600680548083019091557ff652222313e28459528d920b65115c16c04f3efc82aaedc97be59f3f377c0d3f0180546001600160a01b039586166001600160a01b0319918216811790925560078054959096169416939093179093556040805160608101825284815261ffff928316602082810191825260008385018181529681526004909152929092209051815492519093166101000262ffff00199315159390931662ffffff19909216919091179190911781559051910155620001c7565b600080546001600160a01b038381166001600160a01b0319831681178455604051919092169283917f8be0079c531659141344cd1fd0a4f28419497f9722a3daafe3b4186f6b6457e09190a35050565b6001600160a01b03811681146200016a57600080fd5b50565b6000806000606084860312156200018357600080fd5b8351620001908162000154565b6020850151909350620001a38162000154565b604085015190925061ffff81168114620001bc57600080fd5b809150509250925092565b61259180620001d76000396000f3fe608060405234801561001057600080fd5b50600436106101215760003560e01c80638705fcd4116100ad578063d38d0b4511610071578063d38d0b4514610304578063d48bfca714610317578063d59a83bb1461032a578063f110fb561461033d578063f2fde38b1461035057600080fd5b80638705fcd4146102935780638da5cb5b146102a65780639a83aa8b146102cb5780639ead7222146102de578063cd8a64c4146102f157600080fd5b806330f738be116100f457806330f738be1461018957806341a440a51461019c5780634303d9d9146101af5780636afb2a5514610235578063715018a61461028b57600080fd5b806308b4e2a61461012657806319f373611461013b5780631ac3ddeb1461016357806323a7772014610176575b600080fd5b610139610134366004612197565b610363565b005b61014e6101493660046121de565b6108e1565b60405190151581526020015b60405180910390f35b6101396101713660046121de565b6109a0565b610139610184366004612202565b610ab9565b61013961019736600461225a565b610f65565b6101396101aa366004612291565b610fe4565b6101c26101bd3660046122c6565b611422565b604080519a15158b5298151560208b01526001600160401b03978816988a01989098529490951660608801526001600160801b039290921660808701526001600160a01b0390811660a087015290811660c086015260e0850192909252610100840152166101208201526101400161015a565b61026b6102433660046121de565b6004602052600090815260409020805460019091015460ff821691610100900461ffff169083565b60408051931515845261ffff90921660208401529082015260600161015a565b6101396114bb565b6101396102a13660046121de565b6114cf565b6000546001600160a01b03165b6040516001600160a01b03909116815260200161015a565b6101396102d9366004612291565b6114f9565b6102b36102ec3660046122f2565b6119a5565b6101396102ff366004612202565b6119cf565b61013961031236600461230b565b611e83565b6101396103253660046121de565b611f63565b6101c26103383660046122c6565b612009565b6102b361034b3660046122f2565b612025565b61013961035e3660046121de565b612035565b60026001540361038e5760405162461bcd60e51b815260040161038590612349565b60405180910390fd5b600260015561039c836108e1565b6103b85760405162461bcd60e51b815260040161038590612380565b600082610405576001600160a01b038416600090815260036020526040902080546001600160401b0384169081106103f2576103f26123a8565b9060005260206000209060070201610447565b6001600160a01b038416600090815260026020526040902080546001600160401b038416908110610438576104386123a8565b90600052602060002090600702015b6040805161014081018252825460ff80821615158352610100808304909116151560208401526001600160401b03620100008304811694840194909452600160501b909104909216606082015260018301546001600160801b0316608082015260028301546001600160a01b0390811660a083018190526003850154821660c0840152600485015460e084015260058501549383019390935260069093015490921661012083015290915033148061050b575060c08101516001600160a01b031633145b61054d5760405162461bcd60e51b815260206004820152601360248201527210d85b98d95b081d5b985d5d1a1bdc9a5e9959606a1b6044820152606401610385565b6000815282156107165761010081015160405163a9059cbb60e01b815233600482015260248101919091526001600160a01b0385169063a9059cbb906044016020604051808303816000875af11580156105ab573d6000803e3d6000fd5b505050506040513d601f19601f820116820180604052508101906105cf91906123be565b506001600160a01b038416600090815260026020526040902080548291906001600160401b038516908110610606576106066123a8565b60009182526020918290208351600792909202018054928401516040850151606086015161ffff1990951693151561ff0019169390931761010091151582021762010000600160901b031916620100006001600160401b039485160267ffffffffffffffff60501b191617600160501b939094169290920292909217825560808301516001830180546001600160801b0319166001600160801b0390921691909117905560a08301516002830180546001600160a01b03199081166001600160a01b039384161790915560c0850151600385018054831691841691909117905560e085015160048501559184015160058401556101209093015160069092018054909116919092161790556108d7565b61012081015160e082015160405163a9059cbb60e01b815233600482015260248101919091526001600160a01b039091169063a9059cbb906044016020604051808303816000875af1158015610770573d6000803e3d6000fd5b505050506040513d601f19601f8201168201806040525081019061079491906123be565b506001600160a01b038416600090815260036020526040902080548291906001600160401b0385169081106107cb576107cb6123a8565b60009182526020918290208351600792909202018054928401516040850151606086015161ffff1990951693151561ff0019169390931761010091151582021762010000600160901b031916620100006001600160401b039485160267ffffffffffffffff60501b191617600160501b939094169290920292909217825560808301516001830180546001600160801b0319166001600160801b0390921691909117905560a08301516002830180546001600160a01b03199081166001600160a01b039384161790915560c0850151600385018054831691841691909117905560e085015160048501559184015160058401556101209093015160069092018054909116919092161790555b5050600180555050565b600080600580548060200260200160405190810160405280929190818152602001828054801561093a57602002820191906000526020600020905b81546001600160a01b0316815260019091019060200180831161091c575b505083519394506000925050505b8181101561099557846001600160a01b031683828151811061096c5761096c6123a8565b60200260200101516001600160a01b03160361098d57506001949350505050565b600101610948565b506000949350505050565b6109a86120ae565b6001600160a01b038181166000818152600460208181526040928390208351606081018552815460ff811615158252610100900461ffff169281019290925260010154818401819052600754935163a9059cbb60e01b81529390951691830191909152602482019390935263a9059cbb906044016020604051808303816000875af1158015610a3b573d6000803e3d6000fd5b505050506040513d601f19601f82011682018060405250810190610a5f91906123be565b50600060408083018281526001600160a01b03909416825260046020908152912082518154929093015161ffff166101000262ffff00199315159390931662ffffff19909216919091179190911781559051600190910155565b600260015403610adb5760405162461bcd60e51b815260040161038590612349565b6002600155610ae9846108e1565b610b2c5760405162461bcd60e51b8152602060048201526014602482015273151bdad95b88139bdd08149959da5cdd195c995960621b6044820152606401610385565b6001600160a01b0383166000908152600460209081526040918290208251606081018452815460ff8116151580835261010090910461ffff169382019390935260019091015492810192909252610bbe5760405162461bcd60e51b815260206004820152601660248201527510dd5c9c995b98de481b9bdd081d1bdb195c985d195960521b6044820152606401610385565b6001600160a01b038516600081815260026020526040908190205490516323b872dd60e01b81529091906323b872dd90610c00903390309089906004016123db565b6020604051808303816000875af1158015610c1f573d6000803e3d6000fd5b505050506040513d601f19601f82011682018060405250810190610c4391906123be565b50602082015160009061ffff16610c5c6103e886612415565b610c669190612437565b905060026000886001600160a01b03166001600160a01b03168152602001908152602001600020604051806101400160405280600115158152602001600015158152602001846001600160401b03168152602001426001600160401b03168152602001836001600160801b03168152602001336001600160a01b0316815260200160006001600160a01b03168152602001868152602001878152602001886001600160a01b0316815250908060018154018082558091505060019003906000526020600020906007020160009091909190915060008201518160000160006101000a81548160ff02191690831515021790555060208201518160000160016101000a81548160ff02191690831515021790555060408201518160000160026101000a8154816001600160401b0302191690836001600160401b03160217905550606082015181600001600a6101000a8154816001600160401b0302191690836001600160401b0316021790555060808201518160010160006101000a8154816001600160801b0302191690836001600160801b0316021790555060a08201518160020160006101000a8154816001600160a01b0302191690836001600160a01b0316021790555060c08201518160030160006101000a8154816001600160a01b0302191690836001600160a01b0316021790555060e0820151816004015561010082015181600501556101208201518160060160006101000a8154816001600160a01b0302191690836001600160a01b0316021790555050507f9a001d1a6e61a780e6bc45b5f20646d4ccffbaf5024da4892f5acb2c944013e6604051806101400160405280600115158152602001600015158152602001846001600160401b03168152602001426001600160401b03168152602001836001600160801b03168152602001336001600160a01b0316815260200160006001600160a01b03168152602001868152602001878152602001886001600160a01b0316815250604051610f509190612456565b60405180910390a15050600180555050505050565b610f6d6120ae565b6101f48261ffff1610610fb15760405162461bcd60e51b815260206004820152600c60248201526b08ccaca40a8dede40d0d2ced60a31b6044820152606401610385565b6001600160a01b03166000908152600460205260409020805461ffff9092166101000262ffff0019909216919091179055565b6002600154036110065760405162461bcd60e51b815260040161038590612349565b6002600155611014826108e1565b6110305760405162461bcd60e51b815260040161038590612380565b6001600160a01b038216600090815260036020526040812080546001600160401b038416908110611063576110636123a8565b600091825260209182902060408051610140810182526007909302909101805460ff80821615158086526101008084049092161515968601969096526001600160401b03620100008304811694860194909452600160501b909104909216606084015260018101546001600160801b0316608084015260028101546001600160a01b0390811660a08501526003820154811660c0850152600482015460e0850152600582015492840192909252600601541661012082015291506111575760405162461bcd60e51b815260206004820152600b60248201526a13dc99195c90db1bdcd95960aa1b6044820152606401610385565b3360a082018190526001602083015260c08201516101008301516040516323b872dd60e01b81526001600160a01b038716936323b872dd936111a09391929091906004016123db565b6020604051808303816000875af11580156111bf573d6000803e3d6000fd5b505050506040513d601f19601f820116820180604052508101906111e391906123be565b508061012001516001600160a01b031663a9059cbb3383608001516001600160801b03168460e00151611216919061252c565b6040516001600160e01b031960e085901b1681526001600160a01b03909216600483015260248201526044016020604051808303816000875af1158015611261573d6000803e3d6000fd5b505050506040513d601f19601f8201168201806040525081019061128591906123be565b5080608001516001600160801b0316600460008361012001516001600160a01b03166001600160a01b0316815260200190815260200160002060010160008282546112d09190612543565b90915550506001600160a01b038316600090815260036020526040902080548291906001600160401b03851690811061130b5761130b6123a8565b60009182526020918290208351600792909202018054928401516040850151606086015161ffff1990951693151561ff0019169390931761010091151582021762010000600160901b031916620100006001600160401b039485160267ffffffffffffffff60501b191617600160501b93909416929092029290921782556080830151600180840180546001600160801b0319166001600160801b039093169290921790915560a08401516002840180546001600160a01b03199081166001600160a01b039384161790915560c0860151600386018054831691841691909117905560e086015160048601559285015160058501556101209094015160069093018054909216929093169190911790558055505050565b6002602052816000526040600020818154811061143e57600080fd5b6000918252602090912060079091020180546001820154600283015460038401546004850154600586015460069096015460ff808716995061010087041697506001600160401b03620100008704811697600160501b90970416956001600160801b03909516946001600160a01b0394851694938416939091168a565b6114c36120ae565b6114cd6000612108565b565b6114d76120ae565b600780546001600160a01b0319166001600160a01b0392909216919091179055565b60026001540361151b5760405162461bcd60e51b815260040161038590612349565b6002600155611529826108e1565b6115455760405162461bcd60e51b815260040161038590612380565b6001600160a01b038216600090815260026020526040812080546001600160401b038416908110611578576115786123a8565b600091825260209182902060408051610140810182526007909302909101805460ff80821615158086526101008084049092161515968601969096526001600160401b03620100008304811694860194909452600160501b909104909216606084015260018101546001600160801b0316608084015260028101546001600160a01b0390811660a08501526003820154811660c0850152600482015460e08501526005820154928401929092526006015416610120820152915061166c5760405162461bcd60e51b815260206004820152600b60248201526a13dc99195c90db1bdcd95960aa1b6044820152606401610385565b3360c08201819052600160208301526000825261012082015160e08301516040516323b872dd60e01b81526001600160a01b03909216926323b872dd926116b79230916004016123db565b6020604051808303816000875af11580156116d6573d6000803e3d6000fd5b505050506040513d601f19601f820116820180604052508101906116fa91906123be565b508061012001516001600160a01b031663a9059cbb8260a0015183608001516001600160801b03168460e00151611731919061252c565b6040516001600160e01b031960e085901b1681526001600160a01b03909216600483015260248201526044016020604051808303816000875af115801561177c573d6000803e3d6000fd5b505050506040513d601f19601f820116820180604052508101906117a091906123be565b5080608001516001600160801b0316600460008361012001516001600160a01b03166001600160a01b0316815260200190815260200160002060010160008282546117eb9190612543565b90915550506001600160a01b038316600090815260026020526040902080548291906001600160401b038516908110611826576118266123a8565b6000918252602091829020835160079290920201805492840151604080860151606087015161ffff1990961694151561ff0019169490941761010092151583021762010000600160901b031916620100006001600160401b039586160267ffffffffffffffff60501b191617600160501b949095169390930293909317815560808401516001820180546001600160801b0319166001600160801b0390921691909117905560a08401516002820180546001600160a01b03199081166001600160a01b039384161790915560c0860151600384018054831691841691909117905560e086015160048085019190915585870151600585015561012090960151600690930180549091169282169290921790915591840151905163a9059cbb60e01b81523393810193909352602483015284169063a9059cbb906044016020604051808303816000875af1158015611981573d6000803e3d6000fd5b505050506040513d601f19601f820116820180604052508101906108d791906123be565b600581815481106119b557600080fd5b6000918252602090912001546001600160a01b0316905081565b6002600154036119f15760405162461bcd60e51b815260040161038590612349565b60026001556119ff846108e1565b611a425760405162461bcd60e51b8152602060048201526014602482015273151bdad95b88139bdd08149959da5cdd195c995960621b6044820152606401610385565b6001600160a01b0383166000908152600460209081526040918290208251606081018452815460ff8116151580835261010090910461ffff169382019390935260019091015492810192909252611ad45760405162461bcd60e51b815260206004820152601660248201527510dd5c9c995b98de481b9bdd081d1bdb195c985d195960521b6044820152606401610385565b60006103e8826020015161ffff1684611aed9190612437565b611af79190612415565b6040516323b872dd60e01b81529091506001600160a01b038616906323b872dd90611b2a903390309088906004016123db565b6020604051808303816000875af1158015611b49573d6000803e3d6000fd5b505050506040513d601f19601f82011682018060405250810190611b6d91906123be565b50600060036000886001600160a01b03166001600160a01b0316815260200190815260200160002080549050905060036000886001600160a01b03166001600160a01b03168152602001908152602001600020604051806101400160405280600115158152602001600015158152602001836001600160401b03168152602001426001600160401b03168152602001846001600160801b0316815260200160006001600160a01b03168152602001336001600160a01b03168152602001868152602001878152602001886001600160a01b0316815250908060018154018082558091505060019003906000526020600020906007020160009091909190915060008201518160000160006101000a81548160ff02191690831515021790555060208201518160000160016101000a81548160ff02191690831515021790555060408201518160000160026101000a8154816001600160401b0302191690836001600160401b03160217905550606082015181600001600a6101000a8154816001600160401b0302191690836001600160401b0316021790555060808201518160010160006101000a8154816001600160801b0302191690836001600160801b0316021790555060a08201518160020160006101000a8154816001600160a01b0302191690836001600160a01b0316021790555060c08201518160030160006101000a8154816001600160a01b0302191690836001600160a01b0316021790555060e0820151816004015561010082015181600501556101208201518160060160006101000a8154816001600160a01b0302191690836001600160a01b0316021790555050507f077d6662586eda32b10cd8225f21d3046ae7cb634a5ca3a2bd8d52281d39eecc604051806101400160405280600115158152602001600015158152602001836001600160401b03168152602001426001600160401b03168152602001846001600160801b0316815260200160006001600160a01b03168152602001336001600160a01b03168152602001868152602001878152602001886001600160a01b0316815250604051610f509190612456565b611e8b6120ae565b6001600160a01b03831660009081526004602052604090205460ff16611ef757600580546001810182556000919091527f036b6384b5eca791c62761152d0c79bb0604c104a5fb6f4eb0703f3154bb3db00180546001600160a01b0319166001600160a01b0385161790555b60408051606081018252600180825261ffff94851660208084019182528385019586526001600160a01b0397909716600090815260049097529290952090518154925162ffffff1990931690151562ffff00191617610100929094169190910292909217825551910155565b611f6b6120ae565b611f74816108e1565b15611fb75760405162461bcd60e51b8152602060048201526013602482015272151bdad95b88185b1c9958591e481859191959606a1b6044820152606401610385565b600580546001810182556000919091527f036b6384b5eca791c62761152d0c79bb0604c104a5fb6f4eb0703f3154bb3db00180546001600160a01b0319166001600160a01b0392909216919091179055565b6003602052816000526040600020818154811061143e57600080fd5b600681815481106119b557600080fd5b61203d6120ae565b6001600160a01b0381166120a25760405162461bcd60e51b815260206004820152602660248201527f4f776e61626c653a206e6577206f776e657220697320746865207a65726f206160448201526564647265737360d01b6064820152608401610385565b6120ab81612108565b50565b6000546001600160a01b031633146114cd5760405162461bcd60e51b815260206004820181905260248201527f4f776e61626c653a2063616c6c6572206973206e6f7420746865206f776e65726044820152606401610385565b600080546001600160a01b038381166001600160a01b0319831681178455604051919092169283917f8be0079c531659141344cd1fd0a4f28419497f9722a3daafe3b4186f6b6457e09190a35050565b6001600160a01b03811681146120ab57600080fd5b80151581146120ab57600080fd5b80356001600160401b038116811461219257600080fd5b919050565b6000806000606084860312156121ac57600080fd5b83356121b781612158565b925060208401356121c78161216d565b91506121d56040850161217b565b90509250925092565b6000602082840312156121f057600080fd5b81356121fb81612158565b9392505050565b6000806000806080858703121561221857600080fd5b843561222381612158565b9350602085013561223381612158565b93969395505050506040820135916060013590565b803561ffff8116811461219257600080fd5b6000806040838503121561226d57600080fd5b61227683612248565b9150602083013561228681612158565b809150509250929050565b600080604083850312156122a457600080fd5b82356122af81612158565b91506122bd6020840161217b565b90509250929050565b600080604083850312156122d957600080fd5b82356122e481612158565b946020939093013593505050565b60006020828403121561230457600080fd5b5035919050565b60008060006060848603121561232057600080fd5b833561232b81612158565b925061233960208501612248565b9150604084013590509250925092565b6020808252601f908201527f5265656e7472616e637947756172643a207265656e7472616e742063616c6c00604082015260600190565b6020808252600e908201526d151bdad95b88155b9b1a5cdd195960921b604082015260600190565b634e487b7160e01b600052603260045260246000fd5b6000602082840312156123d057600080fd5b81516121fb8161216d565b6001600160a01b039384168152919092166020820152604081019190915260600190565b634e487b7160e01b600052601160045260246000fd5b60008261243257634e487b7160e01b600052601260045260246000fd5b500490565b6000816000190483118215151615612451576124516123ff565b500290565b81511515815261014081016020830151612474602084018215159052565b50604083015161248f60408401826001600160401b03169052565b5060608301516124aa60608401826001600160401b03169052565b5060808301516124c560808401826001600160801b03169052565b5060a08301516124e060a08401826001600160a01b03169052565b5060c08301516124fb60c08401826001600160a01b03169052565b5060e083810151908301526101008084015190830152610120928301516001600160a01b0316929091019190915290565b60008282101561253e5761253e6123ff565b500390565b60008219821115612556576125566123ff565b50019056fea264697066735822122005cbcf51befd3953c3e3540b1fb1b04bf19f3fccf675201685a4e89c9b28e71664736f6c634300080e0033",
    "linkReferences": {}
  },
  "methodIdentifiers": {
    "addToken(address)": "d48bfca7",
    "buy(address,uint64)": "9a83aa8b",
    "buyOrder(address,address,uint256,uint256)": "cd8a64c4",
    "buyOrderByToken(address,uint256)": "d59a83bb",
    "cancelOrder(address,bool,uint64)": "08b4e2a6",
    "currenciesUsed(uint256)": "f110fb56",
    "currencyByLink(address)": "6afb2a55",
    "isToken(address)": "19f37361",
    "owner()": "8da5cb5b",
    "renounceOwnership()": "715018a6",
    "sell(address,uint64)": "41a440a5",
    "sellOrder(address,address,uint256,uint256)": "23a77720",
    "sellOrderByToken(address,uint256)": "4303d9d9",
    "setCurrency(address,uint16,uint256)": "d38d0b45",
    "setFee(uint16,address)": "30f738be",
    "setFeeAddress(address)": "8705fcd4",
    "tokenList(uint256)": "9ead7222",
    "transferOwnership(address)": "f2fde38b",
    "withdrawFee(address)": "1ac3ddeb"
  },
  "id": 20
}