{
  "abi": [
    {
      "inputs": [
        {
          "internalType": "address",
          "name": "_currencyUsed",
          "type": "address"
        },
        {
          "internalType": "address",
          "name": "_feeAddress",
          "type": "address"
        },
        {
          "internalType": "uint16",
          "name": "feex10",
          "type": "uint16"
        }
      ],
      "stateMutability": "nonpayable",
      "type": "constructor"
    },
    {
      "anonymous": false,
      "inputs": [
        {
          "components": [
            {
              "internalType": "bool",
              "name": "open",
              "type": "bool"
            },
            {
              "internalType": "bool",
              "name": "propositionAccepted",
              "type": "bool"
            },
            {
              "internalType": "uint64",
              "name": "index",
              "type": "uint64"
            },
            {
              "internalType": "uint64",
              "name": "date",
              "type": "uint64"
            },
            {
              "internalType": "address",
              "name": "seller",
              "type": "address"
            },
            {
              "internalType": "address",
              "name": "buyer",
              "type": "address"
            },
            {
              "internalType": "uint256",
              "name": "fee",
              "type": "uint256"
            },
            {
              "internalType": "uint256",
              "name": "price",
              "type": "uint256"
            },
            {
              "internalType": "uint256",
              "name": "amount",
              "type": "uint256"
            },
            {
              "internalType": "contract IERC20",
              "name": "currency",
              "type": "address"
            }
          ],
          "indexed": false,
          "internalType": "struct orderInfo",
          "name": "",
          "type": "tuple"
        }
      ],
      "name": "BuyOrderAccepted",
      "type": "event"
    },
    {
      "anonymous": false,
      "inputs": [
        {
          "components": [
            {
              "internalType": "bool",
              "name": "open",
              "type": "bool"
            },
            {
              "internalType": "bool",
              "name": "propositionAccepted",
              "type": "bool"
            },
            {
              "internalType": "uint64",
              "name": "index",
              "type": "uint64"
            },
            {
              "internalType": "uint64",
              "name": "date",
              "type": "uint64"
            },
            {
              "internalType": "address",
              "name": "seller",
              "type": "address"
            },
            {
              "internalType": "address",
              "name": "buyer",
              "type": "address"
            },
            {
              "internalType": "uint256",
              "name": "fee",
              "type": "uint256"
            },
            {
              "internalType": "uint256",
              "name": "price",
              "type": "uint256"
            },
            {
              "internalType": "uint256",
              "name": "amount",
              "type": "uint256"
            },
            {
              "internalType": "contract IERC20",
              "name": "currency",
              "type": "address"
            }
          ],
          "indexed": false,
          "internalType": "struct orderInfo",
          "name": "",
          "type": "tuple"
        }
      ],
      "name": "BuyOrderCancelled",
      "type": "event"
    },
    {
      "anonymous": false,
      "inputs": [
        {
          "components": [
            {
              "internalType": "bool",
              "name": "open",
              "type": "bool"
            },
            {
              "internalType": "bool",
              "name": "propositionAccepted",
              "type": "bool"
            },
            {
              "internalType": "uint64",
              "name": "index",
              "type": "uint64"
            },
            {
              "internalType": "uint64",
              "name": "date",
              "type": "uint64"
            },
            {
              "internalType": "address",
              "name": "seller",
              "type": "address"
            },
            {
              "internalType": "address",
              "name": "buyer",
              "type": "address"
            },
            {
              "internalType": "uint256",
              "name": "fee",
              "type": "uint256"
            },
            {
              "internalType": "uint256",
              "name": "price",
              "type": "uint256"
            },
            {
              "internalType": "uint256",
              "name": "amount",
              "type": "uint256"
            },
            {
              "internalType": "contract IERC20",
              "name": "currency",
              "type": "address"
            }
          ],
          "indexed": false,
          "internalType": "struct orderInfo",
          "name": "",
          "type": "tuple"
        }
      ],
      "name": "BuyOrderInitiated",
      "type": "event"
    },
    {
      "anonymous": false,
      "inputs": [
        {
          "indexed": true,
          "internalType": "address",
          "name": "previousOwner",
          "type": "address"
        },
        {
          "indexed": true,
          "internalType": "address",
          "name": "newOwner",
          "type": "address"
        }
      ],
      "name": "OwnershipTransferred",
      "type": "event"
    },
    {
      "anonymous": false,
      "inputs": [
        {
          "components": [
            {
              "internalType": "bool",
              "name": "open",
              "type": "bool"
            },
            {
              "internalType": "bool",
              "name": "propositionAccepted",
              "type": "bool"
            },
            {
              "internalType": "uint64",
              "name": "index",
              "type": "uint64"
            },
            {
              "internalType": "uint64",
              "name": "date",
              "type": "uint64"
            },
            {
              "internalType": "address",
              "name": "seller",
              "type": "address"
            },
            {
              "internalType": "address",
              "name": "buyer",
              "type": "address"
            },
            {
              "internalType": "uint256",
              "name": "fee",
              "type": "uint256"
            },
            {
              "internalType": "uint256",
              "name": "price",
              "type": "uint256"
            },
            {
              "internalType": "uint256",
              "name": "amount",
              "type": "uint256"
            },
            {
              "internalType": "contract IERC20",
              "name": "currency",
              "type": "address"
            }
          ],
          "indexed": false,
          "internalType": "struct orderInfo",
          "name": "",
          "type": "tuple"
        }
      ],
      "name": "SellOrderAccepted",
      "type": "event"
    },
    {
      "anonymous": false,
      "inputs": [
        {
          "components": [
            {
              "internalType": "bool",
              "name": "open",
              "type": "bool"
            },
            {
              "internalType": "bool",
              "name": "propositionAccepted",
              "type": "bool"
            },
            {
              "internalType": "uint64",
              "name": "index",
              "type": "uint64"
            },
            {
              "internalType": "uint64",
              "name": "date",
              "type": "uint64"
            },
            {
              "internalType": "address",
              "name": "seller",
              "type": "address"
            },
            {
              "internalType": "address",
              "name": "buyer",
              "type": "address"
            },
            {
              "internalType": "uint256",
              "name": "fee",
              "type": "uint256"
            },
            {
              "internalType": "uint256",
              "name": "price",
              "type": "uint256"
            },
            {
              "internalType": "uint256",
              "name": "amount",
              "type": "uint256"
            },
            {
              "internalType": "contract IERC20",
              "name": "currency",
              "type": "address"
            }
          ],
          "indexed": false,
          "internalType": "struct orderInfo",
          "name": "",
          "type": "tuple"
        }
      ],
      "name": "SellOrderCancelled",
      "type": "event"
    },
    {
      "anonymous": false,
      "inputs": [
        {
          "components": [
            {
              "internalType": "bool",
              "name": "open",
              "type": "bool"
            },
            {
              "internalType": "bool",
              "name": "propositionAccepted",
              "type": "bool"
            },
            {
              "internalType": "uint64",
              "name": "index",
              "type": "uint64"
            },
            {
              "internalType": "uint64",
              "name": "date",
              "type": "uint64"
            },
            {
              "internalType": "address",
              "name": "seller",
              "type": "address"
            },
            {
              "internalType": "address",
              "name": "buyer",
              "type": "address"
            },
            {
              "internalType": "uint256",
              "name": "fee",
              "type": "uint256"
            },
            {
              "internalType": "uint256",
              "name": "price",
              "type": "uint256"
            },
            {
              "internalType": "uint256",
              "name": "amount",
              "type": "uint256"
            },
            {
              "internalType": "contract IERC20",
              "name": "currency",
              "type": "address"
            }
          ],
          "indexed": false,
          "internalType": "struct orderInfo",
          "name": "",
          "type": "tuple"
        }
      ],
      "name": "SellOrderInitiated",
      "type": "event"
    },
    {
      "inputs": [
        {
          "internalType": "contract IERC20",
          "name": "token",
          "type": "address"
        }
      ],
      "name": "addToken",
      "outputs": [],
      "stateMutability": "nonpayable",
      "type": "function"
    },
    {
      "inputs": [
        {
          "internalType": "address",
          "name": "token",
          "type": "address"
        },
        {
          "internalType": "uint64",
          "name": "index",
          "type": "uint64"
        }
      ],
      "name": "buy",
      "outputs": [],
      "stateMutability": "nonpayable",
      "type": "function"
    },
    {
      "inputs": [
        {
          "internalType": "address",
          "name": "",
          "type": "address"
        },
        {
          "internalType": "uint256",
          "name": "",
          "type": "uint256"
        }
      ],
      "name": "buyOrderByToken",
      "outputs": [
        {
          "internalType": "bool",
          "name": "open",
          "type": "bool"
        },
        {
          "internalType": "bool",
          "name": "propositionAccepted",
          "type": "bool"
        },
        {
          "internalType": "uint64",
          "name": "index",
          "type": "uint64"
        },
        {
          "internalType": "uint64",
          "name": "date",
          "type": "uint64"
        },
        {
          "internalType": "address",
          "name": "seller",
          "type": "address"
        },
        {
          "internalType": "address",
          "name": "buyer",
          "type": "address"
        },
        {
          "internalType": "uint256",
          "name": "fee",
          "type": "uint256"
        },
        {
          "internalType": "uint256",
          "name": "price",
          "type": "uint256"
        },
        {
          "internalType": "uint256",
          "name": "amount",
          "type": "uint256"
        },
        {
          "internalType": "contract IERC20",
          "name": "currency",
          "type": "address"
        }
      ],
      "stateMutability": "view",
      "type": "function"
    },
    {
      "inputs": [
        {
          "internalType": "address",
          "name": "token",
          "type": "address"
        },
        {
          "internalType": "bool",
          "name": "TrueForSellFalseForBuy",
          "type": "bool"
        },
        {
          "internalType": "uint64",
          "name": "index",
          "type": "uint64"
        }
      ],
      "name": "cancelOrder",
      "outputs": [],
      "stateMutability": "nonpayable",
      "type": "function"
    },
    {
      "inputs": [
        {
          "internalType": "uint256",
          "name": "",
          "type": "uint256"
        }
      ],
      "name": "currenciesUsed",
      "outputs": [
        {
          "internalType": "contract IERC20",
          "name": "",
          "type": "address"
        }
      ],
      "stateMutability": "view",
      "type": "function"
    },
    {
      "inputs": [
        {
          "internalType": "address",
          "name": "",
          "type": "address"
        }
      ],
      "name": "currencyByLink",
      "outputs": [
        {
          "internalType": "bool",
          "name": "exist",
          "type": "bool"
        },
        {
          "internalType": "uint16",
          "name": "feeX10",
          "type": "uint16"
        },
        {
          "internalType": "uint256",
          "name": "feePot",
          "type": "uint256"
        }
      ],
      "stateMutability": "view",
      "type": "function"
    },
    {
      "inputs": [
        {
          "internalType": "address",
          "name": "token",
          "type": "address"
        },
        {
          "internalType": "address",
          "name": "currencyWanted",
          "type": "address"
        },
        {
          "internalType": "uint256",
          "name": "amount",
          "type": "uint256"
        },
        {
          "internalType": "uint256",
          "name": "sellPrice",
          "type": "uint256"
        }
      ],
      "name": "initBuyOrder",
      "outputs": [],
      "stateMutability": "nonpayable",
      "type": "function"
    },
    {
      "inputs": [
        {
          "internalType": "address",
          "name": "token",
          "type": "address"
        },
        {
          "internalType": "address",
          "name": "currencyWanted",
          "type": "address"
        },
        {
          "internalType": "uint256",
          "name": "amount",
          "type": "uint256"
        },
        {
          "internalType": "uint256",
          "name": "sellPrice",
          "type": "uint256"
        },
        {
          "internalType": "uint256",
          "name": "deadline",
          "type": "uint256"
        },
        {
          "internalType": "uint8",
          "name": "v",
          "type": "uint8"
        },
        {
          "internalType": "bytes32",
          "name": "r",
          "type": "bytes32"
        },
        {
          "internalType": "bytes32",
          "name": "s",
          "type": "bytes32"
        }
      ],
      "name": "initSellOrder",
      "outputs": [],
      "stateMutability": "nonpayable",
      "type": "function"
    },
    {
      "inputs": [
        {
          "internalType": "contract IERC20",
          "name": "token",
          "type": "address"
        }
      ],
      "name": "isToken",
      "outputs": [
        {
          "internalType": "bool",
          "name": "",
          "type": "bool"
        }
      ],
      "stateMutability": "view",
      "type": "function"
    },
    {
      "inputs": [],
      "name": "owner",
      "outputs": [
        {
          "internalType": "address",
          "name": "",
          "type": "address"
        }
      ],
      "stateMutability": "view",
      "type": "function"
    },
    {
      "inputs": [],
      "name": "renounceOwnership",
      "outputs": [],
      "stateMutability": "nonpayable",
      "type": "function"
    },
    {
      "inputs": [
        {
          "internalType": "address",
          "name": "token",
          "type": "address"
        },
        {
          "internalType": "uint64",
          "name": "index",
          "type": "uint64"
        },
        {
          "internalType": "uint256",
          "name": "deadline",
          "type": "uint256"
        },
        {
          "internalType": "uint8",
          "name": "v",
          "type": "uint8"
        },
        {
          "internalType": "bytes32",
          "name": "r",
          "type": "bytes32"
        },
        {
          "internalType": "bytes32",
          "name": "s",
          "type": "bytes32"
        }
      ],
      "name": "sell",
      "outputs": [],
      "stateMutability": "nonpayable",
      "type": "function"
    },
    {
      "inputs": [
        {
          "internalType": "address",
          "name": "",
          "type": "address"
        },
        {
          "internalType": "uint256",
          "name": "",
          "type": "uint256"
        }
      ],
      "name": "sellOrderByToken",
      "outputs": [
        {
          "internalType": "bool",
          "name": "open",
          "type": "bool"
        },
        {
          "internalType": "bool",
          "name": "propositionAccepted",
          "type": "bool"
        },
        {
          "internalType": "uint64",
          "name": "index",
          "type": "uint64"
        },
        {
          "internalType": "uint64",
          "name": "date",
          "type": "uint64"
        },
        {
          "internalType": "address",
          "name": "seller",
          "type": "address"
        },
        {
          "internalType": "address",
          "name": "buyer",
          "type": "address"
        },
        {
          "internalType": "uint256",
          "name": "fee",
          "type": "uint256"
        },
        {
          "internalType": "uint256",
          "name": "price",
          "type": "uint256"
        },
        {
          "internalType": "uint256",
          "name": "amount",
          "type": "uint256"
        },
        {
          "internalType": "contract IERC20",
          "name": "currency",
          "type": "address"
        }
      ],
      "stateMutability": "view",
      "type": "function"
    },
    {
      "inputs": [
        {
          "internalType": "address",
          "name": "newCurrency",
          "type": "address"
        },
        {
          "internalType": "uint16",
          "name": "feeX10",
          "type": "uint16"
        },
        {
          "internalType": "uint256",
          "name": "feePot",
          "type": "uint256"
        }
      ],
      "name": "setCurrency",
      "outputs": [],
      "stateMutability": "nonpayable",
      "type": "function"
    },
    {
      "inputs": [
        {
          "internalType": "uint16",
          "name": "feePercentx10",
          "type": "uint16"
        },
        {
          "internalType": "address",
          "name": "currency",
          "type": "address"
        }
      ],
      "name": "setFee",
      "outputs": [],
      "stateMutability": "nonpayable",
      "type": "function"
    },
    {
      "inputs": [
        {
          "internalType": "address",
          "name": "newFeeAddress",
          "type": "address"
        }
      ],
      "name": "setFeeAddress",
      "outputs": [],
      "stateMutability": "nonpayable",
      "type": "function"
    },
    {
      "inputs": [
        {
          "internalType": "uint256",
          "name": "",
          "type": "uint256"
        }
      ],
      "name": "tokenList",
      "outputs": [
        {
          "internalType": "contract IERC20",
          "name": "",
          "type": "address"
        }
      ],
      "stateMutability": "view",
      "type": "function"
    },
    {
      "inputs": [
        {
          "internalType": "address",
          "name": "newOwner",
          "type": "address"
        }
      ],
      "name": "transferOwnership",
      "outputs": [],
      "stateMutability": "nonpayable",
      "type": "function"
    },
    {
      "inputs": [
        {
          "internalType": "address",
          "name": "currency",
          "type": "address"
        }
      ],
      "name": "withdrawFee",
      "outputs": [],
      "stateMutability": "nonpayable",
      "type": "function"
    }
  ],
  "bytecode": {
    "object": "0x60806040523480156200001157600080fd5b506040516200289038038062002890833981016040819052620000349162000186565b6200003f3362000119565b600180556103e861ffff821611156200005757600080fd5b6006805460018181019092557ff652222313e28459528d920b65115c16c04f3efc82aaedc97be59f3f377c0d3f0180546001600160a01b039586166001600160a01b0319918216811790925560078054959096169416939093179093556040805160608101825284815261ffff928316602082810191825260008385018181529681526004909152929092209051815492519093166101000262ffff00199315159390931662ffffff19909216919091179190911781559051910155620001da565b600080546001600160a01b038381166001600160a01b0319831681178455604051919092169283917f8be0079c531659141344cd1fd0a4f28419497f9722a3daafe3b4186f6b6457e09190a35050565b80516001600160a01b03811681146200018157600080fd5b919050565b6000806000606084860312156200019c57600080fd5b620001a78462000169565b9250620001b76020850162000169565b9150604084015161ffff81168114620001cf57600080fd5b809150509250925092565b6126a680620001ea6000396000f3fe608060405234801561001057600080fd5b50600436106101215760003560e01c80638da5cb5b116100ad578063d48bfca711610071578063d48bfca7146102f8578063d59a83bb1461030b578063de8645e61461031e578063f110fb5614610331578063f2fde38b1461034457600080fd5b80638da5cb5b146102875780639a83aa8b146102ac5780639ead7222146102bf578063d28c3a9b146102d2578063d38d0b45146102e557600080fd5b80634303d9d9116100f45780634303d9d9146101895780636afb2a55146102035780636bdf6b3914610259578063715018a61461026c5780638705fcd41461027457600080fd5b806308b4e2a61461012657806319f373611461013b5780631ac3ddeb1461016357806330f738be14610176575b600080fd5b61013961013436600461215e565b610357565b005b61014e6101493660046121a5565b610904565b60405190151581526020015b60405180910390f35b6101396101713660046121a5565b6109c3565b6101396101843660046121d4565b610adc565b61019c61019736600461220b565b610b5b565b604080519a15158b5298151560208b01526001600160401b03978816988a01989098529490951660608801526001600160a01b03928316608088015290821660a087015260c086015260e0850192909252610100840152166101208201526101400161015a565b6102396102113660046121a5565b6004602052600090815260409020805460019091015460ff821691610100900461ffff169083565b60408051931515845261ffff90921660208401529082015260600161015a565b610139610267366004612248565b610be8565b6101396110ae565b6101396102823660046121a5565b6110c2565b6000546001600160a01b03165b6040516001600160a01b03909116815260200161015a565b6101396102ba3660046122c0565b6110ec565b6102946102cd3660046122f5565b61159c565b6101396102e036600461230e565b6115c6565b6101396102f336600461236f565b611971565b6101396103063660046121a5565b611a51565b61019c61031936600461220b565b611af7565b61013961032c3660046123ad565b611b13565b61029461033f3660046122f5565b611fc8565b6101396103523660046121a5565b611fd8565b6002600154036103825760405162461bcd60e51b8152600401610379906123f3565b60405180910390fd5b600260015561039083610904565b6103ac5760405162461bcd60e51b81526004016103799061242a565b6000826103f9576001600160a01b038416600090815260036020526040902080546001600160401b0384169081106103e6576103e6612452565b906000526020600020906007020161043b565b6001600160a01b038416600090815260026020526040902080546001600160401b03841690811061042c5761042c612452565b90600052602060002090600702015b6040805161014081018252825460ff80821615158352610100808304909116151560208401526001600160401b03620100008304811694840194909452600160501b909104909216606082015260018301546001600160a01b03908116608083018190526002850154821660a0840152600385015460c0840152600485015460e08401526005850154938301939093526006909301549092166101208301529091503314806104f6575060a08101516001600160a01b031633145b6105385760405162461bcd60e51b815260206004820152601360248201527210d85b98d95b081d5b985d5d1a1bdc9a5e9959606a1b6044820152606401610379565b60008152821561071d5761010081015160405163a9059cbb60e01b815233600482015260248101919091526001600160a01b0385169063a9059cbb906044016020604051808303816000875af1158015610596573d6000803e3d6000fd5b505050506040513d601f19601f820116820180604052508101906105ba9190612468565b506001600160a01b038416600090815260026020526040902080548291906001600160401b0385169081106105f1576105f1612452565b6000918252602091829020835160079290920201805492840151604080860151606087015161ffff1990961694151561ff0019169490941761010092151583021762010000600160901b031916620100006001600160401b039586160267ffffffffffffffff60501b191617600160501b949095169390930293909317815560808401516001820180546001600160a01b03199081166001600160a01b039384161790915560a0860151600284018054831691841691909117905560c0860151600384015560e0860151600484015593850151600583015561012090940151600690910180549093169316929092179055517f9b3589e58cfaae811e95372b148d4048358e808d0c0af452b23f9d4620f8a23e90610710908390612485565b60405180910390a16108fa565b61012081015160e082015160405163a9059cbb60e01b815233600482015260248101919091526001600160a01b039091169063a9059cbb906044016020604051808303816000875af1158015610777573d6000803e3d6000fd5b505050506040513d601f19601f8201168201806040525081019061079b9190612468565b506001600160a01b038416600090815260036020526040902080548291906001600160401b0385169081106107d2576107d2612452565b6000918252602091829020835160079290920201805492840151604080860151606087015161ffff1990961694151561ff0019169490941761010092151583021762010000600160901b031916620100006001600160401b039586160267ffffffffffffffff60501b191617600160501b949095169390930293909317815560808401516001820180546001600160a01b03199081166001600160a01b039384161790915560a0860151600284018054831691841691909117905560c0860151600384015560e0860151600484015593850151600583015561012090940151600690910180549093169316929092179055517fb95b9053e8e235c5fb04aa72707d183a8eba7f5f7847a660f916fdf159927cc8906108f1908390612485565b60405180910390a15b5050600180555050565b600080600580548060200260200160405190810160405280929190818152602001828054801561095d57602002820191906000526020600020905b81546001600160a01b0316815260019091019060200180831161093f575b505083519394506000925050505b818110156109b857846001600160a01b031683828151811061098f5761098f612452565b60200260200101516001600160a01b0316036109b057506001949350505050565b60010161096b565b506000949350505050565b6109cb612051565b6001600160a01b038181166000818152600460208181526040928390208351606081018552815460ff811615158252610100900461ffff169281019290925260010154818401819052600754935163a9059cbb60e01b81529390951691830191909152602482019390935263a9059cbb906044016020604051808303816000875af1158015610a5e573d6000803e3d6000fd5b505050506040513d601f19601f82011682018060405250810190610a829190612468565b50600060408083018281526001600160a01b03909416825260046020908152912082518154929093015161ffff166101000262ffff00199315159390931662ffffff19909216919091179190911781559051600190910155565b610ae4612051565b6101f48261ffff1610610b285760405162461bcd60e51b815260206004820152600c60248201526b08ccaca40a8dede40d0d2ced60a31b6044820152606401610379565b6001600160a01b03166000908152600460205260409020805461ffff9092166101000262ffff0019909216919091179055565b60026020528160005260406000208181548110610b7757600080fd5b6000918252602090912060079091020180546001820154600283015460038401546004850154600586015460069096015460ff808716995061010087041697506001600160401b03620100008704811697600160501b90970416956001600160a01b0395861695948516949091168a565b600260015403610c0a5760405162461bcd60e51b8152600401610379906123f3565b60026001556103e88511610c545760405162461bcd60e51b815260206004820152601160248201527053656c6c507269636520746f6f206c6f7760781b6044820152606401610379565b610c5d88610904565b610ca05760405162461bcd60e51b8152602060048201526014602482015273151bdad95b88139bdd08149959da5cdd195c995960621b6044820152606401610379565b6001600160a01b0387166000908152600460209081526040918290208251606081018452815460ff8116151580835261010090910461ffff169382019390935260019091015492810192909252610d325760405162461bcd60e51b815260206004820152601660248201527510dd5c9c995b98de481b9bdd081d1bdb195c985d195960521b6044820152606401610379565b6001600160a01b03891660008181526002602052604090819020549051630648e97f60e31b815233600482015230602482018190526044820152606481018a90526084810188905260ff871660a482015260c4810186905260e481018590529091906332474bf89061010401600060405180830381600087803b158015610db857600080fd5b505af1158015610dcc573d6000803e3d6000fd5b505050506000610de08884602001516120ab565b9050600260008c6001600160a01b03166001600160a01b03168152602001908152602001600020604051806101400160405280600115158152602001600015158152602001846001600160401b03168152602001426001600160401b03168152602001336001600160a01b0316815260200160006001600160a01b031681526020018381526020018a81526020018b81526020018c6001600160a01b0316815250908060018154018082558091505060019003906000526020600020906007020160009091909190915060008201518160000160006101000a81548160ff02191690831515021790555060208201518160000160016101000a81548160ff02191690831515021790555060408201518160000160026101000a8154816001600160401b0302191690836001600160401b03160217905550606082015181600001600a6101000a8154816001600160401b0302191690836001600160401b0316021790555060808201518160010160006101000a8154816001600160a01b0302191690836001600160a01b0316021790555060a08201518160020160006101000a8154816001600160a01b0302191690836001600160a01b0316021790555060c0820151816003015560e0820151816004015561010082015181600501556101208201518160060160006101000a8154816001600160a01b0302191690836001600160a01b0316021790555050507f3b24c5db8e1f8aaec17cd20d4e148ad8ee3909fd0c9a1f6a86b1e900a49ef6b7604051806101400160405280600115158152602001600015158152602001846001600160401b03168152602001426001600160401b03168152602001336001600160a01b0316815260200160006001600160a01b031681526020018381526020018a81526020018b81526020018c6001600160a01b03168152506040516110959190612485565b60405180910390a1505060018055505050505050505050565b6110b6612051565b6110c060006120cf565b565b6110ca612051565b600780546001600160a01b0319166001600160a01b0392909216919091179055565b60026001540361110e5760405162461bcd60e51b8152600401610379906123f3565b600260015561111c82610904565b6111385760405162461bcd60e51b81526004016103799061242a565b6001600160a01b038216600090815260026020526040812080546001600160401b03841690811061116b5761116b612452565b600091825260209182902060408051610140810182526007909302909101805460ff80821615158086526101008084049092161515968601969096526001600160401b03620100008304811694860194909452600160501b909104909216606084015260018101546001600160a01b0390811660808501526002820154811660a0850152600382015460c0850152600482015460e0850152600582015492840192909252600601541661012082015291506112565760405162461bcd60e51b815260206004820152600b60248201526a13dc99195c90db1bdcd95960aa1b6044820152606401610379565b3360a08201819052600160208301526000825261012082015160e08301516040516323b872dd60e01b8152600481019390935230602484015260448301526001600160a01b0316906323b872dd906064016020604051808303816000875af11580156112c6573d6000803e3d6000fd5b505050506040513d601f19601f820116820180604052508101906112ea9190612468565b508061012001516001600160a01b031663a9059cbb82608001518360c001518460e001516113189190612569565b6040516001600160e01b031960e085901b1681526001600160a01b03909216600483015260248201526044016020604051808303816000875af1158015611363573d6000803e3d6000fd5b505050506040513d601f19601f820116820180604052508101906113879190612468565b5060c08101516101208201516001600160a01b0316600090815260046020526040812060010180549091906113bd908490612580565b90915550506001600160a01b038316600090815260026020526040902080548291906001600160401b0385169081106113f8576113f8612452565b6000918252602091829020835160079290920201805492840151604080860151606087015161ffff1990961694151561ff0019169490941761010092151583021762010000600160901b031916620100006001600160401b039586160267ffffffffffffffff60501b191617600160501b949095169390930293909317815560808401516001820180546001600160a01b03199081166001600160a01b039384161790915560a0860151600284018054831691841691909117905560c0860151600384015560e086015160048085019190915585870151600585015561012090960151600690930180549091169282169290921790915591840151905163a9059cbb60e01b81523393810193909352602483015284169063a9059cbb906044016020604051808303816000875af1158015611537573d6000803e3d6000fd5b505050506040513d601f19601f8201168201806040525081019061155b9190612468565b507fb6432e18a59c31eafbe7fea705a495b38ea4992c69bdc678262b38ddc31c2d218160405161158b9190612485565b60405180910390a150506001805550565b600581815481106115ac57600080fd5b6000918252602090912001546001600160a01b0316905081565b6002600154036115e85760405162461bcd60e51b8152600401610379906123f3565b60026001556115f686610904565b6116125760405162461bcd60e51b81526004016103799061242a565b6001600160a01b038616600090815260036020526040812080546001600160401b03881690811061164557611645612452565b60009182526020909120600790910201805490915060ff166116975760405162461bcd60e51b815260206004820152600b60248201526a13dc99195c90db1bdcd95960aa1b6044820152606401610379565b60028101546001600160a01b03166116e15760405162461bcd60e51b815260206004820152600d60248201526c57726f6e67206164647265737360981b6044820152606401610379565b6001810180546001600160a01b03191633908117909155815461ffff19166101001782556006820154600383015460048401546001600160a01b03929092169263a9059cbb92909161173291612569565b6040516001600160e01b031960e085901b1681526001600160a01b03909216600483015260248201526044016020604051808303816000875af115801561177d573d6000803e3d6000fd5b505050506040513d601f19601f820116820180604052508101906117a19190612468565b50600381015460068201546001600160a01b0316600090815260046020526040812060010180549091906117d6908490612580565b90915550506001600160a01b038716600090815260036020526040902080548291906001600160401b03891690811061181157611811612452565b600091825260209091208254600790920201805460ff928316151560ff19821681178355845461010090819004909416151590930261ff001990931661ffff19909116179190911780825582546001600160401b036201000091829004811690910269ffffffffffffffff0000198316811784558454600160501b9081900490921690910267ffffffffffffffff60501b1990911662010000600160901b03199092169190911717815560018083015490820180546001600160a01b03199081166001600160a01b03938416179091556002808501549084018054831691841691909117905560038085015490840155600480850154908401556005808501549084015560069384015493909201805490921692169190911790556040517f127e23dc5aa74346dfbee84f2e6e25abf5f06e34ad3beea66e7363e53ff513599061195c908390612598565b60405180910390a15050600180555050505050565b611979612051565b6001600160a01b03831660009081526004602052604090205460ff166119e557600580546001810182556000919091527f036b6384b5eca791c62761152d0c79bb0604c104a5fb6f4eb0703f3154bb3db00180546001600160a01b0319166001600160a01b0385161790555b60408051606081018252600180825261ffff94851660208084019182528385019586526001600160a01b0397909716600090815260049097529290952090518154925162ffffff1990931690151562ffff00191617610100929094169190910292909217825551910155565b611a59612051565b611a6281610904565b15611aa55760405162461bcd60e51b8152602060048201526013602482015272151bdad95b88185b1c9958591e481859191959606a1b6044820152606401610379565b600580546001810182556000919091527f036b6384b5eca791c62761152d0c79bb0604c104a5fb6f4eb0703f3154bb3db00180546001600160a01b0319166001600160a01b0392909216919091179055565b60036020528160005260406000208181548110610b7757600080fd5b600260015403611b355760405162461bcd60e51b8152600401610379906123f3565b60026001556103e88111611b7f5760405162461bcd60e51b815260206004820152601160248201527053656c6c507269636520746f6f206c6f7760781b6044820152606401610379565b611b8884610904565b611bcb5760405162461bcd60e51b8152602060048201526014602482015273151bdad95b88139bdd08149959da5cdd195c995960621b6044820152606401610379565b6001600160a01b0383166000908152600460209081526040918290208251606081018452815460ff8116151580835261010090910461ffff169382019390935260019091015492810192909252611c5d5760405162461bcd60e51b815260206004820152601660248201527510dd5c9c995b98de481b9bdd081d1bdb195c985d195960521b6044820152606401610379565b6000611c6d8383602001516120ab565b6040516323b872dd60e01b8152336004820152306024820152604481018590529091506001600160a01b038616906323b872dd906064016020604051808303816000875af1158015611cc3573d6000803e3d6000fd5b505050506040513d601f19601f82011682018060405250810190611ce79190612468565b50600060036000886001600160a01b03166001600160a01b0316815260200190815260200160002080549050905060036000886001600160a01b03166001600160a01b03168152602001908152602001600020604051806101400160405280600115158152602001600015158152602001836001600160401b03168152602001426001600160401b0316815260200160006001600160a01b03168152602001336001600160a01b03168152602001848152602001868152602001878152602001886001600160a01b0316815250908060018154018082558091505060019003906000526020600020906007020160009091909190915060008201518160000160006101000a81548160ff02191690831515021790555060208201518160000160016101000a81548160ff02191690831515021790555060408201518160000160026101000a8154816001600160401b0302191690836001600160401b03160217905550606082015181600001600a6101000a8154816001600160401b0302191690836001600160401b0316021790555060808201518160010160006101000a8154816001600160a01b0302191690836001600160a01b0316021790555060a08201518160020160006101000a8154816001600160a01b0302191690836001600160a01b0316021790555060c0820151816003015560e0820151816004015561010082015181600501556101208201518160060160006101000a8154816001600160a01b0302191690836001600160a01b0316021790555050507fa23adb6634e58bf746cbb87e2f83ff7c3ba3201ab3f5f6cd04188a2acda98450604051806101400160405280600115158152602001600015158152602001836001600160401b03168152602001426001600160401b0316815260200160006001600160a01b03168152602001336001600160a01b03168152602001848152602001868152602001878152602001886001600160a01b031681525060405161195c9190612485565b600681815481106115ac57600080fd5b611fe0612051565b6001600160a01b0381166120455760405162461bcd60e51b815260206004820152602660248201527f4f776e61626c653a206e6577206f776e657220697320746865207a65726f206160448201526564647265737360d01b6064820152608401610379565b61204e816120cf565b50565b6000546001600160a01b031633146110c05760405162461bcd60e51b815260206004820181905260248201527f4f776e61626c653a2063616c6c6572206973206e6f7420746865206f776e65726044820152606401610379565b60006103e86120be61ffff84168561262f565b6120c8919061264e565b9392505050565b600080546001600160a01b038381166001600160a01b0319831681178455604051919092169283917f8be0079c531659141344cd1fd0a4f28419497f9722a3daafe3b4186f6b6457e09190a35050565b6001600160a01b038116811461204e57600080fd5b801515811461204e57600080fd5b80356001600160401b038116811461215957600080fd5b919050565b60008060006060848603121561217357600080fd5b833561217e8161211f565b9250602084013561218e81612134565b915061219c60408501612142565b90509250925092565b6000602082840312156121b757600080fd5b81356120c88161211f565b803561ffff8116811461215957600080fd5b600080604083850312156121e757600080fd5b6121f0836121c2565b915060208301356122008161211f565b809150509250929050565b6000806040838503121561221e57600080fd5b82356122298161211f565b946020939093013593505050565b803560ff8116811461215957600080fd5b600080600080600080600080610100898b03121561226557600080fd5b88356122708161211f565b975060208901356122808161211f565b96506040890135955060608901359450608089013593506122a360a08a01612237565b925060c0890135915060e089013590509295985092959890939650565b600080604083850312156122d357600080fd5b82356122de8161211f565b91506122ec60208401612142565b90509250929050565b60006020828403121561230757600080fd5b5035919050565b60008060008060008060c0878903121561232757600080fd5b86356123328161211f565b955061234060208801612142565b94506040870135935061235560608801612237565b92506080870135915060a087013590509295509295509295565b60008060006060848603121561238457600080fd5b833561238f8161211f565b925061239d602085016121c2565b9150604084013590509250925092565b600080600080608085870312156123c357600080fd5b84356123ce8161211f565b935060208501356123de8161211f565b93969395505050506040820135916060013590565b6020808252601f908201527f5265656e7472616e637947756172643a207265656e7472616e742063616c6c00604082015260600190565b6020808252600e908201526d151bdad95b88155b9b1a5cdd195960921b604082015260600190565b634e487b7160e01b600052603260045260246000fd5b60006020828403121561247a57600080fd5b81516120c881612134565b815115158152610140810160208301516124a3602084018215159052565b5060408301516124be60408401826001600160401b03169052565b5060608301516124d960608401826001600160401b03169052565b5060808301516124f460808401826001600160a01b03169052565b5060a083015161250f60a08401826001600160a01b03169052565b5060c083015160c083015260e083015160e08301526101008084015181840152506101208084015161254b828501826001600160a01b03169052565b505092915050565b634e487b7160e01b600052601160045260246000fd5b60008282101561257b5761257b612553565b500390565b6000821982111561259357612593612553565b500190565b815460ff8116151582526101408201906125bc6020840160ff8360081c1615159052565b6001600160401b03601082901c8116604085015260509190911c16606083015260018301546001600160a01b0390811660808401526002840154811660a0840152600384015460c0840152600484015460e084015260058401546101008401526006909301549092166101209091015290565b600081600019048311821515161561264957612649612553565b500290565b60008261266b57634e487b7160e01b600052601260045260246000fd5b50049056fea264697066735822122061adfe5862f4d0417c358fcaef4a2505e12021d5a01b2a754884357beb666c1764736f6c634300080e0033",
    "linkReferences": {}
  },
  "methodIdentifiers": {
    "addToken(address)": "d48bfca7",
    "buy(address,uint64)": "9a83aa8b",
    "buyOrderByToken(address,uint256)": "d59a83bb",
    "cancelOrder(address,bool,uint64)": "08b4e2a6",
    "currenciesUsed(uint256)": "f110fb56",
    "currencyByLink(address)": "6afb2a55",
    "initBuyOrder(address,address,uint256,uint256)": "de8645e6",
    "initSellOrder(address,address,uint256,uint256,uint256,uint8,bytes32,bytes32)": "6bdf6b39",
    "isToken(address)": "19f37361",
    "owner()": "8da5cb5b",
    "renounceOwnership()": "715018a6",
    "sell(address,uint64,uint256,uint8,bytes32,bytes32)": "d28c3a9b",
    "sellOrderByToken(address,uint256)": "4303d9d9",
    "setCurrency(address,uint16,uint256)": "d38d0b45",
    "setFee(uint16,address)": "30f738be",
    "setFeeAddress(address)": "8705fcd4",
    "tokenList(uint256)": "9ead7222",
    "transferOwnership(address)": "f2fde38b",
    "withdrawFee(address)": "1ac3ddeb"
  },
  "id": 19
}