{
  "abi": [
    {
      "inputs": [
        {
          "internalType": "address",
          "name": "_currencyUsed",
          "type": "address"
        },
        {
          "internalType": "address",
          "name": "_feeAddress",
          "type": "address"
        },
        {
          "internalType": "uint16",
          "name": "feex10",
          "type": "uint16"
        }
      ],
      "stateMutability": "nonpayable",
      "type": "constructor"
    },
    {
      "anonymous": false,
      "inputs": [
        {
          "components": [
            {
              "internalType": "bool",
              "name": "open",
              "type": "bool"
            },
            {
              "internalType": "bool",
              "name": "propositionAccepted",
              "type": "bool"
            },
            {
              "internalType": "uint64",
              "name": "index",
              "type": "uint64"
            },
            {
              "internalType": "uint64",
              "name": "date",
              "type": "uint64"
            },
            {
              "internalType": "uint128",
              "name": "fee",
              "type": "uint128"
            },
            {
              "internalType": "address",
              "name": "seller",
              "type": "address"
            },
            {
              "internalType": "address",
              "name": "buyer",
              "type": "address"
            },
            {
              "internalType": "uint256",
              "name": "price",
              "type": "uint256"
            },
            {
              "internalType": "uint256",
              "name": "amount",
              "type": "uint256"
            },
            {
              "internalType": "contract IERC20",
              "name": "currency",
              "type": "address"
            }
          ],
          "indexed": false,
          "internalType": "struct orderInfo",
          "name": "",
          "type": "tuple"
        }
      ],
      "name": "BuyOrderAccepted",
      "type": "event"
    },
    {
      "anonymous": false,
      "inputs": [
        {
          "components": [
            {
              "internalType": "bool",
              "name": "open",
              "type": "bool"
            },
            {
              "internalType": "bool",
              "name": "propositionAccepted",
              "type": "bool"
            },
            {
              "internalType": "uint64",
              "name": "index",
              "type": "uint64"
            },
            {
              "internalType": "uint64",
              "name": "date",
              "type": "uint64"
            },
            {
              "internalType": "uint128",
              "name": "fee",
              "type": "uint128"
            },
            {
              "internalType": "address",
              "name": "seller",
              "type": "address"
            },
            {
              "internalType": "address",
              "name": "buyer",
              "type": "address"
            },
            {
              "internalType": "uint256",
              "name": "price",
              "type": "uint256"
            },
            {
              "internalType": "uint256",
              "name": "amount",
              "type": "uint256"
            },
            {
              "internalType": "contract IERC20",
              "name": "currency",
              "type": "address"
            }
          ],
          "indexed": false,
          "internalType": "struct orderInfo",
          "name": "",
          "type": "tuple"
        }
      ],
      "name": "BuyOrderCancelled",
      "type": "event"
    },
    {
      "anonymous": false,
      "inputs": [
        {
          "components": [
            {
              "internalType": "bool",
              "name": "open",
              "type": "bool"
            },
            {
              "internalType": "bool",
              "name": "propositionAccepted",
              "type": "bool"
            },
            {
              "internalType": "uint64",
              "name": "index",
              "type": "uint64"
            },
            {
              "internalType": "uint64",
              "name": "date",
              "type": "uint64"
            },
            {
              "internalType": "uint128",
              "name": "fee",
              "type": "uint128"
            },
            {
              "internalType": "address",
              "name": "seller",
              "type": "address"
            },
            {
              "internalType": "address",
              "name": "buyer",
              "type": "address"
            },
            {
              "internalType": "uint256",
              "name": "price",
              "type": "uint256"
            },
            {
              "internalType": "uint256",
              "name": "amount",
              "type": "uint256"
            },
            {
              "internalType": "contract IERC20",
              "name": "currency",
              "type": "address"
            }
          ],
          "indexed": false,
          "internalType": "struct orderInfo",
          "name": "",
          "type": "tuple"
        }
      ],
      "name": "BuyOrderInitiated",
      "type": "event"
    },
    {
      "anonymous": false,
      "inputs": [
        {
          "indexed": true,
          "internalType": "address",
          "name": "previousOwner",
          "type": "address"
        },
        {
          "indexed": true,
          "internalType": "address",
          "name": "newOwner",
          "type": "address"
        }
      ],
      "name": "OwnershipTransferred",
      "type": "event"
    },
    {
      "anonymous": false,
      "inputs": [
        {
          "components": [
            {
              "internalType": "bool",
              "name": "open",
              "type": "bool"
            },
            {
              "internalType": "bool",
              "name": "propositionAccepted",
              "type": "bool"
            },
            {
              "internalType": "uint64",
              "name": "index",
              "type": "uint64"
            },
            {
              "internalType": "uint64",
              "name": "date",
              "type": "uint64"
            },
            {
              "internalType": "uint128",
              "name": "fee",
              "type": "uint128"
            },
            {
              "internalType": "address",
              "name": "seller",
              "type": "address"
            },
            {
              "internalType": "address",
              "name": "buyer",
              "type": "address"
            },
            {
              "internalType": "uint256",
              "name": "price",
              "type": "uint256"
            },
            {
              "internalType": "uint256",
              "name": "amount",
              "type": "uint256"
            },
            {
              "internalType": "contract IERC20",
              "name": "currency",
              "type": "address"
            }
          ],
          "indexed": false,
          "internalType": "struct orderInfo",
          "name": "",
          "type": "tuple"
        }
      ],
      "name": "SellOrderAccepted",
      "type": "event"
    },
    {
      "anonymous": false,
      "inputs": [
        {
          "components": [
            {
              "internalType": "bool",
              "name": "open",
              "type": "bool"
            },
            {
              "internalType": "bool",
              "name": "propositionAccepted",
              "type": "bool"
            },
            {
              "internalType": "uint64",
              "name": "index",
              "type": "uint64"
            },
            {
              "internalType": "uint64",
              "name": "date",
              "type": "uint64"
            },
            {
              "internalType": "uint128",
              "name": "fee",
              "type": "uint128"
            },
            {
              "internalType": "address",
              "name": "seller",
              "type": "address"
            },
            {
              "internalType": "address",
              "name": "buyer",
              "type": "address"
            },
            {
              "internalType": "uint256",
              "name": "price",
              "type": "uint256"
            },
            {
              "internalType": "uint256",
              "name": "amount",
              "type": "uint256"
            },
            {
              "internalType": "contract IERC20",
              "name": "currency",
              "type": "address"
            }
          ],
          "indexed": false,
          "internalType": "struct orderInfo",
          "name": "",
          "type": "tuple"
        }
      ],
      "name": "SellOrderCancelled",
      "type": "event"
    },
    {
      "anonymous": false,
      "inputs": [
        {
          "components": [
            {
              "internalType": "bool",
              "name": "open",
              "type": "bool"
            },
            {
              "internalType": "bool",
              "name": "propositionAccepted",
              "type": "bool"
            },
            {
              "internalType": "uint64",
              "name": "index",
              "type": "uint64"
            },
            {
              "internalType": "uint64",
              "name": "date",
              "type": "uint64"
            },
            {
              "internalType": "uint128",
              "name": "fee",
              "type": "uint128"
            },
            {
              "internalType": "address",
              "name": "seller",
              "type": "address"
            },
            {
              "internalType": "address",
              "name": "buyer",
              "type": "address"
            },
            {
              "internalType": "uint256",
              "name": "price",
              "type": "uint256"
            },
            {
              "internalType": "uint256",
              "name": "amount",
              "type": "uint256"
            },
            {
              "internalType": "contract IERC20",
              "name": "currency",
              "type": "address"
            }
          ],
          "indexed": false,
          "internalType": "struct orderInfo",
          "name": "",
          "type": "tuple"
        }
      ],
      "name": "SellOrderInitiated",
      "type": "event"
    },
    {
      "inputs": [
        {
          "internalType": "contract IERC20",
          "name": "token",
          "type": "address"
        }
      ],
      "name": "addToken",
      "outputs": [],
      "stateMutability": "nonpayable",
      "type": "function"
    },
    {
      "inputs": [
        {
          "internalType": "address",
          "name": "token",
          "type": "address"
        },
        {
          "internalType": "uint64",
          "name": "index",
          "type": "uint64"
        }
      ],
      "name": "buy",
      "outputs": [],
      "stateMutability": "nonpayable",
      "type": "function"
    },
    {
      "inputs": [
        {
          "internalType": "address",
          "name": "",
          "type": "address"
        },
        {
          "internalType": "uint256",
          "name": "",
          "type": "uint256"
        }
      ],
      "name": "buyOrderByToken",
      "outputs": [
        {
          "internalType": "bool",
          "name": "open",
          "type": "bool"
        },
        {
          "internalType": "bool",
          "name": "propositionAccepted",
          "type": "bool"
        },
        {
          "internalType": "uint64",
          "name": "index",
          "type": "uint64"
        },
        {
          "internalType": "uint64",
          "name": "date",
          "type": "uint64"
        },
        {
          "internalType": "uint128",
          "name": "fee",
          "type": "uint128"
        },
        {
          "internalType": "address",
          "name": "seller",
          "type": "address"
        },
        {
          "internalType": "address",
          "name": "buyer",
          "type": "address"
        },
        {
          "internalType": "uint256",
          "name": "price",
          "type": "uint256"
        },
        {
          "internalType": "uint256",
          "name": "amount",
          "type": "uint256"
        },
        {
          "internalType": "contract IERC20",
          "name": "currency",
          "type": "address"
        }
      ],
      "stateMutability": "view",
      "type": "function"
    },
    {
      "inputs": [
        {
          "internalType": "address",
          "name": "token",
          "type": "address"
        },
        {
          "internalType": "bool",
          "name": "TrueForSellFalseForBuy",
          "type": "bool"
        },
        {
          "internalType": "uint64",
          "name": "index",
          "type": "uint64"
        }
      ],
      "name": "cancelOrder",
      "outputs": [],
      "stateMutability": "nonpayable",
      "type": "function"
    },
    {
      "inputs": [
        {
          "internalType": "uint256",
          "name": "",
          "type": "uint256"
        }
      ],
      "name": "currenciesUsed",
      "outputs": [
        {
          "internalType": "contract IERC20",
          "name": "",
          "type": "address"
        }
      ],
      "stateMutability": "view",
      "type": "function"
    },
    {
      "inputs": [
        {
          "internalType": "address",
          "name": "",
          "type": "address"
        }
      ],
      "name": "currencyByLink",
      "outputs": [
        {
          "internalType": "bool",
          "name": "exist",
          "type": "bool"
        },
        {
          "internalType": "uint16",
          "name": "feeX10",
          "type": "uint16"
        },
        {
          "internalType": "uint256",
          "name": "feePot",
          "type": "uint256"
        }
      ],
      "stateMutability": "view",
      "type": "function"
    },
    {
      "inputs": [
        {
          "internalType": "address",
          "name": "token",
          "type": "address"
        },
        {
          "internalType": "address",
          "name": "currencyWanted",
          "type": "address"
        },
        {
          "internalType": "uint256",
          "name": "amount",
          "type": "uint256"
        },
        {
          "internalType": "uint256",
          "name": "sellPrice",
          "type": "uint256"
        }
      ],
      "name": "initBuyOrder",
      "outputs": [],
      "stateMutability": "nonpayable",
      "type": "function"
    },
    {
      "inputs": [
        {
          "internalType": "address",
          "name": "token",
          "type": "address"
        },
        {
          "internalType": "address",
          "name": "currencyWanted",
          "type": "address"
        },
        {
          "internalType": "uint256",
          "name": "amount",
          "type": "uint256"
        },
        {
          "internalType": "uint256",
          "name": "sellPrice",
          "type": "uint256"
        },
        {
          "internalType": "uint256",
          "name": "deadline",
          "type": "uint256"
        },
        {
          "internalType": "uint8",
          "name": "v",
          "type": "uint8"
        },
        {
          "internalType": "bytes32",
          "name": "r",
          "type": "bytes32"
        },
        {
          "internalType": "bytes32",
          "name": "s",
          "type": "bytes32"
        }
      ],
      "name": "initSellOrder",
      "outputs": [],
      "stateMutability": "nonpayable",
      "type": "function"
    },
    {
      "inputs": [
        {
          "internalType": "contract IERC20",
          "name": "token",
          "type": "address"
        }
      ],
      "name": "isToken",
      "outputs": [
        {
          "internalType": "bool",
          "name": "",
          "type": "bool"
        }
      ],
      "stateMutability": "view",
      "type": "function"
    },
    {
      "inputs": [],
      "name": "owner",
      "outputs": [
        {
          "internalType": "address",
          "name": "",
          "type": "address"
        }
      ],
      "stateMutability": "view",
      "type": "function"
    },
    {
      "inputs": [],
      "name": "renounceOwnership",
      "outputs": [],
      "stateMutability": "nonpayable",
      "type": "function"
    },
    {
      "inputs": [
        {
          "internalType": "address",
          "name": "token",
          "type": "address"
        },
        {
          "internalType": "uint64",
          "name": "index",
          "type": "uint64"
        },
        {
          "internalType": "uint256",
          "name": "deadline",
          "type": "uint256"
        },
        {
          "internalType": "uint8",
          "name": "v",
          "type": "uint8"
        },
        {
          "internalType": "bytes32",
          "name": "r",
          "type": "bytes32"
        },
        {
          "internalType": "bytes32",
          "name": "s",
          "type": "bytes32"
        }
      ],
      "name": "sell",
      "outputs": [],
      "stateMutability": "nonpayable",
      "type": "function"
    },
    {
      "inputs": [
        {
          "internalType": "address",
          "name": "",
          "type": "address"
        },
        {
          "internalType": "uint256",
          "name": "",
          "type": "uint256"
        }
      ],
      "name": "sellOrderByToken",
      "outputs": [
        {
          "internalType": "bool",
          "name": "open",
          "type": "bool"
        },
        {
          "internalType": "bool",
          "name": "propositionAccepted",
          "type": "bool"
        },
        {
          "internalType": "uint64",
          "name": "index",
          "type": "uint64"
        },
        {
          "internalType": "uint64",
          "name": "date",
          "type": "uint64"
        },
        {
          "internalType": "uint128",
          "name": "fee",
          "type": "uint128"
        },
        {
          "internalType": "address",
          "name": "seller",
          "type": "address"
        },
        {
          "internalType": "address",
          "name": "buyer",
          "type": "address"
        },
        {
          "internalType": "uint256",
          "name": "price",
          "type": "uint256"
        },
        {
          "internalType": "uint256",
          "name": "amount",
          "type": "uint256"
        },
        {
          "internalType": "contract IERC20",
          "name": "currency",
          "type": "address"
        }
      ],
      "stateMutability": "view",
      "type": "function"
    },
    {
      "inputs": [
        {
          "internalType": "address",
          "name": "newCurrency",
          "type": "address"
        },
        {
          "internalType": "uint16",
          "name": "feeX10",
          "type": "uint16"
        },
        {
          "internalType": "uint256",
          "name": "feePot",
          "type": "uint256"
        }
      ],
      "name": "setCurrency",
      "outputs": [],
      "stateMutability": "nonpayable",
      "type": "function"
    },
    {
      "inputs": [
        {
          "internalType": "uint16",
          "name": "feePercentx10",
          "type": "uint16"
        },
        {
          "internalType": "address",
          "name": "currency",
          "type": "address"
        }
      ],
      "name": "setFee",
      "outputs": [],
      "stateMutability": "nonpayable",
      "type": "function"
    },
    {
      "inputs": [
        {
          "internalType": "address",
          "name": "newFeeAddress",
          "type": "address"
        }
      ],
      "name": "setFeeAddress",
      "outputs": [],
      "stateMutability": "nonpayable",
      "type": "function"
    },
    {
      "inputs": [
        {
          "internalType": "uint256",
          "name": "",
          "type": "uint256"
        }
      ],
      "name": "tokenList",
      "outputs": [
        {
          "internalType": "contract IERC20",
          "name": "",
          "type": "address"
        }
      ],
      "stateMutability": "view",
      "type": "function"
    },
    {
      "inputs": [
        {
          "internalType": "address",
          "name": "newOwner",
          "type": "address"
        }
      ],
      "name": "transferOwnership",
      "outputs": [],
      "stateMutability": "nonpayable",
      "type": "function"
    },
    {
      "inputs": [
        {
          "internalType": "address",
          "name": "currency",
          "type": "address"
        }
      ],
      "name": "withdrawFee",
      "outputs": [],
      "stateMutability": "nonpayable",
      "type": "function"
    }
  ],
  "bytecode": {
    "object": "0x60806040523480156200001157600080fd5b506040516200295338038062002953833981016040819052620000349162000171565b6200003f3362000104565b6001808055600680548083019091557ff652222313e28459528d920b65115c16c04f3efc82aaedc97be59f3f377c0d3f0180546001600160a01b039586166001600160a01b0319918216811790925560078054959096169416939093179093556040805160608101825284815261ffff928316602082810191825260008385018181529681526004909152929092209051815492519093166101000262ffff00199315159390931662ffffff19909216919091179190911781559051910155620001c5565b600080546001600160a01b038381166001600160a01b0319831681178455604051919092169283917f8be0079c531659141344cd1fd0a4f28419497f9722a3daafe3b4186f6b6457e09190a35050565b80516001600160a01b03811681146200016c57600080fd5b919050565b6000806000606084860312156200018757600080fd5b620001928462000154565b9250620001a26020850162000154565b9150604084015161ffff81168114620001ba57600080fd5b809150509250925092565b61277e80620001d56000396000f3fe608060405234801561001057600080fd5b50600436106101215760003560e01c80638da5cb5b116100ad578063d48bfca711610071578063d48bfca714610304578063d59a83bb14610317578063de8645e61461032a578063f110fb561461033d578063f2fde38b1461035057600080fd5b80638da5cb5b146102935780639a83aa8b146102b85780639ead7222146102cb578063d28c3a9b146102de578063d38d0b45146102f157600080fd5b80634303d9d9116100f45780634303d9d9146101895780636afb2a551461020f5780636bdf6b3914610265578063715018a6146102785780638705fcd41461028057600080fd5b806308b4e2a61461012657806319f373611461013b5780631ac3ddeb1461016357806330f738be14610176575b600080fd5b61013961013436600461227d565b610363565b005b61014e6101493660046122c4565b610951565b60405190151581526020015b60405180910390f35b6101396101713660046122c4565b610a10565b6101396101843660046122fa565b610b29565b61019c610197366004612331565b610ba8565b604080519a15158b5298151560208b01526001600160401b03978816988a01989098529490951660608801526001600160801b039290921660808701526001600160a01b0390811660a087015290811660c086015260e0850192909252610100840152166101208201526101400161015a565b61024561021d3660046122c4565b6004602052600090815260409020805460019091015460ff821691610100900461ffff169083565b60408051931515845261ffff90921660208401529082015260600161015a565b61013961027336600461236e565b610c41565b6101396110e6565b61013961028e3660046122c4565b6110fa565b6000546001600160a01b03165b6040516001600160a01b03909116815260200161015a565b6101396102c63660046123e6565b611124565b6102a06102d936600461241b565b611617565b6101396102ec366004612434565b611641565b6101396102ff366004612495565b611ab1565b6101396103123660046122c4565b611b91565b61019c610325366004612331565b611c37565b6101396103383660046124d3565b611c53565b6102a061034b36600461241b565b61210b565b61013961035e3660046122c4565b61211b565b60026001540361038e5760405162461bcd60e51b815260040161038590612519565b60405180910390fd5b600260015561039c83610951565b6103b85760405162461bcd60e51b815260040161038590612550565b600082610405576001600160a01b038416600090815260036020526040902080546001600160401b0384169081106103f2576103f2612578565b9060005260206000209060070201610447565b6001600160a01b038416600090815260026020526040902080546001600160401b03841690811061043857610438612578565b90600052602060002090600702015b6040805161014081018252825460ff80821615158352610100808304909116151560208401526001600160401b03620100008304811694840194909452600160501b909104909216606082015260018301546001600160801b0316608082015260028301546001600160a01b0390811660a083018190526003850154821660c0840152600485015460e084015260058501549383019390935260069093015490921661012083015290915033148061050b575060c08101516001600160a01b031633145b61054d5760405162461bcd60e51b815260206004820152601360248201527210d85b98d95b081d5b985d5d1a1bdc9a5e9959606a1b6044820152606401610385565b60008152821561074e5761010081015160405163a9059cbb60e01b815233600482015260248101919091526001600160a01b0385169063a9059cbb906044016020604051808303816000875af11580156105ab573d6000803e3d6000fd5b505050506040513d601f19601f820116820180604052508101906105cf919061258e565b506001600160a01b038416600090815260026020526040902080548291906001600160401b03851690811061060657610606612578565b6000918252602091829020835160079290920201805492840151604080860151606087015161ffff1990961694151561ff0019169490941761010092151583021762010000600160901b031916620100006001600160401b039586160267ffffffffffffffff60501b191617600160501b949095169390930293909317815560808401516001820180546001600160801b0319166001600160801b0390921691909117905560a08401516002820180546001600160a01b03199081166001600160a01b039384161790915560c0860151600384018054831691841691909117905560e0860151600484015593850151600583015561012090940151600690910180549093169316929092179055517feb0a3af4e1124d2365f0c7c4782bdfa5bcd835cb8c797809e04a142499c83c24906107419083906125ab565b60405180910390a1610947565b61012081015160e082015160405163a9059cbb60e01b815233600482015260248101919091526001600160a01b039091169063a9059cbb906044016020604051808303816000875af11580156107a8573d6000803e3d6000fd5b505050506040513d601f19601f820116820180604052508101906107cc919061258e565b506001600160a01b038416600090815260036020526040902080548291906001600160401b03851690811061080357610803612578565b6000918252602091829020835160079290920201805492840151604080860151606087015161ffff1990961694151561ff0019169490941761010092151583021762010000600160901b031916620100006001600160401b039586160267ffffffffffffffff60501b191617600160501b949095169390930293909317815560808401516001820180546001600160801b0319166001600160801b0390921691909117905560a08401516002820180546001600160a01b03199081166001600160a01b039384161790915560c0860151600384018054831691841691909117905560e0860151600484015593850151600583015561012090940151600690910180549093169316929092179055517f490bd9d5673e3c5bdfae6542da95d5d13df2272e05f264512c319791f3f3910f9061093e9083906125ab565b60405180910390a15b5050600180555050565b60008060058054806020026020016040519081016040528092919081815260200182805480156109aa57602002820191906000526020600020905b81546001600160a01b0316815260019091019060200180831161098c575b505083519394506000925050505b81811015610a0557846001600160a01b03168382815181106109dc576109dc612578565b60200260200101516001600160a01b0316036109fd57506001949350505050565b6001016109b8565b506000949350505050565b610a18612194565b6001600160a01b038181166000818152600460208181526040928390208351606081018552815460ff811615158252610100900461ffff169281019290925260010154818401819052600754935163a9059cbb60e01b81529390951691830191909152602482019390935263a9059cbb906044016020604051808303816000875af1158015610aab573d6000803e3d6000fd5b505050506040513d601f19601f82011682018060405250810190610acf919061258e565b50600060408083018281526001600160a01b03909416825260046020908152912082518154929093015161ffff166101000262ffff00199315159390931662ffffff19909216919091179190911781559051600190910155565b610b31612194565b6101f48261ffff1610610b755760405162461bcd60e51b815260206004820152600c60248201526b08ccaca40a8dede40d0d2ced60a31b6044820152606401610385565b6001600160a01b03166000908152600460205260409020805461ffff9092166101000262ffff0019909216919091179055565b60026020528160005260406000208181548110610bc457600080fd5b6000918252602090912060079091020180546001820154600283015460038401546004850154600586015460069096015460ff808716995061010087041697506001600160401b03620100008704811697600160501b90970416956001600160801b03909516946001600160a01b0394851694938416939091168a565b600260015403610c635760405162461bcd60e51b815260040161038590612519565b6002600155610c7188610951565b610cb45760405162461bcd60e51b8152602060048201526014602482015273151bdad95b88139bdd08149959da5cdd195c995960621b6044820152606401610385565b6001600160a01b0387166000908152600460209081526040918290208251606081018452815460ff8116151580835261010090910461ffff169382019390935260019091015492810192909252610d465760405162461bcd60e51b815260206004820152601660248201527510dd5c9c995b98de481b9bdd081d1bdb195c985d195960521b6044820152606401610385565b6001600160a01b0389166000818152600260205260409081902054905162aa3a7160e11b815290919063015474e290610d8f90339030908d908c908c908c908c90600401612681565b600060405180830381600087803b158015610da957600080fd5b505af1158015610dbd573d6000803e3d6000fd5b50505060208301516000915061ffff16610dd96103e88a6126d8565b610de391906126fa565b9050600260008c6001600160a01b03166001600160a01b03168152602001908152602001600020604051806101400160405280600115158152602001600015158152602001846001600160401b03168152602001426001600160401b03168152602001836001600160801b03168152602001336001600160a01b0316815260200160006001600160a01b031681526020018a81526020018b81526020018c6001600160a01b0316815250908060018154018082558091505060019003906000526020600020906007020160009091909190915060008201518160000160006101000a81548160ff02191690831515021790555060208201518160000160016101000a81548160ff02191690831515021790555060408201518160000160026101000a8154816001600160401b0302191690836001600160401b03160217905550606082015181600001600a6101000a8154816001600160401b0302191690836001600160401b0316021790555060808201518160010160006101000a8154816001600160801b0302191690836001600160801b0316021790555060a08201518160020160006101000a8154816001600160a01b0302191690836001600160a01b0316021790555060c08201518160030160006101000a8154816001600160a01b0302191690836001600160a01b0316021790555060e0820151816004015561010082015181600501556101208201518160060160006101000a8154816001600160a01b0302191690836001600160a01b0316021790555050507f9a001d1a6e61a780e6bc45b5f20646d4ccffbaf5024da4892f5acb2c944013e6604051806101400160405280600115158152602001600015158152602001846001600160401b03168152602001426001600160401b03168152602001836001600160801b03168152602001336001600160a01b0316815260200160006001600160a01b031681526020018a81526020018b81526020018c6001600160a01b03168152506040516110cd91906125ab565b60405180910390a1505060018055505050505050505050565b6110ee612194565b6110f860006121ee565b565b611102612194565b600780546001600160a01b0319166001600160a01b0392909216919091179055565b6002600154036111465760405162461bcd60e51b815260040161038590612519565b600260015561115482610951565b6111705760405162461bcd60e51b815260040161038590612550565b6001600160a01b038216600090815260026020526040812080546001600160401b0384169081106111a3576111a3612578565b600091825260209182902060408051610140810182526007909302909101805460ff80821615158086526101008084049092161515968601969096526001600160401b03620100008304811694860194909452600160501b909104909216606084015260018101546001600160801b0316608084015260028101546001600160a01b0390811660a08501526003820154811660c0850152600482015460e0850152600582015492840192909252600601541661012082015291506112975760405162461bcd60e51b815260206004820152600b60248201526a13dc99195c90db1bdcd95960aa1b6044820152606401610385565b3360c08201819052600160208301526000825261012082015160e08301516040516323b872dd60e01b8152600481019390935230602484015260448301526001600160a01b0316906323b872dd906064016020604051808303816000875af1158015611307573d6000803e3d6000fd5b505050506040513d601f19601f8201168201806040525081019061132b919061258e565b508061012001516001600160a01b031663a9059cbb8260a0015183608001516001600160801b03168460e001516113629190612719565b6040516001600160e01b031960e085901b1681526001600160a01b03909216600483015260248201526044016020604051808303816000875af11580156113ad573d6000803e3d6000fd5b505050506040513d601f19601f820116820180604052508101906113d1919061258e565b5080608001516001600160801b0316600460008361012001516001600160a01b03166001600160a01b03168152602001908152602001600020600101600082825461141c9190612730565b90915550506001600160a01b038316600090815260026020526040902080548291906001600160401b03851690811061145757611457612578565b6000918252602091829020835160079290920201805492840151604080860151606087015161ffff1990961694151561ff0019169490941761010092151583021762010000600160901b031916620100006001600160401b039586160267ffffffffffffffff60501b191617600160501b949095169390930293909317815560808401516001820180546001600160801b0319166001600160801b0390921691909117905560a08401516002820180546001600160a01b03199081166001600160a01b039384161790915560c0860151600384018054831691841691909117905560e086015160048085019190915585870151600585015561012090960151600690930180549091169282169290921790915591840151905163a9059cbb60e01b81523393810193909352602483015284169063a9059cbb906044016020604051808303816000875af11580156115b2573d6000803e3d6000fd5b505050506040513d601f19601f820116820180604052508101906115d6919061258e565b507f9c25bac5631b95759090fa14c9e7311af68f06699c63fd620f0e8851126c88fd8160405161160691906125ab565b60405180910390a150506001805550565b6005818154811061162757600080fd5b6000918252602090912001546001600160a01b0316905081565b6002600154036116635760405162461bcd60e51b815260040161038590612519565b600260015561167186610951565b61168d5760405162461bcd60e51b815260040161038590612550565b6001600160a01b038616600090815260036020526040812080546001600160401b0388169081106116c0576116c0612578565b600091825260209182902060408051610140810182526007909302909101805460ff80821615158086526101008084049092161515968601969096526001600160401b03620100008304811694860194909452600160501b909104909216606084015260018101546001600160801b0316608084015260028101546001600160a01b0390811660a08501526003820154811660c0850152600482015460e0850152600582015492840192909252600601541661012082015291506117b45760405162461bcd60e51b815260206004820152600b60248201526a13dc99195c90db1bdcd95960aa1b6044820152606401610385565b3360a08201819052600160208301526000825260c082015161010083015160405162aa3a7160e11b81526001600160a01b038b169363015474e2936118089391929091908b908b908b908b90600401612681565b600060405180830381600087803b15801561182257600080fd5b505af1158015611836573d6000803e3d6000fd5b505050508061012001516001600160a01b031663a9059cbb3383608001516001600160801b03168460e0015161186c9190612719565b6040516001600160e01b031960e085901b1681526001600160a01b03909216600483015260248201526044016020604051808303816000875af11580156118b7573d6000803e3d6000fd5b505050506040513d601f19601f820116820180604052508101906118db919061258e565b5080608001516001600160801b0316600460008361012001516001600160a01b03166001600160a01b0316815260200190815260200160002060010160008282546119269190612730565b90915550506001600160a01b038716600090815260036020526040902080548291906001600160401b03891690811061196157611961612578565b6000918252602091829020835160079290920201805492840151604080860151606087015161ffff1990961694151561ff0019169490941761010092151583021762010000600160901b031916620100006001600160401b039586160267ffffffffffffffff60501b191617600160501b949095169390930293909317815560808401516001820180546001600160801b0319166001600160801b0390921691909117905560a08401516002820180546001600160a01b03199081166001600160a01b039384161790915560c0860151600384018054831691841691909117905560e0860151600484015593850151600583015561012090940151600690910180549093169316929092179055517fd47e7c427abbbec18714c6c9f4139ae0c4dc1803416c76a4c79cb8dbec703d1490611a9c9083906125ab565b60405180910390a15050600180555050505050565b611ab9612194565b6001600160a01b03831660009081526004602052604090205460ff16611b2557600580546001810182556000919091527f036b6384b5eca791c62761152d0c79bb0604c104a5fb6f4eb0703f3154bb3db00180546001600160a01b0319166001600160a01b0385161790555b60408051606081018252600180825261ffff94851660208084019182528385019586526001600160a01b0397909716600090815260049097529290952090518154925162ffffff1990931690151562ffff00191617610100929094169190910292909217825551910155565b611b99612194565b611ba281610951565b15611be55760405162461bcd60e51b8152602060048201526013602482015272151bdad95b88185b1c9958591e481859191959606a1b6044820152606401610385565b600580546001810182556000919091527f036b6384b5eca791c62761152d0c79bb0604c104a5fb6f4eb0703f3154bb3db00180546001600160a01b0319166001600160a01b0392909216919091179055565b60036020528160005260406000208181548110610bc457600080fd5b600260015403611c755760405162461bcd60e51b815260040161038590612519565b6002600155611c8384610951565b611cc65760405162461bcd60e51b8152602060048201526014602482015273151bdad95b88139bdd08149959da5cdd195c995960621b6044820152606401610385565b6001600160a01b0383166000908152600460209081526040918290208251606081018452815460ff8116151580835261010090910461ffff169382019390935260019091015492810192909252611d585760405162461bcd60e51b815260206004820152601660248201527510dd5c9c995b98de481b9bdd081d1bdb195c985d195960521b6044820152606401610385565b60006103e8826020015161ffff1684611d7191906126fa565b611d7b91906126d8565b6040516323b872dd60e01b8152336004820152306024820152604481018590529091506001600160a01b038616906323b872dd906064016020604051808303816000875af1158015611dd1573d6000803e3d6000fd5b505050506040513d601f19601f82011682018060405250810190611df5919061258e565b50600060036000886001600160a01b03166001600160a01b0316815260200190815260200160002080549050905060036000886001600160a01b03166001600160a01b03168152602001908152602001600020604051806101400160405280600115158152602001600015158152602001836001600160401b03168152602001426001600160401b03168152602001846001600160801b0316815260200160006001600160a01b03168152602001336001600160a01b03168152602001868152602001878152602001886001600160a01b0316815250908060018154018082558091505060019003906000526020600020906007020160009091909190915060008201518160000160006101000a81548160ff02191690831515021790555060208201518160000160016101000a81548160ff02191690831515021790555060408201518160000160026101000a8154816001600160401b0302191690836001600160401b03160217905550606082015181600001600a6101000a8154816001600160401b0302191690836001600160401b0316021790555060808201518160010160006101000a8154816001600160801b0302191690836001600160801b0316021790555060a08201518160020160006101000a8154816001600160a01b0302191690836001600160a01b0316021790555060c08201518160030160006101000a8154816001600160a01b0302191690836001600160a01b0316021790555060e0820151816004015561010082015181600501556101208201518160060160006101000a8154816001600160a01b0302191690836001600160a01b0316021790555050507f077d6662586eda32b10cd8225f21d3046ae7cb634a5ca3a2bd8d52281d39eecc604051806101400160405280600115158152602001600015158152602001836001600160401b03168152602001426001600160401b03168152602001846001600160801b0316815260200160006001600160a01b03168152602001336001600160a01b03168152602001868152602001878152602001886001600160a01b0316815250604051611a9c91906125ab565b6006818154811061162757600080fd5b612123612194565b6001600160a01b0381166121885760405162461bcd60e51b815260206004820152602660248201527f4f776e61626c653a206e6577206f776e657220697320746865207a65726f206160448201526564647265737360d01b6064820152608401610385565b612191816121ee565b50565b6000546001600160a01b031633146110f85760405162461bcd60e51b815260206004820181905260248201527f4f776e61626c653a2063616c6c6572206973206e6f7420746865206f776e65726044820152606401610385565b600080546001600160a01b038381166001600160a01b0319831681178455604051919092169283917f8be0079c531659141344cd1fd0a4f28419497f9722a3daafe3b4186f6b6457e09190a35050565b6001600160a01b038116811461219157600080fd5b801515811461219157600080fd5b80356001600160401b038116811461227857600080fd5b919050565b60008060006060848603121561229257600080fd5b833561229d8161223e565b925060208401356122ad81612253565b91506122bb60408501612261565b90509250925092565b6000602082840312156122d657600080fd5b81356122e18161223e565b9392505050565b803561ffff8116811461227857600080fd5b6000806040838503121561230d57600080fd5b612316836122e8565b915060208301356123268161223e565b809150509250929050565b6000806040838503121561234457600080fd5b823561234f8161223e565b946020939093013593505050565b803560ff8116811461227857600080fd5b600080600080600080600080610100898b03121561238b57600080fd5b88356123968161223e565b975060208901356123a68161223e565b96506040890135955060608901359450608089013593506123c960a08a0161235d565b925060c0890135915060e089013590509295985092959890939650565b600080604083850312156123f957600080fd5b82356124048161223e565b915061241260208401612261565b90509250929050565b60006020828403121561242d57600080fd5b5035919050565b60008060008060008060c0878903121561244d57600080fd5b86356124588161223e565b955061246660208801612261565b94506040870135935061247b6060880161235d565b92506080870135915060a087013590509295509295509295565b6000806000606084860312156124aa57600080fd5b83356124b58161223e565b92506124c3602085016122e8565b9150604084013590509250925092565b600080600080608085870312156124e957600080fd5b84356124f48161223e565b935060208501356125048161223e565b93969395505050506040820135916060013590565b6020808252601f908201527f5265656e7472616e637947756172643a207265656e7472616e742063616c6c00604082015260600190565b6020808252600e908201526d151bdad95b88155b9b1a5cdd195960921b604082015260600190565b634e487b7160e01b600052603260045260246000fd5b6000602082840312156125a057600080fd5b81516122e181612253565b815115158152610140810160208301516125c9602084018215159052565b5060408301516125e460408401826001600160401b03169052565b5060608301516125ff60608401826001600160401b03169052565b50608083015161261a60808401826001600160801b03169052565b5060a083015161263560a08401826001600160a01b03169052565b5060c083015161265060c08401826001600160a01b03169052565b5060e083810151908301526101008084015190830152610120928301516001600160a01b0316929091019190915290565b6001600160a01b0397881681529590961660208601526040850193909352606084019190915260ff16608083015260a082015260c081019190915260e00190565b634e487b7160e01b600052601160045260246000fd5b6000826126f557634e487b7160e01b600052601260045260246000fd5b500490565b6000816000190483118215151615612714576127146126c2565b500290565b60008282101561272b5761272b6126c2565b500390565b60008219821115612743576127436126c2565b50019056fea2646970667358221220fdcd9bf7d4b46b20b8f732a4d40e8d09a77433667b5425e2ed932a1b7ab7eddd64736f6c634300080e0033",
    "linkReferences": {}
  },
  "methodIdentifiers": {
    "addToken(address)": "d48bfca7",
    "buy(address,uint64)": "9a83aa8b",
    "buyOrderByToken(address,uint256)": "d59a83bb",
    "cancelOrder(address,bool,uint64)": "08b4e2a6",
    "currenciesUsed(uint256)": "f110fb56",
    "currencyByLink(address)": "6afb2a55",
    "initBuyOrder(address,address,uint256,uint256)": "de8645e6",
    "initSellOrder(address,address,uint256,uint256,uint256,uint8,bytes32,bytes32)": "6bdf6b39",
    "isToken(address)": "19f37361",
    "owner()": "8da5cb5b",
    "renounceOwnership()": "715018a6",
    "sell(address,uint64,uint256,uint8,bytes32,bytes32)": "d28c3a9b",
    "sellOrderByToken(address,uint256)": "4303d9d9",
    "setCurrency(address,uint16,uint256)": "d38d0b45",
    "setFee(uint16,address)": "30f738be",
    "setFeeAddress(address)": "8705fcd4",
    "tokenList(uint256)": "9ead7222",
    "transferOwnership(address)": "f2fde38b",
    "withdrawFee(address)": "1ac3ddeb"
  },
  "id": 19
}