{
  "_format": "hh-sol-artifact-1",
  "contractName": "KonkretStaking",
  "sourceName": "contracts/Staking.sol",
  "abi": [
    {
      "inputs": [
        {
          "internalType": "address",
          "name": "_tokenToStake",
          "type": "address"
        },
        {
          "internalType": "address",
          "name": "_currencyUsedToPay",
          "type": "address"
        },
        {
          "internalType": "address",
          "name": "_treasury",
          "type": "address"
        }
      ],
      "stateMutability": "nonpayable",
      "type": "constructor"
    },
    {
      "anonymous": false,
      "inputs": [
        {
          "indexed": false,
          "internalType": "uint256",
          "name": "rentAmount",
          "type": "uint256"
        }
      ],
      "name": "MonthRentRewardArrived",
      "type": "event"
    },
    {
      "anonymous": false,
      "inputs": [
        {
          "indexed": true,
          "internalType": "address",
          "name": "previousOwner",
          "type": "address"
        },
        {
          "indexed": true,
          "internalType": "address",
          "name": "newOwner",
          "type": "address"
        }
      ],
      "name": "OwnershipTransferred",
      "type": "event"
    },
    {
      "anonymous": false,
      "inputs": [
        {
          "indexed": false,
          "internalType": "address",
          "name": "who",
          "type": "address"
        },
        {
          "indexed": false,
          "internalType": "uint256",
          "name": "amount",
          "type": "uint256"
        },
        {
          "indexed": false,
          "internalType": "uint256",
          "name": "timeStamp",
          "type": "uint256"
        }
      ],
      "name": "Staked",
      "type": "event"
    },
    {
      "anonymous": false,
      "inputs": [
        {
          "indexed": false,
          "internalType": "address",
          "name": "who",
          "type": "address"
        },
        {
          "indexed": false,
          "internalType": "uint256",
          "name": "amount",
          "type": "uint256"
        },
        {
          "indexed": false,
          "internalType": "uint256",
          "name": "timeStamp",
          "type": "uint256"
        }
      ],
      "name": "unStaked",
      "type": "event"
    },
    {
      "inputs": [],
      "name": "TOKEN_TO_STAKE",
      "outputs": [
        {
          "internalType": "contract IPropertyToken",
          "name": "",
          "type": "address"
        }
      ],
      "stateMutability": "view",
      "type": "function"
    },
    {
      "inputs": [],
      "name": "TOKEN_TO_STAKE_MAX_SUPPLY",
      "outputs": [
        {
          "internalType": "uint256",
          "name": "",
          "type": "uint256"
        }
      ],
      "stateMutability": "view",
      "type": "function"
    },
    {
      "inputs": [],
      "name": "beginTimestamp",
      "outputs": [],
      "stateMutability": "nonpayable",
      "type": "function"
    },
    {
      "inputs": [
        {
          "internalType": "address",
          "name": "tokenHolder",
          "type": "address"
        }
      ],
      "name": "getStakeInfos",
      "outputs": [
        {
          "components": [
            {
              "internalType": "bool",
              "name": "exist",
              "type": "bool"
            },
            {
              "internalType": "uint64",
              "name": "rank",
              "type": "uint64"
            },
            {
              "internalType": "uint64",
              "name": "lastTimeStamp",
              "type": "uint64"
            },
            {
              "internalType": "uint256",
              "name": "preShare",
              "type": "uint256"
            },
            {
              "internalType": "uint256",
              "name": "amount",
              "type": "uint256"
            },
            {
              "internalType": "uint256",
              "name": "claimableReward",
              "type": "uint256"
            }
          ],
          "internalType": "struct StakeInfos",
          "name": "",
          "type": "tuple"
        }
      ],
      "stateMutability": "view",
      "type": "function"
    },
    {
      "inputs": [],
      "name": "monthTimeStamp",
      "outputs": [
        {
          "internalType": "uint256",
          "name": "",
          "type": "uint256"
        }
      ],
      "stateMutability": "view",
      "type": "function"
    },
    {
      "inputs": [],
      "name": "owner",
      "outputs": [
        {
          "internalType": "address",
          "name": "",
          "type": "address"
        }
      ],
      "stateMutability": "view",
      "type": "function"
    },
    {
      "inputs": [],
      "name": "renounceOwnership",
      "outputs": [],
      "stateMutability": "nonpayable",
      "type": "function"
    },
    {
      "inputs": [
        {
          "internalType": "uint256",
          "name": "totalReward",
          "type": "uint256"
        }
      ],
      "name": "setTotalClaimableReward",
      "outputs": [
        {
          "internalType": "uint256",
          "name": "",
          "type": "uint256"
        }
      ],
      "stateMutability": "nonpayable",
      "type": "function"
    },
    {
      "inputs": [
        {
          "internalType": "uint256",
          "name": "_amount",
          "type": "uint256"
        },
        {
          "internalType": "uint256",
          "name": "deadline",
          "type": "uint256"
        },
        {
          "internalType": "uint8",
          "name": "v",
          "type": "uint8"
        },
        {
          "internalType": "bytes32",
          "name": "r",
          "type": "bytes32"
        },
        {
          "internalType": "bytes32",
          "name": "s",
          "type": "bytes32"
        }
      ],
      "name": "stake",
      "outputs": [],
      "stateMutability": "nonpayable",
      "type": "function"
    },
    {
      "inputs": [
        {
          "internalType": "address",
          "name": "",
          "type": "address"
        }
      ],
      "name": "stakeByOwner",
      "outputs": [
        {
          "internalType": "bool",
          "name": "exist",
          "type": "bool"
        },
        {
          "internalType": "uint64",
          "name": "rank",
          "type": "uint64"
        },
        {
          "internalType": "uint64",
          "name": "lastTimeStamp",
          "type": "uint64"
        },
        {
          "internalType": "uint256",
          "name": "preShare",
          "type": "uint256"
        },
        {
          "internalType": "uint256",
          "name": "amount",
          "type": "uint256"
        },
        {
          "internalType": "uint256",
          "name": "claimableReward",
          "type": "uint256"
        }
      ],
      "stateMutability": "view",
      "type": "function"
    },
    {
      "inputs": [
        {
          "internalType": "uint256",
          "name": "",
          "type": "uint256"
        }
      ],
      "name": "stakers",
      "outputs": [
        {
          "internalType": "address",
          "name": "",
          "type": "address"
        }
      ],
      "stateMutability": "view",
      "type": "function"
    },
    {
      "inputs": [
        {
          "internalType": "address",
          "name": "newOwner",
          "type": "address"
        }
      ],
      "name": "transferOwnership",
      "outputs": [],
      "stateMutability": "nonpayable",
      "type": "function"
    },
    {
      "inputs": [
        {
          "internalType": "uint256",
          "name": "_amount",
          "type": "uint256"
        }
      ],
      "name": "unStake",
      "outputs": [],
      "stateMutability": "nonpayable",
      "type": "function"
    }
  ],
  "bytecode": "0x6101006040523480156200001257600080fd5b50604051620020cc380380620020cc8339818101604052810190620000389190620002b3565b620000586200004c6200017d60201b60201c565b6200018560201b60201c565b600180819055508273ffffffffffffffffffffffffffffffffffffffff1660808173ffffffffffffffffffffffffffffffffffffffff16815250508273ffffffffffffffffffffffffffffffffffffffff166332cb6b0c6040518163ffffffff1660e01b8152600401602060405180830381865afa158015620000df573d6000803e3d6000fd5b505050506040513d601f19601f820116820180604052508101906200010591906200034a565b60a081815250508173ffffffffffffffffffffffffffffffffffffffff1660c08173ffffffffffffffffffffffffffffffffffffffff16815250508073ffffffffffffffffffffffffffffffffffffffff1660e08173ffffffffffffffffffffffffffffffffffffffff16815250505050506200037c565b600033905090565b60008060009054906101000a900473ffffffffffffffffffffffffffffffffffffffff169050816000806101000a81548173ffffffffffffffffffffffffffffffffffffffff021916908373ffffffffffffffffffffffffffffffffffffffff1602179055508173ffffffffffffffffffffffffffffffffffffffff168173ffffffffffffffffffffffffffffffffffffffff167f8be0079c531659141344cd1fd0a4f28419497f9722a3daafe3b4186f6b6457e060405160405180910390a35050565b600080fd5b600073ffffffffffffffffffffffffffffffffffffffff82169050919050565b60006200027b826200024e565b9050919050565b6200028d816200026e565b81146200029957600080fd5b50565b600081519050620002ad8162000282565b92915050565b600080600060608486031215620002cf57620002ce62000249565b5b6000620002df868287016200029c565b9350506020620002f2868287016200029c565b925050604062000305868287016200029c565b9150509250925092565b6000819050919050565b62000324816200030f565b81146200033057600080fd5b50565b600081519050620003448162000319565b92915050565b60006020828403121562000363576200036262000249565b5b6000620003738482850162000333565b91505092915050565b60805160a05160c05160e051611d04620003c86000396000610cbc015260005050600081816102ec0152610db30152600081816104f3015281816107710152610c490152611d046000f3fe608060405234801561001057600080fd5b50600436106100cf5760003560e01c80638da5cb5b1161008c578063c117c05611610066578063c117c056146101df578063c26c60de146101fd578063f2fde38b1461022d578063fd5e6dd114610249576100cf565b80638da5cb5b14610173578063a239882a14610191578063a55ca7ef146101af576100cf565b80633d1da5cb146100d45780635c92af72146101095780635d3eea9114610127578063672a0fb814610143578063715018a61461014d57806374ff62f114610157575b600080fd5b6100ee60048036038101906100e991906113e9565b610279565b6040516101009695949392919061146d565b60405180910390f35b6101116102ea565b60405161011e91906114ce565b60405180910390f35b610141600480360381019061013c9190611515565b61030e565b005b61014b6106b6565b005b6101556106c7565b005b610171600480360381019061016c91906115b1565b6106db565b005b61017b610b22565b604051610188919061163b565b60405180910390f35b610199610b4b565b6040516101a691906114ce565b60405180910390f35b6101c960048036038101906101c491906113e9565b610b51565b6040516101d691906116fe565b60405180910390f35b6101e7610c47565b6040516101f49190611778565b60405180910390f35b61021760048036038101906102129190611515565b610c6b565b60405161022491906114ce565b60405180910390f35b610247600480360381019061024291906113e9565b61106f565b005b610263600480360381019061025e9190611515565b6110f2565b604051610270919061163b565b60405180910390f35b60026020528060005260406000206000915090508060000160009054906101000a900460ff16908060000160019054906101000a900467ffffffffffffffff16908060000160099054906101000a900467ffffffffffffffff16908060010154908060020154908060030154905086565b7f000000000000000000000000000000000000000000000000000000000000000081565b600260015403610353576040517f08c379a000000000000000000000000000000000000000000000000000000000815260040161034a906117f0565b60405180910390fd5b60026001819055506000600260003373ffffffffffffffffffffffffffffffffffffffff1673ffffffffffffffffffffffffffffffffffffffff1681526020019081526020016000206040518060c00160405290816000820160009054906101000a900460ff161515151581526020016000820160019054906101000a900467ffffffffffffffff1667ffffffffffffffff1667ffffffffffffffff1681526020016000820160099054906101000a900467ffffffffffffffff1667ffffffffffffffff1667ffffffffffffffff16815260200160018201548152602001600282015481526020016003820154815250509050818160800151101561048d576040517f08c379a00000000000000000000000000000000000000000000000000000000081526004016104849061185c565b60405180910390fd5b60004290506104af8260800151836040015167ffffffffffffffff1683611131565b82606001818152505080826040019067ffffffffffffffff16908167ffffffffffffffff168152505082826080018181516104ea91906118ab565b915081815250507f000000000000000000000000000000000000000000000000000000000000000073ffffffffffffffffffffffffffffffffffffffff1663a9059cbb33856040518363ffffffff1660e01b815260040161054c9291906118df565b6020604051808303816000875af115801561056b573d6000803e3d6000fd5b505050506040513d601f19601f8201168201806040525081019061058f9190611934565b5081600260003373ffffffffffffffffffffffffffffffffffffffff1673ffffffffffffffffffffffffffffffffffffffff16815260200190815260200160002060008201518160000160006101000a81548160ff02191690831515021790555060208201518160000160016101000a81548167ffffffffffffffff021916908367ffffffffffffffff16021790555060408201518160000160096101000a81548167ffffffffffffffff021916908367ffffffffffffffff160217905550606082015181600101556080820151816002015560a082015181600301559050507fe54700985ffd0973f2d7efd700eb74fa18d4e63f5f6789bb06a67d3c532d58fe3384836040516106a293929190611961565b60405180910390a150506001808190555050565b6106be611158565b42600481905550565b6106cf611158565b6106d960006111d6565b565b600260015403610720576040517f08c379a0000000000000000000000000000000000000000000000000000000008152600401610717906117f0565b60405180910390fd5b600260018190555060006004540361076d576040517f08c379a0000000000000000000000000000000000000000000000000000000008152600401610764906119e4565b60405180910390fd5b60007f000000000000000000000000000000000000000000000000000000000000000090508073ffffffffffffffffffffffffffffffffffffffff1663cfac414b333089898989896040518863ffffffff1660e01b81526004016107d79796959493929190611a22565b600060405180830381600087803b1580156107f157600080fd5b505af1158015610805573d6000803e3d6000fd5b505050506000600260003373ffffffffffffffffffffffffffffffffffffffff1673ffffffffffffffffffffffffffffffffffffffff1681526020019081526020016000206040518060c00160405290816000820160009054906101000a900460ff161515151581526020016000820160019054906101000a900467ffffffffffffffff1667ffffffffffffffff1667ffffffffffffffff1681526020016000820160099054906101000a900467ffffffffffffffff1667ffffffffffffffff1667ffffffffffffffff168152602001600182015481526020016002820154815260200160038201548152505090506000816020015167ffffffffffffffff1603610993576003339080600181540180825580915050600190039060005260206000200160009091909190916101000a81548173ffffffffffffffffffffffffffffffffffffffff021916908373ffffffffffffffffffffffffffffffffffffffff160217905550600380549050816020019067ffffffffffffffff16908167ffffffffffffffff16815250505b60004290506109b58260800151836040015167ffffffffffffffff1683611131565b82606001818152505080826040019067ffffffffffffffff16908167ffffffffffffffff168152505087826080018181516109f09190611a91565b9150818152505081600260003373ffffffffffffffffffffffffffffffffffffffff1673ffffffffffffffffffffffffffffffffffffffff16815260200190815260200160002060008201518160000160006101000a81548160ff02191690831515021790555060208201518160000160016101000a81548167ffffffffffffffff021916908367ffffffffffffffff16021790555060408201518160000160096101000a81548167ffffffffffffffff021916908367ffffffffffffffff160217905550606082015181600101556080820151816002015560a082015181600301559050507f1449c6dd7851abc30abf37f57715f492010519147cc2652fbc38202c18a6ee90338983604051610b0993929190611961565b60405180910390a1505050600180819055505050505050565b60008060009054906101000a900473ffffffffffffffffffffffffffffffffffffffff16905090565b60045481565b610b5961133a565b600260008373ffffffffffffffffffffffffffffffffffffffff1673ffffffffffffffffffffffffffffffffffffffff1681526020019081526020016000206040518060c00160405290816000820160009054906101000a900460ff161515151581526020016000820160019054906101000a900467ffffffffffffffff1667ffffffffffffffff1667ffffffffffffffff1681526020016000820160099054906101000a900467ffffffffffffffff1667ffffffffffffffff1667ffffffffffffffff16815260200160018201548152602001600282015481526020016003820154815250509050919050565b7f000000000000000000000000000000000000000000000000000000000000000081565b6000600260015403610cb2576040517f08c379a0000000000000000000000000000000000000000000000000000000008152600401610ca9906117f0565b60405180910390fd5b60026001819055507f000000000000000000000000000000000000000000000000000000000000000073ffffffffffffffffffffffffffffffffffffffff163373ffffffffffffffffffffffffffffffffffffffff1614610d1257600080fd5b6000829050610d1f61133a565b60006003805480602002602001604051908101604052809291908181526020018280548015610da357602002820191906000526020600020905b8160009054906101000a900473ffffffffffffffffffffffffffffffffffffffff1673ffffffffffffffffffffffffffffffffffffffff1681526020019060010190808311610d59575b50505050509050600042905060007f000000000000000000000000000000000000000000000000000000000000000060045483610de091906118ab565b610dea9190611ae7565b905060005b835181101561101c57610f048360026000878581518110610e1357610e12611b41565b5b602002602001015173ffffffffffffffffffffffffffffffffffffffff1673ffffffffffffffffffffffffffffffffffffffff1681526020019081526020016000206040518060c00160405290816000820160009054906101000a900460ff161515151581526020016000820160019054906101000a900467ffffffffffffffff1667ffffffffffffffff1667ffffffffffffffff1681526020016000820160099054906101000a900467ffffffffffffffff1667ffffffffffffffff1667ffffffffffffffff1681526020016001820154815260200160028201548152602001600382015481525050848b61129a565b9450846080015186610f1691906118ab565b95508460026000868481518110610f3057610f2f611b41565b5b602002602001015173ffffffffffffffffffffffffffffffffffffffff1673ffffffffffffffffffffffffffffffffffffffff16815260200190815260200160002060008201518160000160006101000a81548160ff02191690831515021790555060208201518160000160016101000a81548167ffffffffffffffff021916908367ffffffffffffffff16021790555060408201518160000160096101000a81548167ffffffffffffffff021916908367ffffffffffffffff160217905550606082015181600101556080820151816002015560a08201518160030155905050806001019050610def565b50816004819055507fd329d67a399c1d5c9eb2ff9c508259ec72735a30dc8a2f7e1108ff67842d5e148760405161105391906114ce565b60405180910390a1849550505050505060018081905550919050565b611077611158565b600073ffffffffffffffffffffffffffffffffffffffff168173ffffffffffffffffffffffffffffffffffffffff16036110e6576040517f08c379a00000000000000000000000000000000000000000000000000000000081526004016110dd90611be2565b60405180910390fd5b6110ef816111d6565b50565b6003818154811061110257600080fd5b906000526020600020016000915054906101000a900473ffffffffffffffffffffffffffffffffffffffff1681565b600080838361114091906118ab565b8561114b9190611ae7565b9050809150509392505050565b611160611332565b73ffffffffffffffffffffffffffffffffffffffff1661117e610b22565b73ffffffffffffffffffffffffffffffffffffffff16146111d4576040517f08c379a00000000000000000000000000000000000000000000000000000000081526004016111cb90611c4e565b60405180910390fd5b565b60008060009054906101000a900473ffffffffffffffffffffffffffffffffffffffff169050816000806101000a81548173ffffffffffffffffffffffffffffffffffffffff021916908373ffffffffffffffffffffffffffffffffffffffff1602179055508173ffffffffffffffffffffffffffffffffffffffff168173ffffffffffffffffffffffffffffffffffffffff167f8be0079c531659141344cd1fd0a4f28419497f9722a3daafe3b4186f6b6457e060405160405180910390a35050565b6112a261133a565b826112c08560800151866040015167ffffffffffffffff1688611131565b85606001516112cf9190611a91565b836112da9190611ae7565b6112e49190611c9d565b8460a0018181516112f59190611a91565b9150818152505084846040019067ffffffffffffffff16908167ffffffffffffffff16815250506000846060018181525050839050949350505050565b600033905090565b6040518060c00160405280600015158152602001600067ffffffffffffffff168152602001600067ffffffffffffffff1681526020016000815260200160008152602001600081525090565b600080fd5b600073ffffffffffffffffffffffffffffffffffffffff82169050919050565b60006113b68261138b565b9050919050565b6113c6816113ab565b81146113d157600080fd5b50565b6000813590506113e3816113bd565b92915050565b6000602082840312156113ff576113fe611386565b5b600061140d848285016113d4565b91505092915050565b60008115159050919050565b61142b81611416565b82525050565b600067ffffffffffffffff82169050919050565b61144e81611431565b82525050565b6000819050919050565b61146781611454565b82525050565b600060c0820190506114826000830189611422565b61148f6020830188611445565b61149c6040830187611445565b6114a9606083018661145e565b6114b6608083018561145e565b6114c360a083018461145e565b979650505050505050565b60006020820190506114e3600083018461145e565b92915050565b6114f281611454565b81146114fd57600080fd5b50565b60008135905061150f816114e9565b92915050565b60006020828403121561152b5761152a611386565b5b600061153984828501611500565b91505092915050565b600060ff82169050919050565b61155881611542565b811461156357600080fd5b50565b6000813590506115758161154f565b92915050565b6000819050919050565b61158e8161157b565b811461159957600080fd5b50565b6000813590506115ab81611585565b92915050565b600080600080600060a086880312156115cd576115cc611386565b5b60006115db88828901611500565b95505060206115ec88828901611500565b94505060406115fd88828901611566565b935050606061160e8882890161159c565b925050608061161f8882890161159c565b9150509295509295909350565b611635816113ab565b82525050565b6000602082019050611650600083018461162c565b92915050565b61165f81611416565b82525050565b61166e81611431565b82525050565b61167d81611454565b82525050565b60c0820160008201516116996000850182611656565b5060208201516116ac6020850182611665565b5060408201516116bf6040850182611665565b5060608201516116d26060850182611674565b5060808201516116e56080850182611674565b5060a08201516116f860a0850182611674565b50505050565b600060c0820190506117136000830184611683565b92915050565b6000819050919050565b600061173e6117396117348461138b565b611719565b61138b565b9050919050565b600061175082611723565b9050919050565b600061176282611745565b9050919050565b61177281611757565b82525050565b600060208201905061178d6000830184611769565b92915050565b600082825260208201905092915050565b7f5265656e7472616e637947756172643a207265656e7472616e742063616c6c00600082015250565b60006117da601f83611793565b91506117e5826117a4565b602082019050919050565b60006020820190508181036000830152611809816117cd565b9050919050565b7f43616e277420756e7374616b652074686973206d756368000000000000000000600082015250565b6000611846601783611793565b915061185182611810565b602082019050919050565b6000602082019050818103600083015261187581611839565b9050919050565b7f4e487b7100000000000000000000000000000000000000000000000000000000600052601160045260246000fd5b60006118b682611454565b91506118c183611454565b9250828210156118d4576118d361187c565b5b828203905092915050565b60006040820190506118f4600083018561162c565b611901602083018461145e565b9392505050565b61191181611416565b811461191c57600080fd5b50565b60008151905061192e81611908565b92915050565b60006020828403121561194a57611949611386565b5b60006119588482850161191f565b91505092915050565b6000606082019050611976600083018661162c565b611983602083018561145e565b611990604083018461145e565b949350505050565b7f5374616b696e67206973206e6f74206163746976617465640000000000000000600082015250565b60006119ce601883611793565b91506119d982611998565b602082019050919050565b600060208201905081810360008301526119fd816119c1565b9050919050565b611a0d81611542565b82525050565b611a1c8161157b565b82525050565b600060e082019050611a37600083018a61162c565b611a44602083018961162c565b611a51604083018861145e565b611a5e606083018761145e565b611a6b6080830186611a04565b611a7860a0830185611a13565b611a8560c0830184611a13565b98975050505050505050565b6000611a9c82611454565b9150611aa783611454565b9250827fffffffffffffffffffffffffffffffffffffffffffffffffffffffffffffffff03821115611adc57611adb61187c565b5b828201905092915050565b6000611af282611454565b9150611afd83611454565b9250817fffffffffffffffffffffffffffffffffffffffffffffffffffffffffffffffff0483118215151615611b3657611b3561187c565b5b828202905092915050565b7f4e487b7100000000000000000000000000000000000000000000000000000000600052603260045260246000fd5b7f4f776e61626c653a206e6577206f776e657220697320746865207a65726f206160008201527f6464726573730000000000000000000000000000000000000000000000000000602082015250565b6000611bcc602683611793565b9150611bd782611b70565b604082019050919050565b60006020820190508181036000830152611bfb81611bbf565b9050919050565b7f4f776e61626c653a2063616c6c6572206973206e6f7420746865206f776e6572600082015250565b6000611c38602083611793565b9150611c4382611c02565b602082019050919050565b60006020820190508181036000830152611c6781611c2b565b9050919050565b7f4e487b7100000000000000000000000000000000000000000000000000000000600052601260045260246000fd5b6000611ca882611454565b9150611cb383611454565b925082611cc357611cc2611c6e565b5b82820490509291505056fea2646970667358221220aa087e3948f9e8c36d077997442dce8e9f876a593d379e6f571bcb63a2cde48c64736f6c634300080e0033",
  "linkReferences": {},
  "deployedLinkReferences": {}
}