{
  "abi": [
    {
      "inputs": [
        {
          "internalType": "string",
          "name": "protoSymbol",
          "type": "string"
        },
        {
          "internalType": "address",
          "name": "_tokenToStake",
          "type": "address"
        },
        {
          "internalType": "address",
          "name": "_currencyUsedToPay",
          "type": "address"
        }
      ],
      "stateMutability": "nonpayable",
      "type": "constructor"
    },
    {
      "anonymous": false,
      "inputs": [
        {
          "indexed": true,
          "internalType": "address",
          "name": "owner",
          "type": "address"
        },
        {
          "indexed": true,
          "internalType": "address",
          "name": "spender",
          "type": "address"
        },
        {
          "indexed": false,
          "internalType": "uint256",
          "name": "value",
          "type": "uint256"
        }
      ],
      "name": "Approval",
      "type": "event"
    },
    {
      "anonymous": false,
      "inputs": [
        {
          "indexed": true,
          "internalType": "address",
          "name": "previousOwner",
          "type": "address"
        },
        {
          "indexed": true,
          "internalType": "address",
          "name": "newOwner",
          "type": "address"
        }
      ],
      "name": "OwnershipTransferred",
      "type": "event"
    },
    {
      "anonymous": false,
      "inputs": [
        {
          "indexed": false,
          "internalType": "address",
          "name": "who",
          "type": "address"
        },
        {
          "indexed": false,
          "internalType": "uint256",
          "name": "amount",
          "type": "uint256"
        },
        {
          "indexed": false,
          "internalType": "uint256",
          "name": "timeStamp",
          "type": "uint256"
        }
      ],
      "name": "Staked",
      "type": "event"
    },
    {
      "anonymous": false,
      "inputs": [
        {
          "indexed": true,
          "internalType": "address",
          "name": "from",
          "type": "address"
        },
        {
          "indexed": true,
          "internalType": "address",
          "name": "to",
          "type": "address"
        },
        {
          "indexed": false,
          "internalType": "uint256",
          "name": "value",
          "type": "uint256"
        }
      ],
      "name": "Transfer",
      "type": "event"
    },
    {
      "anonymous": false,
      "inputs": [
        {
          "indexed": false,
          "internalType": "address",
          "name": "who",
          "type": "address"
        },
        {
          "indexed": false,
          "internalType": "uint256",
          "name": "amount",
          "type": "uint256"
        },
        {
          "indexed": false,
          "internalType": "uint256",
          "name": "timeStamp",
          "type": "uint256"
        }
      ],
      "name": "unStaked",
      "type": "event"
    },
    {
      "inputs": [
        {
          "internalType": "address",
          "name": "owner",
          "type": "address"
        },
        {
          "internalType": "address",
          "name": "spender",
          "type": "address"
        }
      ],
      "name": "allowance",
      "outputs": [
        {
          "internalType": "uint256",
          "name": "",
          "type": "uint256"
        }
      ],
      "stateMutability": "view",
      "type": "function"
    },
    {
      "inputs": [
        {
          "internalType": "address",
          "name": "spender",
          "type": "address"
        },
        {
          "internalType": "uint256",
          "name": "amount",
          "type": "uint256"
        }
      ],
      "name": "approve",
      "outputs": [
        {
          "internalType": "bool",
          "name": "",
          "type": "bool"
        }
      ],
      "stateMutability": "nonpayable",
      "type": "function"
    },
    {
      "inputs": [
        {
          "internalType": "address",
          "name": "account",
          "type": "address"
        }
      ],
      "name": "balanceOf",
      "outputs": [
        {
          "internalType": "uint256",
          "name": "",
          "type": "uint256"
        }
      ],
      "stateMutability": "view",
      "type": "function"
    },
    {
      "inputs": [],
      "name": "beginTimestamp",
      "outputs": [],
      "stateMutability": "nonpayable",
      "type": "function"
    },
    {
      "inputs": [],
      "name": "claimReward",
      "outputs": [],
      "stateMutability": "nonpayable",
      "type": "function"
    },
    {
      "inputs": [],
      "name": "decimals",
      "outputs": [
        {
          "internalType": "uint8",
          "name": "",
          "type": "uint8"
        }
      ],
      "stateMutability": "view",
      "type": "function"
    },
    {
      "inputs": [
        {
          "internalType": "address",
          "name": "spender",
          "type": "address"
        },
        {
          "internalType": "uint256",
          "name": "subtractedValue",
          "type": "uint256"
        }
      ],
      "name": "decreaseAllowance",
      "outputs": [
        {
          "internalType": "bool",
          "name": "",
          "type": "bool"
        }
      ],
      "stateMutability": "nonpayable",
      "type": "function"
    },
    {
      "inputs": [
        {
          "internalType": "address",
          "name": "tokenHolder",
          "type": "address"
        }
      ],
      "name": "getStakeInfo",
      "outputs": [
        {
          "components": [
            {
              "internalType": "uint64",
              "name": "rank",
              "type": "uint64"
            },
            {
              "internalType": "uint128",
              "name": "preShare",
              "type": "uint128"
            },
            {
              "internalType": "uint128",
              "name": "lastTimeStamp",
              "type": "uint128"
            },
            {
              "internalType": "uint128",
              "name": "amount",
              "type": "uint128"
            },
            {
              "internalType": "uint128",
              "name": "claimableReward",
              "type": "uint128"
            }
          ],
          "internalType": "struct stakeInfo",
          "name": "",
          "type": "tuple"
        }
      ],
      "stateMutability": "view",
      "type": "function"
    },
    {
      "inputs": [
        {
          "internalType": "address",
          "name": "spender",
          "type": "address"
        },
        {
          "internalType": "uint256",
          "name": "addedValue",
          "type": "uint256"
        }
      ],
      "name": "increaseAllowance",
      "outputs": [
        {
          "internalType": "bool",
          "name": "",
          "type": "bool"
        }
      ],
      "stateMutability": "nonpayable",
      "type": "function"
    },
    {
      "inputs": [],
      "name": "monthTimeStamp",
      "outputs": [
        {
          "internalType": "uint256",
          "name": "",
          "type": "uint256"
        }
      ],
      "stateMutability": "view",
      "type": "function"
    },
    {
      "inputs": [],
      "name": "name",
      "outputs": [
        {
          "internalType": "string",
          "name": "",
          "type": "string"
        }
      ],
      "stateMutability": "view",
      "type": "function"
    },
    {
      "inputs": [],
      "name": "owner",
      "outputs": [
        {
          "internalType": "address",
          "name": "",
          "type": "address"
        }
      ],
      "stateMutability": "view",
      "type": "function"
    },
    {
      "inputs": [],
      "name": "renounceOwnership",
      "outputs": [],
      "stateMutability": "nonpayable",
      "type": "function"
    },
    {
      "inputs": [
        {
          "internalType": "uint128",
          "name": "totalReward",
          "type": "uint128"
        }
      ],
      "name": "setTotalClaimableReward",
      "outputs": [],
      "stateMutability": "nonpayable",
      "type": "function"
    },
    {
      "inputs": [
        {
          "internalType": "uint128",
          "name": "_amount",
          "type": "uint128"
        }
      ],
      "name": "stake",
      "outputs": [],
      "stateMutability": "nonpayable",
      "type": "function"
    },
    {
      "inputs": [
        {
          "internalType": "address",
          "name": "",
          "type": "address"
        }
      ],
      "name": "stakeByOwner",
      "outputs": [
        {
          "internalType": "uint64",
          "name": "rank",
          "type": "uint64"
        },
        {
          "internalType": "uint128",
          "name": "preShare",
          "type": "uint128"
        },
        {
          "internalType": "uint128",
          "name": "lastTimeStamp",
          "type": "uint128"
        },
        {
          "internalType": "uint128",
          "name": "amount",
          "type": "uint128"
        },
        {
          "internalType": "uint128",
          "name": "claimableReward",
          "type": "uint128"
        }
      ],
      "stateMutability": "view",
      "type": "function"
    },
    {
      "inputs": [
        {
          "internalType": "uint256",
          "name": "",
          "type": "uint256"
        }
      ],
      "name": "stakers",
      "outputs": [
        {
          "internalType": "address",
          "name": "",
          "type": "address"
        }
      ],
      "stateMutability": "view",
      "type": "function"
    },
    {
      "inputs": [],
      "name": "symbol",
      "outputs": [
        {
          "internalType": "string",
          "name": "",
          "type": "string"
        }
      ],
      "stateMutability": "view",
      "type": "function"
    },
    {
      "inputs": [],
      "name": "totalSupply",
      "outputs": [
        {
          "internalType": "uint256",
          "name": "",
          "type": "uint256"
        }
      ],
      "stateMutability": "view",
      "type": "function"
    },
    {
      "inputs": [
        {
          "internalType": "address",
          "name": "to",
          "type": "address"
        },
        {
          "internalType": "uint256",
          "name": "amount",
          "type": "uint256"
        }
      ],
      "name": "transfer",
      "outputs": [
        {
          "internalType": "bool",
          "name": "",
          "type": "bool"
        }
      ],
      "stateMutability": "nonpayable",
      "type": "function"
    },
    {
      "inputs": [
        {
          "internalType": "address",
          "name": "from",
          "type": "address"
        },
        {
          "internalType": "address",
          "name": "to",
          "type": "address"
        },
        {
          "internalType": "uint256",
          "name": "amount",
          "type": "uint256"
        }
      ],
      "name": "transferFrom",
      "outputs": [
        {
          "internalType": "bool",
          "name": "",
          "type": "bool"
        }
      ],
      "stateMutability": "nonpayable",
      "type": "function"
    },
    {
      "inputs": [
        {
          "internalType": "address",
          "name": "newOwner",
          "type": "address"
        }
      ],
      "name": "transferOwnership",
      "outputs": [],
      "stateMutability": "nonpayable",
      "type": "function"
    },
    {
      "inputs": [
        {
          "internalType": "uint128",
          "name": "_amount",
          "type": "uint128"
        }
      ],
      "name": "unStake",
      "outputs": [],
      "stateMutability": "nonpayable",
      "type": "function"
    }
  ],
  "bytecode": {
    "object": "0x60e06040523480156200001157600080fd5b5060405162001e6a38038062001e6a83398101604081905262000034916200026b565b6040805180820190915260138082527f7374616b65644b6f6e6b72657465546f6b656e000000000000000000000000006020830190815285916200007b9160039162000192565b5080516200009190600490602084019062000192565b505050620000ae620000a86200013c60201b60201c565b62000140565b60016006556001600160a01b038216608081905260408051630cb2dac360e21b815290516332cb6b0c916004808201926020929091908290030181865afa158015620000fe573d6000803e3d6000fd5b505050506040513d601f19601f820116820180604052508101906200012491906200036e565b60a0526001600160a01b031660c05250620003c49050565b3390565b600580546001600160a01b038381166001600160a01b0319831681179093556040519116919082907f8be0079c531659141344cd1fd0a4f28419497f9722a3daafe3b4186f6b6457e090600090a35050565b828054620001a09062000388565b90600052602060002090601f016020900481019282620001c457600085556200020f565b82601f10620001df57805160ff19168380011785556200020f565b828001600101855582156200020f579182015b828111156200020f578251825591602001919060010190620001f2565b506200021d92915062000221565b5090565b5b808211156200021d576000815560010162000222565b634e487b7160e01b600052604160045260246000fd5b80516001600160a01b03811681146200026657600080fd5b919050565b6000806000606084860312156200028157600080fd5b83516001600160401b03808211156200029957600080fd5b818601915086601f830112620002ae57600080fd5b815181811115620002c357620002c362000238565b604051601f8201601f19908116603f01168101908382118183101715620002ee57620002ee62000238565b816040528281526020935089848487010111156200030b57600080fd5b600091505b828210156200032f578482018401518183018501529083019062000310565b82821115620003415760008484830101525b9650620003539150508682016200024e565b9350505062000365604085016200024e565b90509250925092565b6000602082840312156200038157600080fd5b5051919050565b600181811c908216806200039d57607f821691505b602082108103620003be57634e487b7160e01b600052602260045260246000fd5b50919050565b60805160a05160c051611a6f620003fb6000396000610bb701526000610fb20152600081816105f30152610da20152611a6f6000f3fe608060405234801561001057600080fd5b506004361061014d5760003560e01c80638da5cb5b116100c3578063c34531531161007c578063c345315314610328578063cf304f1814610437578063dd62ed3e1461044a578063f014af581461045d578063f2fde38b14610470578063fd5e6dd11461048357600080fd5b80638da5cb5b146102c457806395d89b41146102e9578063a239882a146102f1578063a457c2d7146102fa578063a9059cbb1461030d578063b88a802f1461032057600080fd5b8063395093511161011557806339509351146101c75780633d1da5cb146101da578063672a0fb81461027657806370a0823114610280578063715018a6146102a957806388fe2be8146102b157600080fd5b806306fdde0314610152578063095ea7b31461017057806318160ddd1461019357806323b872dd146101a5578063313ce567146101b8575b600080fd5b61015a610496565b60405161016791906116ef565b60405180910390f35b61018361017e366004611760565b610528565b6040519015158152602001610167565b6002545b604051908152602001610167565b6101836101b336600461178a565b610540565b60405160128152602001610167565b6101836101d5366004611760565b610564565b6102356101e83660046117c6565b60076020526000908152604090208054600182015460029092015467ffffffffffffffff8216926001600160801b03600160401b90930483169281811692600160801b9092048116911685565b6040805167ffffffffffffffff90961686526001600160801b039485166020870152928416928501929092528216606084015216608082015260a001610167565b61027e610586565b005b61019761028e3660046117c6565b6001600160a01b031660009081526020819052604090205490565b61027e610594565b61027e6102bf3660046117e8565b6105a8565b6005546001600160a01b03165b6040516001600160a01b039091168152602001610167565b61015a610a55565b61019760095481565b610183610308366004611760565b610a64565b61018361031b366004611760565b610adf565b61027e610aed565b6103d86103363660046117c6565b6040805160a081018252600080825260208201819052918101829052606081018290526080810191909152506001600160a01b0316600090815260076020908152604091829020825160a081018452815467ffffffffffffffff811682526001600160801b03600160401b909104811693820193909352600182015480841694820194909452600160801b909304821660608401526002015416608082015290565b6040516101679190600060a08201905067ffffffffffffffff835116825260208301516001600160801b038082166020850152806040860151166040850152806060860151166060850152806080860151166080850152505092915050565b61027e6104453660046117e8565b610c30565b610197610458366004611811565b610ef1565b61027e61046b3660046117e8565b610f1c565b61027e61047e3660046117c6565b611172565b6102d1610491366004611844565b6111eb565b6060600380546104a59061185d565b80601f01602080910402602001604051908101604052809291908181526020018280546104d19061185d565b801561051e5780601f106104f35761010080835404028352916020019161051e565b820191906000526020600020905b81548152906001019060200180831161050157829003601f168201915b5050505050905090565b600033610536818585611215565b5060019392505050565b60003361054e858285611339565b6105598585856113b3565b506001949350505050565b6000336105368185856105778383610ef1565b61058191906118ad565b611215565b61058e611581565b42600955565b61059c611581565b6105a660006115db565b565b6002600654036105d35760405162461bcd60e51b81526004016105ca906118c5565b60405180910390fd5b6002600655604051636eb1769f60e11b81523360048201523060248201527f0000000000000000000000000000000000000000000000000000000000000000906001600160801b038316906001600160a01b0383169063dd62ed3e90604401602060405180830381865afa15801561064f573d6000803e3d6000fd5b505050506040513d601f19601f8201168201806040525081019061067391906118fc565b10156106c15760405162461bcd60e51b815260206004820152601c60248201527f4e65656420746f20616c6c6f77207472616e736665722066697273740000000060448201526064016105ca565b6040516370a0823160e01b81523360048201526001600160801b038316906001600160a01b038316906370a0823190602401602060405180830381865afa158015610710573d6000803e3d6000fd5b505050506040513d601f19601f8201168201806040525081019061073491906118fc565b10156107795760405162461bcd60e51b8152602060048201526014602482015273546f6f206d75636820666f722062616c616e636560601b60448201526064016105ca565b6040516323b872dd60e01b81523360048201523060248201526001600160801b03831660448201526000906001600160a01b038316906323b872dd906064016020604051808303816000875af11580156107d7573d6000803e3d6000fd5b505050506040513d601f19601f820116820180604052508101906107fb9190611915565b90508061083c5760405162461bcd60e51b815260206004820152600f60248201526e151c985b9cd9995c8819985a5b1959608a1b60448201526064016105ca565b336000908152600760209081526040808320815160a081018352815467ffffffffffffffff81168083526001600160801b03600160401b909204821695830195909552600183015480821694830194909452600160801b9093048316606082015260029091015490911660808201529103610900576008805460018101825560008290527ff3f7a9fe364faab93b216da50a3214154f22a0a2b415b23a84c8169e8b636ee30180546001600160a01b031916331790555467ffffffffffffffff1681525b600042905061093382606001516001600160801b031683604001516001600160801b0316836001600160801b031661162d565b6001600160801b0390811660208401528116604083015260608201805186919061095e908390611937565b6001600160801b039081169091523360008181526007602090815260409182902087518154928901518616600160401b026001600160c01b031990931667ffffffffffffffff909116179190911781558187015160608801518516600160801b02908516176001820155608087015160029091018054919094166001600160801b0319919091161790925590517f1449c6dd7851abc30abf37f57715f492010519147cc2652fbc38202c18a6ee909250610a419190889085906001600160a01b039390931683526001600160801b03918216602084015216604082015260600190565b60405180910390a150506001600655505050565b6060600480546104a59061185d565b60003381610a728286610ef1565b905083811015610ad25760405162461bcd60e51b815260206004820152602560248201527f45524332303a2064656372656173656420616c6c6f77616e63652062656c6f77604482015264207a65726f60d81b60648201526084016105ca565b6105598286868403611215565b6000336105368185856113b3565b600260065403610b0f5760405162461bcd60e51b81526004016105ca906118c5565b6002600681905533600090815260076020526040902001546001600160801b031680610b745760405162461bcd60e51b815260206004820152601460248201527343616e277420636c61696d20616e797468696e6760601b60448201526064016105ca565b6000610b886005546001600160a01b031690565b6040516323b872dd60e01b81526001600160a01b038083166004830152336024830152604482018590529192507f0000000000000000000000000000000000000000000000000000000000000000909116906323b872dd906064016020604051808303816000875af1158015610c02573d6000803e3d6000fd5b505050506040513d601f19601f82011682018060405250810190610c269190611915565b5050600160065550565b600260065403610c525760405162461bcd60e51b81526004016105ca906118c5565b6002600681905533600090815260076020908152604091829020825160a081018452815467ffffffffffffffff811682526001600160801b03600160401b909104811693820193909352600182015480841694820194909452600160801b9093048216606084018190529301548116608083015290919083161115610d195760405162461bcd60e51b815260206004820152601760248201527f43616e277420756e7374616b652074686973206d75636800000000000000000060448201526064016105ca565b6000429050610d4c82606001516001600160801b031683604001516001600160801b0316836001600160801b031661162d565b6001600160801b03908116602084015281166040830152606082018051849190610d77908390611962565b6001600160801b0390811690915260405163a9059cbb60e01b815233600482015290851660248201527f00000000000000000000000000000000000000000000000000000000000000006001600160a01b0316915063a9059cbb906044016020604051808303816000875af1158015610df4573d6000803e3d6000fd5b505050506040513d601f19601f82011682018060405250810190610e189190611915565b5033600081815260076020908152604091829020855181548784015167ffffffffffffffff9092166001600160c01b031990911617600160401b6001600160801b039283160217825586840151606080890151918316600160801b928416929092029190911760018401556080880151600290930180546001600160801b03191693831693909317909255835194855287811692850192909252908416918301919091527fe54700985ffd0973f2d7efd700eb74fa18d4e63f5f6789bb06a67d3c532d58fe910160405180910390a15050600160065550565b6001600160a01b03918216600090815260016020908152604080832093909416825291909152205490565b610f24611581565b600260065403610f465760405162461bcd60e51b81526004016105ca906118c5565b6002600655600880546040805160208084028201810190925282815260009390929091830182828015610fa257602002820191906000526020600020905b81546001600160a01b03168152600190910190602001808311610f84575b50505050509050600042905060007f0000000000000000000000000000000000000000000000000000000000000000600954836001600160801b0316610fe8919061198a565b610ff291906119a1565b905060005b835181101561115b576110a1836007600087858151811061101a5761101a6119c0565b6020908102919091018101516001600160a01b03168252818101929092526040908101600020815160a081018352815467ffffffffffffffff811682526001600160801b03600160401b909104811694820194909452600182015480851693820193909352600160801b90920483166060830152600201549091166080820152848861164b565b600760008684815181106110b7576110b76119c0565b6020908102919091018101516001600160a01b03168252818101929092526040908101600020835181549385015167ffffffffffffffff9091166001600160c01b031990941693909317600160401b6001600160801b0394851602178155908301516060840151908316600160801b9184169190910217600180830191909155608090930151600290910180546001600160801b0319169190921617905501610ff7565b50506001600160801b031660095550506001600655565b61117a611581565b6001600160a01b0381166111df5760405162461bcd60e51b815260206004820152602660248201527f4f776e61626c653a206e6577206f776e657220697320746865207a65726f206160448201526564647265737360d01b60648201526084016105ca565b6111e8816115db565b50565b600881815481106111fb57600080fd5b6000918252602090912001546001600160a01b0316905081565b6001600160a01b0383166112775760405162461bcd60e51b8152602060048201526024808201527f45524332303a20617070726f76652066726f6d20746865207a65726f206164646044820152637265737360e01b60648201526084016105ca565b6001600160a01b0382166112d85760405162461bcd60e51b815260206004820152602260248201527f45524332303a20617070726f766520746f20746865207a65726f206164647265604482015261737360f01b60648201526084016105ca565b6001600160a01b0383811660008181526001602090815260408083209487168084529482529182902085905590518481527f8c5be1e5ebec7d5bd14f71427d1e84f3dd0314c0f7b2291e5b200ac8c7c3b925910160405180910390a3505050565b60006113458484610ef1565b905060001981146113ad57818110156113a05760405162461bcd60e51b815260206004820152601d60248201527f45524332303a20696e73756666696369656e7420616c6c6f77616e636500000060448201526064016105ca565b6113ad8484848403611215565b50505050565b6001600160a01b0383166114175760405162461bcd60e51b815260206004820152602560248201527f45524332303a207472616e736665722066726f6d20746865207a65726f206164604482015264647265737360d81b60648201526084016105ca565b6001600160a01b0382166114795760405162461bcd60e51b815260206004820152602360248201527f45524332303a207472616e7366657220746f20746865207a65726f206164647260448201526265737360e81b60648201526084016105ca565b6001600160a01b038316600090815260208190526040902054818110156114f15760405162461bcd60e51b815260206004820152602660248201527f45524332303a207472616e7366657220616d6f756e7420657863656564732062604482015265616c616e636560d01b60648201526084016105ca565b6001600160a01b038085166000908152602081905260408082208585039055918516815290812080548492906115289084906118ad565b92505081905550826001600160a01b0316846001600160a01b03167fddf252ad1be2c89b69c2b068fc378daa952ba7f163c4a11628f55a4df523b3ef8460405161157491815260200190565b60405180910390a36113ad565b6005546001600160a01b031633146105a65760405162461bcd60e51b815260206004820181905260248201527f4f776e61626c653a2063616c6c6572206973206e6f7420746865206f776e657260448201526064016105ca565b600580546001600160a01b038381166001600160a01b0319831681179093556040519116919082907f8be0079c531659141344cd1fd0a4f28419497f9722a3daafe3b4186f6b6457e090600090a35050565b6000611639838361198a565b61164390856119a1565b949350505050565b6040805160a081018252600080825260208201819052918101829052606081018290526080810191909152826116a585606001516001600160801b031686604001516001600160801b0316886001600160801b031661162d565b85602001516116b49190611937565b6116be90846119d6565b6116c89190611a05565b6001600160801b039081166080860152949094166040840152505060006020820152919050565b600060208083528351808285015260005b8181101561171c57858101830151858201604001528201611700565b8181111561172e576000604083870101525b50601f01601f1916929092016040019392505050565b80356001600160a01b038116811461175b57600080fd5b919050565b6000806040838503121561177357600080fd5b61177c83611744565b946020939093013593505050565b60008060006060848603121561179f57600080fd5b6117a884611744565b92506117b660208501611744565b9150604084013590509250925092565b6000602082840312156117d857600080fd5b6117e182611744565b9392505050565b6000602082840312156117fa57600080fd5b81356001600160801b03811681146117e157600080fd5b6000806040838503121561182457600080fd5b61182d83611744565b915061183b60208401611744565b90509250929050565b60006020828403121561185657600080fd5b5035919050565b600181811c9082168061187157607f821691505b60208210810361189157634e487b7160e01b600052602260045260246000fd5b50919050565b634e487b7160e01b600052601160045260246000fd5b600082198211156118c0576118c0611897565b500190565b6020808252601f908201527f5265656e7472616e637947756172643a207265656e7472616e742063616c6c00604082015260600190565b60006020828403121561190e57600080fd5b5051919050565b60006020828403121561192757600080fd5b815180151581146117e157600080fd5b60006001600160801b0380831681851680830382111561195957611959611897565b01949350505050565b60006001600160801b038381169083168181101561198257611982611897565b039392505050565b60008282101561199c5761199c611897565b500390565b60008160001904831182151516156119bb576119bb611897565b500290565b634e487b7160e01b600052603260045260246000fd5b60006001600160801b03808316818516818304811182151516156119fc576119fc611897565b02949350505050565b60006001600160801b0380841680611a2d57634e487b7160e01b600052601260045260246000fd5b9216919091049291505056fea26469706673582212209dd582a9bbcb711f3e7acb4fdecd403ca9d637982427f27503cd31ff577b1dbd64736f6c634300080e0033",
    "linkReferences": {}
  },
  "methodIdentifiers": {
    "allowance(address,address)": "dd62ed3e",
    "approve(address,uint256)": "095ea7b3",
    "balanceOf(address)": "70a08231",
    "beginTimestamp()": "672a0fb8",
    "claimReward()": "b88a802f",
    "decimals()": "313ce567",
    "decreaseAllowance(address,uint256)": "a457c2d7",
    "getStakeInfo(address)": "c3453153",
    "increaseAllowance(address,uint256)": "39509351",
    "monthTimeStamp()": "a239882a",
    "name()": "06fdde03",
    "owner()": "8da5cb5b",
    "renounceOwnership()": "715018a6",
    "setTotalClaimableReward(uint128)": "f014af58",
    "stake(uint128)": "88fe2be8",
    "stakeByOwner(address)": "3d1da5cb",
    "stakers(uint256)": "fd5e6dd1",
    "symbol()": "95d89b41",
    "totalSupply()": "18160ddd",
    "transfer(address,uint256)": "a9059cbb",
    "transferFrom(address,address,uint256)": "23b872dd",
    "transferOwnership(address)": "f2fde38b",
    "unStake(uint128)": "cf304f18"
  },
  "id": 16
}