{
  "abi": [
    {
      "inputs": [
        {
          "internalType": "address",
          "name": "_bank",
          "type": "address"
        },
        {
          "internalType": "address",
          "name": "multisig",
          "type": "address"
        },
        {
          "internalType": "address",
          "name": "_currencyUsed",
          "type": "address"
        },
        {
          "internalType": "string",
          "name": "_name",
          "type": "string"
        },
        {
          "internalType": "string",
          "name": "_symbol",
          "type": "string"
        }
      ],
      "stateMutability": "nonpayable",
      "type": "constructor"
    },
    {
      "anonymous": false,
      "inputs": [
        {
          "indexed": true,
          "internalType": "address",
          "name": "owner",
          "type": "address"
        },
        {
          "indexed": true,
          "internalType": "address",
          "name": "spender",
          "type": "address"
        },
        {
          "indexed": false,
          "internalType": "uint256",
          "name": "value",
          "type": "uint256"
        }
      ],
      "name": "Approval",
      "type": "event"
    },
    {
      "anonymous": false,
      "inputs": [
        {
          "indexed": false,
          "internalType": "address",
          "name": "buyer",
          "type": "address"
        },
        {
          "indexed": false,
          "internalType": "uint256",
          "name": "price",
          "type": "uint256"
        },
        {
          "indexed": false,
          "internalType": "uint256",
          "name": "amount",
          "type": "uint256"
        }
      ],
      "name": "Buying",
      "type": "event"
    },
    {
      "anonymous": false,
      "inputs": [
        {
          "indexed": true,
          "internalType": "bytes32",
          "name": "role",
          "type": "bytes32"
        },
        {
          "indexed": true,
          "internalType": "bytes32",
          "name": "previousAdminRole",
          "type": "bytes32"
        },
        {
          "indexed": true,
          "internalType": "bytes32",
          "name": "newAdminRole",
          "type": "bytes32"
        }
      ],
      "name": "RoleAdminChanged",
      "type": "event"
    },
    {
      "anonymous": false,
      "inputs": [
        {
          "indexed": true,
          "internalType": "bytes32",
          "name": "role",
          "type": "bytes32"
        },
        {
          "indexed": true,
          "internalType": "address",
          "name": "account",
          "type": "address"
        },
        {
          "indexed": true,
          "internalType": "address",
          "name": "sender",
          "type": "address"
        }
      ],
      "name": "RoleGranted",
      "type": "event"
    },
    {
      "anonymous": false,
      "inputs": [
        {
          "indexed": true,
          "internalType": "bytes32",
          "name": "role",
          "type": "bytes32"
        },
        {
          "indexed": true,
          "internalType": "address",
          "name": "account",
          "type": "address"
        },
        {
          "indexed": true,
          "internalType": "address",
          "name": "sender",
          "type": "address"
        }
      ],
      "name": "RoleRevoked",
      "type": "event"
    },
    {
      "anonymous": false,
      "inputs": [
        {
          "indexed": true,
          "internalType": "address",
          "name": "from",
          "type": "address"
        },
        {
          "indexed": true,
          "internalType": "address",
          "name": "to",
          "type": "address"
        },
        {
          "indexed": false,
          "internalType": "uint256",
          "name": "value",
          "type": "uint256"
        }
      ],
      "name": "Transfer",
      "type": "event"
    },
    {
      "inputs": [],
      "name": "DEFAULT_ADMIN_ROLE",
      "outputs": [
        {
          "internalType": "bytes32",
          "name": "",
          "type": "bytes32"
        }
      ],
      "stateMutability": "view",
      "type": "function"
    },
    {
      "inputs": [],
      "name": "DOMAIN_SEPARATOR",
      "outputs": [
        {
          "internalType": "bytes32",
          "name": "",
          "type": "bytes32"
        }
      ],
      "stateMutability": "view",
      "type": "function"
    },
    {
      "inputs": [],
      "name": "MAX_SUPPLY",
      "outputs": [
        {
          "internalType": "uint256",
          "name": "",
          "type": "uint256"
        }
      ],
      "stateMutability": "view",
      "type": "function"
    },
    {
      "inputs": [],
      "name": "TOKEN_PRICE",
      "outputs": [
        {
          "internalType": "uint256",
          "name": "",
          "type": "uint256"
        }
      ],
      "stateMutability": "view",
      "type": "function"
    },
    {
      "inputs": [
        {
          "internalType": "address",
          "name": "owner",
          "type": "address"
        },
        {
          "internalType": "address",
          "name": "spender",
          "type": "address"
        }
      ],
      "name": "allowance",
      "outputs": [
        {
          "internalType": "uint256",
          "name": "",
          "type": "uint256"
        }
      ],
      "stateMutability": "view",
      "type": "function"
    },
    {
      "inputs": [
        {
          "internalType": "address",
          "name": "spender",
          "type": "address"
        },
        {
          "internalType": "uint256",
          "name": "amount",
          "type": "uint256"
        }
      ],
      "name": "approve",
      "outputs": [
        {
          "internalType": "bool",
          "name": "",
          "type": "bool"
        }
      ],
      "stateMutability": "nonpayable",
      "type": "function"
    },
    {
      "inputs": [
        {
          "internalType": "address",
          "name": "account",
          "type": "address"
        }
      ],
      "name": "balanceOf",
      "outputs": [
        {
          "internalType": "uint256",
          "name": "",
          "type": "uint256"
        }
      ],
      "stateMutability": "view",
      "type": "function"
    },
    {
      "inputs": [
        {
          "internalType": "address",
          "name": "_to",
          "type": "address"
        },
        {
          "internalType": "uint256",
          "name": "price",
          "type": "uint256"
        }
      ],
      "name": "buy",
      "outputs": [],
      "stateMutability": "nonpayable",
      "type": "function"
    },
    {
      "inputs": [],
      "name": "decimals",
      "outputs": [
        {
          "internalType": "uint8",
          "name": "",
          "type": "uint8"
        }
      ],
      "stateMutability": "view",
      "type": "function"
    },
    {
      "inputs": [
        {
          "internalType": "address",
          "name": "spender",
          "type": "address"
        },
        {
          "internalType": "uint256",
          "name": "subtractedValue",
          "type": "uint256"
        }
      ],
      "name": "decreaseAllowance",
      "outputs": [
        {
          "internalType": "bool",
          "name": "",
          "type": "bool"
        }
      ],
      "stateMutability": "nonpayable",
      "type": "function"
    },
    {
      "inputs": [
        {
          "internalType": "bytes32",
          "name": "role",
          "type": "bytes32"
        }
      ],
      "name": "getRoleAdmin",
      "outputs": [
        {
          "internalType": "bytes32",
          "name": "",
          "type": "bytes32"
        }
      ],
      "stateMutability": "view",
      "type": "function"
    },
    {
      "inputs": [
        {
          "internalType": "bytes32",
          "name": "role",
          "type": "bytes32"
        },
        {
          "internalType": "address",
          "name": "account",
          "type": "address"
        }
      ],
      "name": "grantRole",
      "outputs": [],
      "stateMutability": "nonpayable",
      "type": "function"
    },
    {
      "inputs": [
        {
          "internalType": "bytes32",
          "name": "role",
          "type": "bytes32"
        },
        {
          "internalType": "address",
          "name": "account",
          "type": "address"
        }
      ],
      "name": "hasRole",
      "outputs": [
        {
          "internalType": "bool",
          "name": "",
          "type": "bool"
        }
      ],
      "stateMutability": "view",
      "type": "function"
    },
    {
      "inputs": [
        {
          "internalType": "address",
          "name": "spender",
          "type": "address"
        },
        {
          "internalType": "uint256",
          "name": "addedValue",
          "type": "uint256"
        }
      ],
      "name": "increaseAllowance",
      "outputs": [
        {
          "internalType": "bool",
          "name": "",
          "type": "bool"
        }
      ],
      "stateMutability": "nonpayable",
      "type": "function"
    },
    {
      "inputs": [],
      "name": "name",
      "outputs": [
        {
          "internalType": "string",
          "name": "",
          "type": "string"
        }
      ],
      "stateMutability": "view",
      "type": "function"
    },
    {
      "inputs": [
        {
          "internalType": "address",
          "name": "owner",
          "type": "address"
        }
      ],
      "name": "nonces",
      "outputs": [
        {
          "internalType": "uint256",
          "name": "",
          "type": "uint256"
        }
      ],
      "stateMutability": "view",
      "type": "function"
    },
    {
      "inputs": [
        {
          "internalType": "address",
          "name": "owner",
          "type": "address"
        },
        {
          "internalType": "address",
          "name": "spender",
          "type": "address"
        },
        {
          "internalType": "uint256",
          "name": "value",
          "type": "uint256"
        },
        {
          "internalType": "uint256",
          "name": "deadline",
          "type": "uint256"
        },
        {
          "internalType": "uint8",
          "name": "v",
          "type": "uint8"
        },
        {
          "internalType": "bytes32",
          "name": "r",
          "type": "bytes32"
        },
        {
          "internalType": "bytes32",
          "name": "s",
          "type": "bytes32"
        }
      ],
      "name": "permit",
      "outputs": [],
      "stateMutability": "nonpayable",
      "type": "function"
    },
    {
      "inputs": [
        {
          "internalType": "bytes32",
          "name": "role",
          "type": "bytes32"
        },
        {
          "internalType": "address",
          "name": "account",
          "type": "address"
        }
      ],
      "name": "renounceRole",
      "outputs": [],
      "stateMutability": "nonpayable",
      "type": "function"
    },
    {
      "inputs": [
        {
          "internalType": "bytes32",
          "name": "role",
          "type": "bytes32"
        },
        {
          "internalType": "address",
          "name": "account",
          "type": "address"
        }
      ],
      "name": "revokeRole",
      "outputs": [],
      "stateMutability": "nonpayable",
      "type": "function"
    },
    {
      "inputs": [
        {
          "internalType": "bytes32",
          "name": "merkleRoot",
          "type": "bytes32"
        }
      ],
      "name": "setAllowListMerkleRoot",
      "outputs": [],
      "stateMutability": "nonpayable",
      "type": "function"
    },
    {
      "inputs": [
        {
          "internalType": "uint32",
          "name": "_cexRatioX10000",
          "type": "uint32"
        }
      ],
      "name": "setCexRatio",
      "outputs": [],
      "stateMutability": "nonpayable",
      "type": "function"
    },
    {
      "inputs": [
        {
          "internalType": "address",
          "name": "currencyToUse",
          "type": "address"
        }
      ],
      "name": "setCurrency",
      "outputs": [],
      "stateMutability": "nonpayable",
      "type": "function"
    },
    {
      "inputs": [
        {
          "internalType": "uint128",
          "name": "_maxToBuy",
          "type": "uint128"
        }
      ],
      "name": "setMaxToBuy",
      "outputs": [],
      "stateMutability": "nonpayable",
      "type": "function"
    },
    {
      "inputs": [
        {
          "internalType": "uint256",
          "name": "step",
          "type": "uint256"
        }
      ],
      "name": "setStep",
      "outputs": [],
      "stateMutability": "nonpayable",
      "type": "function"
    },
    {
      "inputs": [
        {
          "internalType": "bytes4",
          "name": "interfaceId",
          "type": "bytes4"
        }
      ],
      "name": "supportsInterface",
      "outputs": [
        {
          "internalType": "bool",
          "name": "",
          "type": "bool"
        }
      ],
      "stateMutability": "view",
      "type": "function"
    },
    {
      "inputs": [],
      "name": "symbol",
      "outputs": [
        {
          "internalType": "string",
          "name": "",
          "type": "string"
        }
      ],
      "stateMutability": "view",
      "type": "function"
    },
    {
      "inputs": [
        {
          "internalType": "address",
          "name": "",
          "type": "address"
        }
      ],
      "name": "tokensBought",
      "outputs": [
        {
          "internalType": "uint256",
          "name": "",
          "type": "uint256"
        }
      ],
      "stateMutability": "view",
      "type": "function"
    },
    {
      "inputs": [],
      "name": "totalSupply",
      "outputs": [
        {
          "internalType": "uint256",
          "name": "",
          "type": "uint256"
        }
      ],
      "stateMutability": "view",
      "type": "function"
    },
    {
      "inputs": [
        {
          "internalType": "address",
          "name": "to",
          "type": "address"
        },
        {
          "internalType": "uint256",
          "name": "amount",
          "type": "uint256"
        }
      ],
      "name": "transfer",
      "outputs": [
        {
          "internalType": "bool",
          "name": "",
          "type": "bool"
        }
      ],
      "stateMutability": "nonpayable",
      "type": "function"
    },
    {
      "inputs": [
        {
          "internalType": "address",
          "name": "from",
          "type": "address"
        },
        {
          "internalType": "address",
          "name": "to",
          "type": "address"
        },
        {
          "internalType": "uint256",
          "name": "amount",
          "type": "uint256"
        }
      ],
      "name": "transferFrom",
      "outputs": [
        {
          "internalType": "bool",
          "name": "",
          "type": "bool"
        }
      ],
      "stateMutability": "nonpayable",
      "type": "function"
    },
    {
      "inputs": [
        {
          "internalType": "address",
          "name": "from",
          "type": "address"
        },
        {
          "internalType": "address",
          "name": "receiver",
          "type": "address"
        },
        {
          "internalType": "uint256",
          "name": "amount",
          "type": "uint256"
        },
        {
          "internalType": "uint256",
          "name": "deadline",
          "type": "uint256"
        },
        {
          "internalType": "uint8",
          "name": "v",
          "type": "uint8"
        },
        {
          "internalType": "bytes32",
          "name": "r",
          "type": "bytes32"
        },
        {
          "internalType": "bytes32",
          "name": "s",
          "type": "bytes32"
        }
      ],
      "name": "transferFromWithPermission",
      "outputs": [],
      "stateMutability": "nonpayable",
      "type": "function"
    },
    {
      "inputs": [],
      "name": "variables",
      "outputs": [
        {
          "internalType": "enum Step",
          "name": "step",
          "type": "uint8"
        },
        {
          "internalType": "uint32",
          "name": "cexRatioX10000",
          "type": "uint32"
        },
        {
          "internalType": "bytes32",
          "name": "merkleRoot",
          "type": "bytes32"
        },
        {
          "internalType": "uint128",
          "name": "MaxToBuy",
          "type": "uint128"
        },
        {
          "internalType": "address",
          "name": "bank",
          "type": "address"
        },
        {
          "internalType": "contract IERC20",
          "name": "currencyUsed",
          "type": "address"
        }
      ],
      "stateMutability": "view",
      "type": "function"
    },
    {
      "inputs": [],
      "name": "withdraw",
      "outputs": [],
      "stateMutability": "nonpayable",
      "type": "function"
    }
  ],
  "bytecode": {
    "object": "0x6101406040523480156200001257600080fd5b50604051620029ea380380620029ea83398101604081905262000035916200052d565b8180604051806040016040528060018152602001603160f81b815250848481600390805190602001906200006b9291906200039d565b508051620000819060049060208401906200039d565b5050825160209384012082519284019290922060e08381526101008281524660a0818152604080517f8b73c3c69bb8fe3d512ecc4cf759cc79239f7b179b0ffacaa9a75d522b39400f818b01819052818301999099526060810196909652608080870193909352308683018190528151808803909301835260c0808801808452845194909b01939093209093529190526101209586526001600855610180840190526000808752918301829052820152929350500160646200014f690dc3a8351f3d86a00000601e620005e6565b6200015b919062000614565b6001600160801b031681526001600160a01b0380881660208301528516604090910152805160098054909190829060ff19166001836002811115620001a457620001a4620005d0565b02179055506020820151815464ffffffff00191661010063ffffffff909216919091021781556040820151600182015560608201516002820180546001600160801b0319166001600160801b0390921691909117905560808201516003820180546001600160a01b03199081166001600160a01b039384161790915560a09093015160049092018054909316911617905562000250600080516020620029ca83398151915233620002ad565b6200026b600080516020620029ca83398151915285620002ad565b62000286600080516020620029aa83398151915285620002ad565b620002a26000600080516020620029aa83398151915262000352565b505050505062000673565b60008281526007602090815260408083206001600160a01b038516845290915290205460ff166200034e5760008281526007602090815260408083206001600160a01b03851684529091529020805460ff191660011790556200030d3390565b6001600160a01b0316816001600160a01b0316837f2f8788117e7eff1d82e926ec794901d17c78024a50270940304540a733656f0d60405160405180910390a45b5050565b600082815260076020526040808220600101805490849055905190918391839186917fbd79b86ffe0ab8e8776151514217cd7cacd52c909f66475c3af44e129f0b00ff9190a4505050565b828054620003ab9062000637565b90600052602060002090601f016020900481019282620003cf57600085556200041a565b82601f10620003ea57805160ff19168380011785556200041a565b828001600101855582156200041a579182015b828111156200041a578251825591602001919060010190620003fd565b50620004289291506200042c565b5090565b5b808211156200042857600081556001016200042d565b80516001600160a01b03811681146200045b57600080fd5b919050565b634e487b7160e01b600052604160045260246000fd5b600082601f8301126200048857600080fd5b81516001600160401b0380821115620004a557620004a562000460565b604051601f8301601f19908116603f01168101908282118183101715620004d057620004d062000460565b81604052838152602092508683858801011115620004ed57600080fd5b600091505b83821015620005115785820183015181830184015290820190620004f2565b83821115620005235760008385830101525b9695505050505050565b600080600080600060a086880312156200054657600080fd5b620005518662000443565b9450620005616020870162000443565b9350620005716040870162000443565b60608701519093506001600160401b03808211156200058f57600080fd5b6200059d89838a0162000476565b93506080880151915080821115620005b457600080fd5b50620005c38882890162000476565b9150509295509295909350565b634e487b7160e01b600052602160045260246000fd5b60008160001904831182151516156200060f57634e487b7160e01b600052601160045260246000fd5b500290565b6000826200063257634e487b7160e01b600052601260045260246000fd5b500490565b600181811c908216806200064c57607f821691505b6020821081036200066d57634e487b7160e01b600052602260045260246000fd5b50919050565b60805160a05160c05160e05161010051610120516122e7620006c360003960006116fd0152600061174c0152600061172701526000611680015260006116aa015260006116d401526122e76000f3fe608060405234801561001057600080fd5b50600436106101fb5760003560e01c80637ecebe001161011a578063cce7ec13116100ad578063d547741f1161007c578063d547741f14610464578063dd62ed3e14610477578063ea7a42e41461048a578063f75d6f801461049d578063f8dcbddb146104b057600080fd5b8063cce7ec1314610423578063cfac414b14610436578063d2d8cb6714610449578063d505accf1461045157600080fd5b8063a217fddf116100e9578063a217fddf146103a0578063a457c2d7146103a8578063a9059cbb146103bb578063be45a26f146103ce57600080fd5b80637ecebe001461035f578063849b4d171461037257806391d148541461038557806395d89b411461039857600080fd5b80632f84c3911161019257806336568abe1161016157806336568abe14610308578063395093511461031b5780633ccfd60b1461032e57806370a082311461033657600080fd5b80632f84c391146102cd578063313ce567146102e057806332cb6b0c146102ef5780633644e5151461030057600080fd5b806323b872dd116101ce57806323b872dd14610262578063248a9ca314610275578063264d7797146102985780632f2ff15d146102b857600080fd5b806301ffc9a71461020057806306fdde0314610228578063095ea7b31461023d57806318160ddd14610250575b600080fd5b61021361020e366004611e28565b6104c3565b60405190151581526020015b60405180910390f35b6102306104fa565b60405161021f9190611e7e565b61021361024b366004611ecd565b61058c565b6002545b60405190815260200161021f565b610213610270366004611ef7565b6105a4565b610254610283366004611f33565b60009081526007602052604090206001015490565b6102546102a6366004611f4c565b600e6020526000908152604090205481565b6102cb6102c6366004611f67565b6105c8565b005b6102cb6102db366004611f4c565b6105f2565b6040516012815260200161021f565b610254690dc3a8351f3d86a0000081565b61025461084d565b6102cb610316366004611f67565b61085c565b610213610329366004611ecd565b6108df565b6102cb610901565b610254610344366004611f4c565b6001600160a01b031660009081526020819052604090205490565b61025461036d366004611f4c565b610a93565b6102cb610380366004611f93565b610ab1565b610213610393366004611f67565b610b36565b610230610b61565b610254600081565b6102136103b6366004611ecd565b610b70565b6102136103c9366004611ecd565b610beb565b600954600a54600b54600c54600d546104119460ff81169461010090910463ffffffff169390926001600160801b03909116916001600160a01b03918216911686565b60405161021f96959493929190611fd2565b6102cb610431366004611ecd565b610bf9565b6102cb610444366004612038565b610f7b565b610254600a81565b6102cb61045f366004612038565b610f9f565b6102cb610472366004611f67565b611103565b6102546104853660046120ab565b611128565b6102cb610498366004611f33565b611153565b6102cb6104ab3660046120d5565b611171565b6102cb6104be366004611f33565b611225565b60006001600160e01b03198216637965db0b60e01b14806104f457506301ffc9a760e01b6001600160e01b03198316145b92915050565b606060038054610509906120fb565b80601f0160208091040260200160405190810160405280929190818152602001828054610535906120fb565b80156105825780601f1061055757610100808354040283529160200191610582565b820191906000526020600020905b81548152906001019060200180831161056557829003601f168201915b5050505050905090565b60003361059a818585611274565b5060019392505050565b6000336105b2858285611398565b6105bd858585611412565b506001949350505050565b6000828152600760205260409020600101546105e3816115e0565b6105ed83836115ed565b505050565b60008051602061229283398151915261060a816115e0565b6040805160c08101909152600980546000929190829060ff16600281111561063457610634611fbc565b600281111561064557610645611fbc565b81528154610100900463ffffffff166020820152600182015460408083019190915260028301546001600160801b0316606083015260038301546001600160a01b03908116608080850191909152600494850154821660a094850152928501519285015191516370a0823160e01b8152309481019490945293945092169163a9059cbb9183906370a0823190602401602060405180830381865afa1580156106f1573d6000803e3d6000fd5b505050506040513d601f19601f82011682018060405250810190610715919061212f565b6040516001600160e01b031960e085901b1681526001600160a01b03909216600483015260248201526044016020604051808303816000875af1158015610760573d6000803e3d6000fd5b505050506040513d601f19601f820116820180604052508101906107849190612148565b506001600160a01b03831660a0820152805160098054839290829060ff191660018360028111156107b7576107b7611fbc565b02179055506020820151815464ffffffff00191661010063ffffffff909216919091021781556040820151600182015560608201516002820180546001600160801b0319166001600160801b0390921691909117905560808201516003820180546001600160a01b03199081166001600160a01b039384161790915560a090930151600490920180549093169116179055505050565b6000610857611673565b905090565b6001600160a01b03811633146108d15760405162461bcd60e51b815260206004820152602f60248201527f416363657373436f6e74726f6c3a2063616e206f6e6c792072656e6f756e636560448201526e103937b632b9903337b91039b2b63360891b60648201526084015b60405180910390fd5b6108db828261179a565b5050565b60003361059a8185856108f28383611128565b6108fc9190612180565b611274565b600080516020612292833981519152610919816115e0565b6040805160c08101909152600980546000929190829060ff16600281111561094357610943611fbc565b600281111561095457610954611fbc565b81528154610100900463ffffffff166020820152600182015460408083019190915260028301546001600160801b0316606083015260038301546001600160a01b03908116608080850191909152600494850154821660a094850152928501519285015191516370a0823160e01b8152309481019490945293945092169163a9059cbb9183906370a0823190602401602060405180830381865afa158015610a00573d6000803e3d6000fd5b505050506040513d601f19601f82011682018060405250810190610a24919061212f565b6040516001600160e01b031960e085901b1681526001600160a01b03909216600483015260248201526044016020604051808303816000875af1158015610a6f573d6000803e3d6000fd5b505050506040513d601f19601f820116820180604052508101906105ed9190612148565b6001600160a01b0381166000908152600560205260408120546104f4565b600080516020612292833981519152610ac9816115e0565b68056bc75e2d63100000826001600160801b031611610b135760405162461bcd60e51b81526004016108c890602080825260049082015263151310d160e21b604082015260600190565b50600b80546001600160801b0319166001600160801b0392909216919091179055565b60009182526007602090815260408084206001600160a01b0393909316845291905290205460ff1690565b606060048054610509906120fb565b60003381610b7e8286611128565b905083811015610bde5760405162461bcd60e51b815260206004820152602560248201527f45524332303a2064656372656173656420616c6c6f77616e63652062656c6f77604482015264207a65726f60d81b60648201526084016108c8565b6105bd8286868403611274565b60003361059a818585611412565b600260085403610c4b5760405162461bcd60e51b815260206004820152601f60248201527f5265656e7472616e637947756172643a207265656e7472616e742063616c6c0060448201526064016108c8565b600260088190556040805160c0810190915260098054600093839160ff1690811115610c7957610c79611fbc565b6002811115610c8a57610c8a611fbc565b81528154610100900463ffffffff1660208201526001820154604082015260028201546001600160801b0316606082015260038201546001600160a01b03908116608083015260049092015490911660a09091015290506000610cf0600a612710612198565b6020830151610d059063ffffffff1685612198565b610d0f91906121b7565b90506000610d1c60025490565b610d269083612180565b9050600083516002811115610d3d57610d3d611fbc565b03610d735760405162461bcd60e51b81526004016108c89060208082526004908201526353494e4160e01b604082015260600190565b600283516002811115610d8857610d88611fbc565b03610dba5760405162461bcd60e51b8152602060048201526002602482015261534f60f01b60448201526064016108c8565b690dc3a8351f3d86a00000811115610dfa5760405162461bcd60e51b8152602060048201526003602482015262454d5360e81b60448201526064016108c8565b6060830151336000908152600e60205260409020546001600160801b0390911690610e26908490612180565b1115610e5d5760405162461bcd60e51b815260206004820152600660248201526515105095135560d21b60448201526064016108c8565b60a08301516040516323b872dd60e01b8152336004820152306024820152604481018690526001600160a01b03909116906323b872dd906064016020604051808303816000875af1158015610eb6573d6000803e3d6000fd5b505050506040513d601f19601f82011682018060405250810190610eda9190612148565b50610ee58583611801565b336000908152600e602052604081208054849290610f04908490612180565b9091555050690dc3a8351f3d869fffff198101610f2557610f256002611225565b604080516001600160a01b0387168152602081018690529081018390527f9e4ea95a373e6be65b8e8588f0c5491e3c70ace6d2cf2b53f95cf22a0fc9a6999060600160405180910390a150506001600855505050565b610f8a87338787878787610f9f565b610f958787876105a4565b5050505050505050565b83421115610fef5760405162461bcd60e51b815260206004820152601d60248201527f45524332305065726d69743a206578706972656420646561646c696e6500000060448201526064016108c8565b60007f6e71edae12b1b97f4d1f60370fef10105fa2faae0126114a169c64845d6126c988888861101e8c6118e0565b6040805160208101969096526001600160a01b0394851690860152929091166060840152608083015260a082015260c0810186905260e001604051602081830303815290604052805190602001209050600061107982611908565b9050600061108982878787611956565b9050896001600160a01b0316816001600160a01b0316146110ec5760405162461bcd60e51b815260206004820152601e60248201527f45524332305065726d69743a20696e76616c6964207369676e6174757265000060448201526064016108c8565b6110f78a8a8a611274565b50505050505050505050565b60008281526007602052604090206001015461111e816115e0565b6105ed838361179a565b6001600160a01b03918216600090815260016020908152604080832093909416825291909152205490565b60008051602061229283398151915261116b816115e0565b50600a55565b600080516020612292833981519152611189816115e0565b613e808263ffffffff16106111c65760405162461bcd60e51b81526020600482015260036024820152620a4a8960eb1b60448201526064016108c8565b6117708263ffffffff16116112035760405162461bcd60e51b815260206004820152600360248201526214951360ea1b60448201526064016108c8565b6009805464ffffffff00191661010063ffffffff8516021790556108db610901565b60008051602061229283398151915261123d816115e0565b81600281111561124f5761124f611fbc565b6009805460ff1916600183600281111561126b5761126b611fbc565b02179055505050565b6001600160a01b0383166112d65760405162461bcd60e51b8152602060048201526024808201527f45524332303a20617070726f76652066726f6d20746865207a65726f206164646044820152637265737360e01b60648201526084016108c8565b6001600160a01b0382166113375760405162461bcd60e51b815260206004820152602260248201527f45524332303a20617070726f766520746f20746865207a65726f206164647265604482015261737360f01b60648201526084016108c8565b6001600160a01b0383811660008181526001602090815260408083209487168084529482529182902085905590518481527f8c5be1e5ebec7d5bd14f71427d1e84f3dd0314c0f7b2291e5b200ac8c7c3b925910160405180910390a3505050565b60006113a48484611128565b9050600019811461140c57818110156113ff5760405162461bcd60e51b815260206004820152601d60248201527f45524332303a20696e73756666696369656e7420616c6c6f77616e636500000060448201526064016108c8565b61140c8484848403611274565b50505050565b6001600160a01b0383166114765760405162461bcd60e51b815260206004820152602560248201527f45524332303a207472616e736665722066726f6d20746865207a65726f206164604482015264647265737360d81b60648201526084016108c8565b6001600160a01b0382166114d85760405162461bcd60e51b815260206004820152602360248201527f45524332303a207472616e7366657220746f20746865207a65726f206164647260448201526265737360e81b60648201526084016108c8565b6001600160a01b038316600090815260208190526040902054818110156115505760405162461bcd60e51b815260206004820152602660248201527f45524332303a207472616e7366657220616d6f756e7420657863656564732062604482015265616c616e636560d01b60648201526084016108c8565b6001600160a01b03808516600090815260208190526040808220858503905591851681529081208054849290611587908490612180565b92505081905550826001600160a01b0316846001600160a01b03167fddf252ad1be2c89b69c2b068fc378daa952ba7f163c4a11628f55a4df523b3ef846040516115d391815260200190565b60405180910390a361140c565b6115ea813361197e565b50565b6115f78282610b36565b6108db5760008281526007602090815260408083206001600160a01b03851684529091529020805460ff1916600117905561162f3390565b6001600160a01b0316816001600160a01b0316837f2f8788117e7eff1d82e926ec794901d17c78024a50270940304540a733656f0d60405160405180910390a45050565b6000306001600160a01b037f0000000000000000000000000000000000000000000000000000000000000000161480156116cc57507f000000000000000000000000000000000000000000000000000000000000000046145b156116f657507f000000000000000000000000000000000000000000000000000000000000000090565b50604080517f00000000000000000000000000000000000000000000000000000000000000006020808301919091527f0000000000000000000000000000000000000000000000000000000000000000828401527f000000000000000000000000000000000000000000000000000000000000000060608301524660808301523060a0808401919091528351808403909101815260c0909201909252805191012090565b6117a48282610b36565b156108db5760008281526007602090815260408083206001600160a01b0385168085529252808320805460ff1916905551339285917ff6391f5c32d9c69d2a47ea670b442974b53935d1edc7fd64eb21e047a839171b9190a45050565b6001600160a01b0382166118575760405162461bcd60e51b815260206004820152601f60248201527f45524332303a206d696e7420746f20746865207a65726f20616464726573730060448201526064016108c8565b80600260008282546118699190612180565b90915550506001600160a01b03821660009081526020819052604081208054839290611896908490612180565b90915550506040518181526001600160a01b038316906000907fddf252ad1be2c89b69c2b068fc378daa952ba7f163c4a11628f55a4df523b3ef9060200160405180910390a35050565b6001600160a01b03811660009081526005602052604090208054600181018255905b50919050565b60006104f4611915611673565b8360405161190160f01b6020820152602281018390526042810182905260009060620160405160208183030381529060405280519060200120905092915050565b6000806000611967878787876119e2565b9150915061197481611acf565b5095945050505050565b6119888282610b36565b6108db576119a0816001600160a01b03166014611c85565b6119ab836020611c85565b6040516020016119bc9291906121d9565b60408051601f198184030181529082905262461bcd60e51b82526108c891600401611e7e565b6000807f7fffffffffffffffffffffffffffffff5d576e7357a4501ddfe92f46681b20a0831115611a195750600090506003611ac6565b8460ff16601b14158015611a3157508460ff16601c14155b15611a425750600090506004611ac6565b6040805160008082526020820180845289905260ff881692820192909252606081018690526080810185905260019060a0016020604051602081039080840390855afa158015611a96573d6000803e3d6000fd5b5050604051601f1901519150506001600160a01b038116611abf57600060019250925050611ac6565b9150600090505b94509492505050565b6000816004811115611ae357611ae3611fbc565b03611aeb5750565b6001816004811115611aff57611aff611fbc565b03611b4c5760405162461bcd60e51b815260206004820152601860248201527f45434453413a20696e76616c6964207369676e6174757265000000000000000060448201526064016108c8565b6002816004811115611b6057611b60611fbc565b03611bad5760405162461bcd60e51b815260206004820152601f60248201527f45434453413a20696e76616c6964207369676e6174757265206c656e6774680060448201526064016108c8565b6003816004811115611bc157611bc1611fbc565b03611c195760405162461bcd60e51b815260206004820152602260248201527f45434453413a20696e76616c6964207369676e6174757265202773272076616c604482015261756560f01b60648201526084016108c8565b6004816004811115611c2d57611c2d611fbc565b036115ea5760405162461bcd60e51b815260206004820152602260248201527f45434453413a20696e76616c6964207369676e6174757265202776272076616c604482015261756560f01b60648201526084016108c8565b60606000611c94836002612198565b611c9f906002612180565b67ffffffffffffffff811115611cb757611cb761224e565b6040519080825280601f01601f191660200182016040528015611ce1576020820181803683370190505b509050600360fc1b81600081518110611cfc57611cfc612264565b60200101906001600160f81b031916908160001a905350600f60fb1b81600181518110611d2b57611d2b612264565b60200101906001600160f81b031916908160001a9053506000611d4f846002612198565b611d5a906001612180565b90505b6001811115611dd2576f181899199a1a9b1b9c1cb0b131b232b360811b85600f1660108110611d8e57611d8e612264565b1a60f81b828281518110611da457611da4612264565b60200101906001600160f81b031916908160001a90535060049490941c93611dcb8161227a565b9050611d5d565b508315611e215760405162461bcd60e51b815260206004820181905260248201527f537472696e67733a20686578206c656e67746820696e73756666696369656e7460448201526064016108c8565b9392505050565b600060208284031215611e3a57600080fd5b81356001600160e01b031981168114611e2157600080fd5b60005b83811015611e6d578181015183820152602001611e55565b8381111561140c5750506000910152565b6020815260008251806020840152611e9d816040850160208701611e52565b601f01601f19169190910160400192915050565b80356001600160a01b0381168114611ec857600080fd5b919050565b60008060408385031215611ee057600080fd5b611ee983611eb1565b946020939093013593505050565b600080600060608486031215611f0c57600080fd5b611f1584611eb1565b9250611f2360208501611eb1565b9150604084013590509250925092565b600060208284031215611f4557600080fd5b5035919050565b600060208284031215611f5e57600080fd5b611e2182611eb1565b60008060408385031215611f7a57600080fd5b82359150611f8a60208401611eb1565b90509250929050565b600060208284031215611fa557600080fd5b81356001600160801b0381168114611e2157600080fd5b634e487b7160e01b600052602160045260246000fd5b60c0810160038810611ff457634e487b7160e01b600052602160045260246000fd5b96815263ffffffff95909516602086015260408501939093526001600160801b039190911660608401526001600160a01b0390811660808401521660a09091015290565b600080600080600080600060e0888a03121561205357600080fd5b61205c88611eb1565b965061206a60208901611eb1565b95506040880135945060608801359350608088013560ff8116811461208e57600080fd5b9699959850939692959460a0840135945060c09093013592915050565b600080604083850312156120be57600080fd5b6120c783611eb1565b9150611f8a60208401611eb1565b6000602082840312156120e757600080fd5b813563ffffffff81168114611e2157600080fd5b600181811c9082168061210f57607f821691505b60208210810361190257634e487b7160e01b600052602260045260246000fd5b60006020828403121561214157600080fd5b5051919050565b60006020828403121561215a57600080fd5b81518015158114611e2157600080fd5b634e487b7160e01b600052601160045260246000fd5b600082198211156121935761219361216a565b500190565b60008160001904831182151516156121b2576121b261216a565b500290565b6000826121d457634e487b7160e01b600052601260045260246000fd5b500490565b7f416363657373436f6e74726f6c3a206163636f756e7420000000000000000000815260008351612211816017850160208801611e52565b7001034b99036b4b9b9b4b733903937b6329607d1b6017918401918201528351612242816028840160208801611e52565b01602801949350505050565b634e487b7160e01b600052604160045260246000fd5b634e487b7160e01b600052603260045260246000fd5b6000816122895761228961216a565b50600019019056feb1e380c01db319c0153ea3bb4fbd0ab6639cc088e3bf8cd5319b128f33a2f9e8a2646970667358221220bcccf3bda7edc768864a5e0a1b7e0a24e893d63f1355bf45d47f371ee9a0a8b864736f6c634300080e00334f19e045df9e964e6a281e418b6ef252a08a0c414769d06f540dec5c12f40d42b1e380c01db319c0153ea3bb4fbd0ab6639cc088e3bf8cd5319b128f33a2f9e8",
    "linkReferences": {}
  },
  "methodIdentifiers": {
    "DEFAULT_ADMIN_ROLE()": "a217fddf",
    "DOMAIN_SEPARATOR()": "3644e515",
    "MAX_SUPPLY()": "32cb6b0c",
    "TOKEN_PRICE()": "d2d8cb67",
    "allowance(address,address)": "dd62ed3e",
    "approve(address,uint256)": "095ea7b3",
    "balanceOf(address)": "70a08231",
    "buy(address,uint256)": "cce7ec13",
    "decimals()": "313ce567",
    "decreaseAllowance(address,uint256)": "a457c2d7",
    "getRoleAdmin(bytes32)": "248a9ca3",
    "grantRole(bytes32,address)": "2f2ff15d",
    "hasRole(bytes32,address)": "91d14854",
    "increaseAllowance(address,uint256)": "39509351",
    "name()": "06fdde03",
    "nonces(address)": "7ecebe00",
    "permit(address,address,uint256,uint256,uint8,bytes32,bytes32)": "d505accf",
    "renounceRole(bytes32,address)": "36568abe",
    "revokeRole(bytes32,address)": "d547741f",
    "setAllowListMerkleRoot(bytes32)": "ea7a42e4",
    "setCexRatio(uint32)": "f75d6f80",
    "setCurrency(address)": "2f84c391",
    "setMaxToBuy(uint128)": "849b4d17",
    "setStep(uint256)": "f8dcbddb",
    "supportsInterface(bytes4)": "01ffc9a7",
    "symbol()": "95d89b41",
    "tokensBought(address)": "264d7797",
    "totalSupply()": "18160ddd",
    "transfer(address,uint256)": "a9059cbb",
    "transferFrom(address,address,uint256)": "23b872dd",
    "transferFromWithPermission(address,address,uint256,uint256,uint8,bytes32,bytes32)": "cfac414b",
    "variables()": "be45a26f",
    "withdraw()": "3ccfd60b"
  },
  "id": 25
}