{
  "abi": [
    {
      "inputs": [
        {
          "internalType": "contract IERC20",
          "name": "_currencyUsed",
          "type": "address"
        },
        {
          "internalType": "uint256",
          "name": "_max_supply",
          "type": "uint256"
        },
        {
          "internalType": "address",
          "name": "_multiSig",
          "type": "address"
        },
        {
          "internalType": "string",
          "name": "_name",
          "type": "string"
        },
        {
          "internalType": "string",
          "name": "_symbol",
          "type": "string"
        }
      ],
      "stateMutability": "nonpayable",
      "type": "constructor"
    },
    {
      "anonymous": false,
      "inputs": [
        {
          "indexed": true,
          "internalType": "address",
          "name": "owner",
          "type": "address"
        },
        {
          "indexed": true,
          "internalType": "address",
          "name": "spender",
          "type": "address"
        },
        {
          "indexed": false,
          "internalType": "uint256",
          "name": "value",
          "type": "uint256"
        }
      ],
      "name": "Approval",
      "type": "event"
    },
    {
      "anonymous": false,
      "inputs": [
        {
          "indexed": false,
          "internalType": "address",
          "name": "buyer",
          "type": "address"
        },
        {
          "indexed": false,
          "internalType": "uint256",
          "name": "amount",
          "type": "uint256"
        }
      ],
      "name": "Buying",
      "type": "event"
    },
    {
      "anonymous": false,
      "inputs": [
        {
          "indexed": true,
          "internalType": "address",
          "name": "previousOwner",
          "type": "address"
        },
        {
          "indexed": true,
          "internalType": "address",
          "name": "newOwner",
          "type": "address"
        }
      ],
      "name": "OwnershipTransferred",
      "type": "event"
    },
    {
      "anonymous": false,
      "inputs": [
        {
          "indexed": true,
          "internalType": "address",
          "name": "from",
          "type": "address"
        },
        {
          "indexed": true,
          "internalType": "address",
          "name": "to",
          "type": "address"
        },
        {
          "indexed": false,
          "internalType": "uint256",
          "name": "value",
          "type": "uint256"
        }
      ],
      "name": "Transfer",
      "type": "event"
    },
    {
      "inputs": [],
      "name": "DOMAIN_SEPARATOR",
      "outputs": [
        {
          "internalType": "bytes32",
          "name": "",
          "type": "bytes32"
        }
      ],
      "stateMutability": "view",
      "type": "function"
    },
    {
      "inputs": [],
      "name": "MAX_SUPPLY",
      "outputs": [
        {
          "internalType": "uint256",
          "name": "",
          "type": "uint256"
        }
      ],
      "stateMutability": "view",
      "type": "function"
    },
    {
      "inputs": [],
      "name": "MAX_TO_BUY",
      "outputs": [
        {
          "internalType": "uint256",
          "name": "",
          "type": "uint256"
        }
      ],
      "stateMutability": "view",
      "type": "function"
    },
    {
      "inputs": [
        {
          "internalType": "address",
          "name": "owner",
          "type": "address"
        },
        {
          "internalType": "address",
          "name": "spender",
          "type": "address"
        }
      ],
      "name": "allowance",
      "outputs": [
        {
          "internalType": "uint256",
          "name": "",
          "type": "uint256"
        }
      ],
      "stateMutability": "view",
      "type": "function"
    },
    {
      "inputs": [
        {
          "internalType": "address",
          "name": "spender",
          "type": "address"
        },
        {
          "internalType": "uint256",
          "name": "amount",
          "type": "uint256"
        }
      ],
      "name": "approve",
      "outputs": [
        {
          "internalType": "bool",
          "name": "",
          "type": "bool"
        }
      ],
      "stateMutability": "nonpayable",
      "type": "function"
    },
    {
      "inputs": [
        {
          "internalType": "address",
          "name": "account",
          "type": "address"
        }
      ],
      "name": "balanceOf",
      "outputs": [
        {
          "internalType": "uint256",
          "name": "",
          "type": "uint256"
        }
      ],
      "stateMutability": "view",
      "type": "function"
    },
    {
      "inputs": [
        {
          "internalType": "address",
          "name": "_to",
          "type": "address"
        },
        {
          "internalType": "uint256",
          "name": "price",
          "type": "uint256"
        },
        {
          "internalType": "bytes32[]",
          "name": "proof",
          "type": "bytes32[]"
        }
      ],
      "name": "buy",
      "outputs": [],
      "stateMutability": "nonpayable",
      "type": "function"
    },
    {
      "inputs": [],
      "name": "currencyUsed",
      "outputs": [
        {
          "internalType": "contract IERC20",
          "name": "",
          "type": "address"
        }
      ],
      "stateMutability": "view",
      "type": "function"
    },
    {
      "inputs": [],
      "name": "decimals",
      "outputs": [
        {
          "internalType": "uint8",
          "name": "",
          "type": "uint8"
        }
      ],
      "stateMutability": "view",
      "type": "function"
    },
    {
      "inputs": [
        {
          "internalType": "address",
          "name": "spender",
          "type": "address"
        },
        {
          "internalType": "uint256",
          "name": "subtractedValue",
          "type": "uint256"
        }
      ],
      "name": "decreaseAllowance",
      "outputs": [
        {
          "internalType": "bool",
          "name": "",
          "type": "bool"
        }
      ],
      "stateMutability": "nonpayable",
      "type": "function"
    },
    {
      "inputs": [
        {
          "internalType": "address",
          "name": "spender",
          "type": "address"
        },
        {
          "internalType": "uint256",
          "name": "addedValue",
          "type": "uint256"
        }
      ],
      "name": "increaseAllowance",
      "outputs": [
        {
          "internalType": "bool",
          "name": "",
          "type": "bool"
        }
      ],
      "stateMutability": "nonpayable",
      "type": "function"
    },
    {
      "inputs": [],
      "name": "multisig",
      "outputs": [
        {
          "internalType": "address",
          "name": "",
          "type": "address"
        }
      ],
      "stateMutability": "view",
      "type": "function"
    },
    {
      "inputs": [],
      "name": "name",
      "outputs": [
        {
          "internalType": "string",
          "name": "",
          "type": "string"
        }
      ],
      "stateMutability": "view",
      "type": "function"
    },
    {
      "inputs": [
        {
          "internalType": "address",
          "name": "owner",
          "type": "address"
        }
      ],
      "name": "nonces",
      "outputs": [
        {
          "internalType": "uint256",
          "name": "",
          "type": "uint256"
        }
      ],
      "stateMutability": "view",
      "type": "function"
    },
    {
      "inputs": [],
      "name": "owner",
      "outputs": [
        {
          "internalType": "address",
          "name": "",
          "type": "address"
        }
      ],
      "stateMutability": "view",
      "type": "function"
    },
    {
      "inputs": [
        {
          "internalType": "address",
          "name": "owner",
          "type": "address"
        },
        {
          "internalType": "address",
          "name": "spender",
          "type": "address"
        },
        {
          "internalType": "uint256",
          "name": "value",
          "type": "uint256"
        },
        {
          "internalType": "uint256",
          "name": "deadline",
          "type": "uint256"
        },
        {
          "internalType": "uint8",
          "name": "v",
          "type": "uint8"
        },
        {
          "internalType": "bytes32",
          "name": "r",
          "type": "bytes32"
        },
        {
          "internalType": "bytes32",
          "name": "s",
          "type": "bytes32"
        }
      ],
      "name": "permit",
      "outputs": [],
      "stateMutability": "nonpayable",
      "type": "function"
    },
    {
      "inputs": [],
      "name": "renounceOwnership",
      "outputs": [],
      "stateMutability": "nonpayable",
      "type": "function"
    },
    {
      "inputs": [
        {
          "internalType": "bytes32",
          "name": "merkleRoot",
          "type": "bytes32"
        }
      ],
      "name": "setAllowListMerkleRoot",
      "outputs": [],
      "stateMutability": "nonpayable",
      "type": "function"
    },
    {
      "inputs": [
        {
          "internalType": "uint32",
          "name": "_cexRatioX10000",
          "type": "uint32"
        }
      ],
      "name": "setCexRatio",
      "outputs": [],
      "stateMutability": "nonpayable",
      "type": "function"
    },
    {
      "inputs": [
        {
          "internalType": "uint256",
          "name": "step",
          "type": "uint256"
        }
      ],
      "name": "setStep",
      "outputs": [],
      "stateMutability": "nonpayable",
      "type": "function"
    },
    {
      "inputs": [],
      "name": "symbol",
      "outputs": [
        {
          "internalType": "string",
          "name": "",
          "type": "string"
        }
      ],
      "stateMutability": "view",
      "type": "function"
    },
    {
      "inputs": [
        {
          "internalType": "address",
          "name": "",
          "type": "address"
        }
      ],
      "name": "tokensBought",
      "outputs": [
        {
          "internalType": "uint256",
          "name": "",
          "type": "uint256"
        }
      ],
      "stateMutability": "view",
      "type": "function"
    },
    {
      "inputs": [],
      "name": "totalSupply",
      "outputs": [
        {
          "internalType": "uint256",
          "name": "",
          "type": "uint256"
        }
      ],
      "stateMutability": "view",
      "type": "function"
    },
    {
      "inputs": [
        {
          "internalType": "address",
          "name": "to",
          "type": "address"
        },
        {
          "internalType": "uint256",
          "name": "amount",
          "type": "uint256"
        }
      ],
      "name": "transfer",
      "outputs": [
        {
          "internalType": "bool",
          "name": "",
          "type": "bool"
        }
      ],
      "stateMutability": "nonpayable",
      "type": "function"
    },
    {
      "inputs": [
        {
          "internalType": "address",
          "name": "from",
          "type": "address"
        },
        {
          "internalType": "address",
          "name": "to",
          "type": "address"
        },
        {
          "internalType": "uint256",
          "name": "amount",
          "type": "uint256"
        }
      ],
      "name": "transferFrom",
      "outputs": [
        {
          "internalType": "bool",
          "name": "",
          "type": "bool"
        }
      ],
      "stateMutability": "nonpayable",
      "type": "function"
    },
    {
      "inputs": [
        {
          "internalType": "address",
          "name": "newOwner",
          "type": "address"
        }
      ],
      "name": "transferOwnership",
      "outputs": [],
      "stateMutability": "nonpayable",
      "type": "function"
    },
    {
      "inputs": [
        {
          "internalType": "address",
          "name": "from",
          "type": "address"
        },
        {
          "internalType": "address",
          "name": "receiver",
          "type": "address"
        },
        {
          "internalType": "uint256",
          "name": "amount",
          "type": "uint256"
        },
        {
          "internalType": "uint256",
          "name": "deadline",
          "type": "uint256"
        },
        {
          "internalType": "uint8",
          "name": "v",
          "type": "uint8"
        },
        {
          "internalType": "bytes32",
          "name": "r",
          "type": "bytes32"
        },
        {
          "internalType": "bytes32",
          "name": "s",
          "type": "bytes32"
        }
      ],
      "name": "transferToWithPermission",
      "outputs": [],
      "stateMutability": "nonpayable",
      "type": "function"
    },
    {
      "inputs": [],
      "name": "variables",
      "outputs": [
        {
          "internalType": "enum PropertyToken.Step",
          "name": "step",
          "type": "uint8"
        },
        {
          "internalType": "uint32",
          "name": "cexRatioX10000",
          "type": "uint32"
        },
        {
          "internalType": "bytes32",
          "name": "merkleRoot",
          "type": "bytes32"
        }
      ],
      "stateMutability": "view",
      "type": "function"
    },
    {
      "inputs": [],
      "name": "withdraw",
      "outputs": [],
      "stateMutability": "nonpayable",
      "type": "function"
    }
  ],
  "bytecode": {
    "object": "0x6101c06040523480156200001257600080fd5b506040516200222938038062002229833981016040819052620000359162000344565b8180604051806040016040528060018152602001603160f81b815250848481600390805190602001906200006b929190620001b8565b50805162000081906004906020840190620001b8565b5050825160209384012082519284019290922060e08390526101008190524660a0818152604080517f8b73c3c69bb8fe3d512ecc4cf759cc79239f7b179b0ffacaa9a75d522b39400f818901819052818301979097526060810194909452608080850193909352308483018190528151808603909301835260c09485019091528151919096012090529290925261012052506200012090503362000166565b6001600160a01b038086166101a05283166101805261014084905260646200014a85601e620003e3565b62000156919062000411565b6101605250620004709350505050565b600780546001600160a01b038381166001600160a01b0319831681179093556040519116919082907f8be0079c531659141344cd1fd0a4f28419497f9722a3daafe3b4186f6b6457e090600090a35050565b828054620001c69062000434565b90600052602060002090601f016020900481019282620001ea576000855562000235565b82601f106200020557805160ff191683800117855562000235565b8280016001018555821562000235579182015b828111156200023557825182559160200191906001019062000218565b506200024392915062000247565b5090565b5b8082111562000243576000815560010162000248565b6001600160a01b03811681146200027457600080fd5b50565b634e487b7160e01b600052604160045260246000fd5b600082601f8301126200029f57600080fd5b81516001600160401b0380821115620002bc57620002bc62000277565b604051601f8301601f19908116603f01168101908282118183101715620002e757620002e762000277565b816040528381526020925086838588010111156200030457600080fd5b600091505b8382101562000328578582018301518183018401529082019062000309565b838211156200033a5760008385830101525b9695505050505050565b600080600080600060a086880312156200035d57600080fd5b85516200036a816200025e565b60208701516040880151919650945062000384816200025e565b60608701519093506001600160401b0380821115620003a257600080fd5b620003b089838a016200028d565b93506080880151915080821115620003c757600080fd5b50620003d6888289016200028d565b9150509295509295909350565b60008160001904831182151516156200040c57634e487b7160e01b600052601160045260246000fd5b500290565b6000826200042f57634e487b7160e01b600052601260045260246000fd5b500490565b600181811c908216806200044957607f821691505b6020821081036200046a57634e487b7160e01b600052602260045260246000fd5b50919050565b60805160a05160c05160e05161010051610120516101405161016051610180516101a051611d136200051660003960008181610346015281816105ce0152818161068a015261084c0152600081816102f401526106580152600081816101ee015261092f0152600081816102aa015261089d015260006112d301526000611322015260006112fd0152600061125601526000611280015260006112aa0152611d136000f3fe608060405234801561001057600080fd5b50600436106101cf5760003560e01c80635a27d49211610104578063a9059cbb116100a2578063ea7a42e411610071578063ea7a42e41461043f578063f2fde38b14610452578063f75d6f8014610465578063f8dcbddb1461047857600080fd5b8063a9059cbb146103d8578063be45a26f146103eb578063d505accf14610419578063dd62ed3e1461042c57600080fd5b80637ecebe00116100de5780637ecebe00146103995780638da5cb5b146103ac57806395d89b41146103bd578063a457c2d7146103c557600080fd5b80635a27d4921461034157806370a0823114610368578063715018a61461039157600080fd5b8063313ce56711610171578063395093511161014b57806339509351146102d45780633ccfd60b146102e75780634783c35b146102ef5780634c13a6391461032e57600080fd5b8063313ce5671461029657806332cb6b0c146102a55780633644e515146102cc57600080fd5b8063095ea7b3116101ad578063095ea7b31461023857806318160ddd1461025b57806323b872dd14610263578063264d77971461027657600080fd5b8063015474e2146101d457806302754284146101e957806306fdde0314610223575b600080fd5b6101e76101e2366004611939565b61048b565b005b6102107f000000000000000000000000000000000000000000000000000000000000000081565b6040519081526020015b60405180910390f35b61022b6104af565b60405161021a91906119ac565b61024b610246366004611a01565b610541565b604051901515815260200161021a565b600254610210565b61024b610271366004611a2b565b610559565b610210610284366004611a67565b60086020526000908152604090205481565b6040516012815260200161021a565b6102107f000000000000000000000000000000000000000000000000000000000000000081565b61021061057d565b61024b6102e2366004611a01565b61058c565b6101e76105ae565b6103167f000000000000000000000000000000000000000000000000000000000000000081565b6040516001600160a01b03909116815260200161021a565b6101e761033c366004611a82565b6106fd565b6103167f000000000000000000000000000000000000000000000000000000000000000081565b610210610376366004611a67565b6001600160a01b031660009081526020819052604090205490565b6101e7610aa7565b6102106103a7366004611a67565b610abb565b6007546001600160a01b0316610316565b61022b610adb565b61024b6103d3366004611a01565b610aea565b61024b6103e6366004611a01565b610b65565b600954600a5461040a9160ff81169161010090910463ffffffff169083565b60405161021a93929190611b22565b6101e7610427366004611939565b610b73565b61021061043a366004611b5e565b610cd7565b6101e761044d366004611b91565b610d02565b6101e7610460366004611a67565b610d0f565b6101e7610473366004611baa565b610d88565b6101e7610486366004611b91565b610e60565b61049a87338787878787610b73565b6104a5878787610559565b5050505050505050565b6060600380546104be90611bd0565b80601f01602080910402602001604051908101604052809291908181526020018280546104ea90611bd0565b80156105375780601f1061050c57610100808354040283529160200191610537565b820191906000526020600020905b81548152906001019060200180831161051a57829003601f168201915b5050505050905090565b60003361054f818585610edd565b5060019392505050565b600033610567858285611001565b61057285858561107b565b506001949350505050565b6000610587611249565b905090565b60003361054f81858561059f8383610cd7565b6105a99190611c1a565b610edd565b6105b6611370565b6040516370a0823160e01b81523060048201526000907f00000000000000000000000000000000000000000000000000000000000000006001600160a01b0316906370a0823190602401602060405180830381865afa15801561061d573d6000803e3d6000fd5b505050506040513d601f19601f820116820180604052508101906106419190611c32565b60405163a9059cbb60e01b81526001600160a01b037f000000000000000000000000000000000000000000000000000000000000000081166004830152602482018390529192507f00000000000000000000000000000000000000000000000000000000000000009091169063a9059cbb906044016020604051808303816000875af11580156106d5573d6000803e3d6000fd5b505050506040513d601f19601f820116820180604052508101906106f99190611c4b565b5050565b8181600060095460ff16600281111561071857610718611b0c565b036107545760405162461bcd60e51b8152602060048201526007602482015266139bdd081e595d60ca1b60448201526064015b60405180910390fd5b600260095460ff16600281111561076d5761076d611b0c565b036107a55760405162461bcd60e51b815260206004820152600860248201526714dbdb190813dd5d60c21b604482015260640161074b565b6107af82826113ca565b6107ed5760405162461bcd60e51b815260206004820152600f60248201526e139bdd0815da1a5d195b1a5cdd1959608a1b604482015260640161074b565b6040805160608101909152600980546000929190829060ff16600281111561081757610817611b0c565b600281111561082857610828611b0c565b81528154610100900463ffffffff16602082015260019091015460409091015290507f0000000000000000000000000000000000000000000000000000000000000000600061087a600a612710611c6d565b602084015161088f9063ffffffff168a611c6d565b6108999190611c8c565b90507f00000000000000000000000000000000000000000000000000000000000000006108c560025490565b6108cf9083611c1a565b111561091d5760405162461bcd60e51b815260206004820152601760248201527f4d6178696d756d20737570706c79206578636565646564000000000000000000604482015260640161074b565b336000908152600860205260409020547f00000000000000000000000000000000000000000000000000000000000000009061095a908390611c1a565b11156109b45760405162461bcd60e51b815260206004820152602360248201527f54686973204164647265737320626f7567687420746f6f206d75636820746f6b604482015262656e7360e81b606482015260840161074b565b6040516323b872dd60e01b8152336004820152306024820152604481018990526001600160a01b038316906323b872dd906064016020604051808303816000875af1158015610a07573d6000803e3d6000fd5b505050506040513d601f19601f82011682018060405250810190610a2b9190611c4b565b50610a368982611418565b3360009081526008602052604081208054839290610a55908490611c1a565b9091555050604080516001600160a01b038b168152602081018390527f840df612bc9052dfa7ac2e14fc52368ca7749154d9132b7601f59d329f787fd6910160405180910390a1505050505050505050565b610aaf611370565b610ab960006114f7565b565b6001600160a01b0381166000908152600560205260408120545b92915050565b6060600480546104be90611bd0565b60003381610af88286610cd7565b905083811015610b585760405162461bcd60e51b815260206004820152602560248201527f45524332303a2064656372656173656420616c6c6f77616e63652062656c6f77604482015264207a65726f60d81b606482015260840161074b565b6105728286868403610edd565b60003361054f81858561107b565b83421115610bc35760405162461bcd60e51b815260206004820152601d60248201527f45524332305065726d69743a206578706972656420646561646c696e65000000604482015260640161074b565b60007f6e71edae12b1b97f4d1f60370fef10105fa2faae0126114a169c64845d6126c9888888610bf28c611549565b6040805160208101969096526001600160a01b0394851690860152929091166060840152608083015260a082015260c0810186905260e0016040516020818303038152906040528051906020012090506000610c4d82611571565b90506000610c5d828787876115bf565b9050896001600160a01b0316816001600160a01b031614610cc05760405162461bcd60e51b815260206004820152601e60248201527f45524332305065726d69743a20696e76616c6964207369676e61747572650000604482015260640161074b565b610ccb8a8a8a610edd565b50505050505050505050565b6001600160a01b03918216600090815260016020908152604080832093909416825291909152205490565b610d0a611370565b600a55565b610d17611370565b6001600160a01b038116610d7c5760405162461bcd60e51b815260206004820152602660248201527f4f776e61626c653a206e6577206f776e657220697320746865207a65726f206160448201526564647265737360d01b606482015260840161074b565b610d85816114f7565b50565b610d90611370565b613e808163ffffffff1610610de75760405162461bcd60e51b815260206004820152601b60248201527f312e36206575726f20666f72206f6e6520646f6c6c6172203f3f200000000000604482015260640161074b565b6117708163ffffffff1611610e3e5760405162461bcd60e51b815260206004820152601b60248201527f302e36206575726f20666f72206f6e6520646f6c6c6172203f3f200000000000604482015260640161074b565b6009805464ffffffff00191661010063ffffffff841602179055610d856105ae565b610e68611370565b60038110610ea75760405162461bcd60e51b815260206004820152600c60248201526b2bb937b73390373ab6b132b960a11b604482015260640161074b565b806002811115610eb957610eb9611b0c565b6009805460ff19166001836002811115610ed557610ed5611b0c565b021790555050565b6001600160a01b038316610f3f5760405162461bcd60e51b8152602060048201526024808201527f45524332303a20617070726f76652066726f6d20746865207a65726f206164646044820152637265737360e01b606482015260840161074b565b6001600160a01b038216610fa05760405162461bcd60e51b815260206004820152602260248201527f45524332303a20617070726f766520746f20746865207a65726f206164647265604482015261737360f01b606482015260840161074b565b6001600160a01b0383811660008181526001602090815260408083209487168084529482529182902085905590518481527f8c5be1e5ebec7d5bd14f71427d1e84f3dd0314c0f7b2291e5b200ac8c7c3b925910160405180910390a3505050565b600061100d8484610cd7565b9050600019811461107557818110156110685760405162461bcd60e51b815260206004820152601d60248201527f45524332303a20696e73756666696369656e7420616c6c6f77616e6365000000604482015260640161074b565b6110758484848403610edd565b50505050565b6001600160a01b0383166110df5760405162461bcd60e51b815260206004820152602560248201527f45524332303a207472616e736665722066726f6d20746865207a65726f206164604482015264647265737360d81b606482015260840161074b565b6001600160a01b0382166111415760405162461bcd60e51b815260206004820152602360248201527f45524332303a207472616e7366657220746f20746865207a65726f206164647260448201526265737360e81b606482015260840161074b565b6001600160a01b038316600090815260208190526040902054818110156111b95760405162461bcd60e51b815260206004820152602660248201527f45524332303a207472616e7366657220616d6f756e7420657863656564732062604482015265616c616e636560d01b606482015260840161074b565b6001600160a01b038085166000908152602081905260408082208585039055918516815290812080548492906111f0908490611c1a565b92505081905550826001600160a01b0316846001600160a01b03167fddf252ad1be2c89b69c2b068fc378daa952ba7f163c4a11628f55a4df523b3ef8460405161123c91815260200190565b60405180910390a3611075565b6000306001600160a01b037f0000000000000000000000000000000000000000000000000000000000000000161480156112a257507f000000000000000000000000000000000000000000000000000000000000000046145b156112cc57507f000000000000000000000000000000000000000000000000000000000000000090565b50604080517f00000000000000000000000000000000000000000000000000000000000000006020808301919091527f0000000000000000000000000000000000000000000000000000000000000000828401527f000000000000000000000000000000000000000000000000000000000000000060608301524660808301523060a0808401919091528351808403909101815260c0909201909252805191012090565b6007546001600160a01b03163314610ab95760405162461bcd60e51b815260206004820181905260248201527f4f776e61626c653a2063616c6c6572206973206e6f7420746865206f776e6572604482015260640161074b565b600a546040516bffffffffffffffffffffffff193360601b1660208201526000916114119185918591603401604051602081830303815290604052805190602001206115e7565b9392505050565b6001600160a01b03821661146e5760405162461bcd60e51b815260206004820152601f60248201527f45524332303a206d696e7420746f20746865207a65726f206164647265737300604482015260640161074b565b80600260008282546114809190611c1a565b90915550506001600160a01b038216600090815260208190526040812080548392906114ad908490611c1a565b90915550506040518181526001600160a01b038316906000907fddf252ad1be2c89b69c2b068fc378daa952ba7f163c4a11628f55a4df523b3ef9060200160405180910390a35050565b600780546001600160a01b038381166001600160a01b0319831681179093556040519116919082907f8be0079c531659141344cd1fd0a4f28419497f9722a3daafe3b4186f6b6457e090600090a35050565b6001600160a01b03811660009081526005602052604090208054600181018255905b50919050565b6000610ad561157e611249565b8360405161190160f01b6020820152602281018390526042810182905260009060620160405160208183030381529060405280519060200120905092915050565b60008060006115d0878787876115ff565b915091506115dd816116ec565b5095945050505050565b6000826115f58686856118a2565b1495945050505050565b6000807f7fffffffffffffffffffffffffffffff5d576e7357a4501ddfe92f46681b20a083111561163657506000905060036116e3565b8460ff16601b1415801561164e57508460ff16601c14155b1561165f57506000905060046116e3565b6040805160008082526020820180845289905260ff881692820192909252606081018690526080810185905260019060a0016020604051602081039080840390855afa1580156116b3573d6000803e3d6000fd5b5050604051601f1901519150506001600160a01b0381166116dc576000600192509250506116e3565b9150600090505b94509492505050565b600081600481111561170057611700611b0c565b036117085750565b600181600481111561171c5761171c611b0c565b036117695760405162461bcd60e51b815260206004820152601860248201527f45434453413a20696e76616c6964207369676e61747572650000000000000000604482015260640161074b565b600281600481111561177d5761177d611b0c565b036117ca5760405162461bcd60e51b815260206004820152601f60248201527f45434453413a20696e76616c6964207369676e6174757265206c656e67746800604482015260640161074b565b60038160048111156117de576117de611b0c565b036118365760405162461bcd60e51b815260206004820152602260248201527f45434453413a20696e76616c6964207369676e6174757265202773272076616c604482015261756560f01b606482015260840161074b565b600481600481111561184a5761184a611b0c565b03610d855760405162461bcd60e51b815260206004820152602260248201527f45434453413a20696e76616c6964207369676e6174757265202776272076616c604482015261756560f01b606482015260840161074b565b600081815b848110156118e5576118d1828787848181106118c5576118c5611cae565b905060200201356118ee565b9150806118dd81611cc4565b9150506118a7565b50949350505050565b600081831061190a576000828152602084905260409020611411565b6000838152602083905260409020611411565b80356001600160a01b038116811461193457600080fd5b919050565b600080600080600080600060e0888a03121561195457600080fd5b61195d8861191d565b965061196b6020890161191d565b95506040880135945060608801359350608088013560ff8116811461198f57600080fd5b9699959850939692959460a0840135945060c09093013592915050565b600060208083528351808285015260005b818110156119d9578581018301518582016040015282016119bd565b818111156119eb576000604083870101525b50601f01601f1916929092016040019392505050565b60008060408385031215611a1457600080fd5b611a1d8361191d565b946020939093013593505050565b600080600060608486031215611a4057600080fd5b611a498461191d565b9250611a576020850161191d565b9150604084013590509250925092565b600060208284031215611a7957600080fd5b6114118261191d565b60008060008060608587031215611a9857600080fd5b611aa18561191d565b935060208501359250604085013567ffffffffffffffff80821115611ac557600080fd5b818701915087601f830112611ad957600080fd5b813581811115611ae857600080fd5b8860208260051b8501011115611afd57600080fd5b95989497505060200194505050565b634e487b7160e01b600052602160045260246000fd5b6060810160038510611b4457634e487b7160e01b600052602160045260246000fd5b93815263ffffffff92909216602083015260409091015290565b60008060408385031215611b7157600080fd5b611b7a8361191d565b9150611b886020840161191d565b90509250929050565b600060208284031215611ba357600080fd5b5035919050565b600060208284031215611bbc57600080fd5b813563ffffffff8116811461141157600080fd5b600181811c90821680611be457607f821691505b60208210810361156b57634e487b7160e01b600052602260045260246000fd5b634e487b7160e01b600052601160045260246000fd5b60008219821115611c2d57611c2d611c04565b500190565b600060208284031215611c4457600080fd5b5051919050565b600060208284031215611c5d57600080fd5b8151801515811461141157600080fd5b6000816000190483118215151615611c8757611c87611c04565b500290565b600082611ca957634e487b7160e01b600052601260045260246000fd5b500490565b634e487b7160e01b600052603260045260246000fd5b600060018201611cd657611cd6611c04565b506001019056fea26469706673582212201aff98617359921c5a05709265f574fe868a80b0fef6349ae842fdf8b3b60a3964736f6c634300080e0033",
    "linkReferences": {}
  },
  "methodIdentifiers": {
    "DOMAIN_SEPARATOR()": "3644e515",
    "MAX_SUPPLY()": "32cb6b0c",
    "MAX_TO_BUY()": "02754284",
    "allowance(address,address)": "dd62ed3e",
    "approve(address,uint256)": "095ea7b3",
    "balanceOf(address)": "70a08231",
    "buy(address,uint256,bytes32[])": "4c13a639",
    "currencyUsed()": "5a27d492",
    "decimals()": "313ce567",
    "decreaseAllowance(address,uint256)": "a457c2d7",
    "increaseAllowance(address,uint256)": "39509351",
    "multisig()": "4783c35b",
    "name()": "06fdde03",
    "nonces(address)": "7ecebe00",
    "owner()": "8da5cb5b",
    "permit(address,address,uint256,uint256,uint8,bytes32,bytes32)": "d505accf",
    "renounceOwnership()": "715018a6",
    "setAllowListMerkleRoot(bytes32)": "ea7a42e4",
    "setCexRatio(uint32)": "f75d6f80",
    "setStep(uint256)": "f8dcbddb",
    "symbol()": "95d89b41",
    "tokensBought(address)": "264d7797",
    "totalSupply()": "18160ddd",
    "transfer(address,uint256)": "a9059cbb",
    "transferFrom(address,address,uint256)": "23b872dd",
    "transferOwnership(address)": "f2fde38b",
    "transferToWithPermission(address,address,uint256,uint256,uint8,bytes32,bytes32)": "015474e2",
    "variables()": "be45a26f",
    "withdraw()": "3ccfd60b"
  },
  "id": 21
}