{
  "abi": [
    {
      "inputs": [
        {
          "internalType": "contract IERC20",
          "name": "_currencyUsed",
          "type": "address"
        },
        {
          "internalType": "uint256",
          "name": "_max_supply",
          "type": "uint256"
        },
        {
          "internalType": "address",
          "name": "_multiSig",
          "type": "address"
        },
        {
          "internalType": "string",
          "name": "_name",
          "type": "string"
        },
        {
          "internalType": "string",
          "name": "_symbol",
          "type": "string"
        }
      ],
      "stateMutability": "nonpayable",
      "type": "constructor"
    },
    {
      "anonymous": false,
      "inputs": [
        {
          "indexed": true,
          "internalType": "address",
          "name": "owner",
          "type": "address"
        },
        {
          "indexed": true,
          "internalType": "address",
          "name": "spender",
          "type": "address"
        },
        {
          "indexed": false,
          "internalType": "uint256",
          "name": "value",
          "type": "uint256"
        }
      ],
      "name": "Approval",
      "type": "event"
    },
    {
      "anonymous": false,
      "inputs": [
        {
          "indexed": false,
          "internalType": "address",
          "name": "buyer",
          "type": "address"
        },
        {
          "indexed": false,
          "internalType": "uint256",
          "name": "amount",
          "type": "uint256"
        }
      ],
      "name": "Buying",
      "type": "event"
    },
    {
      "anonymous": false,
      "inputs": [
        {
          "indexed": true,
          "internalType": "address",
          "name": "previousOwner",
          "type": "address"
        },
        {
          "indexed": true,
          "internalType": "address",
          "name": "newOwner",
          "type": "address"
        }
      ],
      "name": "OwnershipTransferred",
      "type": "event"
    },
    {
      "anonymous": false,
      "inputs": [
        {
          "indexed": true,
          "internalType": "address",
          "name": "from",
          "type": "address"
        },
        {
          "indexed": true,
          "internalType": "address",
          "name": "to",
          "type": "address"
        },
        {
          "indexed": false,
          "internalType": "uint256",
          "name": "value",
          "type": "uint256"
        }
      ],
      "name": "Transfer",
      "type": "event"
    },
    {
      "inputs": [],
      "name": "DOMAIN_SEPARATOR",
      "outputs": [
        {
          "internalType": "bytes32",
          "name": "",
          "type": "bytes32"
        }
      ],
      "stateMutability": "view",
      "type": "function"
    },
    {
      "inputs": [],
      "name": "MAX_SUPPLY",
      "outputs": [
        {
          "internalType": "uint256",
          "name": "",
          "type": "uint256"
        }
      ],
      "stateMutability": "view",
      "type": "function"
    },
    {
      "inputs": [],
      "name": "MAX_TO_BUY",
      "outputs": [
        {
          "internalType": "uint256",
          "name": "",
          "type": "uint256"
        }
      ],
      "stateMutability": "view",
      "type": "function"
    },
    {
      "inputs": [
        {
          "internalType": "address",
          "name": "owner",
          "type": "address"
        },
        {
          "internalType": "address",
          "name": "spender",
          "type": "address"
        }
      ],
      "name": "allowance",
      "outputs": [
        {
          "internalType": "uint256",
          "name": "",
          "type": "uint256"
        }
      ],
      "stateMutability": "view",
      "type": "function"
    },
    {
      "inputs": [
        {
          "internalType": "address",
          "name": "spender",
          "type": "address"
        },
        {
          "internalType": "uint256",
          "name": "amount",
          "type": "uint256"
        }
      ],
      "name": "approve",
      "outputs": [
        {
          "internalType": "bool",
          "name": "",
          "type": "bool"
        }
      ],
      "stateMutability": "nonpayable",
      "type": "function"
    },
    {
      "inputs": [
        {
          "internalType": "address",
          "name": "account",
          "type": "address"
        }
      ],
      "name": "balanceOf",
      "outputs": [
        {
          "internalType": "uint256",
          "name": "",
          "type": "uint256"
        }
      ],
      "stateMutability": "view",
      "type": "function"
    },
    {
      "inputs": [
        {
          "internalType": "address",
          "name": "_to",
          "type": "address"
        },
        {
          "internalType": "uint256",
          "name": "amount",
          "type": "uint256"
        }
      ],
      "name": "buy",
      "outputs": [],
      "stateMutability": "nonpayable",
      "type": "function"
    },
    {
      "inputs": [],
      "name": "decimals",
      "outputs": [
        {
          "internalType": "uint8",
          "name": "",
          "type": "uint8"
        }
      ],
      "stateMutability": "view",
      "type": "function"
    },
    {
      "inputs": [
        {
          "internalType": "address",
          "name": "spender",
          "type": "address"
        },
        {
          "internalType": "uint256",
          "name": "subtractedValue",
          "type": "uint256"
        }
      ],
      "name": "decreaseAllowance",
      "outputs": [
        {
          "internalType": "bool",
          "name": "",
          "type": "bool"
        }
      ],
      "stateMutability": "nonpayable",
      "type": "function"
    },
    {
      "inputs": [
        {
          "internalType": "address",
          "name": "spender",
          "type": "address"
        },
        {
          "internalType": "uint256",
          "name": "addedValue",
          "type": "uint256"
        }
      ],
      "name": "increaseAllowance",
      "outputs": [
        {
          "internalType": "bool",
          "name": "",
          "type": "bool"
        }
      ],
      "stateMutability": "nonpayable",
      "type": "function"
    },
    {
      "inputs": [],
      "name": "multisig",
      "outputs": [
        {
          "internalType": "address",
          "name": "",
          "type": "address"
        }
      ],
      "stateMutability": "view",
      "type": "function"
    },
    {
      "inputs": [],
      "name": "name",
      "outputs": [
        {
          "internalType": "string",
          "name": "",
          "type": "string"
        }
      ],
      "stateMutability": "view",
      "type": "function"
    },
    {
      "inputs": [
        {
          "internalType": "address",
          "name": "owner",
          "type": "address"
        }
      ],
      "name": "nonces",
      "outputs": [
        {
          "internalType": "uint256",
          "name": "",
          "type": "uint256"
        }
      ],
      "stateMutability": "view",
      "type": "function"
    },
    {
      "inputs": [],
      "name": "owner",
      "outputs": [
        {
          "internalType": "address",
          "name": "",
          "type": "address"
        }
      ],
      "stateMutability": "view",
      "type": "function"
    },
    {
      "inputs": [
        {
          "internalType": "address",
          "name": "owner",
          "type": "address"
        },
        {
          "internalType": "address",
          "name": "spender",
          "type": "address"
        },
        {
          "internalType": "uint256",
          "name": "value",
          "type": "uint256"
        },
        {
          "internalType": "uint256",
          "name": "deadline",
          "type": "uint256"
        },
        {
          "internalType": "uint8",
          "name": "v",
          "type": "uint8"
        },
        {
          "internalType": "bytes32",
          "name": "r",
          "type": "bytes32"
        },
        {
          "internalType": "bytes32",
          "name": "s",
          "type": "bytes32"
        }
      ],
      "name": "permit",
      "outputs": [],
      "stateMutability": "nonpayable",
      "type": "function"
    },
    {
      "inputs": [],
      "name": "renounceOwnership",
      "outputs": [],
      "stateMutability": "nonpayable",
      "type": "function"
    },
    {
      "inputs": [],
      "name": "symbol",
      "outputs": [
        {
          "internalType": "string",
          "name": "",
          "type": "string"
        }
      ],
      "stateMutability": "view",
      "type": "function"
    },
    {
      "inputs": [
        {
          "internalType": "address",
          "name": "",
          "type": "address"
        }
      ],
      "name": "tokensBought",
      "outputs": [
        {
          "internalType": "uint256",
          "name": "",
          "type": "uint256"
        }
      ],
      "stateMutability": "view",
      "type": "function"
    },
    {
      "inputs": [],
      "name": "totalSupply",
      "outputs": [
        {
          "internalType": "uint256",
          "name": "",
          "type": "uint256"
        }
      ],
      "stateMutability": "view",
      "type": "function"
    },
    {
      "inputs": [
        {
          "internalType": "address",
          "name": "to",
          "type": "address"
        },
        {
          "internalType": "uint256",
          "name": "amount",
          "type": "uint256"
        }
      ],
      "name": "transfer",
      "outputs": [
        {
          "internalType": "bool",
          "name": "",
          "type": "bool"
        }
      ],
      "stateMutability": "nonpayable",
      "type": "function"
    },
    {
      "inputs": [
        {
          "internalType": "address",
          "name": "from",
          "type": "address"
        },
        {
          "internalType": "address",
          "name": "to",
          "type": "address"
        },
        {
          "internalType": "uint256",
          "name": "amount",
          "type": "uint256"
        }
      ],
      "name": "transferFrom",
      "outputs": [
        {
          "internalType": "bool",
          "name": "",
          "type": "bool"
        }
      ],
      "stateMutability": "nonpayable",
      "type": "function"
    },
    {
      "inputs": [
        {
          "internalType": "address",
          "name": "newOwner",
          "type": "address"
        }
      ],
      "name": "transferOwnership",
      "outputs": [],
      "stateMutability": "nonpayable",
      "type": "function"
    },
    {
      "inputs": [
        {
          "internalType": "address",
          "name": "from",
          "type": "address"
        },
        {
          "internalType": "address",
          "name": "spender",
          "type": "address"
        },
        {
          "internalType": "address",
          "name": "receiver",
          "type": "address"
        },
        {
          "internalType": "uint256",
          "name": "amount",
          "type": "uint256"
        },
        {
          "internalType": "uint256",
          "name": "deadline",
          "type": "uint256"
        },
        {
          "internalType": "uint8",
          "name": "v",
          "type": "uint8"
        },
        {
          "internalType": "bytes32",
          "name": "r",
          "type": "bytes32"
        },
        {
          "internalType": "bytes32",
          "name": "s",
          "type": "bytes32"
        }
      ],
      "name": "transferToWithPermission",
      "outputs": [],
      "stateMutability": "nonpayable",
      "type": "function"
    },
    {
      "inputs": [],
      "name": "withdraw",
      "outputs": [],
      "stateMutability": "nonpayable",
      "type": "function"
    }
  ],
  "bytecode": {
    "object": "0x6101c06040523480156200001257600080fd5b5060405162001cc038038062001cc0833981016040819052620000359162000344565b8180604051806040016040528060018152602001603160f81b815250848481600390805190602001906200006b929190620001b8565b50805162000081906004906020840190620001b8565b5050825160209384012082519284019290922060e08390526101008190524660a0818152604080517f8b73c3c69bb8fe3d512ecc4cf759cc79239f7b179b0ffacaa9a75d522b39400f818901819052818301979097526060810194909452608080850193909352308483018190528151808603909301835260c09485019091528151919096012090529290925261012052506200012090503362000166565b6001600160a01b038086166101a05283166101805261014084905260646200014a85601e620003e3565b62000156919062000411565b6101605250620004709350505050565b600780546001600160a01b038381166001600160a01b0319831681179093556040519116919082907f8be0079c531659141344cd1fd0a4f28419497f9722a3daafe3b4186f6b6457e090600090a35050565b828054620001c69062000434565b90600052602060002090601f016020900481019282620001ea576000855562000235565b82601f106200020557805160ff191683800117855562000235565b8280016001018555821562000235579182015b828111156200023557825182559160200191906001019062000218565b506200024392915062000247565b5090565b5b8082111562000243576000815560010162000248565b6001600160a01b03811681146200027457600080fd5b50565b634e487b7160e01b600052604160045260246000fd5b600082601f8301126200029f57600080fd5b81516001600160401b0380821115620002bc57620002bc62000277565b604051601f8301601f19908116603f01168101908282118183101715620002e757620002e762000277565b816040528381526020925086838588010111156200030457600080fd5b600091505b8382101562000328578582018301518183018401529082019062000309565b838211156200033a5760008385830101525b9695505050505050565b600080600080600060a086880312156200035d57600080fd5b85516200036a816200025e565b60208701516040880151919650945062000384816200025e565b60608701519093506001600160401b0380821115620003a257600080fd5b620003b089838a016200028d565b93506080880151915080821115620003c757600080fd5b50620003d6888289016200028d565b9150509295509295909350565b60008160001904831182151516156200040c57634e487b7160e01b600052601160045260246000fd5b500290565b6000826200042f57634e487b7160e01b600052601260045260246000fd5b500490565b600181811c908216806200044957607f821691505b6020821081036200046a57634e487b7160e01b600052602260045260246000fd5b50919050565b60805160a05160c05160e05161010051610120516101405161016051610180516101a0516117b16200050f600039600081816104ca0152818161058601526106dc01526000818161027d015261055401526000818161016201526106fe015260008181610233015261078501526000610f1e01526000610f6d01526000610f4801526000610ea101526000610ecb01526000610ef501526117b16000f3fe608060405234801561001057600080fd5b50600436106101585760003560e01c80634783c35b116100c3578063a457c2d71161007c578063a457c2d714610314578063a9059cbb14610327578063cce7ec131461033a578063d505accf1461034d578063dd62ed3e14610360578063f2fde38b1461037357600080fd5b80634783c35b1461027857806370a08231146102b7578063715018a6146102e05780637ecebe00146102e85780638da5cb5b146102fb57806395d89b411461030c57600080fd5b8063313ce56711610115578063313ce5671461020a57806332474bf81461021957806332cb6b0c1461022e5780633644e51514610255578063395093511461025d5780633ccfd60b1461027057600080fd5b8063027542841461015d57806306fdde0314610197578063095ea7b3146101ac57806318160ddd146101cf57806323b872dd146101d7578063264d7797146101ea575b600080fd5b6101847f000000000000000000000000000000000000000000000000000000000000000081565b6040519081526020015b60405180910390f35b61019f610386565b60405161018e9190611487565b6101bf6101ba3660046114f8565b610418565b604051901515815260200161018e565b600254610184565b6101bf6101e5366004611522565b610430565b6101846101f836600461155e565b60086020526000908152604090205481565b6040516012815260200161018e565b61022c610227366004611591565b610454565b005b6101847f000000000000000000000000000000000000000000000000000000000000000081565b610184610479565b6101bf61026b3660046114f8565b610488565b61022c6104aa565b61029f7f000000000000000000000000000000000000000000000000000000000000000081565b6040516001600160a01b03909116815260200161018e565b6101846102c536600461155e565b6001600160a01b031660009081526020819052604090205490565b61022c6105f9565b6101846102f636600461155e565b61060d565b6007546001600160a01b031661029f565b61019f61062d565b6101bf6103223660046114f8565b61063c565b6101bf6103353660046114f8565b6106bc565b61022c6103483660046114f8565b6106ca565b61022c61035b36600461160c565b610920565b61018461036e366004611676565b610a84565b61022c61038136600461155e565b610aaf565b606060038054610395906116a9565b80601f01602080910402602001604051908101604052809291908181526020018280546103c1906116a9565b801561040e5780601f106103e35761010080835404028352916020019161040e565b820191906000526020600020905b8154815290600101906020018083116103f157829003601f168201915b5050505050905090565b600033610426818585610b28565b5060019392505050565b60003361043e858285610c4c565b610449858585610cc6565b506001949350505050565b61046388888787878787610920565b61046e888787610430565b505050505050505050565b6000610483610e94565b905090565b60003361042681858561049b8383610a84565b6104a591906116f3565b610b28565b6104b2610fbb565b6040516370a0823160e01b81523060048201526000907f00000000000000000000000000000000000000000000000000000000000000006001600160a01b0316906370a0823190602401602060405180830381865afa158015610519573d6000803e3d6000fd5b505050506040513d601f19601f8201168201806040525081019061053d919061170b565b60405163a9059cbb60e01b81526001600160a01b037f000000000000000000000000000000000000000000000000000000000000000081166004830152602482018390529192507f00000000000000000000000000000000000000000000000000000000000000009091169063a9059cbb906044016020604051808303816000875af11580156105d1573d6000803e3d6000fd5b505050506040513d601f19601f820116820180604052508101906105f59190611724565b5050565b610601610fbb565b61060b6000611015565b565b6001600160a01b0381166000908152600560205260408120545b92915050565b606060048054610395906116a9565b6000338161064a8286610a84565b9050838110156106af5760405162461bcd60e51b815260206004820152602560248201527f45524332303a2064656372656173656420616c6c6f77616e63652062656c6f77604482015264207a65726f60d81b60648201526084015b60405180910390fd5b6104498286868403610b28565b600033610426818585610cc6565b336000908152600860205260409020547f0000000000000000000000000000000000000000000000000000000000000000907f0000000000000000000000000000000000000000000000000000000000000000906107299084906116f3565b11156107835760405162461bcd60e51b815260206004820152602360248201527f54686973204164647265737320626f7567687420746f6f206d75636820746f6b604482015262656e7360e81b60648201526084016106a6565b7f00000000000000000000000000000000000000000000000000000000000000006107ad60025490565b6107b790846116f3565b11156108055760405162461bcd60e51b815260206004820152601760248201527f4d6178696d756d20737570706c7920657863656564656400000000000000000060448201526064016106a6565b806001600160a01b03166323b872dd336108276007546001600160a01b031690565b61083286600a611746565b6040516001600160e01b031960e086901b1681526001600160a01b03938416600482015292909116602483015260448201526064016020604051808303816000875af1158015610886573d6000803e3d6000fd5b505050506040513d601f19601f820116820180604052508101906108aa9190611724565b506108b58383611067565b33600090815260086020526040812080548492906108d49084906116f3565b9091555050604080516001600160a01b0385168152602081018490527f840df612bc9052dfa7ac2e14fc52368ca7749154d9132b7601f59d329f787fd6910160405180910390a1505050565b834211156109705760405162461bcd60e51b815260206004820152601d60248201527f45524332305065726d69743a206578706972656420646561646c696e6500000060448201526064016106a6565b60007f6e71edae12b1b97f4d1f60370fef10105fa2faae0126114a169c64845d6126c988888861099f8c611146565b6040805160208101969096526001600160a01b0394851690860152929091166060840152608083015260a082015260c0810186905260e00160405160208183030381529060405280519060200120905060006109fa8261116e565b90506000610a0a828787876111bc565b9050896001600160a01b0316816001600160a01b031614610a6d5760405162461bcd60e51b815260206004820152601e60248201527f45524332305065726d69743a20696e76616c6964207369676e6174757265000060448201526064016106a6565b610a788a8a8a610b28565b50505050505050505050565b6001600160a01b03918216600090815260016020908152604080832093909416825291909152205490565b610ab7610fbb565b6001600160a01b038116610b1c5760405162461bcd60e51b815260206004820152602660248201527f4f776e61626c653a206e6577206f776e657220697320746865207a65726f206160448201526564647265737360d01b60648201526084016106a6565b610b2581611015565b50565b6001600160a01b038316610b8a5760405162461bcd60e51b8152602060048201526024808201527f45524332303a20617070726f76652066726f6d20746865207a65726f206164646044820152637265737360e01b60648201526084016106a6565b6001600160a01b038216610beb5760405162461bcd60e51b815260206004820152602260248201527f45524332303a20617070726f766520746f20746865207a65726f206164647265604482015261737360f01b60648201526084016106a6565b6001600160a01b0383811660008181526001602090815260408083209487168084529482529182902085905590518481527f8c5be1e5ebec7d5bd14f71427d1e84f3dd0314c0f7b2291e5b200ac8c7c3b925910160405180910390a3505050565b6000610c588484610a84565b90506000198114610cc05781811015610cb35760405162461bcd60e51b815260206004820152601d60248201527f45524332303a20696e73756666696369656e7420616c6c6f77616e636500000060448201526064016106a6565b610cc08484848403610b28565b50505050565b6001600160a01b038316610d2a5760405162461bcd60e51b815260206004820152602560248201527f45524332303a207472616e736665722066726f6d20746865207a65726f206164604482015264647265737360d81b60648201526084016106a6565b6001600160a01b038216610d8c5760405162461bcd60e51b815260206004820152602360248201527f45524332303a207472616e7366657220746f20746865207a65726f206164647260448201526265737360e81b60648201526084016106a6565b6001600160a01b03831660009081526020819052604090205481811015610e045760405162461bcd60e51b815260206004820152602660248201527f45524332303a207472616e7366657220616d6f756e7420657863656564732062604482015265616c616e636560d01b60648201526084016106a6565b6001600160a01b03808516600090815260208190526040808220858503905591851681529081208054849290610e3b9084906116f3565b92505081905550826001600160a01b0316846001600160a01b03167fddf252ad1be2c89b69c2b068fc378daa952ba7f163c4a11628f55a4df523b3ef84604051610e8791815260200190565b60405180910390a3610cc0565b6000306001600160a01b037f000000000000000000000000000000000000000000000000000000000000000016148015610eed57507f000000000000000000000000000000000000000000000000000000000000000046145b15610f1757507f000000000000000000000000000000000000000000000000000000000000000090565b50604080517f00000000000000000000000000000000000000000000000000000000000000006020808301919091527f0000000000000000000000000000000000000000000000000000000000000000828401527f000000000000000000000000000000000000000000000000000000000000000060608301524660808301523060a0808401919091528351808403909101815260c0909201909252805191012090565b6007546001600160a01b0316331461060b5760405162461bcd60e51b815260206004820181905260248201527f4f776e61626c653a2063616c6c6572206973206e6f7420746865206f776e657260448201526064016106a6565b600780546001600160a01b038381166001600160a01b0319831681179093556040519116919082907f8be0079c531659141344cd1fd0a4f28419497f9722a3daafe3b4186f6b6457e090600090a35050565b6001600160a01b0382166110bd5760405162461bcd60e51b815260206004820152601f60248201527f45524332303a206d696e7420746f20746865207a65726f20616464726573730060448201526064016106a6565b80600260008282546110cf91906116f3565b90915550506001600160a01b038216600090815260208190526040812080548392906110fc9084906116f3565b90915550506040518181526001600160a01b038316906000907fddf252ad1be2c89b69c2b068fc378daa952ba7f163c4a11628f55a4df523b3ef9060200160405180910390a35050565b6001600160a01b03811660009081526005602052604090208054600181018255905b50919050565b600061062761117b610e94565b8360405161190160f01b6020820152602281018390526042810182905260009060620160405160208183030381529060405280519060200120905092915050565b60008060006111cd878787876111e4565b915091506111da816112d1565b5095945050505050565b6000807f7fffffffffffffffffffffffffffffff5d576e7357a4501ddfe92f46681b20a083111561121b57506000905060036112c8565b8460ff16601b1415801561123357508460ff16601c14155b1561124457506000905060046112c8565b6040805160008082526020820180845289905260ff881692820192909252606081018690526080810185905260019060a0016020604051602081039080840390855afa158015611298573d6000803e3d6000fd5b5050604051601f1901519150506001600160a01b0381166112c1576000600192509250506112c8565b9150600090505b94509492505050565b60008160048111156112e5576112e5611765565b036112ed5750565b600181600481111561130157611301611765565b0361134e5760405162461bcd60e51b815260206004820152601860248201527f45434453413a20696e76616c6964207369676e6174757265000000000000000060448201526064016106a6565b600281600481111561136257611362611765565b036113af5760405162461bcd60e51b815260206004820152601f60248201527f45434453413a20696e76616c6964207369676e6174757265206c656e6774680060448201526064016106a6565b60038160048111156113c3576113c3611765565b0361141b5760405162461bcd60e51b815260206004820152602260248201527f45434453413a20696e76616c6964207369676e6174757265202773272076616c604482015261756560f01b60648201526084016106a6565b600481600481111561142f5761142f611765565b03610b255760405162461bcd60e51b815260206004820152602260248201527f45434453413a20696e76616c6964207369676e6174757265202776272076616c604482015261756560f01b60648201526084016106a6565b600060208083528351808285015260005b818110156114b457858101830151858201604001528201611498565b818111156114c6576000604083870101525b50601f01601f1916929092016040019392505050565b80356001600160a01b03811681146114f357600080fd5b919050565b6000806040838503121561150b57600080fd5b611514836114dc565b946020939093013593505050565b60008060006060848603121561153757600080fd5b611540846114dc565b925061154e602085016114dc565b9150604084013590509250925092565b60006020828403121561157057600080fd5b611579826114dc565b9392505050565b803560ff811681146114f357600080fd5b600080600080600080600080610100898b0312156115ae57600080fd5b6115b7896114dc565b97506115c560208a016114dc565b96506115d360408a016114dc565b955060608901359450608089013593506115ef60a08a01611580565b925060c0890135915060e089013590509295985092959890939650565b600080600080600080600060e0888a03121561162757600080fd5b611630886114dc565b965061163e602089016114dc565b9550604088013594506060880135935061165a60808901611580565b925060a0880135915060c0880135905092959891949750929550565b6000806040838503121561168957600080fd5b611692836114dc565b91506116a0602084016114dc565b90509250929050565b600181811c908216806116bd57607f821691505b60208210810361116857634e487b7160e01b600052602260045260246000fd5b634e487b7160e01b600052601160045260246000fd5b60008219821115611706576117066116dd565b500190565b60006020828403121561171d57600080fd5b5051919050565b60006020828403121561173657600080fd5b8151801515811461157957600080fd5b6000816000190483118215151615611760576117606116dd565b500290565b634e487b7160e01b600052602160045260246000fdfea2646970667358221220f1276122a2b280003308c78291c949bc1eb15444ac78f829bd366c3123eb663d64736f6c634300080e0033",
    "linkReferences": {}
  },
  "methodIdentifiers": {
    "DOMAIN_SEPARATOR()": "3644e515",
    "MAX_SUPPLY()": "32cb6b0c",
    "MAX_TO_BUY()": "02754284",
    "allowance(address,address)": "dd62ed3e",
    "approve(address,uint256)": "095ea7b3",
    "balanceOf(address)": "70a08231",
    "buy(address,uint256)": "cce7ec13",
    "decimals()": "313ce567",
    "decreaseAllowance(address,uint256)": "a457c2d7",
    "increaseAllowance(address,uint256)": "39509351",
    "multisig()": "4783c35b",
    "name()": "06fdde03",
    "nonces(address)": "7ecebe00",
    "owner()": "8da5cb5b",
    "permit(address,address,uint256,uint256,uint8,bytes32,bytes32)": "d505accf",
    "renounceOwnership()": "715018a6",
    "symbol()": "95d89b41",
    "tokensBought(address)": "264d7797",
    "totalSupply()": "18160ddd",
    "transfer(address,uint256)": "a9059cbb",
    "transferFrom(address,address,uint256)": "23b872dd",
    "transferOwnership(address)": "f2fde38b",
    "transferToWithPermission(address,address,address,uint256,uint256,uint8,bytes32,bytes32)": "32474bf8",
    "withdraw()": "3ccfd60b"
  },
  "id": 20
}