{
  "abi": [
    {
      "inputs": [
        {
          "internalType": "string",
          "name": "protoSymbol",
          "type": "string"
        },
        {
          "internalType": "address",
          "name": "_tokenToStake",
          "type": "address"
        },
        {
          "internalType": "address",
          "name": "_currencyUsedToPay",
          "type": "address"
        },
        {
          "internalType": "address",
          "name": "_treasury",
          "type": "address"
        }
      ],
      "stateMutability": "nonpayable",
      "type": "constructor"
    },
    {
      "anonymous": false,
      "inputs": [
        {
          "indexed": true,
          "internalType": "address",
          "name": "owner",
          "type": "address"
        },
        {
          "indexed": true,
          "internalType": "address",
          "name": "spender",
          "type": "address"
        },
        {
          "indexed": false,
          "internalType": "uint256",
          "name": "value",
          "type": "uint256"
        }
      ],
      "name": "Approval",
      "type": "event"
    },
    {
      "anonymous": false,
      "inputs": [
        {
          "indexed": true,
          "internalType": "address",
          "name": "previousOwner",
          "type": "address"
        },
        {
          "indexed": true,
          "internalType": "address",
          "name": "newOwner",
          "type": "address"
        }
      ],
      "name": "OwnershipTransferred",
      "type": "event"
    },
    {
      "anonymous": false,
      "inputs": [
        {
          "indexed": false,
          "internalType": "address",
          "name": "who",
          "type": "address"
        },
        {
          "indexed": false,
          "internalType": "uint256",
          "name": "amount",
          "type": "uint256"
        },
        {
          "indexed": false,
          "internalType": "uint256",
          "name": "timeStamp",
          "type": "uint256"
        }
      ],
      "name": "Staked",
      "type": "event"
    },
    {
      "anonymous": false,
      "inputs": [
        {
          "indexed": true,
          "internalType": "address",
          "name": "from",
          "type": "address"
        },
        {
          "indexed": true,
          "internalType": "address",
          "name": "to",
          "type": "address"
        },
        {
          "indexed": false,
          "internalType": "uint256",
          "name": "value",
          "type": "uint256"
        }
      ],
      "name": "Transfer",
      "type": "event"
    },
    {
      "anonymous": false,
      "inputs": [
        {
          "indexed": false,
          "internalType": "address",
          "name": "who",
          "type": "address"
        },
        {
          "indexed": false,
          "internalType": "uint256",
          "name": "amount",
          "type": "uint256"
        },
        {
          "indexed": false,
          "internalType": "uint256",
          "name": "timeStamp",
          "type": "uint256"
        }
      ],
      "name": "unStaked",
      "type": "event"
    },
    {
      "inputs": [],
      "name": "TOKEN_TO_STAKE",
      "outputs": [
        {
          "internalType": "contract IERC20",
          "name": "",
          "type": "address"
        }
      ],
      "stateMutability": "view",
      "type": "function"
    },
    {
      "inputs": [],
      "name": "TOKEN_TO_STAKE_MAX_SUPPLY",
      "outputs": [
        {
          "internalType": "uint256",
          "name": "",
          "type": "uint256"
        }
      ],
      "stateMutability": "view",
      "type": "function"
    },
    {
      "inputs": [
        {
          "internalType": "address",
          "name": "owner",
          "type": "address"
        },
        {
          "internalType": "address",
          "name": "spender",
          "type": "address"
        }
      ],
      "name": "allowance",
      "outputs": [
        {
          "internalType": "uint256",
          "name": "",
          "type": "uint256"
        }
      ],
      "stateMutability": "view",
      "type": "function"
    },
    {
      "inputs": [
        {
          "internalType": "address",
          "name": "spender",
          "type": "address"
        },
        {
          "internalType": "uint256",
          "name": "amount",
          "type": "uint256"
        }
      ],
      "name": "approve",
      "outputs": [
        {
          "internalType": "bool",
          "name": "",
          "type": "bool"
        }
      ],
      "stateMutability": "nonpayable",
      "type": "function"
    },
    {
      "inputs": [
        {
          "internalType": "address",
          "name": "account",
          "type": "address"
        }
      ],
      "name": "balanceOf",
      "outputs": [
        {
          "internalType": "uint256",
          "name": "",
          "type": "uint256"
        }
      ],
      "stateMutability": "view",
      "type": "function"
    },
    {
      "inputs": [],
      "name": "beginTimestamp",
      "outputs": [],
      "stateMutability": "nonpayable",
      "type": "function"
    },
    {
      "inputs": [],
      "name": "claimReward",
      "outputs": [],
      "stateMutability": "nonpayable",
      "type": "function"
    },
    {
      "inputs": [],
      "name": "decimals",
      "outputs": [
        {
          "internalType": "uint8",
          "name": "",
          "type": "uint8"
        }
      ],
      "stateMutability": "view",
      "type": "function"
    },
    {
      "inputs": [
        {
          "internalType": "address",
          "name": "spender",
          "type": "address"
        },
        {
          "internalType": "uint256",
          "name": "subtractedValue",
          "type": "uint256"
        }
      ],
      "name": "decreaseAllowance",
      "outputs": [
        {
          "internalType": "bool",
          "name": "",
          "type": "bool"
        }
      ],
      "stateMutability": "nonpayable",
      "type": "function"
    },
    {
      "inputs": [
        {
          "internalType": "address",
          "name": "tokenHolder",
          "type": "address"
        }
      ],
      "name": "getStakeInfo",
      "outputs": [
        {
          "components": [
            {
              "internalType": "uint64",
              "name": "rank",
              "type": "uint64"
            },
            {
              "internalType": "uint256",
              "name": "preShare",
              "type": "uint256"
            },
            {
              "internalType": "uint256",
              "name": "lastTimeStamp",
              "type": "uint256"
            },
            {
              "internalType": "uint256",
              "name": "amount",
              "type": "uint256"
            },
            {
              "internalType": "uint256",
              "name": "claimableReward",
              "type": "uint256"
            }
          ],
          "internalType": "struct stakeInfo",
          "name": "",
          "type": "tuple"
        }
      ],
      "stateMutability": "view",
      "type": "function"
    },
    {
      "inputs": [
        {
          "internalType": "address",
          "name": "spender",
          "type": "address"
        },
        {
          "internalType": "uint256",
          "name": "addedValue",
          "type": "uint256"
        }
      ],
      "name": "increaseAllowance",
      "outputs": [
        {
          "internalType": "bool",
          "name": "",
          "type": "bool"
        }
      ],
      "stateMutability": "nonpayable",
      "type": "function"
    },
    {
      "inputs": [],
      "name": "monthTimeStamp",
      "outputs": [
        {
          "internalType": "uint256",
          "name": "",
          "type": "uint256"
        }
      ],
      "stateMutability": "view",
      "type": "function"
    },
    {
      "inputs": [],
      "name": "name",
      "outputs": [
        {
          "internalType": "string",
          "name": "",
          "type": "string"
        }
      ],
      "stateMutability": "view",
      "type": "function"
    },
    {
      "inputs": [],
      "name": "owner",
      "outputs": [
        {
          "internalType": "address",
          "name": "",
          "type": "address"
        }
      ],
      "stateMutability": "view",
      "type": "function"
    },
    {
      "inputs": [],
      "name": "renounceOwnership",
      "outputs": [],
      "stateMutability": "nonpayable",
      "type": "function"
    },
    {
      "inputs": [
        {
          "internalType": "uint256",
          "name": "totalReward",
          "type": "uint256"
        }
      ],
      "name": "setTotalClaimableReward",
      "outputs": [],
      "stateMutability": "nonpayable",
      "type": "function"
    },
    {
      "inputs": [
        {
          "internalType": "uint256",
          "name": "_amount",
          "type": "uint256"
        }
      ],
      "name": "stake",
      "outputs": [],
      "stateMutability": "nonpayable",
      "type": "function"
    },
    {
      "inputs": [
        {
          "internalType": "address",
          "name": "",
          "type": "address"
        }
      ],
      "name": "stakeByOwner",
      "outputs": [
        {
          "internalType": "uint64",
          "name": "rank",
          "type": "uint64"
        },
        {
          "internalType": "uint256",
          "name": "preShare",
          "type": "uint256"
        },
        {
          "internalType": "uint256",
          "name": "lastTimeStamp",
          "type": "uint256"
        },
        {
          "internalType": "uint256",
          "name": "amount",
          "type": "uint256"
        },
        {
          "internalType": "uint256",
          "name": "claimableReward",
          "type": "uint256"
        }
      ],
      "stateMutability": "view",
      "type": "function"
    },
    {
      "inputs": [
        {
          "internalType": "uint256",
          "name": "",
          "type": "uint256"
        }
      ],
      "name": "stakers",
      "outputs": [
        {
          "internalType": "address",
          "name": "",
          "type": "address"
        }
      ],
      "stateMutability": "view",
      "type": "function"
    },
    {
      "inputs": [],
      "name": "symbol",
      "outputs": [
        {
          "internalType": "string",
          "name": "",
          "type": "string"
        }
      ],
      "stateMutability": "view",
      "type": "function"
    },
    {
      "inputs": [],
      "name": "totalSupply",
      "outputs": [
        {
          "internalType": "uint256",
          "name": "",
          "type": "uint256"
        }
      ],
      "stateMutability": "view",
      "type": "function"
    },
    {
      "inputs": [
        {
          "internalType": "address",
          "name": "to",
          "type": "address"
        },
        {
          "internalType": "uint256",
          "name": "amount",
          "type": "uint256"
        }
      ],
      "name": "transfer",
      "outputs": [
        {
          "internalType": "bool",
          "name": "",
          "type": "bool"
        }
      ],
      "stateMutability": "nonpayable",
      "type": "function"
    },
    {
      "inputs": [
        {
          "internalType": "address",
          "name": "from",
          "type": "address"
        },
        {
          "internalType": "address",
          "name": "to",
          "type": "address"
        },
        {
          "internalType": "uint256",
          "name": "amount",
          "type": "uint256"
        }
      ],
      "name": "transferFrom",
      "outputs": [
        {
          "internalType": "bool",
          "name": "",
          "type": "bool"
        }
      ],
      "stateMutability": "nonpayable",
      "type": "function"
    },
    {
      "inputs": [
        {
          "internalType": "address",
          "name": "newOwner",
          "type": "address"
        }
      ],
      "name": "transferOwnership",
      "outputs": [],
      "stateMutability": "nonpayable",
      "type": "function"
    },
    {
      "inputs": [
        {
          "internalType": "uint256",
          "name": "_amount",
          "type": "uint256"
        }
      ],
      "name": "unStake",
      "outputs": [],
      "stateMutability": "nonpayable",
      "type": "function"
    }
  ],
  "bytecode": {
    "object": "0x6101006040523480156200001257600080fd5b5060405162001d8338038062001d83833981016040819052620000359162000272565b6040805180820190915260138082527f7374616b65644b6f6e6b72657465546f6b656e000000000000000000000000006020830190815286916200007c9160039162000199565b5080516200009290600490602084019062000199565b505050620000af620000a96200014360201b60201c565b62000147565b60016006556001600160a01b038316608081905260408051630cb2dac360e21b815290516332cb6b0c916004808201926020929091908290030181865afa158015620000ff573d6000803e3d6000fd5b505050506040513d601f19601f8201168201806040525081019062000125919062000388565b60a0526001600160a01b0391821660c0521660e05250620003de9050565b3390565b600580546001600160a01b038381166001600160a01b0319831681179093556040519116919082907f8be0079c531659141344cd1fd0a4f28419497f9722a3daafe3b4186f6b6457e090600090a35050565b828054620001a790620003a2565b90600052602060002090601f016020900481019282620001cb576000855562000216565b82601f10620001e657805160ff191683800117855562000216565b8280016001018555821562000216579182015b8281111562000216578251825591602001919060010190620001f9565b506200022492915062000228565b5090565b5b8082111562000224576000815560010162000229565b634e487b7160e01b600052604160045260246000fd5b80516001600160a01b03811681146200026d57600080fd5b919050565b600080600080608085870312156200028957600080fd5b84516001600160401b0380821115620002a157600080fd5b818701915087601f830112620002b657600080fd5b815181811115620002cb57620002cb6200023f565b604051601f8201601f19908116603f01168101908382118183101715620002f657620002f66200023f565b81604052828152602093508a848487010111156200031357600080fd5b600091505b8282101562000337578482018401518183018501529083019062000318565b82821115620003495760008484830101525b97506200035b91505087820162000255565b945050506200036d6040860162000255565b91506200037d6060860162000255565b905092959194509250565b6000602082840312156200039b57600080fd5b5051919050565b600181811c90821680620003b757607f821691505b602082108103620003d857634e487b7160e01b600052602260045260246000fd5b50919050565b60805160a05160c05160e05161194f6200043460003960008181610cf60152610e3401526000610d2c01526000818161027e0152610ef901526000818161036a015281816106530152610858015261194f6000f3fe608060405234801561001057600080fd5b50600436106101735760003560e01c80638da5cb5b116100de578063b88a802f11610097578063c345315311610071578063c34531531461039f578063dd62ed3e146103fd578063f2fde38b14610410578063fd5e6dd11461042357600080fd5b8063b88a802f1461035d578063c117c05614610365578063c26c60de1461038c57600080fd5b80638da5cb5b146102ee57806395d89b4114610313578063a239882a1461031b578063a457c2d714610324578063a694fc3a14610337578063a9059cbb1461034a57600080fd5b80633d1da5cb116101305780633d1da5cb146102005780635c92af72146102795780635d3eea91146102a0578063672a0fb8146102b557806370a08231146102bd578063715018a6146102e657600080fd5b806306fdde0314610178578063095ea7b31461019657806318160ddd146101b957806323b872dd146101cb578063313ce567146101de57806339509351146101ed575b600080fd5b610180610436565b60405161018d919061168c565b60405180910390f35b6101a96101a43660046116fd565b6104c8565b604051901515815260200161018d565b6002545b60405190815260200161018d565b6101a96101d9366004611727565b6104e0565b6040516012815260200161018d565b6101a96101fb3660046116fd565b610504565b61024761020e366004611763565b600760205260009081526040902080546001820154600283015460038401546004909401546001600160401b0390931693919290919085565b604080516001600160401b0390961686526020860194909452928401919091526060830152608082015260a00161018d565b6101bd7f000000000000000000000000000000000000000000000000000000000000000081565b6102b36102ae366004611785565b610526565b005b6102b361076a565b6101bd6102cb366004611763565b6001600160a01b031660009081526020819052604090205490565b6102b3610778565b6005546001600160a01b03165b6040516001600160a01b03909116815260200161018d565b61018061078c565b6101bd60095481565b6101a96103323660046116fd565b61079b565b6102b3610345366004611785565b610816565b6101a96103583660046116fd565b610c0a565b6102b3610c18565b6102fb7f000000000000000000000000000000000000000000000000000000000000000081565b6102b361039a366004611785565b610e02565b6103b26103ad366004611763565b61105e565b60405161018d9190600060a0820190506001600160401b0383511682526020830151602083015260408301516040830152606083015160608301526080830151608083015292915050565b6101bd61040b36600461179e565b6110fa565b6102b361041e366004611763565b611125565b6102fb610431366004611785565b61119e565b606060038054610445906117d1565b80601f0160208091040260200160405190810160405280929190818152602001828054610471906117d1565b80156104be5780601f10610493576101008083540402835291602001916104be565b820191906000526020600020905b8154815290600101906020018083116104a157829003601f168201915b5050505050905090565b6000336104d68185856111c8565b5060019392505050565b6000336104ee8582856112ec565b6104f9858585611366565b506001949350505050565b6000336104d681858561051783836110fa565b6105219190611821565b6111c8565b6002600654036105515760405162461bcd60e51b815260040161054890611839565b60405180910390fd5b6002600681905533600090815260076020908152604091829020825160a08101845281546001600160401b0316815260018201549281019290925292830154918101919091526003820154606082018190526004909201546080820152908211156105fe5760405162461bcd60e51b815260206004820152601760248201527f43616e277420756e7374616b652074686973206d7563680000000000000000006044820152606401610548565b6060810151604082015142916106149183611534565b602083015260408201819052606082018051849190610634908390611870565b90525060405163a9059cbb60e01b8152336004820152602481018490527f00000000000000000000000000000000000000000000000000000000000000006001600160a01b03169063a9059cbb906044016020604051808303816000875af11580156106a4573d6000803e3d6000fd5b505050506040513d601f19601f820116820180604052508101906106c89190611887565b50336000818152600760209081526040918290208551815467ffffffffffffffff19166001600160401b039091161781558582015160018201558583015160028201556060808701516003830155608087015160049092019190915582519384529083018690529082018390527fe54700985ffd0973f2d7efd700eb74fa18d4e63f5f6789bb06a67d3c532d58fe910160405180910390a15050600160065550565b610772611554565b42600955565b610780611554565b61078a60006115ae565b565b606060048054610445906117d1565b600033816107a982866110fa565b9050838110156108095760405162461bcd60e51b815260206004820152602560248201527f45524332303a2064656372656173656420616c6c6f77616e63652062656c6f77604482015264207a65726f60d81b6064820152608401610548565b6104f982868684036111c8565b6002600654036108385760405162461bcd60e51b815260040161054890611839565b6002600655604051636eb1769f60e11b81523360048201523060248201527f00000000000000000000000000000000000000000000000000000000000000009082906001600160a01b0383169063dd62ed3e90604401602060405180830381865afa1580156108ab573d6000803e3d6000fd5b505050506040513d601f19601f820116820180604052508101906108cf91906118a9565b101561091d5760405162461bcd60e51b815260206004820152601c60248201527f4e65656420746f20616c6c6f77207472616e73666572206669727374000000006044820152606401610548565b6040516370a0823160e01b815233600482015282906001600160a01b038316906370a0823190602401602060405180830381865afa158015610963573d6000803e3d6000fd5b505050506040513d601f19601f8201168201806040525081019061098791906118a9565b10156109cc5760405162461bcd60e51b8152602060048201526014602482015273546f6f206d75636820666f722062616c616e636560601b6044820152606401610548565b6040516323b872dd60e01b8152336004820152306024820152604481018390526000906001600160a01b038316906323b872dd906064016020604051808303816000875af1158015610a22573d6000803e3d6000fd5b505050506040513d601f19601f82011682018060405250810190610a469190611887565b905080610a875760405162461bcd60e51b815260206004820152600f60248201526e151c985b9cd9995c8819985a5b1959608a1b6044820152606401610548565b336000908152600760209081526040808320815160a08101835281546001600160401b0316808252600183015494820194909452600282015492810192909252600381015460608301526004015460808201529103610b2e576008805460018101825560008290527ff3f7a9fe364faab93b216da50a3214154f22a0a2b415b23a84c8169e8b636ee30180546001600160a01b03191633179055546001600160401b031681525b606081015160408201514291610b449183611534565b602083015260408201819052606082018051869190610b64908390611821565b905250336000818152600760209081526040918290208551815467ffffffffffffffff19166001600160401b039091161781558582015160018201558583015160028201556060808701516003830155608087015160049092019190915582519384529083018890529082018390527f1449c6dd7851abc30abf37f57715f492010519147cc2652fbc38202c18a6ee90910160405180910390a150506001600655505050565b6000336104d6818585611366565b600260065403610c3a5760405162461bcd60e51b815260040161054890611839565b6002600681905533600090815260076020908152604091829020825160a08101845281546001600160401b0316815260018201549281019290925292830154918101919091526003820154606082015260049091015460808201819052610cda5760405162461bcd60e51b815260206004820152601460248201527343616e277420636c61696d20616e797468696e6760601b6044820152606401610548565b60808101516040516323b872dd60e01b81526001600160a01b037f00000000000000000000000000000000000000000000000000000000000000008116600483015233602483015260448201929092527f0000000000000000000000000000000000000000000000000000000000000000909116906323b872dd906064016020604051808303816000875af1158015610d77573d6000803e3d6000fd5b505050506040513d601f19601f82011682018060405250810190610d9b9190611887565b50600060808201818152338252600760209081526040928390208451815467ffffffffffffffff19166001600160401b0390911617815590840151600180830191909155928401516002820155606090930151600384015551600490920191909155600655565b600260065403610e245760405162461bcd60e51b815260040161054890611839565b6002600655336001600160a01b037f00000000000000000000000000000000000000000000000000000000000000001614610e915760405162461bcd60e51b815260206004820152600d60248201526c4a75737420547265617375727960981b6044820152606401610548565b60006008805480602002602001604051908101604052809291908181526020018280548015610ee957602002820191906000526020600020905b81546001600160a01b03168152600190910190602001808311610ecb575b50505050509050600042905060007f000000000000000000000000000000000000000000000000000000000000000060095483610f269190611870565b610f3091906118c2565b905060005b835181101561105057610fc58360076000878581518110610f5857610f586118e1565b6020908102919091018101516001600160a01b03168252818101929092526040908101600020815160a08101835281546001600160401b03168152600182015493810193909352600281015491830191909152600381015460608301526004015460808201528488611600565b60076000868481518110610fdb57610fdb6118e1565b6020908102919091018101516001600160a01b031682528181019290925260409081016000208351815467ffffffffffffffff19166001600160401b03909116178155918301516001808401919091559083015160028301556060830151600383015560809092015160049091015501610f35565b505060095550506001600655565b6110996040518060a0016040528060006001600160401b03168152602001600081526020016000815260200160008152602001600081525090565b506001600160a01b0316600090815260076020908152604091829020825160a08101845281546001600160401b0316815260018201549281019290925260028101549282019290925260038201546060820152600490910154608082015290565b6001600160a01b03918216600090815260016020908152604080832093909416825291909152205490565b61112d611554565b6001600160a01b0381166111925760405162461bcd60e51b815260206004820152602660248201527f4f776e61626c653a206e6577206f776e657220697320746865207a65726f206160448201526564647265737360d01b6064820152608401610548565b61119b816115ae565b50565b600881815481106111ae57600080fd5b6000918252602090912001546001600160a01b0316905081565b6001600160a01b03831661122a5760405162461bcd60e51b8152602060048201526024808201527f45524332303a20617070726f76652066726f6d20746865207a65726f206164646044820152637265737360e01b6064820152608401610548565b6001600160a01b03821661128b5760405162461bcd60e51b815260206004820152602260248201527f45524332303a20617070726f766520746f20746865207a65726f206164647265604482015261737360f01b6064820152608401610548565b6001600160a01b0383811660008181526001602090815260408083209487168084529482529182902085905590518481527f8c5be1e5ebec7d5bd14f71427d1e84f3dd0314c0f7b2291e5b200ac8c7c3b925910160405180910390a3505050565b60006112f884846110fa565b9050600019811461136057818110156113535760405162461bcd60e51b815260206004820152601d60248201527f45524332303a20696e73756666696369656e7420616c6c6f77616e63650000006044820152606401610548565b61136084848484036111c8565b50505050565b6001600160a01b0383166113ca5760405162461bcd60e51b815260206004820152602560248201527f45524332303a207472616e736665722066726f6d20746865207a65726f206164604482015264647265737360d81b6064820152608401610548565b6001600160a01b03821661142c5760405162461bcd60e51b815260206004820152602360248201527f45524332303a207472616e7366657220746f20746865207a65726f206164647260448201526265737360e81b6064820152608401610548565b6001600160a01b038316600090815260208190526040902054818110156114a45760405162461bcd60e51b815260206004820152602660248201527f45524332303a207472616e7366657220616d6f756e7420657863656564732062604482015265616c616e636560d01b6064820152608401610548565b6001600160a01b038085166000908152602081905260408082208585039055918516815290812080548492906114db908490611821565b92505081905550826001600160a01b0316846001600160a01b03167fddf252ad1be2c89b69c2b068fc378daa952ba7f163c4a11628f55a4df523b3ef8460405161152791815260200190565b60405180910390a3611360565b6000806115418484611870565b61154b90866118c2565b95945050505050565b6005546001600160a01b0316331461078a5760405162461bcd60e51b815260206004820181905260248201527f4f776e61626c653a2063616c6c6572206973206e6f7420746865206f776e65726044820152606401610548565b600580546001600160a01b038381166001600160a01b0319831681179093556040519116919082907f8be0079c531659141344cd1fd0a4f28419497f9722a3daafe3b4186f6b6457e090600090a35050565b61163b6040518060a0016040528060006001600160401b03168152602001600081526020016000815260200160008152602001600081525090565b8261164f8560600151866040015188611534565b856020015161165e9190611821565b61166890846118c2565b61167291906118f7565b608085015250505060408101919091526000602082015290565b600060208083528351808285015260005b818110156116b95785810183015185820160400152820161169d565b818111156116cb576000604083870101525b50601f01601f1916929092016040019392505050565b80356001600160a01b03811681146116f857600080fd5b919050565b6000806040838503121561171057600080fd5b611719836116e1565b946020939093013593505050565b60008060006060848603121561173c57600080fd5b611745846116e1565b9250611753602085016116e1565b9150604084013590509250925092565b60006020828403121561177557600080fd5b61177e826116e1565b9392505050565b60006020828403121561179757600080fd5b5035919050565b600080604083850312156117b157600080fd5b6117ba836116e1565b91506117c8602084016116e1565b90509250929050565b600181811c908216806117e557607f821691505b60208210810361180557634e487b7160e01b600052602260045260246000fd5b50919050565b634e487b7160e01b600052601160045260246000fd5b600082198211156118345761183461180b565b500190565b6020808252601f908201527f5265656e7472616e637947756172643a207265656e7472616e742063616c6c00604082015260600190565b6000828210156118825761188261180b565b500390565b60006020828403121561189957600080fd5b8151801515811461177e57600080fd5b6000602082840312156118bb57600080fd5b5051919050565b60008160001904831182151516156118dc576118dc61180b565b500290565b634e487b7160e01b600052603260045260246000fd5b60008261191457634e487b7160e01b600052601260045260246000fd5b50049056fea2646970667358221220dc2543f0dd384f1d0dba100e1194cba72cbe72430f62962befcb365929066b7d64736f6c634300080e0033",
    "linkReferences": {}
  },
  "methodIdentifiers": {
    "TOKEN_TO_STAKE()": "c117c056",
    "TOKEN_TO_STAKE_MAX_SUPPLY()": "5c92af72",
    "allowance(address,address)": "dd62ed3e",
    "approve(address,uint256)": "095ea7b3",
    "balanceOf(address)": "70a08231",
    "beginTimestamp()": "672a0fb8",
    "claimReward()": "b88a802f",
    "decimals()": "313ce567",
    "decreaseAllowance(address,uint256)": "a457c2d7",
    "getStakeInfo(address)": "c3453153",
    "increaseAllowance(address,uint256)": "39509351",
    "monthTimeStamp()": "a239882a",
    "name()": "06fdde03",
    "owner()": "8da5cb5b",
    "renounceOwnership()": "715018a6",
    "setTotalClaimableReward(uint256)": "c26c60de",
    "stake(uint256)": "a694fc3a",
    "stakeByOwner(address)": "3d1da5cb",
    "stakers(uint256)": "fd5e6dd1",
    "symbol()": "95d89b41",
    "totalSupply()": "18160ddd",
    "transfer(address,uint256)": "a9059cbb",
    "transferFrom(address,address,uint256)": "23b872dd",
    "transferOwnership(address)": "f2fde38b",
    "unStake(uint256)": "5d3eea91"
  },
  "id": 23
}