{
  "abi": [
    {
      "inputs": [
        {
          "internalType": "address",
          "name": "_tokenToStake",
          "type": "address"
        },
        {
          "internalType": "address",
          "name": "_currencyUsedToPay",
          "type": "address"
        },
        {
          "internalType": "address",
          "name": "_treasury",
          "type": "address"
        }
      ],
      "stateMutability": "nonpayable",
      "type": "constructor"
    },
    {
      "anonymous": false,
      "inputs": [
        {
          "indexed": false,
          "internalType": "uint256",
          "name": "rentAmount",
          "type": "uint256"
        }
      ],
      "name": "MonthRentRewardArrived",
      "type": "event"
    },
    {
      "anonymous": false,
      "inputs": [
        {
          "indexed": true,
          "internalType": "address",
          "name": "previousOwner",
          "type": "address"
        },
        {
          "indexed": true,
          "internalType": "address",
          "name": "newOwner",
          "type": "address"
        }
      ],
      "name": "OwnershipTransferred",
      "type": "event"
    },
    {
      "anonymous": false,
      "inputs": [
        {
          "indexed": false,
          "internalType": "address",
          "name": "who",
          "type": "address"
        },
        {
          "indexed": false,
          "internalType": "uint256",
          "name": "amount",
          "type": "uint256"
        },
        {
          "indexed": false,
          "internalType": "uint256",
          "name": "timeStamp",
          "type": "uint256"
        }
      ],
      "name": "Staked",
      "type": "event"
    },
    {
      "anonymous": false,
      "inputs": [
        {
          "indexed": false,
          "internalType": "address",
          "name": "who",
          "type": "address"
        },
        {
          "indexed": false,
          "internalType": "uint256",
          "name": "amount",
          "type": "uint256"
        },
        {
          "indexed": false,
          "internalType": "uint256",
          "name": "timeStamp",
          "type": "uint256"
        }
      ],
      "name": "unStaked",
      "type": "event"
    },
    {
      "inputs": [],
      "name": "TOKEN_TO_STAKE",
      "outputs": [
        {
          "internalType": "contract IPropertyToken",
          "name": "",
          "type": "address"
        }
      ],
      "stateMutability": "view",
      "type": "function"
    },
    {
      "inputs": [],
      "name": "TOKEN_TO_STAKE_MAX_SUPPLY",
      "outputs": [
        {
          "internalType": "uint256",
          "name": "",
          "type": "uint256"
        }
      ],
      "stateMutability": "view",
      "type": "function"
    },
    {
      "inputs": [],
      "name": "beginTimestamp",
      "outputs": [],
      "stateMutability": "nonpayable",
      "type": "function"
    },
    {
      "inputs": [
        {
          "internalType": "address",
          "name": "tokenHolder",
          "type": "address"
        }
      ],
      "name": "getStakeInfos",
      "outputs": [
        {
          "components": [
            {
              "internalType": "bool",
              "name": "exist",
              "type": "bool"
            },
            {
              "internalType": "uint64",
              "name": "rank",
              "type": "uint64"
            },
            {
              "internalType": "uint64",
              "name": "lastTimeStamp",
              "type": "uint64"
            },
            {
              "internalType": "uint256",
              "name": "preShare",
              "type": "uint256"
            },
            {
              "internalType": "uint256",
              "name": "amount",
              "type": "uint256"
            },
            {
              "internalType": "uint256",
              "name": "claimableReward",
              "type": "uint256"
            }
          ],
          "internalType": "struct StakeInfos",
          "name": "",
          "type": "tuple"
        }
      ],
      "stateMutability": "view",
      "type": "function"
    },
    {
      "inputs": [],
      "name": "monthTimeStamp",
      "outputs": [
        {
          "internalType": "uint256",
          "name": "",
          "type": "uint256"
        }
      ],
      "stateMutability": "view",
      "type": "function"
    },
    {
      "inputs": [],
      "name": "owner",
      "outputs": [
        {
          "internalType": "address",
          "name": "",
          "type": "address"
        }
      ],
      "stateMutability": "view",
      "type": "function"
    },
    {
      "inputs": [],
      "name": "renounceOwnership",
      "outputs": [],
      "stateMutability": "nonpayable",
      "type": "function"
    },
    {
      "inputs": [
        {
          "internalType": "uint256",
          "name": "totalReward",
          "type": "uint256"
        }
      ],
      "name": "setTotalClaimableReward",
      "outputs": [
        {
          "internalType": "uint256",
          "name": "",
          "type": "uint256"
        }
      ],
      "stateMutability": "nonpayable",
      "type": "function"
    },
    {
      "inputs": [
        {
          "internalType": "uint256",
          "name": "_amount",
          "type": "uint256"
        },
        {
          "internalType": "uint256",
          "name": "deadline",
          "type": "uint256"
        },
        {
          "internalType": "uint8",
          "name": "v",
          "type": "uint8"
        },
        {
          "internalType": "bytes32",
          "name": "r",
          "type": "bytes32"
        },
        {
          "internalType": "bytes32",
          "name": "s",
          "type": "bytes32"
        }
      ],
      "name": "stake",
      "outputs": [],
      "stateMutability": "nonpayable",
      "type": "function"
    },
    {
      "inputs": [
        {
          "internalType": "address",
          "name": "",
          "type": "address"
        }
      ],
      "name": "stakeByOwner",
      "outputs": [
        {
          "internalType": "bool",
          "name": "exist",
          "type": "bool"
        },
        {
          "internalType": "uint64",
          "name": "rank",
          "type": "uint64"
        },
        {
          "internalType": "uint64",
          "name": "lastTimeStamp",
          "type": "uint64"
        },
        {
          "internalType": "uint256",
          "name": "preShare",
          "type": "uint256"
        },
        {
          "internalType": "uint256",
          "name": "amount",
          "type": "uint256"
        },
        {
          "internalType": "uint256",
          "name": "claimableReward",
          "type": "uint256"
        }
      ],
      "stateMutability": "view",
      "type": "function"
    },
    {
      "inputs": [
        {
          "internalType": "uint256",
          "name": "",
          "type": "uint256"
        }
      ],
      "name": "stakers",
      "outputs": [
        {
          "internalType": "address",
          "name": "",
          "type": "address"
        }
      ],
      "stateMutability": "view",
      "type": "function"
    },
    {
      "inputs": [
        {
          "internalType": "address",
          "name": "newOwner",
          "type": "address"
        }
      ],
      "name": "transferOwnership",
      "outputs": [],
      "stateMutability": "nonpayable",
      "type": "function"
    },
    {
      "inputs": [
        {
          "internalType": "uint256",
          "name": "_amount",
          "type": "uint256"
        }
      ],
      "name": "unStake",
      "outputs": [],
      "stateMutability": "nonpayable",
      "type": "function"
    }
  ],
  "bytecode": {
    "object": "0x6101006040523480156200001257600080fd5b50604051620011c2380380620011c283398101604081905262000035916200013e565b6200004033620000d1565b600180556001600160a01b038316608081905260408051630cb2dac360e21b815290516332cb6b0c916004808201926020929091908290030181865afa1580156200008f573d6000803e3d6000fd5b505050506040513d601f19601f82011682018060405250810190620000b5919062000188565b60a0526001600160a01b0391821660c0521660e05250620001a2565b600080546001600160a01b038381166001600160a01b0319831681178455604051919092169283917f8be0079c531659141344cd1fd0a4f28419497f9722a3daafe3b4186f6b6457e09190a35050565b80516001600160a01b03811681146200013957600080fd5b919050565b6000806000606084860312156200015457600080fd5b6200015f8462000121565b92506200016f6020850162000121565b91506200017f6040850162000121565b90509250925092565b6000602082840312156200019b57600080fd5b5051919050565b60805160a05160c05160e051610fd4620001ee60003960006109450152600050506000818161016d01526109e00152600081816102780152818161042401526106490152610fd46000f3fe608060405234801561001057600080fd5b50600436106100cf5760003560e01c80638da5cb5b1161008c578063c117c05611610066578063c117c05614610273578063c26c60de1461029a578063f2fde38b146102ad578063fd5e6dd1146102c057600080fd5b80638da5cb5b146101d5578063a239882a146101fa578063a55ca7ef1461020357600080fd5b80633d1da5cb146100d45780635c92af72146101685780635d3eea911461019d578063672a0fb8146101b2578063715018a6146101ba57806374ff62f1146101c2575b600080fd5b6101286100e2366004610e11565b6002602081905260009182526040909120805460018201549282015460039092015460ff8216936001600160401b036101008404811694600160481b9094041692909186565b6040805196151587526001600160401b03958616602088015293909416928501929092526060840152608083015260a082015260c0015b60405180910390f35b61018f7f000000000000000000000000000000000000000000000000000000000000000081565b60405190815260200161015f565b6101b06101ab366004610e41565b6102d3565b005b6101b061056e565b6101b061057c565b6101b06101d0366004610e5a565b610590565b6000546001600160a01b03165b6040516001600160a01b03909116815260200161015f565b61018f60045481565b610216610211366004610e11565b610893565b60405161015f9190600060c08201905082511515825260208301516001600160401b0380821660208501528060408601511660408501525050606083015160608301526080830151608083015260a083015160a083015292915050565b6101e27f000000000000000000000000000000000000000000000000000000000000000081565b61018f6102a8366004610e41565b610911565b6101b06102bb366004610e11565b610be0565b6101e26102ce366004610e41565b610c59565b6002600154036102fe5760405162461bcd60e51b81526004016102f590610ea9565b60405180910390fd5b600260018181553360009081526020838152604091829020825160c081018452815460ff8116151582526001600160401b036101008204811694830194909452600160481b900490921692820192909252918101546060830152918201546080820181905260039092015460a0820152908211156103be5760405162461bcd60e51b815260206004820152601760248201527f43616e277420756e7374616b652074686973206d75636800000000000000000060448201526064016102f5565b6080810151604082015142916103dd916001600160401b031683610c83565b60608301526001600160401b0381166040830152608082018051849190610405908390610ef6565b90525060405163a9059cbb60e01b8152336004820152602481018490527f00000000000000000000000000000000000000000000000000000000000000006001600160a01b03169063a9059cbb906044016020604051808303816000875af1158015610475573d6000803e3d6000fd5b505050506040513d601f19601f820116820180604052508101906104999190610f0d565b503360008181526002602081815260409283902086518154888401518987015168ffffffffffffffffff1990921692151568ffffffffffffffff001916929092176101006001600160401b03938416021767ffffffffffffffff60481b1916600160481b9290911691909102178155606080880151600183015560808801519382019390935560a0870151600390910155825193845283018690529082018390527fe54700985ffd0973f2d7efd700eb74fa18d4e63f5f6789bb06a67d3c532d58fe910160405180910390a150506001805550565b610576610ca3565b42600455565b610584610ca3565b61058e6000610cfd565b565b6002600154036105b25760405162461bcd60e51b81526004016102f590610ea9565b60026001556004546000036106095760405162461bcd60e51b815260206004820152601860248201527f5374616b696e67206973206e6f7420616374697661746564000000000000000060448201526064016102f5565b60405163cfac414b60e01b8152336004820152306024820152604481018690526064810185905260ff8416608482015260a4810183905260c481018290527f0000000000000000000000000000000000000000000000000000000000000000906001600160a01b0382169063cfac414b9060e401600060405180830381600087803b15801561069757600080fd5b505af11580156106ab573d6000803e3d6000fd5b5050336000908152600260208181526040808420815160c081018352815460ff8116151582526001600160401b0361010082048116958301869052600160481b90910416928101929092526001810154606083015292830154608082015260039092015460a083015290935090039050610770576003805460018101825560008290527fc2575a0e9e593c00f959f8c92f12db2869c3395a3b0502d05e2516446f71f85b0180546001600160a01b03191633179055546001600160401b031660208201525b60808101516040820151429161078f916001600160401b031683610c83565b60608301526001600160401b03811660408301526080820180518991906107b7908390610f2f565b9052503360008181526002602081815260409283902086518154888401518987015168ffffffffffffffffff1990921692151568ffffffffffffffff001916929092176101006001600160401b03938416021767ffffffffffffffff60481b1916600160481b9290911691909102178155606080880151600183015560808801519382019390935560a0870151600390910155825193845283018b90529082018390527f1449c6dd7851abc30abf37f57715f492010519147cc2652fbc38202c18a6ee90910160405180910390a1505060018055505050505050565b61089b610dc7565b506001600160a01b0316600090815260026020818152604092839020835160c081018552815460ff8116151582526001600160401b036101008204811694830194909452600160481b9004909216938201939093526001830154606082015290820154608082015260039091015460a082015290565b60006002600154036109355760405162461bcd60e51b81526004016102f590610ea9565b6002600155336001600160a01b037f0000000000000000000000000000000000000000000000000000000000000000161461096f57600080fd5b81610978610dc7565b600060038054806020026020016040519081016040528092919081815260200182805480156109d057602002820191906000526020600020905b81546001600160a01b031681526001909101906020018083116109b2575b50505050509050600042905060007f000000000000000000000000000000000000000000000000000000000000000060045483610a0d9190610ef6565b610a179190610f47565b905060005b8351811015610b9857610ac28360026000878581518110610a3f57610a3f610f66565b6020908102919091018101516001600160a01b03168252818101929092526040908101600020815160c081018352815460ff8116151582526001600160401b036101008204811695830195909552600160481b90049093169183019190915260018101546060830152600281015460808301526003015460a0820152848b610d4d565b9450846080015186610ad49190610ef6565b95508460026000868481518110610aed57610aed610f66565b6020908102919091018101516001600160a01b0316825281810192909252604090810160002083518154938501519285015168ffffffffffffffffff1990941690151568ffffffffffffffff001916176101006001600160401b03938416021767ffffffffffffffff60481b1916600160481b929093169190910291909117815560608201516001808301919091556080830151600283015560a09092015160039091015501610a1c565b5060048290556040518781527fd329d67a399c1d5c9eb2ff9c508259ec72735a30dc8a2f7e1108ff67842d5e149060200160405180910390a150506001805550909392505050565b610be8610ca3565b6001600160a01b038116610c4d5760405162461bcd60e51b815260206004820152602660248201527f4f776e61626c653a206e6577206f776e657220697320746865207a65726f206160448201526564647265737360d01b60648201526084016102f5565b610c5681610cfd565b50565b60038181548110610c6957600080fd5b6000918252602090912001546001600160a01b0316905081565b600080610c908484610ef6565b610c9a9086610f47565b95945050505050565b6000546001600160a01b0316331461058e5760405162461bcd60e51b815260206004820181905260248201527f4f776e61626c653a2063616c6c6572206973206e6f7420746865206f776e657260448201526064016102f5565b600080546001600160a01b038381166001600160a01b0319831681178455604051919092169283917f8be0079c531659141344cd1fd0a4f28419497f9722a3daafe3b4186f6b6457e09190a35050565b610d55610dc7565b82610d72856080015186604001516001600160401b031688610c83565b8560600151610d819190610f2f565b610d8b9084610f47565b610d959190610f7c565b8460a001818151610da69190610f2f565b9052505050506001600160401b039190911660408201526000606082015290565b6040518060c0016040528060001515815260200160006001600160401b0316815260200160006001600160401b031681526020016000815260200160008152602001600081525090565b600060208284031215610e2357600080fd5b81356001600160a01b0381168114610e3a57600080fd5b9392505050565b600060208284031215610e5357600080fd5b5035919050565b600080600080600060a08688031215610e7257600080fd5b8535945060208601359350604086013560ff81168114610e9157600080fd5b94979396509394606081013594506080013592915050565b6020808252601f908201527f5265656e7472616e637947756172643a207265656e7472616e742063616c6c00604082015260600190565b634e487b7160e01b600052601160045260246000fd5b600082821015610f0857610f08610ee0565b500390565b600060208284031215610f1f57600080fd5b81518015158114610e3a57600080fd5b60008219821115610f4257610f42610ee0565b500190565b6000816000190483118215151615610f6157610f61610ee0565b500290565b634e487b7160e01b600052603260045260246000fd5b600082610f9957634e487b7160e01b600052601260045260246000fd5b50049056fea26469706673582212201ba2ffc2e3f005c955c75b54a050c2923cd590ddddfe251d66c1c79c210c8f7764736f6c634300080e0033",
    "linkReferences": {}
  },
  "methodIdentifiers": {
    "TOKEN_TO_STAKE()": "c117c056",
    "TOKEN_TO_STAKE_MAX_SUPPLY()": "5c92af72",
    "beginTimestamp()": "672a0fb8",
    "getStakeInfos(address)": "a55ca7ef",
    "monthTimeStamp()": "a239882a",
    "owner()": "8da5cb5b",
    "renounceOwnership()": "715018a6",
    "setTotalClaimableReward(uint256)": "c26c60de",
    "stake(uint256,uint256,uint8,bytes32,bytes32)": "74ff62f1",
    "stakeByOwner(address)": "3d1da5cb",
    "stakers(uint256)": "fd5e6dd1",
    "transferOwnership(address)": "f2fde38b",
    "unStake(uint256)": "5d3eea91"
  },
  "id": 28
}