{
  "abi": [
    {
      "inputs": [
        {
          "internalType": "string",
          "name": "protoSymbol",
          "type": "string"
        },
        {
          "internalType": "address",
          "name": "_tokenToStake",
          "type": "address"
        },
        {
          "internalType": "address",
          "name": "_currencyUsedToPay",
          "type": "address"
        },
        {
          "internalType": "address",
          "name": "_treasury",
          "type": "address"
        }
      ],
      "stateMutability": "nonpayable",
      "type": "constructor"
    },
    {
      "anonymous": false,
      "inputs": [
        {
          "indexed": true,
          "internalType": "address",
          "name": "owner",
          "type": "address"
        },
        {
          "indexed": true,
          "internalType": "address",
          "name": "spender",
          "type": "address"
        },
        {
          "indexed": false,
          "internalType": "uint256",
          "name": "value",
          "type": "uint256"
        }
      ],
      "name": "Approval",
      "type": "event"
    },
    {
      "anonymous": false,
      "inputs": [
        {
          "indexed": false,
          "internalType": "uint256",
          "name": "rentAmount",
          "type": "uint256"
        }
      ],
      "name": "MonthRentRewardArrived",
      "type": "event"
    },
    {
      "anonymous": false,
      "inputs": [
        {
          "indexed": true,
          "internalType": "address",
          "name": "previousOwner",
          "type": "address"
        },
        {
          "indexed": true,
          "internalType": "address",
          "name": "newOwner",
          "type": "address"
        }
      ],
      "name": "OwnershipTransferred",
      "type": "event"
    },
    {
      "anonymous": false,
      "inputs": [
        {
          "indexed": false,
          "internalType": "address",
          "name": "who",
          "type": "address"
        },
        {
          "indexed": false,
          "internalType": "uint256",
          "name": "amount",
          "type": "uint256"
        },
        {
          "indexed": false,
          "internalType": "uint256",
          "name": "timeStamp",
          "type": "uint256"
        }
      ],
      "name": "Staked",
      "type": "event"
    },
    {
      "anonymous": false,
      "inputs": [
        {
          "indexed": true,
          "internalType": "address",
          "name": "from",
          "type": "address"
        },
        {
          "indexed": true,
          "internalType": "address",
          "name": "to",
          "type": "address"
        },
        {
          "indexed": false,
          "internalType": "uint256",
          "name": "value",
          "type": "uint256"
        }
      ],
      "name": "Transfer",
      "type": "event"
    },
    {
      "anonymous": false,
      "inputs": [
        {
          "indexed": false,
          "internalType": "address",
          "name": "who",
          "type": "address"
        },
        {
          "indexed": false,
          "internalType": "uint256",
          "name": "amount",
          "type": "uint256"
        },
        {
          "indexed": false,
          "internalType": "uint256",
          "name": "timeStamp",
          "type": "uint256"
        }
      ],
      "name": "unStaked",
      "type": "event"
    },
    {
      "inputs": [],
      "name": "TOKEN_TO_STAKE",
      "outputs": [
        {
          "internalType": "contract IPropertyToken",
          "name": "",
          "type": "address"
        }
      ],
      "stateMutability": "view",
      "type": "function"
    },
    {
      "inputs": [],
      "name": "TOKEN_TO_STAKE_MAX_SUPPLY",
      "outputs": [
        {
          "internalType": "uint256",
          "name": "",
          "type": "uint256"
        }
      ],
      "stateMutability": "view",
      "type": "function"
    },
    {
      "inputs": [
        {
          "internalType": "address",
          "name": "owner",
          "type": "address"
        },
        {
          "internalType": "address",
          "name": "spender",
          "type": "address"
        }
      ],
      "name": "allowance",
      "outputs": [
        {
          "internalType": "uint256",
          "name": "",
          "type": "uint256"
        }
      ],
      "stateMutability": "view",
      "type": "function"
    },
    {
      "inputs": [
        {
          "internalType": "address",
          "name": "spender",
          "type": "address"
        },
        {
          "internalType": "uint256",
          "name": "amount",
          "type": "uint256"
        }
      ],
      "name": "approve",
      "outputs": [
        {
          "internalType": "bool",
          "name": "",
          "type": "bool"
        }
      ],
      "stateMutability": "nonpayable",
      "type": "function"
    },
    {
      "inputs": [
        {
          "internalType": "address",
          "name": "account",
          "type": "address"
        }
      ],
      "name": "balanceOf",
      "outputs": [
        {
          "internalType": "uint256",
          "name": "",
          "type": "uint256"
        }
      ],
      "stateMutability": "view",
      "type": "function"
    },
    {
      "inputs": [],
      "name": "beginTimestamp",
      "outputs": [],
      "stateMutability": "nonpayable",
      "type": "function"
    },
    {
      "inputs": [],
      "name": "claimReward",
      "outputs": [],
      "stateMutability": "nonpayable",
      "type": "function"
    },
    {
      "inputs": [],
      "name": "decimals",
      "outputs": [
        {
          "internalType": "uint8",
          "name": "",
          "type": "uint8"
        }
      ],
      "stateMutability": "view",
      "type": "function"
    },
    {
      "inputs": [
        {
          "internalType": "address",
          "name": "spender",
          "type": "address"
        },
        {
          "internalType": "uint256",
          "name": "subtractedValue",
          "type": "uint256"
        }
      ],
      "name": "decreaseAllowance",
      "outputs": [
        {
          "internalType": "bool",
          "name": "",
          "type": "bool"
        }
      ],
      "stateMutability": "nonpayable",
      "type": "function"
    },
    {
      "inputs": [
        {
          "internalType": "address",
          "name": "tokenHolder",
          "type": "address"
        }
      ],
      "name": "getStakeInfo",
      "outputs": [
        {
          "components": [
            {
              "internalType": "uint64",
              "name": "rank",
              "type": "uint64"
            },
            {
              "internalType": "uint64",
              "name": "lastTimeStamp",
              "type": "uint64"
            },
            {
              "internalType": "uint256",
              "name": "preShare",
              "type": "uint256"
            },
            {
              "internalType": "uint256",
              "name": "amount",
              "type": "uint256"
            },
            {
              "internalType": "uint256",
              "name": "claimableReward",
              "type": "uint256"
            }
          ],
          "internalType": "struct stakeInfo",
          "name": "",
          "type": "tuple"
        }
      ],
      "stateMutability": "view",
      "type": "function"
    },
    {
      "inputs": [
        {
          "internalType": "address",
          "name": "spender",
          "type": "address"
        },
        {
          "internalType": "uint256",
          "name": "addedValue",
          "type": "uint256"
        }
      ],
      "name": "increaseAllowance",
      "outputs": [
        {
          "internalType": "bool",
          "name": "",
          "type": "bool"
        }
      ],
      "stateMutability": "nonpayable",
      "type": "function"
    },
    {
      "inputs": [],
      "name": "monthTimeStamp",
      "outputs": [
        {
          "internalType": "uint256",
          "name": "",
          "type": "uint256"
        }
      ],
      "stateMutability": "view",
      "type": "function"
    },
    {
      "inputs": [],
      "name": "name",
      "outputs": [
        {
          "internalType": "string",
          "name": "",
          "type": "string"
        }
      ],
      "stateMutability": "view",
      "type": "function"
    },
    {
      "inputs": [],
      "name": "owner",
      "outputs": [
        {
          "internalType": "address",
          "name": "",
          "type": "address"
        }
      ],
      "stateMutability": "view",
      "type": "function"
    },
    {
      "inputs": [],
      "name": "renounceOwnership",
      "outputs": [],
      "stateMutability": "nonpayable",
      "type": "function"
    },
    {
      "inputs": [
        {
          "internalType": "uint256",
          "name": "totalReward",
          "type": "uint256"
        }
      ],
      "name": "setTotalClaimableReward",
      "outputs": [
        {
          "internalType": "uint256",
          "name": "",
          "type": "uint256"
        }
      ],
      "stateMutability": "nonpayable",
      "type": "function"
    },
    {
      "inputs": [
        {
          "internalType": "uint256",
          "name": "_amount",
          "type": "uint256"
        },
        {
          "internalType": "uint256",
          "name": "deadline",
          "type": "uint256"
        },
        {
          "internalType": "uint8",
          "name": "v",
          "type": "uint8"
        },
        {
          "internalType": "bytes32",
          "name": "r",
          "type": "bytes32"
        },
        {
          "internalType": "bytes32",
          "name": "s",
          "type": "bytes32"
        }
      ],
      "name": "stake",
      "outputs": [],
      "stateMutability": "nonpayable",
      "type": "function"
    },
    {
      "inputs": [
        {
          "internalType": "address",
          "name": "",
          "type": "address"
        }
      ],
      "name": "stakeByOwner",
      "outputs": [
        {
          "internalType": "uint64",
          "name": "rank",
          "type": "uint64"
        },
        {
          "internalType": "uint64",
          "name": "lastTimeStamp",
          "type": "uint64"
        },
        {
          "internalType": "uint256",
          "name": "preShare",
          "type": "uint256"
        },
        {
          "internalType": "uint256",
          "name": "amount",
          "type": "uint256"
        },
        {
          "internalType": "uint256",
          "name": "claimableReward",
          "type": "uint256"
        }
      ],
      "stateMutability": "view",
      "type": "function"
    },
    {
      "inputs": [
        {
          "internalType": "uint256",
          "name": "",
          "type": "uint256"
        }
      ],
      "name": "stakers",
      "outputs": [
        {
          "internalType": "address",
          "name": "",
          "type": "address"
        }
      ],
      "stateMutability": "view",
      "type": "function"
    },
    {
      "inputs": [],
      "name": "symbol",
      "outputs": [
        {
          "internalType": "string",
          "name": "",
          "type": "string"
        }
      ],
      "stateMutability": "view",
      "type": "function"
    },
    {
      "inputs": [],
      "name": "totalSupply",
      "outputs": [
        {
          "internalType": "uint256",
          "name": "",
          "type": "uint256"
        }
      ],
      "stateMutability": "view",
      "type": "function"
    },
    {
      "inputs": [
        {
          "internalType": "address",
          "name": "to",
          "type": "address"
        },
        {
          "internalType": "uint256",
          "name": "amount",
          "type": "uint256"
        }
      ],
      "name": "transfer",
      "outputs": [
        {
          "internalType": "bool",
          "name": "",
          "type": "bool"
        }
      ],
      "stateMutability": "nonpayable",
      "type": "function"
    },
    {
      "inputs": [
        {
          "internalType": "address",
          "name": "from",
          "type": "address"
        },
        {
          "internalType": "address",
          "name": "to",
          "type": "address"
        },
        {
          "internalType": "uint256",
          "name": "amount",
          "type": "uint256"
        }
      ],
      "name": "transferFrom",
      "outputs": [
        {
          "internalType": "bool",
          "name": "",
          "type": "bool"
        }
      ],
      "stateMutability": "nonpayable",
      "type": "function"
    },
    {
      "inputs": [
        {
          "internalType": "address",
          "name": "newOwner",
          "type": "address"
        }
      ],
      "name": "transferOwnership",
      "outputs": [],
      "stateMutability": "nonpayable",
      "type": "function"
    },
    {
      "inputs": [
        {
          "internalType": "uint256",
          "name": "_amount",
          "type": "uint256"
        }
      ],
      "name": "unStake",
      "outputs": [],
      "stateMutability": "nonpayable",
      "type": "function"
    }
  ],
  "bytecode": {
    "object": "0x6101006040523480156200001257600080fd5b5060405162001cb538038062001cb5833981016040819052620000359162000272565b6040805180820190915260138082527f7374616b65644b6f6e6b72657465546f6b656e000000000000000000000000006020830190815286916200007c9160039162000199565b5080516200009290600490602084019062000199565b505050620000af620000a96200014360201b60201c565b62000147565b60016006556001600160a01b038316608081905260408051630cb2dac360e21b815290516332cb6b0c916004808201926020929091908290030181865afa158015620000ff573d6000803e3d6000fd5b505050506040513d601f19601f8201168201806040525081019062000125919062000388565b60a0526001600160a01b0391821660c0521660e05250620003de9050565b3390565b600580546001600160a01b038381166001600160a01b0319831681179093556040519116919082907f8be0079c531659141344cd1fd0a4f28419497f9722a3daafe3b4186f6b6457e090600090a35050565b828054620001a790620003a2565b90600052602060002090601f016020900481019282620001cb576000855562000216565b82601f10620001e657805160ff191683800117855562000216565b8280016001018555821562000216579182015b8281111562000216578251825591602001919060010190620001f9565b506200022492915062000228565b5090565b5b8082111562000224576000815560010162000229565b634e487b7160e01b600052604160045260246000fd5b80516001600160a01b03811681146200026d57600080fd5b919050565b600080600080608085870312156200028957600080fd5b84516001600160401b0380821115620002a157600080fd5b818701915087601f830112620002b657600080fd5b815181811115620002cb57620002cb6200023f565b604051601f8201601f19908116603f01168101908382118183101715620002f657620002f66200023f565b81604052828152602093508a848487010111156200031357600080fd5b600091505b8282101562000337578482018401518183018501529083019062000318565b82821115620003495760008484830101525b97506200035b91505087820162000255565b945050506200036d6040860162000255565b91506200037d6060860162000255565b905092959194509250565b6000602082840312156200039b57600080fd5b5051919050565b600181811c90821680620003b757607f821691505b602082108103620003d857634e487b7160e01b600052602260045260246000fd5b50919050565b60805160a05160c05160e0516118816200043460003960008181610bc50152610d0a01526000610bfb0152600081816102800152610da501526000818161036c0152818161066f015261082a01526118816000f3fe608060405234801561001057600080fd5b50600436106101735760003560e01c806374ff62f1116100de578063b88a802f11610097578063c345315311610071578063c3453153146103a1578063dd62ed3e14610403578063f2fde38b14610416578063fd5e6dd11461042957600080fd5b8063b88a802f1461035f578063c117c05614610367578063c26c60de1461038e57600080fd5b806374ff62f1146102f05780638da5cb5b1461030357806395d89b4114610328578063a239882a14610330578063a457c2d714610339578063a9059cbb1461034c57600080fd5b80633d1da5cb116101305780633d1da5cb146102005780635c92af721461027b5780635d3eea91146102a2578063672a0fb8146102b757806370a08231146102bf578063715018a6146102e857600080fd5b806306fdde0314610178578063095ea7b31461019657806318160ddd146101b957806323b872dd146101cb578063313ce567146101de57806339509351146101ed575b600080fd5b61018061043c565b60405161018d9190611588565b60405180910390f35b6101a96101a43660046115f9565b6104ce565b604051901515815260200161018d565b6002545b60405190815260200161018d565b6101a96101d9366004611623565b6104e6565b6040516012815260200161018d565b6101a96101fb3660046115f9565b61050a565b61024861020e36600461165f565b60076020526000908152604090208054600182015460028301546003909301546001600160401b0380841694600160401b90940416929085565b604080516001600160401b039687168152959094166020860152928401919091526060830152608082015260a00161018d565b6101bd7f000000000000000000000000000000000000000000000000000000000000000081565b6102b56102b0366004611681565b61052c565b005b6102b56107a2565b6101bd6102cd36600461165f565b6001600160a01b031660009081526020819052604090205490565b6102b56107b0565b6102b56102fe36600461169a565b6107c4565b6005546001600160a01b03165b6040516001600160a01b03909116815260200161018d565b610180610a4b565b6101bd60095481565b6101a96103473660046115f9565b610a5a565b6101a961035a3660046115f9565b610ad5565b6102b5610ae3565b6103107f000000000000000000000000000000000000000000000000000000000000000081565b6101bd61039c366004611681565b610cd6565b6103b46103af36600461165f565b610f67565b60405161018d9190600060a0820190506001600160401b038084511683528060208501511660208401525060408301516040830152606083015160608301526080830151608083015292915050565b6101bd6104113660046116e9565b610fd6565b6102b561042436600461165f565b611001565b610310610437366004611681565b61107a565b60606003805461044b9061171c565b80601f01602080910402602001604051908101604052809291908181526020018280546104779061171c565b80156104c45780601f10610499576101008083540402835291602001916104c4565b820191906000526020600020905b8154815290600101906020018083116104a757829003601f168201915b5050505050905090565b6000336104dc8185856110a4565b5060019392505050565b6000336104f48582856111c8565b6104ff858585611242565b506001949350505050565b6000336104dc81858561051d8383610fd6565b610527919061176c565b6110a4565b6002600654036105575760405162461bcd60e51b815260040161054e90611784565b60405180910390fd5b6002600681905533600090815260076020908152604091829020825160a08101845281546001600160401b038082168352600160401b9091041692810192909252600181015492820192909252918101546060830181905260039091015460808301528211156106095760405162461bcd60e51b815260206004820152601760248201527f43616e277420756e7374616b652074686973206d756368000000000000000000604482015260640161054e565b606081015160208201514291610628916001600160401b031683611410565b60408301526001600160401b03811660208301526060820180518491906106509083906117bb565b90525060405163a9059cbb60e01b8152336004820152602481018490527f00000000000000000000000000000000000000000000000000000000000000006001600160a01b03169063a9059cbb906044016020604051808303816000875af11580156106c0573d6000803e3d6000fd5b505050506040513d601f19601f820116820180604052508101906106e491906117d2565b503360008181526007602090815260409182902085518154928701516001600160401b03908116600160401b026001600160801b0319909416911617919091178155818501516001820155606085015160028201556080850151600390910155517fe54700985ffd0973f2d7efd700eb74fa18d4e63f5f6789bb06a67d3c532d58fe9161079091869085906001600160a01b039390931683526020830191909152604082015260600190565b60405180910390a15050600160065550565b6107aa611430565b42600955565b6107b8611430565b6107c2600061148a565b565b6002600654036107e65760405162461bcd60e51b815260040161054e90611784565b600260065560405162aa3a7160e11b8152336004820152306024820152604481018690526064810185905260ff8416608482015260a4810183905260c481018290527f0000000000000000000000000000000000000000000000000000000000000000906001600160a01b0382169063015474e29060e401600060405180830381600087803b15801561087857600080fd5b505af115801561088c573d6000803e3d6000fd5b5050336000908152600760209081526040808320815160a08101835281546001600160401b03808216808452600160401b90920416948201949094526001820154928101929092526002810154606083015260030154608082015293509003905061093f576008805460018101825560008290527ff3f7a9fe364faab93b216da50a3214154f22a0a2b415b23a84c8169e8b636ee30180546001600160a01b03191633179055546001600160401b031681525b60608101516020820151429161095e916001600160401b031683611410565b60408301526001600160401b038116602083015260608201805189919061098690839061176c565b9052503360008181526007602090815260409182902085518154928701516001600160401b03908116600160401b026001600160801b0319909416911617919091178155818501516001820155606085015160028201556080850151600390910155517f1449c6dd7851abc30abf37f57715f492010519147cc2652fbc38202c18a6ee9091610a34918b9085906001600160a01b039390931683526020830191909152604082015260600190565b60405180910390a150506001600655505050505050565b60606004805461044b9061171c565b60003381610a688286610fd6565b905083811015610ac85760405162461bcd60e51b815260206004820152602560248201527f45524332303a2064656372656173656420616c6c6f77616e63652062656c6f77604482015264207a65726f60d81b606482015260840161054e565b6104ff82868684036110a4565b6000336104dc818585611242565b600260065403610b055760405162461bcd60e51b815260040161054e90611784565b6002600681905533600090815260076020908152604091829020825160a08101845281546001600160401b038082168352600160401b90910416928101929092526001810154928201929092529181015460608301526003015460808201819052610ba95760405162461bcd60e51b815260206004820152601460248201527343616e277420636c61696d20616e797468696e6760601b604482015260640161054e565b60808101516040516323b872dd60e01b81526001600160a01b037f00000000000000000000000000000000000000000000000000000000000000008116600483015233602483015260448201929092527f0000000000000000000000000000000000000000000000000000000000000000909116906323b872dd906064016020604051808303816000875af1158015610c46573d6000803e3d6000fd5b505050506040513d601f19601f82011682018060405250810190610c6a91906117d2565b506000608082018181523382526007602090815260409283902084518154928601516001600160401b03908116600160401b026001600160801b031990941691161791909117815591830151600180840191909155606090930151600283015551600390910155600655565b6000600260065403610cfa5760405162461bcd60e51b815260040161054e90611784565b6002600655336001600160a01b037f00000000000000000000000000000000000000000000000000000000000000001614610d3457600080fd5b81610d3d611547565b60006008805480602002602001604051908101604052809291908181526020018280548015610d9557602002820191906000526020600020905b81546001600160a01b03168152600190910190602001808311610d77575b50505050509050600042905060007f000000000000000000000000000000000000000000000000000000000000000060095483610dd291906117bb565b610ddc91906117f4565b905060005b8351811015610f1e57610e778360076000878581518110610e0457610e04611813565b6020908102919091018101516001600160a01b03168252818101929092526040908101600020815160a08101835281546001600160401b038082168352600160401b909104169381019390935260018101549183019190915260028101546060830152600301546080820152848b6114dc565b9450846060015186610e8991906117bb565b95508460076000868481518110610ea257610ea2611813565b6020908102919091018101516001600160a01b0316825281810192909252604090810160002083518154938501516001600160401b03908116600160401b026001600160801b03199095169116179290921782558201516001808301919091556060830151600283015560809092015160039091015501610de1565b5060098290556040518781527fd329d67a399c1d5c9eb2ff9c508259ec72735a30dc8a2f7e1108ff67842d5e149060200160405180910390a15050600160065550909392505050565b610f6f611547565b506001600160a01b0316600090815260076020908152604091829020825160a08101845281546001600160401b038082168352600160401b909104169281019290925260018101549282019290925260028201546060820152600390910154608082015290565b6001600160a01b03918216600090815260016020908152604080832093909416825291909152205490565b611009611430565b6001600160a01b03811661106e5760405162461bcd60e51b815260206004820152602660248201527f4f776e61626c653a206e6577206f776e657220697320746865207a65726f206160448201526564647265737360d01b606482015260840161054e565b6110778161148a565b50565b6008818154811061108a57600080fd5b6000918252602090912001546001600160a01b0316905081565b6001600160a01b0383166111065760405162461bcd60e51b8152602060048201526024808201527f45524332303a20617070726f76652066726f6d20746865207a65726f206164646044820152637265737360e01b606482015260840161054e565b6001600160a01b0382166111675760405162461bcd60e51b815260206004820152602260248201527f45524332303a20617070726f766520746f20746865207a65726f206164647265604482015261737360f01b606482015260840161054e565b6001600160a01b0383811660008181526001602090815260408083209487168084529482529182902085905590518481527f8c5be1e5ebec7d5bd14f71427d1e84f3dd0314c0f7b2291e5b200ac8c7c3b925910160405180910390a3505050565b60006111d48484610fd6565b9050600019811461123c578181101561122f5760405162461bcd60e51b815260206004820152601d60248201527f45524332303a20696e73756666696369656e7420616c6c6f77616e6365000000604482015260640161054e565b61123c84848484036110a4565b50505050565b6001600160a01b0383166112a65760405162461bcd60e51b815260206004820152602560248201527f45524332303a207472616e736665722066726f6d20746865207a65726f206164604482015264647265737360d81b606482015260840161054e565b6001600160a01b0382166113085760405162461bcd60e51b815260206004820152602360248201527f45524332303a207472616e7366657220746f20746865207a65726f206164647260448201526265737360e81b606482015260840161054e565b6001600160a01b038316600090815260208190526040902054818110156113805760405162461bcd60e51b815260206004820152602660248201527f45524332303a207472616e7366657220616d6f756e7420657863656564732062604482015265616c616e636560d01b606482015260840161054e565b6001600160a01b038085166000908152602081905260408082208585039055918516815290812080548492906113b790849061176c565b92505081905550826001600160a01b0316846001600160a01b03167fddf252ad1be2c89b69c2b068fc378daa952ba7f163c4a11628f55a4df523b3ef8460405161140391815260200190565b60405180910390a361123c565b60008061141d84846117bb565b61142790866117f4565b95945050505050565b6005546001600160a01b031633146107c25760405162461bcd60e51b815260206004820181905260248201527f4f776e61626c653a2063616c6c6572206973206e6f7420746865206f776e6572604482015260640161054e565b600580546001600160a01b038381166001600160a01b0319831681179093556040519116919082907f8be0079c531659141344cd1fd0a4f28419497f9722a3daafe3b4186f6b6457e090600090a35050565b6114e4611547565b82611501856060015186602001516001600160401b031688611410565b8560400151611510919061176c565b61151a90846117f4565b6115249190611829565b60808501525050506001600160401b039190911660208201526000604082015290565b6040518060a0016040528060006001600160401b0316815260200160006001600160401b031681526020016000815260200160008152602001600081525090565b600060208083528351808285015260005b818110156115b557858101830151858201604001528201611599565b818111156115c7576000604083870101525b50601f01601f1916929092016040019392505050565b80356001600160a01b03811681146115f457600080fd5b919050565b6000806040838503121561160c57600080fd5b611615836115dd565b946020939093013593505050565b60008060006060848603121561163857600080fd5b611641846115dd565b925061164f602085016115dd565b9150604084013590509250925092565b60006020828403121561167157600080fd5b61167a826115dd565b9392505050565b60006020828403121561169357600080fd5b5035919050565b600080600080600060a086880312156116b257600080fd5b8535945060208601359350604086013560ff811681146116d157600080fd5b94979396509394606081013594506080013592915050565b600080604083850312156116fc57600080fd5b611705836115dd565b9150611713602084016115dd565b90509250929050565b600181811c9082168061173057607f821691505b60208210810361175057634e487b7160e01b600052602260045260246000fd5b50919050565b634e487b7160e01b600052601160045260246000fd5b6000821982111561177f5761177f611756565b500190565b6020808252601f908201527f5265656e7472616e637947756172643a207265656e7472616e742063616c6c00604082015260600190565b6000828210156117cd576117cd611756565b500390565b6000602082840312156117e457600080fd5b8151801515811461167a57600080fd5b600081600019048311821515161561180e5761180e611756565b500290565b634e487b7160e01b600052603260045260246000fd5b60008261184657634e487b7160e01b600052601260045260246000fd5b50049056fea2646970667358221220010174c14bc2af76ca4557eb5d5d9ac4a86109808000d3cb0fdb5ed35c391dbc64736f6c634300080e0033",
    "linkReferences": {}
  },
  "methodIdentifiers": {
    "TOKEN_TO_STAKE()": "c117c056",
    "TOKEN_TO_STAKE_MAX_SUPPLY()": "5c92af72",
    "allowance(address,address)": "dd62ed3e",
    "approve(address,uint256)": "095ea7b3",
    "balanceOf(address)": "70a08231",
    "beginTimestamp()": "672a0fb8",
    "claimReward()": "b88a802f",
    "decimals()": "313ce567",
    "decreaseAllowance(address,uint256)": "a457c2d7",
    "getStakeInfo(address)": "c3453153",
    "increaseAllowance(address,uint256)": "39509351",
    "monthTimeStamp()": "a239882a",
    "name()": "06fdde03",
    "owner()": "8da5cb5b",
    "renounceOwnership()": "715018a6",
    "setTotalClaimableReward(uint256)": "c26c60de",
    "stake(uint256,uint256,uint8,bytes32,bytes32)": "74ff62f1",
    "stakeByOwner(address)": "3d1da5cb",
    "stakers(uint256)": "fd5e6dd1",
    "symbol()": "95d89b41",
    "totalSupply()": "18160ddd",
    "transfer(address,uint256)": "a9059cbb",
    "transferFrom(address,address,uint256)": "23b872dd",
    "transferOwnership(address)": "f2fde38b",
    "unStake(uint256)": "5d3eea91"
  },
  "id": 21
}