{
  "abi": [
    {
      "inputs": [
        {
          "internalType": "contract IERC20",
          "name": "_kUSD",
          "type": "address"
        },
        {
          "internalType": "uint256",
          "name": "_max_supply",
          "type": "uint256"
        }
      ],
      "stateMutability": "nonpayable",
      "type": "constructor"
    },
    {
      "anonymous": false,
      "inputs": [
        {
          "indexed": true,
          "internalType": "address",
          "name": "owner",
          "type": "address"
        },
        {
          "indexed": true,
          "internalType": "address",
          "name": "spender",
          "type": "address"
        },
        {
          "indexed": false,
          "internalType": "uint256",
          "name": "value",
          "type": "uint256"
        }
      ],
      "name": "Approval",
      "type": "event"
    },
    {
      "anonymous": false,
      "inputs": [
        {
          "indexed": false,
          "internalType": "address",
          "name": "buyer",
          "type": "address"
        },
        {
          "indexed": false,
          "internalType": "uint256",
          "name": "amount",
          "type": "uint256"
        }
      ],
      "name": "Buying",
      "type": "event"
    },
    {
      "anonymous": false,
      "inputs": [
        {
          "indexed": true,
          "internalType": "address",
          "name": "previousOwner",
          "type": "address"
        },
        {
          "indexed": true,
          "internalType": "address",
          "name": "newOwner",
          "type": "address"
        }
      ],
      "name": "OwnershipTransferred",
      "type": "event"
    },
    {
      "anonymous": false,
      "inputs": [
        {
          "indexed": true,
          "internalType": "address",
          "name": "from",
          "type": "address"
        },
        {
          "indexed": true,
          "internalType": "address",
          "name": "to",
          "type": "address"
        },
        {
          "indexed": false,
          "internalType": "uint256",
          "name": "value",
          "type": "uint256"
        }
      ],
      "name": "Transfer",
      "type": "event"
    },
    {
      "inputs": [],
      "name": "MAX_SUPPLY",
      "outputs": [
        {
          "internalType": "uint256",
          "name": "",
          "type": "uint256"
        }
      ],
      "stateMutability": "view",
      "type": "function"
    },
    {
      "inputs": [
        {
          "internalType": "address",
          "name": "owner",
          "type": "address"
        },
        {
          "internalType": "address",
          "name": "spender",
          "type": "address"
        }
      ],
      "name": "allowance",
      "outputs": [
        {
          "internalType": "uint256",
          "name": "",
          "type": "uint256"
        }
      ],
      "stateMutability": "view",
      "type": "function"
    },
    {
      "inputs": [
        {
          "internalType": "address",
          "name": "spender",
          "type": "address"
        },
        {
          "internalType": "uint256",
          "name": "amount",
          "type": "uint256"
        }
      ],
      "name": "approve",
      "outputs": [
        {
          "internalType": "bool",
          "name": "",
          "type": "bool"
        }
      ],
      "stateMutability": "nonpayable",
      "type": "function"
    },
    {
      "inputs": [
        {
          "internalType": "address",
          "name": "account",
          "type": "address"
        }
      ],
      "name": "balanceOf",
      "outputs": [
        {
          "internalType": "uint256",
          "name": "",
          "type": "uint256"
        }
      ],
      "stateMutability": "view",
      "type": "function"
    },
    {
      "inputs": [
        {
          "internalType": "address",
          "name": "_to",
          "type": "address"
        },
        {
          "internalType": "uint256",
          "name": "amount",
          "type": "uint256"
        }
      ],
      "name": "buy",
      "outputs": [],
      "stateMutability": "nonpayable",
      "type": "function"
    },
    {
      "inputs": [],
      "name": "decimals",
      "outputs": [
        {
          "internalType": "uint8",
          "name": "",
          "type": "uint8"
        }
      ],
      "stateMutability": "view",
      "type": "function"
    },
    {
      "inputs": [
        {
          "internalType": "address",
          "name": "spender",
          "type": "address"
        },
        {
          "internalType": "uint256",
          "name": "subtractedValue",
          "type": "uint256"
        }
      ],
      "name": "decreaseAllowance",
      "outputs": [
        {
          "internalType": "bool",
          "name": "",
          "type": "bool"
        }
      ],
      "stateMutability": "nonpayable",
      "type": "function"
    },
    {
      "inputs": [
        {
          "internalType": "address",
          "name": "spender",
          "type": "address"
        },
        {
          "internalType": "uint256",
          "name": "addedValue",
          "type": "uint256"
        }
      ],
      "name": "increaseAllowance",
      "outputs": [
        {
          "internalType": "bool",
          "name": "",
          "type": "bool"
        }
      ],
      "stateMutability": "nonpayable",
      "type": "function"
    },
    {
      "inputs": [],
      "name": "name",
      "outputs": [
        {
          "internalType": "string",
          "name": "",
          "type": "string"
        }
      ],
      "stateMutability": "view",
      "type": "function"
    },
    {
      "inputs": [],
      "name": "owner",
      "outputs": [
        {
          "internalType": "address",
          "name": "",
          "type": "address"
        }
      ],
      "stateMutability": "view",
      "type": "function"
    },
    {
      "inputs": [],
      "name": "renounceOwnership",
      "outputs": [],
      "stateMutability": "nonpayable",
      "type": "function"
    },
    {
      "inputs": [],
      "name": "symbol",
      "outputs": [
        {
          "internalType": "string",
          "name": "",
          "type": "string"
        }
      ],
      "stateMutability": "view",
      "type": "function"
    },
    {
      "inputs": [],
      "name": "totalSupply",
      "outputs": [
        {
          "internalType": "uint256",
          "name": "",
          "type": "uint256"
        }
      ],
      "stateMutability": "view",
      "type": "function"
    },
    {
      "inputs": [
        {
          "internalType": "address",
          "name": "to",
          "type": "address"
        },
        {
          "internalType": "uint256",
          "name": "amount",
          "type": "uint256"
        }
      ],
      "name": "transfer",
      "outputs": [
        {
          "internalType": "bool",
          "name": "",
          "type": "bool"
        }
      ],
      "stateMutability": "nonpayable",
      "type": "function"
    },
    {
      "inputs": [
        {
          "internalType": "address",
          "name": "from",
          "type": "address"
        },
        {
          "internalType": "address",
          "name": "to",
          "type": "address"
        },
        {
          "internalType": "uint256",
          "name": "amount",
          "type": "uint256"
        }
      ],
      "name": "transferFrom",
      "outputs": [
        {
          "internalType": "bool",
          "name": "",
          "type": "bool"
        }
      ],
      "stateMutability": "nonpayable",
      "type": "function"
    },
    {
      "inputs": [
        {
          "internalType": "address",
          "name": "newOwner",
          "type": "address"
        }
      ],
      "name": "transferOwnership",
      "outputs": [],
      "stateMutability": "nonpayable",
      "type": "function"
    }
  ],
  "bytecode": {
    "object": "0x60c06040523480156200001157600080fd5b50604051620010ba380380620010ba8339810160408190526200003491620001cf565b6040518060600160405280602d81526020016200108d602d91396040518060400160405280600a81526020016919a0b236229b9c2b362160b11b81525081600390805190602001906200008992919062000129565b5080516200009f90600490602084019062000129565b505050620000bc620000b6620000d360201b60201c565b620000d7565b6001600160a01b0390911660a05260805262000247565b3390565b600580546001600160a01b038381166001600160a01b0319831681179093556040519116919082907f8be0079c531659141344cd1fd0a4f28419497f9722a3daafe3b4186f6b6457e090600090a35050565b82805462000137906200020b565b90600052602060002090601f0160209004810192826200015b5760008555620001a6565b82601f106200017657805160ff1916838001178555620001a6565b82800160010185558215620001a6579182015b82811115620001a657825182559160200191906001019062000189565b50620001b4929150620001b8565b5090565b5b80821115620001b45760008155600101620001b9565b60008060408385031215620001e357600080fd5b82516001600160a01b0381168114620001fb57600080fd5b6020939093015192949293505050565b600181811c908216806200022057607f821691505b6020821081036200024157634e487b7160e01b600052602260045260246000fd5b50919050565b60805160a051610e1962000274600039600061040c01526000818161017f015261042d0152610e196000f3fe608060405234801561001057600080fd5b50600436106101005760003560e01c8063715018a611610097578063a9059cbb11610066578063a9059cbb1461021d578063cce7ec1314610230578063dd62ed3e14610243578063f2fde38b1461025657600080fd5b8063715018a6146101dd5780638da5cb5b146101e757806395d89b4114610202578063a457c2d71461020a57600080fd5b8063313ce567116100d3578063313ce5671461016b57806332cb6b0c1461017a57806339509351146101a157806370a08231146101b457600080fd5b806306fdde0314610105578063095ea7b31461012357806318160ddd1461014657806323b872dd14610158575b600080fd5b61010d610269565b60405161011a9190610c1c565b60405180910390f35b610136610131366004610c8d565b6102fb565b604051901515815260200161011a565b6002545b60405190815260200161011a565b610136610166366004610cb7565b610313565b6040516012815260200161011a565b61014a7f000000000000000000000000000000000000000000000000000000000000000081565b6101366101af366004610c8d565b610337565b61014a6101c2366004610cf3565b6001600160a01b031660009081526020819052604090205490565b6101e5610359565b005b6005546040516001600160a01b03909116815260200161011a565b61010d61036d565b610136610218366004610c8d565b61037c565b61013661022b366004610c8d565b6103fc565b6101e561023e366004610c8d565b61040a565b61014a610251366004610d15565b610681565b6101e5610264366004610cf3565b6106ac565b60606003805461027890610d48565b80601f01602080910402602001604051908101604052809291908181526020018280546102a490610d48565b80156102f15780601f106102c6576101008083540402835291602001916102f1565b820191906000526020600020905b8154815290600101906020018083116102d457829003601f168201915b5050505050905090565b600033610309818585610725565b5060019392505050565b600033610321858285610849565b61032c8585856108c3565b506001949350505050565b60003361030981858561034a8383610681565b6103549190610d82565b610725565b610361610a91565b61036b6000610aeb565b565b60606004805461027890610d48565b6000338161038a8286610681565b9050838110156103ef5760405162461bcd60e51b815260206004820152602560248201527f45524332303a2064656372656173656420616c6c6f77616e63652062656c6f77604482015264207a65726f60d81b60648201526084015b60405180910390fd5b61032c8286868403610725565b6000336103098185856108c3565b7f00000000000000000000000000000000000000000000000000000000000000007f000000000000000000000000000000000000000000000000000000000000000061045560025490565b61045f9084610d82565b11156104985760405162461bcd60e51b81526020600482015260086024820152670a8dede40daeac6d60c31b60448201526064016103e6565b604051636eb1769f60e11b815233600482015230602482015282906001600160a01b0383169063dd62ed3e90604401602060405180830381865afa1580156104e4573d6000803e3d6000fd5b505050506040513d601f19601f820116820180604052508101906105089190610da8565b101561054c5760405162461bcd60e51b815260206004820152601360248201527213995959081d1bc8185b1b1bddc8199a5c9cdd606a1b60448201526064016103e6565b6000816001600160a01b03166323b872dd336105706005546001600160a01b031690565b6040516001600160e01b031960e085901b1681526001600160a01b03928316600482015291166024820152604481018690526064016020604051808303816000875af11580156105c4573d6000803e3d6000fd5b505050506040513d601f19601f820116820180604052508101906105e89190610dc1565b90508061062f5760405162461bcd60e51b815260206004820152601560248201527410dbdd5b191b89dd081c9958d95a5d99481ad554d1605a1b60448201526064016103e6565b6106398484610b3d565b604080516001600160a01b0386168152602081018590527f840df612bc9052dfa7ac2e14fc52368ca7749154d9132b7601f59d329f787fd6910160405180910390a150505050565b6001600160a01b03918216600090815260016020908152604080832093909416825291909152205490565b6106b4610a91565b6001600160a01b0381166107195760405162461bcd60e51b815260206004820152602660248201527f4f776e61626c653a206e6577206f776e657220697320746865207a65726f206160448201526564647265737360d01b60648201526084016103e6565b61072281610aeb565b50565b6001600160a01b0383166107875760405162461bcd60e51b8152602060048201526024808201527f45524332303a20617070726f76652066726f6d20746865207a65726f206164646044820152637265737360e01b60648201526084016103e6565b6001600160a01b0382166107e85760405162461bcd60e51b815260206004820152602260248201527f45524332303a20617070726f766520746f20746865207a65726f206164647265604482015261737360f01b60648201526084016103e6565b6001600160a01b0383811660008181526001602090815260408083209487168084529482529182902085905590518481527f8c5be1e5ebec7d5bd14f71427d1e84f3dd0314c0f7b2291e5b200ac8c7c3b925910160405180910390a3505050565b60006108558484610681565b905060001981146108bd57818110156108b05760405162461bcd60e51b815260206004820152601d60248201527f45524332303a20696e73756666696369656e7420616c6c6f77616e636500000060448201526064016103e6565b6108bd8484848403610725565b50505050565b6001600160a01b0383166109275760405162461bcd60e51b815260206004820152602560248201527f45524332303a207472616e736665722066726f6d20746865207a65726f206164604482015264647265737360d81b60648201526084016103e6565b6001600160a01b0382166109895760405162461bcd60e51b815260206004820152602360248201527f45524332303a207472616e7366657220746f20746865207a65726f206164647260448201526265737360e81b60648201526084016103e6565b6001600160a01b03831660009081526020819052604090205481811015610a015760405162461bcd60e51b815260206004820152602660248201527f45524332303a207472616e7366657220616d6f756e7420657863656564732062604482015265616c616e636560d01b60648201526084016103e6565b6001600160a01b03808516600090815260208190526040808220858503905591851681529081208054849290610a38908490610d82565b92505081905550826001600160a01b0316846001600160a01b03167fddf252ad1be2c89b69c2b068fc378daa952ba7f163c4a11628f55a4df523b3ef84604051610a8491815260200190565b60405180910390a36108bd565b6005546001600160a01b0316331461036b5760405162461bcd60e51b815260206004820181905260248201527f4f776e61626c653a2063616c6c6572206973206e6f7420746865206f776e657260448201526064016103e6565b600580546001600160a01b038381166001600160a01b0319831681179093556040519116919082907f8be0079c531659141344cd1fd0a4f28419497f9722a3daafe3b4186f6b6457e090600090a35050565b6001600160a01b038216610b935760405162461bcd60e51b815260206004820152601f60248201527f45524332303a206d696e7420746f20746865207a65726f20616464726573730060448201526064016103e6565b8060026000828254610ba59190610d82565b90915550506001600160a01b03821660009081526020819052604081208054839290610bd2908490610d82565b90915550506040518181526001600160a01b038316906000907fddf252ad1be2c89b69c2b068fc378daa952ba7f163c4a11628f55a4df523b3ef9060200160405180910390a35050565b600060208083528351808285015260005b81811015610c4957858101830151858201604001528201610c2d565b81811115610c5b576000604083870101525b50601f01601f1916929092016040019392505050565b80356001600160a01b0381168114610c8857600080fd5b919050565b60008060408385031215610ca057600080fd5b610ca983610c71565b946020939093013593505050565b600080600060608486031215610ccc57600080fd5b610cd584610c71565b9250610ce360208501610c71565b9150604084013590509250925092565b600060208284031215610d0557600080fd5b610d0e82610c71565b9392505050565b60008060408385031215610d2857600080fd5b610d3183610c71565b9150610d3f60208401610c71565b90509250929050565b600181811c90821680610d5c57607f821691505b602082108103610d7c57634e487b7160e01b600052602260045260246000fd5b50919050565b60008219821115610da357634e487b7160e01b600052601160045260246000fd5b500190565b600060208284031215610dba57600080fd5b5051919050565b600060208284031215610dd357600080fd5b81518015158114610d0e57600080fdfea26469706673582212205c82828da02d2f02429169a07f5d59af053e9cc8ec6eb4e5aeea740c84168ce164736f6c634300080e00333320616c6c6565206465206c27657065652c20373836383820566f6973696e206c6520427265746f6e6e657578",
    "linkReferences": {}
  },
  "methodIdentifiers": {
    "MAX_SUPPLY()": "32cb6b0c",
    "allowance(address,address)": "dd62ed3e",
    "approve(address,uint256)": "095ea7b3",
    "balanceOf(address)": "70a08231",
    "buy(address,uint256)": "cce7ec13",
    "decimals()": "313ce567",
    "decreaseAllowance(address,uint256)": "a457c2d7",
    "increaseAllowance(address,uint256)": "39509351",
    "name()": "06fdde03",
    "owner()": "8da5cb5b",
    "renounceOwnership()": "715018a6",
    "symbol()": "95d89b41",
    "totalSupply()": "18160ddd",
    "transfer(address,uint256)": "a9059cbb",
    "transferFrom(address,address,uint256)": "23b872dd",
    "transferOwnership(address)": "f2fde38b"
  },
  "id": 15
}