{
  "abi": [
    {
      "inputs": [],
      "stateMutability": "nonpayable",
      "type": "constructor"
    },
    {
      "anonymous": false,
      "inputs": [
        {
          "indexed": true,
          "internalType": "address",
          "name": "owner",
          "type": "address"
        },
        {
          "indexed": true,
          "internalType": "address",
          "name": "spender",
          "type": "address"
        },
        {
          "indexed": false,
          "internalType": "uint256",
          "name": "value",
          "type": "uint256"
        }
      ],
      "name": "Approval",
      "type": "event"
    },
    {
      "anonymous": false,
      "inputs": [
        {
          "indexed": false,
          "internalType": "address",
          "name": "qui",
          "type": "address"
        }
      ],
      "name": "Claimed",
      "type": "event"
    },
    {
      "anonymous": false,
      "inputs": [
        {
          "indexed": true,
          "internalType": "address",
          "name": "from",
          "type": "address"
        },
        {
          "indexed": true,
          "internalType": "address",
          "name": "to",
          "type": "address"
        },
        {
          "indexed": false,
          "internalType": "uint256",
          "name": "value",
          "type": "uint256"
        }
      ],
      "name": "Transfer",
      "type": "event"
    },
    {
      "inputs": [
        {
          "internalType": "address",
          "name": "owner",
          "type": "address"
        },
        {
          "internalType": "address",
          "name": "spender",
          "type": "address"
        }
      ],
      "name": "allowance",
      "outputs": [
        {
          "internalType": "uint256",
          "name": "",
          "type": "uint256"
        }
      ],
      "stateMutability": "view",
      "type": "function"
    },
    {
      "inputs": [
        {
          "internalType": "address",
          "name": "spender",
          "type": "address"
        },
        {
          "internalType": "uint256",
          "name": "amount",
          "type": "uint256"
        }
      ],
      "name": "approve",
      "outputs": [
        {
          "internalType": "bool",
          "name": "",
          "type": "bool"
        }
      ],
      "stateMutability": "nonpayable",
      "type": "function"
    },
    {
      "inputs": [
        {
          "internalType": "address",
          "name": "account",
          "type": "address"
        }
      ],
      "name": "balanceOf",
      "outputs": [
        {
          "internalType": "uint256",
          "name": "",
          "type": "uint256"
        }
      ],
      "stateMutability": "view",
      "type": "function"
    },
    {
      "inputs": [
        {
          "internalType": "uint256",
          "name": "amount",
          "type": "uint256"
        }
      ],
      "name": "buy",
      "outputs": [],
      "stateMutability": "nonpayable",
      "type": "function"
    },
    {
      "inputs": [],
      "name": "buyIsAllowed",
      "outputs": [
        {
          "internalType": "uint256",
          "name": "",
          "type": "uint256"
        }
      ],
      "stateMutability": "pure",
      "type": "function"
    },
    {
      "inputs": [],
      "name": "buyingSupply",
      "outputs": [
        {
          "internalType": "uint256",
          "name": "",
          "type": "uint256"
        }
      ],
      "stateMutability": "view",
      "type": "function"
    },
    {
      "inputs": [],
      "name": "claimReward",
      "outputs": [],
      "stateMutability": "nonpayable",
      "type": "function"
    },
    {
      "inputs": [],
      "name": "decimals",
      "outputs": [
        {
          "internalType": "uint8",
          "name": "",
          "type": "uint8"
        }
      ],
      "stateMutability": "view",
      "type": "function"
    },
    {
      "inputs": [
        {
          "internalType": "address",
          "name": "spender",
          "type": "address"
        },
        {
          "internalType": "uint256",
          "name": "subtractedValue",
          "type": "uint256"
        }
      ],
      "name": "decreaseAllowance",
      "outputs": [
        {
          "internalType": "bool",
          "name": "",
          "type": "bool"
        }
      ],
      "stateMutability": "nonpayable",
      "type": "function"
    },
    {
      "inputs": [
        {
          "internalType": "address",
          "name": "account",
          "type": "address"
        }
      ],
      "name": "getStakeInfo",
      "outputs": [
        {
          "internalType": "uint256",
          "name": "",
          "type": "uint256"
        },
        {
          "internalType": "uint256",
          "name": "",
          "type": "uint256"
        },
        {
          "internalType": "uint256",
          "name": "",
          "type": "uint256"
        }
      ],
      "stateMutability": "view",
      "type": "function"
    },
    {
      "inputs": [],
      "name": "i",
      "outputs": [
        {
          "internalType": "uint256",
          "name": "",
          "type": "uint256"
        }
      ],
      "stateMutability": "view",
      "type": "function"
    },
    {
      "inputs": [
        {
          "internalType": "address",
          "name": "spender",
          "type": "address"
        },
        {
          "internalType": "uint256",
          "name": "addedValue",
          "type": "uint256"
        }
      ],
      "name": "increaseAllowance",
      "outputs": [
        {
          "internalType": "bool",
          "name": "",
          "type": "bool"
        }
      ],
      "stateMutability": "nonpayable",
      "type": "function"
    },
    {
      "inputs": [],
      "name": "name",
      "outputs": [
        {
          "internalType": "string",
          "name": "",
          "type": "string"
        }
      ],
      "stateMutability": "view",
      "type": "function"
    },
    {
      "inputs": [
        {
          "internalType": "uint256",
          "name": "amount",
          "type": "uint256"
        }
      ],
      "name": "setBuyingSUpply",
      "outputs": [],
      "stateMutability": "nonpayable",
      "type": "function"
    },
    {
      "inputs": [
        {
          "internalType": "uint256",
          "name": "amount",
          "type": "uint256"
        }
      ],
      "name": "stake",
      "outputs": [],
      "stateMutability": "nonpayable",
      "type": "function"
    },
    {
      "inputs": [],
      "name": "symbol",
      "outputs": [
        {
          "internalType": "string",
          "name": "",
          "type": "string"
        }
      ],
      "stateMutability": "view",
      "type": "function"
    },
    {
      "inputs": [],
      "name": "totalSupply",
      "outputs": [
        {
          "internalType": "uint256",
          "name": "",
          "type": "uint256"
        }
      ],
      "stateMutability": "view",
      "type": "function"
    },
    {
      "inputs": [
        {
          "internalType": "address",
          "name": "to",
          "type": "address"
        },
        {
          "internalType": "uint256",
          "name": "amount",
          "type": "uint256"
        }
      ],
      "name": "transfer",
      "outputs": [
        {
          "internalType": "bool",
          "name": "",
          "type": "bool"
        }
      ],
      "stateMutability": "nonpayable",
      "type": "function"
    },
    {
      "inputs": [
        {
          "internalType": "address",
          "name": "from",
          "type": "address"
        },
        {
          "internalType": "address",
          "name": "to",
          "type": "address"
        },
        {
          "internalType": "uint256",
          "name": "amount",
          "type": "uint256"
        }
      ],
      "name": "transferFrom",
      "outputs": [
        {
          "internalType": "bool",
          "name": "",
          "type": "bool"
        }
      ],
      "stateMutability": "nonpayable",
      "type": "function"
    },
    {
      "inputs": [
        {
          "internalType": "uint256",
          "name": "amount",
          "type": "uint256"
        }
      ],
      "name": "unstake",
      "outputs": [],
      "stateMutability": "nonpayable",
      "type": "function"
    }
  ],
  "bytecode": {
    "object": "0x60806040526000600855671bc16d674ec800006009553480156200002257600080fd5b506040518060400160405280600681526020016519985ad9519560d21b8152506040518060400160405280600381526020016211919560ea1b81525081600390805190602001906200007692919062000213565b5080516200008c90600490602084019062000213565b505050620000aa3368015af1d78b58c400006200012b60201b60201c565b6040805160a0810182526001808252600060208301526001600160801b034216928201839052671bc16d674ec80000606083015267016345785d8a00006080909201829052600580546001600160c01b03191690911790556503782dace9d960931b909117600655600780546001600160801b03191690911790556200031c565b6001600160a01b038216620001865760405162461bcd60e51b815260206004820152601f60248201527f45524332303a206d696e7420746f20746865207a65726f206164647265737300604482015260640160405180910390fd5b80600260008282546200019a9190620002b9565b90915550506001600160a01b03821660009081526020819052604081208054839290620001c9908490620002b9565b90915550506040518181526001600160a01b038316906000907fddf252ad1be2c89b69c2b068fc378daa952ba7f163c4a11628f55a4df523b3ef9060200160405180910390a35050565b8280546200022190620002e0565b90600052602060002090601f01602090048101928262000245576000855562000290565b82601f106200026057805160ff191683800117855562000290565b8280016001018555821562000290579182015b828111156200029057825182559160200191906001019062000273565b506200029e929150620002a2565b5090565b5b808211156200029e5760008155600101620002a3565b60008219821115620002db57634e487b7160e01b600052601160045260246000fd5b500190565b600181811c90821680620002f557607f821691505b6020821081036200031657634e487b7160e01b600052602260045260246000fd5b50919050565b610baa806200032c6000396000f3fe608060405234801561001057600080fd5b506004361061012c5760003560e01c8063a694fc3a116100ad578063d29a767311610071578063d29a7673146102db578063d96a094a146102ee578063dd62ed3e14610301578063dde4fa7314610314578063e5aa3d581461031d57600080fd5b8063a694fc3a14610197578063a9059cbb14610212578063b5c0c2b614610225578063b88a802f14610235578063c34531531461023d57600080fd5b8063313ce567116100f4578063313ce567146101ac57806339509351146101bb57806370a08231146101ce57806395d89b41146101f7578063a457c2d7146101ff57600080fd5b806306fdde0314610131578063095ea7b31461014f57806318160ddd1461017257806323b872dd146101845780632e17de7814610197575b600080fd5b610139610326565b604051610146919061098a565b60405180910390f35b61016261015d3660046109fb565b6103b8565b6040519015158152602001610146565b6002545b604051908152602001610146565b610162610192366004610a25565b6103d0565b6101aa6101a5366004610a61565b6103f4565b005b60405160128152602001610146565b6101626101c93660046109fb565b61047c565b6101766101dc366004610a7a565b6001600160a01b031660009081526020819052604090205490565b61013961049e565b61016261020d3660046109fb565b6104ad565b6101626102203660046109fb565b610528565b69010f0cf064dd59200000610176565b6101aa610536565b6102c061024b366004610a7a565b6040805160a08101825260055467ffffffffffffffff811682526fffffffffffffffffffffffffffffffff680100000000000000009091048116602083015260065480821693830193909352600160801b90920482166060820181905260075490921660809091018190526009549193909250565b60408051938452602084019290925290820152606001610146565b6101aa6102e9366004610a61565b600955565b6101aa6102fc366004610a61565b61056b565b61017661030f366004610a9c565b6105f3565b61017660095481565b61017660085481565b60606003805461033590610acf565b80601f016020809104026020016040519081016040528092919081815260200182805461036190610acf565b80156103ae5780601f10610383576101008083540402835291602001916103ae565b820191906000526020600020905b81548152906001019060200180831161039157829003601f168201915b5050505050905090565b6000336103c681858561061e565b5060019392505050565b6000336103de858285610742565b6103e98585856107bc565b506001949350505050565b662386f26fc1000081116104235760405162461bcd60e51b815260040161041a90610b09565b60405180910390fd5b662386f26fc1000081106104795760405162461bcd60e51b815260206004820152601960248201527f4d65737361676520642765727265757220612070617273657200000000000000604482015260640161041a565b50565b6000336103c681858561048f83836105f3565b6104999190610b4e565b61061e565b60606004805461033590610acf565b600033816104bb82866105f3565b90508381101561051b5760405162461bcd60e51b815260206004820152602560248201527f45524332303a2064656372656173656420616c6c6f77616e63652062656c6f77604482015264207a65726f60d81b606482015260840161041a565b6103e9828686840361061e565b6000336103c68185856107bc565b6040513381527fb449c24d261a59627b537c8c41c57ab559f4205c56bea745ff61c5521bece2149060200160405180910390a1565b662386f26fc1000081116105915760405162461bcd60e51b815260040161041a90610b09565b662386f26fc1000081106104795760405162461bcd60e51b815260206004820152602360248201527f427579202c20626f6e204d65737361676520642765727265757220612070617260448201526239b2b960e91b606482015260840161041a565b6001600160a01b03918216600090815260016020908152604080832093909416825291909152205490565b6001600160a01b0383166106805760405162461bcd60e51b8152602060048201526024808201527f45524332303a20617070726f76652066726f6d20746865207a65726f206164646044820152637265737360e01b606482015260840161041a565b6001600160a01b0382166106e15760405162461bcd60e51b815260206004820152602260248201527f45524332303a20617070726f766520746f20746865207a65726f206164647265604482015261737360f01b606482015260840161041a565b6001600160a01b0383811660008181526001602090815260408083209487168084529482529182902085905590518481527f8c5be1e5ebec7d5bd14f71427d1e84f3dd0314c0f7b2291e5b200ac8c7c3b925910160405180910390a3505050565b600061074e84846105f3565b905060001981146107b657818110156107a95760405162461bcd60e51b815260206004820152601d60248201527f45524332303a20696e73756666696369656e7420616c6c6f77616e6365000000604482015260640161041a565b6107b6848484840361061e565b50505050565b6001600160a01b0383166108205760405162461bcd60e51b815260206004820152602560248201527f45524332303a207472616e736665722066726f6d20746865207a65726f206164604482015264647265737360d81b606482015260840161041a565b6001600160a01b0382166108825760405162461bcd60e51b815260206004820152602360248201527f45524332303a207472616e7366657220746f20746865207a65726f206164647260448201526265737360e81b606482015260840161041a565b6001600160a01b038316600090815260208190526040902054818110156108fa5760405162461bcd60e51b815260206004820152602660248201527f45524332303a207472616e7366657220616d6f756e7420657863656564732062604482015265616c616e636560d01b606482015260840161041a565b6001600160a01b03808516600090815260208190526040808220858503905591851681529081208054849290610931908490610b4e565b92505081905550826001600160a01b0316846001600160a01b03167fddf252ad1be2c89b69c2b068fc378daa952ba7f163c4a11628f55a4df523b3ef8460405161097d91815260200190565b60405180910390a36107b6565b600060208083528351808285015260005b818110156109b75785810183015185820160400152820161099b565b818111156109c9576000604083870101525b50601f01601f1916929092016040019392505050565b80356001600160a01b03811681146109f657600080fd5b919050565b60008060408385031215610a0e57600080fd5b610a17836109df565b946020939093013593505050565b600080600060608486031215610a3a57600080fd5b610a43846109df565b9250610a51602085016109df565b9150604084013590509250925092565b600060208284031215610a7357600080fd5b5035919050565b600060208284031215610a8c57600080fd5b610a95826109df565b9392505050565b60008060408385031215610aaf57600080fd5b610ab8836109df565b9150610ac6602084016109df565b90509250929050565b600181811c90821680610ae357607f821691505b602082108103610b0357634e487b7160e01b600052602260045260246000fd5b50919050565b60208082526025908201527f506173206e6f726d616c20646563696d616c6573206e6f6e20696d706c656d656040820152646e7465657360d81b606082015260800190565b60008219821115610b6f57634e487b7160e01b600052601160045260246000fd5b50019056fea26469706673582212208eba03bb31f597a9fcff536bf814b761851122bd557441ac53865c195d77d4fa64736f6c634300080e0033",
    "linkReferences": {}
  },
  "methodIdentifiers": {
    "allowance(address,address)": "dd62ed3e",
    "approve(address,uint256)": "095ea7b3",
    "balanceOf(address)": "70a08231",
    "buy(uint256)": "d96a094a",
    "buyIsAllowed()": "b5c0c2b6",
    "buyingSupply()": "dde4fa73",
    "claimReward()": "b88a802f",
    "decimals()": "313ce567",
    "decreaseAllowance(address,uint256)": "a457c2d7",
    "getStakeInfo(address)": "c3453153",
    "i()": "e5aa3d58",
    "increaseAllowance(address,uint256)": "39509351",
    "name()": "06fdde03",
    "setBuyingSUpply(uint256)": "d29a7673",
    "stake(uint256)": "a694fc3a",
    "symbol()": "95d89b41",
    "totalSupply()": "18160ddd",
    "transfer(address,uint256)": "a9059cbb",
    "transferFrom(address,address,uint256)": "23b872dd",
    "unstake(uint256)": "2e17de78"
  },
  "id": 17
}